{
  "contracts/CharityToken.sol": {
    "CharityToken": {
      "abi": [
        {
          "inputs": [],
          "stateMutability": "nonpayable",
          "type": "constructor"
        },
        {
          "anonymous": false,
          "inputs": [
            {
              "indexed": false,
              "internalType": "address",
              "name": "toAdd",
              "type": "address"
            }
          ],
          "name": "AddedToWhitelist",
          "type": "event"
        },
        {
          "anonymous": false,
          "inputs": [
            {
              "indexed": true,
              "internalType": "address",
              "name": "owner",
              "type": "address"
            },
            {
              "indexed": true,
              "internalType": "address",
              "name": "spender",
              "type": "address"
            },
            {
              "indexed": false,
              "internalType": "uint256",
              "name": "value",
              "type": "uint256"
            }
          ],
          "name": "Approval",
          "type": "event"
        },
        {
          "anonymous": false,
          "inputs": [
            {
              "indexed": false,
              "internalType": "address",
              "name": "whitelistedAddr",
              "type": "address"
            },
            {
              "indexed": false,
              "internalType": "uint256",
              "name": "rate",
              "type": "uint256"
            }
          ],
          "name": "DonnationAddressAndRateChanged",
          "type": "event"
        },
        {
          "anonymous": false,
          "inputs": [
            {
              "indexed": false,
              "internalType": "address",
              "name": "whitelistedAddr",
              "type": "address"
            }
          ],
          "name": "DonnationAddressChanged",
          "type": "event"
        },
        {
          "anonymous": false,
          "inputs": [
            {
              "indexed": false,
              "internalType": "address",
              "name": "whitelistedAddr",
              "type": "address"
            },
            {
              "indexed": false,
              "internalType": "uint256",
              "name": "rate",
              "type": "uint256"
            }
          ],
          "name": "ModifiedCharityRate",
          "type": "event"
        },
        {
          "anonymous": false,
          "inputs": [
            {
              "indexed": true,
              "internalType": "address",
              "name": "previousOwner",
              "type": "address"
            },
            {
              "indexed": true,
              "internalType": "address",
              "name": "newOwner",
              "type": "address"
            }
          ],
          "name": "OwnershipTransferred",
          "type": "event"
        },
        {
          "anonymous": false,
          "inputs": [
            {
              "indexed": false,
              "internalType": "address",
              "name": "toRemove",
              "type": "address"
            }
          ],
          "name": "RemovedFromWhitelist",
          "type": "event"
        },
        {
          "anonymous": false,
          "inputs": [
            {
              "indexed": true,
              "internalType": "address",
              "name": "from",
              "type": "address"
            },
            {
              "indexed": true,
              "internalType": "address",
              "name": "to",
              "type": "address"
            },
            {
              "indexed": false,
              "internalType": "uint256",
              "name": "value",
              "type": "uint256"
            }
          ],
          "name": "Transfer",
          "type": "event"
        },
        {
          "inputs": [
            {
              "internalType": "address",
              "name": "toAdd",
              "type": "address"
            }
          ],
          "name": "addToWhitelist",
          "outputs": [],
          "stateMutability": "nonpayable",
          "type": "function"
        },
        {
          "inputs": [
            {
              "internalType": "address",
              "name": "owner",
              "type": "address"
            },
            {
              "internalType": "address",
              "name": "spender",
              "type": "address"
            }
          ],
          "name": "allowance",
          "outputs": [
            {
              "internalType": "uint256",
              "name": "",
              "type": "uint256"
            }
          ],
          "stateMutability": "view",
          "type": "function"
        },
        {
          "inputs": [
            {
              "internalType": "address",
              "name": "spender",
              "type": "address"
            },
            {
              "internalType": "uint256",
              "name": "amount",
              "type": "uint256"
            }
          ],
          "name": "approve",
          "outputs": [
            {
              "internalType": "bool",
              "name": "",
              "type": "bool"
            }
          ],
          "stateMutability": "nonpayable",
          "type": "function"
        },
        {
          "inputs": [
            {
              "internalType": "address",
              "name": "account",
              "type": "address"
            }
          ],
          "name": "balanceOf",
          "outputs": [
            {
              "internalType": "uint256",
              "name": "",
              "type": "uint256"
            }
          ],
          "stateMutability": "view",
          "type": "function"
        },
        {
          "inputs": [
            {
              "internalType": "address",
              "name": "charityAddr",
              "type": "address"
            }
          ],
          "name": "charityInfo",
          "outputs": [
            {
              "internalType": "bool",
              "name": "",
              "type": "bool"
            },
            {
              "internalType": "uint256",
              "name": "rate",
              "type": "uint256"
            }
          ],
          "stateMutability": "view",
          "type": "function"
        },
        {
          "inputs": [
            {
              "internalType": "address",
              "name": "testContract",
              "type": "address"
            }
          ],
          "name": "checkInterface",
          "outputs": [
            {
              "internalType": "bool",
              "name": "",
              "type": "bool"
            }
          ],
          "stateMutability": "view",
          "type": "function"
        },
        {
          "inputs": [],
          "name": "decimals",
          "outputs": [
            {
              "internalType": "uint8",
              "name": "",
              "type": "uint8"
            }
          ],
          "stateMutability": "view",
          "type": "function"
        },
        {
          "inputs": [
            {
              "internalType": "address",
              "name": "spender",
              "type": "address"
            },
            {
              "internalType": "uint256",
              "name": "subtractedValue",
              "type": "uint256"
            }
          ],
          "name": "decreaseAllowance",
          "outputs": [
            {
              "internalType": "bool",
              "name": "",
              "type": "bool"
            }
          ],
          "stateMutability": "nonpayable",
          "type": "function"
        },
        {
          "inputs": [],
          "name": "deleteDefaultAddress",
          "outputs": [],
          "stateMutability": "nonpayable",
          "type": "function"
        },
        {
          "inputs": [
            {
              "internalType": "address",
              "name": "toRemove",
              "type": "address"
            }
          ],
          "name": "deleteFromWhitelist",
          "outputs": [],
          "stateMutability": "nonpayable",
          "type": "function"
        },
        {
          "inputs": [],
          "name": "getAllWhitelistedAddresses",
          "outputs": [
            {
              "internalType": "address[]",
              "name": "",
              "type": "address[]"
            }
          ],
          "stateMutability": "view",
          "type": "function"
        },
        {
          "inputs": [],
          "name": "getRate",
          "outputs": [
            {
              "internalType": "uint256",
              "name": "",
              "type": "uint256"
            }
          ],
          "stateMutability": "view",
          "type": "function"
        },
        {
          "inputs": [
            {
              "internalType": "address",
              "name": "spender",
              "type": "address"
            },
            {
              "internalType": "uint256",
              "name": "addedValue",
              "type": "uint256"
            }
          ],
          "name": "increaseAllowance",
          "outputs": [
            {
              "internalType": "bool",
              "name": "",
              "type": "bool"
            }
          ],
          "stateMutability": "nonpayable",
          "type": "function"
        },
        {
          "inputs": [
            {
              "internalType": "address",
              "name": "to",
              "type": "address"
            },
            {
              "internalType": "uint256",
              "name": "amount",
              "type": "uint256"
            }
          ],
          "name": "mint",
          "outputs": [],
          "stateMutability": "nonpayable",
          "type": "function"
        },
        {
          "inputs": [],
          "name": "name",
          "outputs": [
            {
              "internalType": "string",
              "name": "",
              "type": "string"
            }
          ],
          "stateMutability": "view",
          "type": "function"
        },
        {
          "inputs": [],
          "name": "owner",
          "outputs": [
            {
              "internalType": "address",
              "name": "",
              "type": "address"
            }
          ],
          "stateMutability": "view",
          "type": "function"
        },
        {
          "inputs": [],
          "name": "renounceOwnership",
          "outputs": [],
          "stateMutability": "nonpayable",
          "type": "function"
        },
        {
          "inputs": [],
          "name": "selfmint",
          "outputs": [],
          "stateMutability": "nonpayable",
          "type": "function"
        },
        {
          "inputs": [
            {
              "internalType": "address",
              "name": "whitelistedAddr",
              "type": "address"
            }
          ],
          "name": "setSpecificDefaultAddress",
          "outputs": [],
          "stateMutability": "nonpayable",
          "type": "function"
        },
        {
          "inputs": [
            {
              "internalType": "address",
              "name": "whitelistedAddr",
              "type": "address"
            },
            {
              "internalType": "uint256",
              "name": "rate",
              "type": "uint256"
            }
          ],
          "name": "setSpecificDefaultAddressAndRate",
          "outputs": [],
          "stateMutability": "nonpayable",
          "type": "function"
        },
        {
          "inputs": [
            {
              "internalType": "address",
              "name": "whitelistedAddr",
              "type": "address"
            },
            {
              "internalType": "uint256",
              "name": "rate",
              "type": "uint256"
            }
          ],
          "name": "setSpecificRate",
          "outputs": [],
          "stateMutability": "nonpayable",
          "type": "function"
        },
        {
          "inputs": [],
          "name": "specificDefaultAddress",
          "outputs": [
            {
              "internalType": "address",
              "name": "",
              "type": "address"
            }
          ],
          "stateMutability": "view",
          "type": "function"
        },
        {
          "inputs": [
            {
              "internalType": "bytes4",
              "name": "interfaceId",
              "type": "bytes4"
            }
          ],
          "name": "supportsInterface",
          "outputs": [
            {
              "internalType": "bool",
              "name": "",
              "type": "bool"
            }
          ],
          "stateMutability": "view",
          "type": "function"
        },
        {
          "inputs": [],
          "name": "symbol",
          "outputs": [
            {
              "internalType": "string",
              "name": "",
              "type": "string"
            }
          ],
          "stateMutability": "view",
          "type": "function"
        },
        {
          "inputs": [],
          "name": "totalSupply",
          "outputs": [
            {
              "internalType": "uint256",
              "name": "",
              "type": "uint256"
            }
          ],
          "stateMutability": "view",
          "type": "function"
        },
        {
          "inputs": [
            {
              "internalType": "address",
              "name": "to",
              "type": "address"
            },
            {
              "internalType": "uint256",
              "name": "amount",
              "type": "uint256"
            }
          ],
          "name": "transfer",
          "outputs": [
            {
              "internalType": "bool",
              "name": "",
              "type": "bool"
            }
          ],
          "stateMutability": "nonpayable",
          "type": "function"
        },
        {
          "inputs": [
            {
              "internalType": "address",
              "name": "from",
              "type": "address"
            },
            {
              "internalType": "address",
              "name": "to",
              "type": "address"
            },
            {
              "internalType": "uint256",
              "name": "amount",
              "type": "uint256"
            }
          ],
          "name": "transferFrom",
          "outputs": [
            {
              "internalType": "bool",
              "name": "",
              "type": "bool"
            }
          ],
          "stateMutability": "nonpayable",
          "type": "function"
        },
        {
          "inputs": [
            {
              "internalType": "address",
              "name": "newOwner",
              "type": "address"
            }
          ],
          "name": "transferOwnership",
          "outputs": [],
          "stateMutability": "nonpayable",
          "type": "function"
        },
        {
          "inputs": [
            {
              "internalType": "address",
              "name": "",
              "type": "address"
            }
          ],
          "name": "whitelistedRate",
          "outputs": [
            {
              "internalType": "uint256",
              "name": "",
              "type": "uint256"
            }
          ],
          "stateMutability": "view",
          "type": "function"
        }
      ],
      "evm": {
        "bytecode": {
          "linkReferences": {},
          "object": "60806040523480156200001157600080fd5b50604051806040016040528060098152602001682a32b9ba2a37b5b2b760b91b815250604051806040016040528060038152602001621514d560ea1b8152508160039081620000619190620002a1565b506004620000708282620002a1565b5050506200008d62000087620000ba60201b60201c565b620000be565b620000b433620000a06012600a62000482565b620000ae906127106200049a565b62000110565b620004d2565b3390565b600580546001600160a01b038381166001600160a01b0319831681179093556040519116919082907f8be0079c531659141344cd1fd0a4f28419497f9722a3daafe3b4186f6b6457e090600090a35050565b6001600160a01b0382166200016b5760405162461bcd60e51b815260206004820152601f60248201527f45524332303a206d696e7420746f20746865207a65726f206164647265737300604482015260640160405180910390fd5b80600260008282546200017f9190620004bc565b90915550506001600160a01b03821660009081526020819052604081208054839290620001ae908490620004bc565b90915550506040518181526001600160a01b038316906000907fddf252ad1be2c89b69c2b068fc378daa952ba7f163c4a11628f55a4df523b3ef9060200160405180910390a35050565b505050565b634e487b7160e01b600052604160045260246000fd5b600181811c908216806200022857607f821691505b6020821081036200024957634e487b7160e01b600052602260045260246000fd5b50919050565b601f821115620001f857600081815260208120601f850160051c81016020861015620002785750805b601f850160051c820191505b81811015620002995782815560010162000284565b505050505050565b81516001600160401b03811115620002bd57620002bd620001fd565b620002d581620002ce845462000213565b846200024f565b602080601f8311600181146200030d5760008415620002f45750858301515b600019600386901b1c1916600185901b17855562000299565b600085815260208120601f198616915b828110156200033e578886015182559484019460019091019084016200031d565b50858210156200035d5787850151600019600388901b60f8161c191681555b5050505050600190811b01905550565b634e487b7160e01b600052601160045260246000fd5b600181815b80851115620003c4578160001904821115620003a857620003a86200036d565b80851615620003b657918102915b93841c939080029062000388565b509250929050565b600082620003dd575060016200047c565b81620003ec575060006200047c565b8160018114620004055760028114620004105762000430565b60019150506200047c565b60ff8411156200042457620004246200036d565b50506001821b6200047c565b5060208310610133831016604e8410600b841016171562000455575081810a6200047c565b62000461838362000383565b80600019048211156200047857620004786200036d565b0290505b92915050565b60006200049360ff841683620003cc565b9392505050565b6000816000190483118215151615620004b757620004b76200036d565b500290565b808201808211156200047c576200047c6200036d565b611a5180620004e26000396000f3fe608060405234801561001057600080fd5b50600436106101cf5760003560e01c806384f39e1e11610104578063b56eebfb116100a2578063e43252d711610071578063e43252d714610426578063ecfb5d1714610439578063f0f4e15b1461044c578063f2fde38b1461046c57600080fd5b8063b56eebfb146103b2578063ca08ec7d146103c7578063d88b1661146103e5578063dd62ed3e146103ed57600080fd5b806395d89b41116100de57806395d89b411461035a578063991ec6f714610362578063a457c2d71461038c578063a9059cbb1461039f57600080fd5b806384f39e1e1461030f5780638da5cb5b14610322578063915dc7741461034757600080fd5b806340c10f1911610171578063679aefce1161014b578063679aefce146102a657806370a08231146102d6578063715018a6146102ff5780637c09829d1461030757600080fd5b806340c10f191461026b5780634c677803146102805780635455bce21461029357600080fd5b806318160ddd116101ad57806318160ddd1461022457806323b872dd14610236578063313ce56714610249578063395093511461025857600080fd5b806301ffc9a7146101d457806306fdde03146101fc578063095ea7b314610211575b600080fd5b6101e76101e236600461156a565b61047f565b60405190151581526020015b60405180910390f35b6102046104b6565b6040516101f39190611594565b6101e761021f3660046115fe565b610548565b6002545b6040519081526020016101f3565b6101e7610244366004611628565b6105bd565b604051601281526020016101f3565b6101e76102663660046115fe565b61065f565b61027e6102793660046115fe565b610699565b005b61027e61028e3660046115fe565b6106da565b6101e76102a1366004611664565b6107d7565b33600090815260086020908152604080832060098352818420546001600160a01b03168452909152902054610228565b6102286102e4366004611664565b6001600160a01b031660009081526020819052604090205490565b61027e610852565b61027e610888565b61027e61031d3660046115fe565b6108d9565b6005546001600160a01b03165b6040516001600160a01b0390911681526020016101f3565b61027e610355366004611664565b610a55565b610204610b4f565b610375610370366004611664565b610b5e565b6040805192151583526020830191909152016101f3565b6101e761039a3660046115fe565b610b8f565b6101e76103ad3660046115fe565b610c21565b6103ba610c9c565b6040516101f3919061167f565b336000908152600960205260409020546001600160a01b031661032f565b61027e610cfd565b6102286103fb3660046116cc565b6001600160a01b03918216600090815260016020908152604080832093909416825291909152205490565b61027e610434366004611664565b610d1d565b61027e610447366004611664565b610e08565b61022861045a366004611664565b60066020526000908152604090205481565b61027e61047a366004611664565b610faa565b60006001600160e01b0319821663aceb828b60e01b14806104b057506001600160e01b031982166301ffc9a760e01b145b92915050565b6060600380546104c5906116ff565b80601f01602080910402602001604051908101604052809291908181526020018280546104f1906116ff565b801561053e5780601f106105135761010080835404028352916020019161053e565b820191906000526020600020905b81548152906001019060200180831161052157829003601f168201915b5050505050905090565b600033610556818585611045565b336000908152600960205260409020546001600160a01b0316156105b357600061057f33611169565b905060006127106105908387611749565b61059a9190611768565b90506105b083876105ab888561178a565b611045565b50505b5060019392505050565b6000336105cb8582856111d9565b6001600160a01b038581166000908152600960205260409020541615610649576001600160a01b038086166000908152600960205260408120549091169061061287611169565b905060006127106106238388611749565b61062d9190611768565b905061063a8885836111d9565b61064588848361126b565b5050505b61065485858561126b565b506001949350505050565b3360008181526001602090815260408083206001600160a01b03871684529091528120549091906105b390829086906105ab90879061178a565b6005546001600160a01b031633146106cc5760405162461bcd60e51b81526004016106c39061179d565b60405180910390fd5b6106d68282611439565b5050565b6005546001600160a01b031633146107045760405162461bcd60e51b81526004016106c39061179d565b6127108111156107265760405162461bcd60e51b81526004016106c3906117d2565b600a8110156107475760405162461bcd60e51b81526004016106c39061182f565b6001600160a01b038216600090815260066020526040812054900361077e5760405162461bcd60e51b81526004016106c39061187e565b6001600160a01b038216600081815260066020908152604091829020849055815192835282018390527f272200c8484b4881d4bf8552d6783858e314cf8fc05461d9f87fded68327e66a91015b60405180910390a15050565b6040516301ffc9a760e01b815263aceb828b60e01b600482015260009081906001600160a01b038416906301ffc9a790602401602060405180830381865afa158015610827573d6000803e3d6000fd5b505050506040513d601f19601f8201168201806040525081019061084b91906118c7565b9392505050565b6005546001600160a01b0316331461087c5760405162461bcd60e51b81526004016106c39061179d565b6108866000611518565b565b33600090815260096020908152604080832080546001600160a01b0319169055519182527f6d4c462cdec505a621711d5ca414bc431f78e79746ca66270e7aa87947b59ab3910160405180910390a1565b6127108111156108fb5760405162461bcd60e51b81526004016106c3906117d2565b600a81101561091c5760405162461bcd60e51b81526004016106c39061182f565b6001600160a01b0382166000908152600660205260409020548110156109aa5760405162461bcd60e51b815260206004820152603b60248201527f4552433230436861726974793a207261746520666565206d757374206578636560448201527f656420746865206665652073657420627920746865206f776e6572000000000060648201526084016106c3565b6001600160a01b03821660009081526006602052604081205490036109e15760405162461bcd60e51b81526004016106c39061187e565b33600090815260096020908152604080832080546001600160a01b0319166001600160a01b0387169081179091556008835281842081855283529281902084905580519283529082018390527f21470041ef9ff574315005b52c90c0f22b3499a708aee20330f95853e2583b6991016107cb565b6001600160a01b0381166000908152600660205260408120549003610acb5760405162461bcd60e51b815260206004820152602660248201527f4552433230436861726974793a20696e76616c69642077686974656c6973746560448201526564207261746560d01b60648201526084016106c3565b33600081815260096020908152604080832080546001600160a01b0319166001600160a01b0387169081179091558084526006835281842054948452600883528184208185528352928190209390935591519081527f6d4c462cdec505a621711d5ca414bc431f78e79746ca66270e7aa87947b59ab391015b60405180910390a150565b6060600480546104c5906116ff565b6001600160a01b0381166000908152600660205260408120548015610b865760019150915091565b60009150915091565b3360008181526001602090815260408083206001600160a01b038716845290915281205490919083811015610c145760405162461bcd60e51b815260206004820152602560248201527f45524332303a2064656372656173656420616c6c6f77616e63652062656c6f77604482015264207a65726f60d81b60648201526084016106c3565b6106548286868403611045565b336000818152600960205260408120549091906001600160a01b031615610c9157336000818152600960205260408120546001600160a01b031691610c6590611169565b90506000612710610c768388611749565b610c809190611768565b9050610c8d84848361126b565b5050505b6105b381858561126b565b6060600a80548060200260200160405190810160405280929190818152602001828054801561053e57602002820191906000526020600020905b81546001600160a01b03168152600190910190602001808311610cd6575050505050905090565b61088633610d0d6012600a6119cd565b610d18906064611749565b611439565b6005546001600160a01b03163314610d475760405162461bcd60e51b81526004016106c39061179d565b6001600160a01b0381166000908152600760205260408120549003610dcf576001600160a01b0381166000818152600660209081526040808320600a9081905580546001810182557fc65a7bb8d6351c1cf70c95a316cc6a92839c986682d98bc35f958f4883f9d2a80180546001600160a01b03191690951790945592546007909152919020555b6040516001600160a01b03821681527fa850ae9193f515cbae8d35e8925bd2be26627fc91bce650b8652ed254e9cab0390602001610b44565b6005546001600160a01b03163314610e325760405162461bcd60e51b81526004016106c39061179d565b6001600160a01b03811660009081526007602052604090205480610e885760405162461bcd60e51b815260206004820152600d60248201526c092dcecc2d8d2c840d2dcc8caf609b1b60448201526064016106c3565b600a805460009190610e9c906001906119dc565b81548110610eac57610eac6119ef565b6000918252602090912001546001600160a01b0316905080600a610ed16001856119dc565b81548110610ee157610ee16119ef565b600091825260208083209190910180546001600160a01b0319166001600160a01b039485161790559183168152600790915260409020829055600a805480610f2b57610f2b611a05565b60008281526020808220600019908401810180546001600160a01b03191690559092019092556001600160a01b038516808352600782526040808420849055600683528084209390935591519182527fcdd2e9b91a56913d370075169cefa1602ba36be5301664f752192bb1709df757910160405180910390a1505050565b6005546001600160a01b03163314610fd45760405162461bcd60e51b81526004016106c39061179d565b6001600160a01b0381166110395760405162461bcd60e51b815260206004820152602660248201527f4f776e61626c653a206e6577206f776e657220697320746865207a65726f206160448201526564647265737360d01b60648201526084016106c3565b61104281611518565b50565b6001600160a01b0383166110a75760405162461bcd60e51b8152602060048201526024808201527f45524332303a20617070726f76652066726f6d20746865207a65726f206164646044820152637265737360e01b60648201526084016106c3565b6001600160a01b0382166111085760405162461bcd60e51b815260206004820152602260248201527f45524332303a20617070726f766520746f20746865207a65726f206164647265604482015261737360f01b60648201526084016106c3565b6001600160a01b0383811660008181526001602090815260408083209487168084529482529182902085905590518481527f8c5be1e5ebec7d5bd14f71427d1e84f3dd0314c0f7b2291e5b200ac8c7c3b925910160405180910390a3505050565b6001600160a01b038082166000908152600960209081526040808320546008835281842094168084529382528083205460069092529091205490919015806111c957506001600160a01b0383811660009081526009602052604090205416155b156111d357600091505b50919050565b6001600160a01b03838116600090815260016020908152604080832093861683529290522054600019811461126557818110156112585760405162461bcd60e51b815260206004820152601d60248201527f45524332303a20696e73756666696369656e7420616c6c6f77616e636500000060448201526064016106c3565b6112658484848403611045565b50505050565b6001600160a01b0383166112cf5760405162461bcd60e51b815260206004820152602560248201527f45524332303a207472616e736665722066726f6d20746865207a65726f206164604482015264647265737360d81b60648201526084016106c3565b6001600160a01b0382166113315760405162461bcd60e51b815260206004820152602360248201527f45524332303a207472616e7366657220746f20746865207a65726f206164647260448201526265737360e81b60648201526084016106c3565b6001600160a01b038316600090815260208190526040902054818110156113a95760405162461bcd60e51b815260206004820152602660248201527f45524332303a207472616e7366657220616d6f756e7420657863656564732062604482015265616c616e636560d01b60648201526084016106c3565b6001600160a01b038085166000908152602081905260408082208585039055918516815290812080548492906113e090849061178a565b92505081905550826001600160a01b0316846001600160a01b03167fddf252ad1be2c89b69c2b068fc378daa952ba7f163c4a11628f55a4df523b3ef8460405161142c91815260200190565b60405180910390a3611265565b6001600160a01b03821661148f5760405162461bcd60e51b815260206004820152601f60248201527f45524332303a206d696e7420746f20746865207a65726f20616464726573730060448201526064016106c3565b80600260008282546114a1919061178a565b90915550506001600160a01b038216600090815260208190526040812080548392906114ce90849061178a565b90915550506040518181526001600160a01b038316906000907fddf252ad1be2c89b69c2b068fc378daa952ba7f163c4a11628f55a4df523b3ef9060200160405180910390a35050565b600580546001600160a01b038381166001600160a01b0319831681179093556040519116919082907f8be0079c531659141344cd1fd0a4f28419497f9722a3daafe3b4186f6b6457e090600090a35050565b60006020828403121561157c57600080fd5b81356001600160e01b03198116811461084b57600080fd5b600060208083528351808285015260005b818110156115c1578581018301518582016040015282016115a5565b506000604082860101526040601f19601f8301168501019250505092915050565b80356001600160a01b03811681146115f957600080fd5b919050565b6000806040838503121561161157600080fd5b61161a836115e2565b946020939093013593505050565b60008060006060848603121561163d57600080fd5b611646846115e2565b9250611654602085016115e2565b9150604084013590509250925092565b60006020828403121561167657600080fd5b61084b826115e2565b6020808252825182820181905260009190848201906040850190845b818110156116c05783516001600160a01b03168352928401929184019160010161169b565b50909695505050505050565b600080604083850312156116df57600080fd5b6116e8836115e2565b91506116f6602084016115e2565b90509250929050565b600181811c9082168061171357607f821691505b6020821081036111d357634e487b7160e01b600052602260045260246000fd5b634e487b7160e01b600052601160045260246000fd5b600081600019048311821515161561176357611763611733565b500290565b60008261178557634e487b7160e01b600052601260045260246000fd5b500490565b808201808211156104b0576104b0611733565b6020808252818101527f4f776e61626c653a2063616c6c6572206973206e6f7420746865206f776e6572604082015260600190565b60208082526038908201527f4552433230436861726974793a2072617465206d75737420626520626574776560408201527f656e203020616e64205f66656544656e6f6d696e61746f720000000000000000606082015260800190565b6020808252602f908201527f4552433230436861726974793a207261746520666565206d757374206578636560408201526e65642064656661756c74207261746560881b606082015260800190565b60208082526029908201527f4552433230436861726974793a20696e76616c69642077686974656c6973746560408201526864206164647265737360b81b606082015260800190565b6000602082840312156118d957600080fd5b8151801515811461084b57600080fd5b600181815b8085111561192457816000190482111561190a5761190a611733565b8085161561191757918102915b93841c93908002906118ee565b509250929050565b60008261193b575060016104b0565b81611948575060006104b0565b816001811461195e576002811461196857611984565b60019150506104b0565b60ff84111561197957611979611733565b50506001821b6104b0565b5060208310610133831016604e8410600b84101617156119a7575081810a6104b0565b6119b183836118e9565b80600019048211156119c5576119c5611733565b029392505050565b600061084b60ff84168361192c565b818103818111156104b0576104b0611733565b634e487b7160e01b600052603260045260246000fd5b634e487b7160e01b600052603160045260246000fdfea26469706673582212206e3c6f7e06f1f953865e46e8cc7170caf3c449024458e24697e978f02314538b64736f6c63430008100033",
          "opcodes": "PUSH1 0x80 PUSH1 0x40 MSTORE CALLVALUE DUP1 ISZERO PUSH3 0x11 JUMPI PUSH1 0x0 DUP1 REVERT JUMPDEST POP PUSH1 0x40 MLOAD DUP1 PUSH1 0x40 ADD PUSH1 0x40 MSTORE DUP1 PUSH1 0x9 DUP2 MSTORE PUSH1 0x20 ADD PUSH9 0x2A32B9BA2A37B5B2B7 PUSH1 0xB9 SHL DUP2 MSTORE POP PUSH1 0x40 MLOAD DUP1 PUSH1 0x40 ADD PUSH1 0x40 MSTORE DUP1 PUSH1 0x3 DUP2 MSTORE PUSH1 0x20 ADD PUSH3 0x1514D5 PUSH1 0xEA SHL DUP2 MSTORE POP DUP2 PUSH1 0x3 SWAP1 DUP2 PUSH3 0x61 SWAP2 SWAP1 PUSH3 0x2A1 JUMP JUMPDEST POP PUSH1 0x4 PUSH3 0x70 DUP3 DUP3 PUSH3 0x2A1 JUMP JUMPDEST POP POP POP PUSH3 0x8D PUSH3 0x87 PUSH3 0xBA PUSH1 0x20 SHL PUSH1 0x20 SHR JUMP JUMPDEST PUSH3 0xBE JUMP JUMPDEST PUSH3 0xB4 CALLER PUSH3 0xA0 PUSH1 0x12 PUSH1 0xA PUSH3 0x482 JUMP JUMPDEST PUSH3 0xAE SWAP1 PUSH2 0x2710 PUSH3 0x49A JUMP JUMPDEST PUSH3 0x110 JUMP JUMPDEST PUSH3 0x4D2 JUMP JUMPDEST CALLER SWAP1 JUMP JUMPDEST PUSH1 0x5 DUP1 SLOAD PUSH1 0x1 PUSH1 0x1 PUSH1 0xA0 SHL SUB DUP4 DUP2 AND PUSH1 0x1 PUSH1 0x1 PUSH1 0xA0 SHL SUB NOT DUP4 AND DUP2 OR SWAP1 SWAP4 SSTORE PUSH1 0x40 MLOAD SWAP2 AND SWAP2 SWAP1 DUP3 SWAP1 PUSH32 0x8BE0079C531659141344CD1FD0A4F28419497F9722A3DAAFE3B4186F6B6457E0 SWAP1 PUSH1 0x0 SWAP1 LOG3 POP POP JUMP JUMPDEST PUSH1 0x1 PUSH1 0x1 PUSH1 0xA0 SHL SUB DUP3 AND PUSH3 0x16B JUMPI PUSH1 0x40 MLOAD PUSH3 0x461BCD PUSH1 0xE5 SHL DUP2 MSTORE PUSH1 0x20 PUSH1 0x4 DUP3 ADD MSTORE PUSH1 0x1F PUSH1 0x24 DUP3 ADD MSTORE PUSH32 0x45524332303A206D696E7420746F20746865207A65726F206164647265737300 PUSH1 0x44 DUP3 ADD MSTORE PUSH1 0x64 ADD PUSH1 0x40 MLOAD DUP1 SWAP2 SUB SWAP1 REVERT JUMPDEST DUP1 PUSH1 0x2 PUSH1 0x0 DUP3 DUP3 SLOAD PUSH3 0x17F SWAP2 SWAP1 PUSH3 0x4BC JUMP JUMPDEST SWAP1 SWAP2 SSTORE POP POP PUSH1 0x1 PUSH1 0x1 PUSH1 0xA0 SHL SUB DUP3 AND PUSH1 0x0 SWAP1 DUP2 MSTORE PUSH1 0x20 DUP2 SWAP1 MSTORE PUSH1 0x40 DUP2 KECCAK256 DUP1 SLOAD DUP4 SWAP3 SWAP1 PUSH3 0x1AE SWAP1 DUP5 SWAP1 PUSH3 0x4BC JUMP JUMPDEST SWAP1 SWAP2 SSTORE POP POP PUSH1 0x40 MLOAD DUP2 DUP2 MSTORE PUSH1 0x1 PUSH1 0x1 PUSH1 0xA0 SHL SUB DUP4 AND SWAP1 PUSH1 0x0 SWAP1 PUSH32 0xDDF252AD1BE2C89B69C2B068FC378DAA952BA7F163C4A11628F55A4DF523B3EF SWAP1 PUSH1 0x20 ADD PUSH1 0x40 MLOAD DUP1 SWAP2 SUB SWAP1 LOG3 POP POP JUMP JUMPDEST POP POP POP JUMP JUMPDEST PUSH4 0x4E487B71 PUSH1 0xE0 SHL PUSH1 0x0 MSTORE PUSH1 0x41 PUSH1 0x4 MSTORE PUSH1 0x24 PUSH1 0x0 REVERT JUMPDEST PUSH1 0x1 DUP2 DUP2 SHR SWAP1 DUP3 AND DUP1 PUSH3 0x228 JUMPI PUSH1 0x7F DUP3 AND SWAP2 POP JUMPDEST PUSH1 0x20 DUP3 LT DUP2 SUB PUSH3 0x249 JUMPI PUSH4 0x4E487B71 PUSH1 0xE0 SHL PUSH1 0x0 MSTORE PUSH1 0x22 PUSH1 0x4 MSTORE PUSH1 0x24 PUSH1 0x0 REVERT JUMPDEST POP SWAP2 SWAP1 POP JUMP JUMPDEST PUSH1 0x1F DUP3 GT ISZERO PUSH3 0x1F8 JUMPI PUSH1 0x0 DUP2 DUP2 MSTORE PUSH1 0x20 DUP2 KECCAK256 PUSH1 0x1F DUP6 ADD PUSH1 0x5 SHR DUP2 ADD PUSH1 0x20 DUP7 LT ISZERO PUSH3 0x278 JUMPI POP DUP1 JUMPDEST PUSH1 0x1F DUP6 ADD PUSH1 0x5 SHR DUP3 ADD SWAP2 POP JUMPDEST DUP2 DUP2 LT ISZERO PUSH3 0x299 JUMPI DUP3 DUP2 SSTORE PUSH1 0x1 ADD PUSH3 0x284 JUMP JUMPDEST POP POP POP POP POP POP JUMP JUMPDEST DUP2 MLOAD PUSH1 0x1 PUSH1 0x1 PUSH1 0x40 SHL SUB DUP2 GT ISZERO PUSH3 0x2BD JUMPI PUSH3 0x2BD PUSH3 0x1FD JUMP JUMPDEST PUSH3 0x2D5 DUP2 PUSH3 0x2CE DUP5 SLOAD PUSH3 0x213 JUMP JUMPDEST DUP5 PUSH3 0x24F JUMP JUMPDEST PUSH1 0x20 DUP1 PUSH1 0x1F DUP4 GT PUSH1 0x1 DUP2 EQ PUSH3 0x30D JUMPI PUSH1 0x0 DUP5 ISZERO PUSH3 0x2F4 JUMPI POP DUP6 DUP4 ADD MLOAD JUMPDEST PUSH1 0x0 NOT PUSH1 0x3 DUP7 SWAP1 SHL SHR NOT AND PUSH1 0x1 DUP6 SWAP1 SHL OR DUP6 SSTORE PUSH3 0x299 JUMP JUMPDEST PUSH1 0x0 DUP6 DUP2 MSTORE PUSH1 0x20 DUP2 KECCAK256 PUSH1 0x1F NOT DUP7 AND SWAP2 JUMPDEST DUP3 DUP2 LT ISZERO PUSH3 0x33E JUMPI DUP9 DUP7 ADD MLOAD DUP3 SSTORE SWAP5 DUP5 ADD SWAP5 PUSH1 0x1 SWAP1 SWAP2 ADD SWAP1 DUP5 ADD PUSH3 0x31D JUMP JUMPDEST POP DUP6 DUP3 LT ISZERO PUSH3 0x35D JUMPI DUP8 DUP6 ADD MLOAD PUSH1 0x0 NOT PUSH1 0x3 DUP9 SWAP1 SHL PUSH1 0xF8 AND SHR NOT AND DUP2 SSTORE JUMPDEST POP POP POP POP POP PUSH1 0x1 SWAP1 DUP2 SHL ADD SWAP1 SSTORE POP JUMP JUMPDEST PUSH4 0x4E487B71 PUSH1 0xE0 SHL PUSH1 0x0 MSTORE PUSH1 0x11 PUSH1 0x4 MSTORE PUSH1 0x24 PUSH1 0x0 REVERT JUMPDEST PUSH1 0x1 DUP2 DUP2 JUMPDEST DUP1 DUP6 GT ISZERO PUSH3 0x3C4 JUMPI DUP2 PUSH1 0x0 NOT DIV DUP3 GT ISZERO PUSH3 0x3A8 JUMPI PUSH3 0x3A8 PUSH3 0x36D JUMP JUMPDEST DUP1 DUP6 AND ISZERO PUSH3 0x3B6 JUMPI SWAP2 DUP2 MUL SWAP2 JUMPDEST SWAP4 DUP5 SHR SWAP4 SWAP1 DUP1 MUL SWAP1 PUSH3 0x388 JUMP JUMPDEST POP SWAP3 POP SWAP3 SWAP1 POP JUMP JUMPDEST PUSH1 0x0 DUP3 PUSH3 0x3DD JUMPI POP PUSH1 0x1 PUSH3 0x47C JUMP JUMPDEST DUP2 PUSH3 0x3EC JUMPI POP PUSH1 0x0 PUSH3 0x47C JUMP JUMPDEST DUP2 PUSH1 0x1 DUP2 EQ PUSH3 0x405 JUMPI PUSH1 0x2 DUP2 EQ PUSH3 0x410 JUMPI PUSH3 0x430 JUMP JUMPDEST PUSH1 0x1 SWAP2 POP POP PUSH3 0x47C JUMP JUMPDEST PUSH1 0xFF DUP5 GT ISZERO PUSH3 0x424 JUMPI PUSH3 0x424 PUSH3 0x36D JUMP JUMPDEST POP POP PUSH1 0x1 DUP3 SHL PUSH3 0x47C JUMP JUMPDEST POP PUSH1 0x20 DUP4 LT PUSH2 0x133 DUP4 LT AND PUSH1 0x4E DUP5 LT PUSH1 0xB DUP5 LT AND OR ISZERO PUSH3 0x455 JUMPI POP DUP2 DUP2 EXP PUSH3 0x47C JUMP JUMPDEST PUSH3 0x461 DUP4 DUP4 PUSH3 0x383 JUMP JUMPDEST DUP1 PUSH1 0x0 NOT DIV DUP3 GT ISZERO PUSH3 0x478 JUMPI PUSH3 0x478 PUSH3 0x36D JUMP JUMPDEST MUL SWAP1 POP JUMPDEST SWAP3 SWAP2 POP POP JUMP JUMPDEST PUSH1 0x0 PUSH3 0x493 PUSH1 0xFF DUP5 AND DUP4 PUSH3 0x3CC JUMP JUMPDEST SWAP4 SWAP3 POP POP POP JUMP JUMPDEST PUSH1 0x0 DUP2 PUSH1 0x0 NOT DIV DUP4 GT DUP3 ISZERO ISZERO AND ISZERO PUSH3 0x4B7 JUMPI PUSH3 0x4B7 PUSH3 0x36D JUMP JUMPDEST POP MUL SWAP1 JUMP JUMPDEST DUP1 DUP3 ADD DUP1 DUP3 GT ISZERO PUSH3 0x47C JUMPI PUSH3 0x47C PUSH3 0x36D JUMP JUMPDEST PUSH2 0x1A51 DUP1 PUSH3 0x4E2 PUSH1 0x0 CODECOPY PUSH1 0x0 RETURN INVALID PUSH1 0x80 PUSH1 0x40 MSTORE CALLVALUE DUP1 ISZERO PUSH2 0x10 JUMPI PUSH1 0x0 DUP1 REVERT JUMPDEST POP PUSH1 0x4 CALLDATASIZE LT PUSH2 0x1CF JUMPI PUSH1 0x0 CALLDATALOAD PUSH1 0xE0 SHR DUP1 PUSH4 0x84F39E1E GT PUSH2 0x104 JUMPI DUP1 PUSH4 0xB56EEBFB GT PUSH2 0xA2 JUMPI DUP1 PUSH4 0xE43252D7 GT PUSH2 0x71 JUMPI DUP1 PUSH4 0xE43252D7 EQ PUSH2 0x426 JUMPI DUP1 PUSH4 0xECFB5D17 EQ PUSH2 0x439 JUMPI DUP1 PUSH4 0xF0F4E15B EQ PUSH2 0x44C JUMPI DUP1 PUSH4 0xF2FDE38B EQ PUSH2 0x46C JUMPI PUSH1 0x0 DUP1 REVERT JUMPDEST DUP1 PUSH4 0xB56EEBFB EQ PUSH2 0x3B2 JUMPI DUP1 PUSH4 0xCA08EC7D EQ PUSH2 0x3C7 JUMPI DUP1 PUSH4 0xD88B1661 EQ PUSH2 0x3E5 JUMPI DUP1 PUSH4 0xDD62ED3E EQ PUSH2 0x3ED JUMPI PUSH1 0x0 DUP1 REVERT JUMPDEST DUP1 PUSH4 0x95D89B41 GT PUSH2 0xDE JUMPI DUP1 PUSH4 0x95D89B41 EQ PUSH2 0x35A JUMPI DUP1 PUSH4 0x991EC6F7 EQ PUSH2 0x362 JUMPI DUP1 PUSH4 0xA457C2D7 EQ PUSH2 0x38C JUMPI DUP1 PUSH4 0xA9059CBB EQ PUSH2 0x39F JUMPI PUSH1 0x0 DUP1 REVERT JUMPDEST DUP1 PUSH4 0x84F39E1E EQ PUSH2 0x30F JUMPI DUP1 PUSH4 0x8DA5CB5B EQ PUSH2 0x322 JUMPI DUP1 PUSH4 0x915DC774 EQ PUSH2 0x347 JUMPI PUSH1 0x0 DUP1 REVERT JUMPDEST DUP1 PUSH4 0x40C10F19 GT PUSH2 0x171 JUMPI DUP1 PUSH4 0x679AEFCE GT PUSH2 0x14B JUMPI DUP1 PUSH4 0x679AEFCE EQ PUSH2 0x2A6 JUMPI DUP1 PUSH4 0x70A08231 EQ PUSH2 0x2D6 JUMPI DUP1 PUSH4 0x715018A6 EQ PUSH2 0x2FF JUMPI DUP1 PUSH4 0x7C09829D EQ PUSH2 0x307 JUMPI PUSH1 0x0 DUP1 REVERT JUMPDEST DUP1 PUSH4 0x40C10F19 EQ PUSH2 0x26B JUMPI DUP1 PUSH4 0x4C677803 EQ PUSH2 0x280 JUMPI DUP1 PUSH4 0x5455BCE2 EQ PUSH2 0x293 JUMPI PUSH1 0x0 DUP1 REVERT JUMPDEST DUP1 PUSH4 0x18160DDD GT PUSH2 0x1AD JUMPI DUP1 PUSH4 0x18160DDD EQ PUSH2 0x224 JUMPI DUP1 PUSH4 0x23B872DD EQ PUSH2 0x236 JUMPI DUP1 PUSH4 0x313CE567 EQ PUSH2 0x249 JUMPI DUP1 PUSH4 0x39509351 EQ PUSH2 0x258 JUMPI PUSH1 0x0 DUP1 REVERT JUMPDEST DUP1 PUSH4 0x1FFC9A7 EQ PUSH2 0x1D4 JUMPI DUP1 PUSH4 0x6FDDE03 EQ PUSH2 0x1FC JUMPI DUP1 PUSH4 0x95EA7B3 EQ PUSH2 0x211 JUMPI JUMPDEST PUSH1 0x0 DUP1 REVERT JUMPDEST PUSH2 0x1E7 PUSH2 0x1E2 CALLDATASIZE PUSH1 0x4 PUSH2 0x156A JUMP JUMPDEST PUSH2 0x47F JUMP JUMPDEST PUSH1 0x40 MLOAD SWAP1 ISZERO ISZERO DUP2 MSTORE PUSH1 0x20 ADD JUMPDEST PUSH1 0x40 MLOAD DUP1 SWAP2 SUB SWAP1 RETURN JUMPDEST PUSH2 0x204 PUSH2 0x4B6 JUMP JUMPDEST PUSH1 0x40 MLOAD PUSH2 0x1F3 SWAP2 SWAP1 PUSH2 0x1594 JUMP JUMPDEST PUSH2 0x1E7 PUSH2 0x21F CALLDATASIZE PUSH1 0x4 PUSH2 0x15FE JUMP JUMPDEST PUSH2 0x548 JUMP JUMPDEST PUSH1 0x2 SLOAD JUMPDEST PUSH1 0x40 MLOAD SWAP1 DUP2 MSTORE PUSH1 0x20 ADD PUSH2 0x1F3 JUMP JUMPDEST PUSH2 0x1E7 PUSH2 0x244 CALLDATASIZE PUSH1 0x4 PUSH2 0x1628 JUMP JUMPDEST PUSH2 0x5BD JUMP JUMPDEST PUSH1 0x40 MLOAD PUSH1 0x12 DUP2 MSTORE PUSH1 0x20 ADD PUSH2 0x1F3 JUMP JUMPDEST PUSH2 0x1E7 PUSH2 0x266 CALLDATASIZE PUSH1 0x4 PUSH2 0x15FE JUMP JUMPDEST PUSH2 0x65F JUMP JUMPDEST PUSH2 0x27E PUSH2 0x279 CALLDATASIZE PUSH1 0x4 PUSH2 0x15FE JUMP JUMPDEST PUSH2 0x699 JUMP JUMPDEST STOP JUMPDEST PUSH2 0x27E PUSH2 0x28E CALLDATASIZE PUSH1 0x4 PUSH2 0x15FE JUMP JUMPDEST PUSH2 0x6DA JUMP JUMPDEST PUSH2 0x1E7 PUSH2 0x2A1 CALLDATASIZE PUSH1 0x4 PUSH2 0x1664 JUMP JUMPDEST PUSH2 0x7D7 JUMP JUMPDEST CALLER PUSH1 0x0 SWAP1 DUP2 MSTORE PUSH1 0x8 PUSH1 0x20 SWAP1 DUP2 MSTORE PUSH1 0x40 DUP1 DUP4 KECCAK256 PUSH1 0x9 DUP4 MSTORE DUP2 DUP5 KECCAK256 SLOAD PUSH1 0x1 PUSH1 0x1 PUSH1 0xA0 SHL SUB AND DUP5 MSTORE SWAP1 SWAP2 MSTORE SWAP1 KECCAK256 SLOAD PUSH2 0x228 JUMP JUMPDEST PUSH2 0x228 PUSH2 0x2E4 CALLDATASIZE PUSH1 0x4 PUSH2 0x1664 JUMP JUMPDEST PUSH1 0x1 PUSH1 0x1 PUSH1 0xA0 SHL SUB AND PUSH1 0x0 SWAP1 DUP2 MSTORE PUSH1 0x20 DUP2 SWAP1 MSTORE PUSH1 0x40 SWAP1 KECCAK256 SLOAD SWAP1 JUMP JUMPDEST PUSH2 0x27E PUSH2 0x852 JUMP JUMPDEST PUSH2 0x27E PUSH2 0x888 JUMP JUMPDEST PUSH2 0x27E PUSH2 0x31D CALLDATASIZE PUSH1 0x4 PUSH2 0x15FE JUMP JUMPDEST PUSH2 0x8D9 JUMP JUMPDEST PUSH1 0x5 SLOAD PUSH1 0x1 PUSH1 0x1 PUSH1 0xA0 SHL SUB AND JUMPDEST PUSH1 0x40 MLOAD PUSH1 0x1 PUSH1 0x1 PUSH1 0xA0 SHL SUB SWAP1 SWAP2 AND DUP2 MSTORE PUSH1 0x20 ADD PUSH2 0x1F3 JUMP JUMPDEST PUSH2 0x27E PUSH2 0x355 CALLDATASIZE PUSH1 0x4 PUSH2 0x1664 JUMP JUMPDEST PUSH2 0xA55 JUMP JUMPDEST PUSH2 0x204 PUSH2 0xB4F JUMP JUMPDEST PUSH2 0x375 PUSH2 0x370 CALLDATASIZE PUSH1 0x4 PUSH2 0x1664 JUMP JUMPDEST PUSH2 0xB5E JUMP JUMPDEST PUSH1 0x40 DUP1 MLOAD SWAP3 ISZERO ISZERO DUP4 MSTORE PUSH1 0x20 DUP4 ADD SWAP2 SWAP1 SWAP2 MSTORE ADD PUSH2 0x1F3 JUMP JUMPDEST PUSH2 0x1E7 PUSH2 0x39A CALLDATASIZE PUSH1 0x4 PUSH2 0x15FE JUMP JUMPDEST PUSH2 0xB8F JUMP JUMPDEST PUSH2 0x1E7 PUSH2 0x3AD CALLDATASIZE PUSH1 0x4 PUSH2 0x15FE JUMP JUMPDEST PUSH2 0xC21 JUMP JUMPDEST PUSH2 0x3BA PUSH2 0xC9C JUMP JUMPDEST PUSH1 0x40 MLOAD PUSH2 0x1F3 SWAP2 SWAP1 PUSH2 0x167F JUMP JUMPDEST CALLER PUSH1 0x0 SWAP1 DUP2 MSTORE PUSH1 0x9 PUSH1 0x20 MSTORE PUSH1 0x40 SWAP1 KECCAK256 SLOAD PUSH1 0x1 PUSH1 0x1 PUSH1 0xA0 SHL SUB AND PUSH2 0x32F JUMP JUMPDEST PUSH2 0x27E PUSH2 0xCFD JUMP JUMPDEST PUSH2 0x228 PUSH2 0x3FB CALLDATASIZE PUSH1 0x4 PUSH2 0x16CC JUMP JUMPDEST PUSH1 0x1 PUSH1 0x1 PUSH1 0xA0 SHL SUB SWAP2 DUP3 AND PUSH1 0x0 SWAP1 DUP2 MSTORE PUSH1 0x1 PUSH1 0x20 SWAP1 DUP2 MSTORE PUSH1 0x40 DUP1 DUP4 KECCAK256 SWAP4 SWAP1 SWAP5 AND DUP3 MSTORE SWAP2 SWAP1 SWAP2 MSTORE KECCAK256 SLOAD SWAP1 JUMP JUMPDEST PUSH2 0x27E PUSH2 0x434 CALLDATASIZE PUSH1 0x4 PUSH2 0x1664 JUMP JUMPDEST PUSH2 0xD1D JUMP JUMPDEST PUSH2 0x27E PUSH2 0x447 CALLDATASIZE PUSH1 0x4 PUSH2 0x1664 JUMP JUMPDEST PUSH2 0xE08 JUMP JUMPDEST PUSH2 0x228 PUSH2 0x45A CALLDATASIZE PUSH1 0x4 PUSH2 0x1664 JUMP JUMPDEST PUSH1 0x6 PUSH1 0x20 MSTORE PUSH1 0x0 SWAP1 DUP2 MSTORE PUSH1 0x40 SWAP1 KECCAK256 SLOAD DUP2 JUMP JUMPDEST PUSH2 0x27E PUSH2 0x47A CALLDATASIZE PUSH1 0x4 PUSH2 0x1664 JUMP JUMPDEST PUSH2 0xFAA JUMP JUMPDEST PUSH1 0x0 PUSH1 0x1 PUSH1 0x1 PUSH1 0xE0 SHL SUB NOT DUP3 AND PUSH4 0xACEB828B PUSH1 0xE0 SHL EQ DUP1 PUSH2 0x4B0 JUMPI POP PUSH1 0x1 PUSH1 0x1 PUSH1 0xE0 SHL SUB NOT DUP3 AND PUSH4 0x1FFC9A7 PUSH1 0xE0 SHL EQ JUMPDEST SWAP3 SWAP2 POP POP JUMP JUMPDEST PUSH1 0x60 PUSH1 0x3 DUP1 SLOAD PUSH2 0x4C5 SWAP1 PUSH2 0x16FF JUMP JUMPDEST DUP1 PUSH1 0x1F ADD PUSH1 0x20 DUP1 SWAP2 DIV MUL PUSH1 0x20 ADD PUSH1 0x40 MLOAD SWAP1 DUP2 ADD PUSH1 0x40 MSTORE DUP1 SWAP3 SWAP2 SWAP1 DUP2 DUP2 MSTORE PUSH1 0x20 ADD DUP3 DUP1 SLOAD PUSH2 0x4F1 SWAP1 PUSH2 0x16FF JUMP JUMPDEST DUP1 ISZERO PUSH2 0x53E JUMPI DUP1 PUSH1 0x1F LT PUSH2 0x513 JUMPI PUSH2 0x100 DUP1 DUP4 SLOAD DIV MUL DUP4 MSTORE SWAP2 PUSH1 0x20 ADD SWAP2 PUSH2 0x53E JUMP JUMPDEST DUP3 ADD SWAP2 SWAP1 PUSH1 0x0 MSTORE PUSH1 0x20 PUSH1 0x0 KECCAK256 SWAP1 JUMPDEST DUP2 SLOAD DUP2 MSTORE SWAP1 PUSH1 0x1 ADD SWAP1 PUSH1 0x20 ADD DUP1 DUP4 GT PUSH2 0x521 JUMPI DUP3 SWAP1 SUB PUSH1 0x1F AND DUP3 ADD SWAP2 JUMPDEST POP POP POP POP POP SWAP1 POP SWAP1 JUMP JUMPDEST PUSH1 0x0 CALLER PUSH2 0x556 DUP2 DUP6 DUP6 PUSH2 0x1045 JUMP JUMPDEST CALLER PUSH1 0x0 SWAP1 DUP2 MSTORE PUSH1 0x9 PUSH1 0x20 MSTORE PUSH1 0x40 SWAP1 KECCAK256 SLOAD PUSH1 0x1 PUSH1 0x1 PUSH1 0xA0 SHL SUB AND ISZERO PUSH2 0x5B3 JUMPI PUSH1 0x0 PUSH2 0x57F CALLER PUSH2 0x1169 JUMP JUMPDEST SWAP1 POP PUSH1 0x0 PUSH2 0x2710 PUSH2 0x590 DUP4 DUP8 PUSH2 0x1749 JUMP JUMPDEST PUSH2 0x59A SWAP2 SWAP1 PUSH2 0x1768 JUMP JUMPDEST SWAP1 POP PUSH2 0x5B0 DUP4 DUP8 PUSH2 0x5AB DUP9 DUP6 PUSH2 0x178A JUMP JUMPDEST PUSH2 0x1045 JUMP JUMPDEST POP POP JUMPDEST POP PUSH1 0x1 SWAP4 SWAP3 POP POP POP JUMP JUMPDEST PUSH1 0x0 CALLER PUSH2 0x5CB DUP6 DUP3 DUP6 PUSH2 0x11D9 JUMP JUMPDEST PUSH1 0x1 PUSH1 0x1 PUSH1 0xA0 SHL SUB DUP6 DUP2 AND PUSH1 0x0 SWAP1 DUP2 MSTORE PUSH1 0x9 PUSH1 0x20 MSTORE PUSH1 0x40 SWAP1 KECCAK256 SLOAD AND ISZERO PUSH2 0x649 JUMPI PUSH1 0x1 PUSH1 0x1 PUSH1 0xA0 SHL SUB DUP1 DUP7 AND PUSH1 0x0 SWAP1 DUP2 MSTORE PUSH1 0x9 PUSH1 0x20 MSTORE PUSH1 0x40 DUP2 KECCAK256 SLOAD SWAP1 SWAP2 AND SWAP1 PUSH2 0x612 DUP8 PUSH2 0x1169 JUMP JUMPDEST SWAP1 POP PUSH1 0x0 PUSH2 0x2710 PUSH2 0x623 DUP4 DUP9 PUSH2 0x1749 JUMP JUMPDEST PUSH2 0x62D SWAP2 SWAP1 PUSH2 0x1768 JUMP JUMPDEST SWAP1 POP PUSH2 0x63A DUP9 DUP6 DUP4 PUSH2 0x11D9 JUMP JUMPDEST PUSH2 0x645 DUP9 DUP5 DUP4 PUSH2 0x126B JUMP JUMPDEST POP POP POP JUMPDEST PUSH2 0x654 DUP6 DUP6 DUP6 PUSH2 0x126B JUMP JUMPDEST POP PUSH1 0x1 SWAP5 SWAP4 POP POP POP POP JUMP JUMPDEST CALLER PUSH1 0x0 DUP2 DUP2 MSTORE PUSH1 0x1 PUSH1 0x20 SWAP1 DUP2 MSTORE PUSH1 0x40 DUP1 DUP4 KECCAK256 PUSH1 0x1 PUSH1 0x1 PUSH1 0xA0 SHL SUB DUP8 AND DUP5 MSTORE SWAP1 SWAP2 MSTORE DUP2 KECCAK256 SLOAD SWAP1 SWAP2 SWAP1 PUSH2 0x5B3 SWAP1 DUP3 SWAP1 DUP7 SWAP1 PUSH2 0x5AB SWAP1 DUP8 SWAP1 PUSH2 0x178A JUMP JUMPDEST PUSH1 0x5 SLOAD PUSH1 0x1 PUSH1 0x1 PUSH1 0xA0 SHL SUB AND CALLER EQ PUSH2 0x6CC JUMPI PUSH1 0x40 MLOAD PUSH3 0x461BCD PUSH1 0xE5 SHL DUP2 MSTORE PUSH1 0x4 ADD PUSH2 0x6C3 SWAP1 PUSH2 0x179D JUMP JUMPDEST PUSH1 0x40 MLOAD DUP1 SWAP2 SUB SWAP1 REVERT JUMPDEST PUSH2 0x6D6 DUP3 DUP3 PUSH2 0x1439 JUMP JUMPDEST POP POP JUMP JUMPDEST PUSH1 0x5 SLOAD PUSH1 0x1 PUSH1 0x1 PUSH1 0xA0 SHL SUB AND CALLER EQ PUSH2 0x704 JUMPI PUSH1 0x40 MLOAD PUSH3 0x461BCD PUSH1 0xE5 SHL DUP2 MSTORE PUSH1 0x4 ADD PUSH2 0x6C3 SWAP1 PUSH2 0x179D JUMP JUMPDEST PUSH2 0x2710 DUP2 GT ISZERO PUSH2 0x726 JUMPI PUSH1 0x40 MLOAD PUSH3 0x461BCD PUSH1 0xE5 SHL DUP2 MSTORE PUSH1 0x4 ADD PUSH2 0x6C3 SWAP1 PUSH2 0x17D2 JUMP JUMPDEST PUSH1 0xA DUP2 LT ISZERO PUSH2 0x747 JUMPI PUSH1 0x40 MLOAD PUSH3 0x461BCD PUSH1 0xE5 SHL DUP2 MSTORE PUSH1 0x4 ADD PUSH2 0x6C3 SWAP1 PUSH2 0x182F JUMP JUMPDEST PUSH1 0x1 PUSH1 0x1 PUSH1 0xA0 SHL SUB DUP3 AND PUSH1 0x0 SWAP1 DUP2 MSTORE PUSH1 0x6 PUSH1 0x20 MSTORE PUSH1 0x40 DUP2 KECCAK256 SLOAD SWAP1 SUB PUSH2 0x77E JUMPI PUSH1 0x40 MLOAD PUSH3 0x461BCD PUSH1 0xE5 SHL DUP2 MSTORE PUSH1 0x4 ADD PUSH2 0x6C3 SWAP1 PUSH2 0x187E JUMP JUMPDEST PUSH1 0x1 PUSH1 0x1 PUSH1 0xA0 SHL SUB DUP3 AND PUSH1 0x0 DUP2 DUP2 MSTORE PUSH1 0x6 PUSH1 0x20 SWAP1 DUP2 MSTORE PUSH1 0x40 SWAP2 DUP3 SWAP1 KECCAK256 DUP5 SWAP1 SSTORE DUP2 MLOAD SWAP3 DUP4 MSTORE DUP3 ADD DUP4 SWAP1 MSTORE PUSH32 0x272200C8484B4881D4BF8552D6783858E314CF8FC05461D9F87FDED68327E66A SWAP2 ADD JUMPDEST PUSH1 0x40 MLOAD DUP1 SWAP2 SUB SWAP1 LOG1 POP POP JUMP JUMPDEST PUSH1 0x40 MLOAD PUSH4 0x1FFC9A7 PUSH1 0xE0 SHL DUP2 MSTORE PUSH4 0xACEB828B PUSH1 0xE0 SHL PUSH1 0x4 DUP3 ADD MSTORE PUSH1 0x0 SWAP1 DUP2 SWAP1 PUSH1 0x1 PUSH1 0x1 PUSH1 0xA0 SHL SUB DUP5 AND SWAP1 PUSH4 0x1FFC9A7 SWAP1 PUSH1 0x24 ADD PUSH1 0x20 PUSH1 0x40 MLOAD DUP1 DUP4 SUB DUP2 DUP7 GAS STATICCALL ISZERO DUP1 ISZERO PUSH2 0x827 JUMPI RETURNDATASIZE PUSH1 0x0 DUP1 RETURNDATACOPY RETURNDATASIZE PUSH1 0x0 REVERT JUMPDEST POP POP POP POP PUSH1 0x40 MLOAD RETURNDATASIZE PUSH1 0x1F NOT PUSH1 0x1F DUP3 ADD AND DUP3 ADD DUP1 PUSH1 0x40 MSTORE POP DUP2 ADD SWAP1 PUSH2 0x84B SWAP2 SWAP1 PUSH2 0x18C7 JUMP JUMPDEST SWAP4 SWAP3 POP POP POP JUMP JUMPDEST PUSH1 0x5 SLOAD PUSH1 0x1 PUSH1 0x1 PUSH1 0xA0 SHL SUB AND CALLER EQ PUSH2 0x87C JUMPI PUSH1 0x40 MLOAD PUSH3 0x461BCD PUSH1 0xE5 SHL DUP2 MSTORE PUSH1 0x4 ADD PUSH2 0x6C3 SWAP1 PUSH2 0x179D JUMP JUMPDEST PUSH2 0x886 PUSH1 0x0 PUSH2 0x1518 JUMP JUMPDEST JUMP JUMPDEST CALLER PUSH1 0x0 SWAP1 DUP2 MSTORE PUSH1 0x9 PUSH1 0x20 SWAP1 DUP2 MSTORE PUSH1 0x40 DUP1 DUP4 KECCAK256 DUP1 SLOAD PUSH1 0x1 PUSH1 0x1 PUSH1 0xA0 SHL SUB NOT AND SWAP1 SSTORE MLOAD SWAP2 DUP3 MSTORE PUSH32 0x6D4C462CDEC505A621711D5CA414BC431F78E79746CA66270E7AA87947B59AB3 SWAP2 ADD PUSH1 0x40 MLOAD DUP1 SWAP2 SUB SWAP1 LOG1 JUMP JUMPDEST PUSH2 0x2710 DUP2 GT ISZERO PUSH2 0x8FB JUMPI PUSH1 0x40 MLOAD PUSH3 0x461BCD PUSH1 0xE5 SHL DUP2 MSTORE PUSH1 0x4 ADD PUSH2 0x6C3 SWAP1 PUSH2 0x17D2 JUMP JUMPDEST PUSH1 0xA DUP2 LT ISZERO PUSH2 0x91C JUMPI PUSH1 0x40 MLOAD PUSH3 0x461BCD PUSH1 0xE5 SHL DUP2 MSTORE PUSH1 0x4 ADD PUSH2 0x6C3 SWAP1 PUSH2 0x182F JUMP JUMPDEST PUSH1 0x1 PUSH1 0x1 PUSH1 0xA0 SHL SUB DUP3 AND PUSH1 0x0 SWAP1 DUP2 MSTORE PUSH1 0x6 PUSH1 0x20 MSTORE PUSH1 0x40 SWAP1 KECCAK256 SLOAD DUP2 LT ISZERO PUSH2 0x9AA JUMPI PUSH1 0x40 MLOAD PUSH3 0x461BCD PUSH1 0xE5 SHL DUP2 MSTORE PUSH1 0x20 PUSH1 0x4 DUP3 ADD MSTORE PUSH1 0x3B PUSH1 0x24 DUP3 ADD MSTORE PUSH32 0x4552433230436861726974793A207261746520666565206D7573742065786365 PUSH1 0x44 DUP3 ADD MSTORE PUSH32 0x656420746865206665652073657420627920746865206F776E65720000000000 PUSH1 0x64 DUP3 ADD MSTORE PUSH1 0x84 ADD PUSH2 0x6C3 JUMP JUMPDEST PUSH1 0x1 PUSH1 0x1 PUSH1 0xA0 SHL SUB DUP3 AND PUSH1 0x0 SWAP1 DUP2 MSTORE PUSH1 0x6 PUSH1 0x20 MSTORE PUSH1 0x40 DUP2 KECCAK256 SLOAD SWAP1 SUB PUSH2 0x9E1 JUMPI PUSH1 0x40 MLOAD PUSH3 0x461BCD PUSH1 0xE5 SHL DUP2 MSTORE PUSH1 0x4 ADD PUSH2 0x6C3 SWAP1 PUSH2 0x187E JUMP JUMPDEST CALLER PUSH1 0x0 SWAP1 DUP2 MSTORE PUSH1 0x9 PUSH1 0x20 SWAP1 DUP2 MSTORE PUSH1 0x40 DUP1 DUP4 KECCAK256 DUP1 SLOAD PUSH1 0x1 PUSH1 0x1 PUSH1 0xA0 SHL SUB NOT AND PUSH1 0x1 PUSH1 0x1 PUSH1 0xA0 SHL SUB DUP8 AND SWAP1 DUP2 OR SWAP1 SWAP2 SSTORE PUSH1 0x8 DUP4 MSTORE DUP2 DUP5 KECCAK256 DUP2 DUP6 MSTORE DUP4 MSTORE SWAP3 DUP2 SWAP1 KECCAK256 DUP5 SWAP1 SSTORE DUP1 MLOAD SWAP3 DUP4 MSTORE SWAP1 DUP3 ADD DUP4 SWAP1 MSTORE PUSH32 0x21470041EF9FF574315005B52C90C0F22B3499A708AEE20330F95853E2583B69 SWAP2 ADD PUSH2 0x7CB JUMP JUMPDEST PUSH1 0x1 PUSH1 0x1 PUSH1 0xA0 SHL SUB DUP2 AND PUSH1 0x0 SWAP1 DUP2 MSTORE PUSH1 0x6 PUSH1 0x20 MSTORE PUSH1 0x40 DUP2 KECCAK256 SLOAD SWAP1 SUB PUSH2 0xACB JUMPI PUSH1 0x40 MLOAD PUSH3 0x461BCD PUSH1 0xE5 SHL DUP2 MSTORE PUSH1 0x20 PUSH1 0x4 DUP3 ADD MSTORE PUSH1 0x26 PUSH1 0x24 DUP3 ADD MSTORE PUSH32 0x4552433230436861726974793A20696E76616C69642077686974656C69737465 PUSH1 0x44 DUP3 ADD MSTORE PUSH6 0x642072617465 PUSH1 0xD0 SHL PUSH1 0x64 DUP3 ADD MSTORE PUSH1 0x84 ADD PUSH2 0x6C3 JUMP JUMPDEST CALLER PUSH1 0x0 DUP2 DUP2 MSTORE PUSH1 0x9 PUSH1 0x20 SWAP1 DUP2 MSTORE PUSH1 0x40 DUP1 DUP4 KECCAK256 DUP1 SLOAD PUSH1 0x1 PUSH1 0x1 PUSH1 0xA0 SHL SUB NOT AND PUSH1 0x1 PUSH1 0x1 PUSH1 0xA0 SHL SUB DUP8 AND SWAP1 DUP2 OR SWAP1 SWAP2 SSTORE DUP1 DUP5 MSTORE PUSH1 0x6 DUP4 MSTORE DUP2 DUP5 KECCAK256 SLOAD SWAP5 DUP5 MSTORE PUSH1 0x8 DUP4 MSTORE DUP2 DUP5 KECCAK256 DUP2 DUP6 MSTORE DUP4 MSTORE SWAP3 DUP2 SWAP1 KECCAK256 SWAP4 SWAP1 SWAP4 SSTORE SWAP2 MLOAD SWAP1 DUP2 MSTORE PUSH32 0x6D4C462CDEC505A621711D5CA414BC431F78E79746CA66270E7AA87947B59AB3 SWAP2 ADD JUMPDEST PUSH1 0x40 MLOAD DUP1 SWAP2 SUB SWAP1 LOG1 POP JUMP JUMPDEST PUSH1 0x60 PUSH1 0x4 DUP1 SLOAD PUSH2 0x4C5 SWAP1 PUSH2 0x16FF JUMP JUMPDEST PUSH1 0x1 PUSH1 0x1 PUSH1 0xA0 SHL SUB DUP2 AND PUSH1 0x0 SWAP1 DUP2 MSTORE PUSH1 0x6 PUSH1 0x20 MSTORE PUSH1 0x40 DUP2 KECCAK256 SLOAD DUP1 ISZERO PUSH2 0xB86 JUMPI PUSH1 0x1 SWAP2 POP SWAP2 POP SWAP2 JUMP JUMPDEST PUSH1 0x0 SWAP2 POP SWAP2 POP SWAP2 JUMP JUMPDEST CALLER PUSH1 0x0 DUP2 DUP2 MSTORE PUSH1 0x1 PUSH1 0x20 SWAP1 DUP2 MSTORE PUSH1 0x40 DUP1 DUP4 KECCAK256 PUSH1 0x1 PUSH1 0x1 PUSH1 0xA0 SHL SUB DUP8 AND DUP5 MSTORE SWAP1 SWAP2 MSTORE DUP2 KECCAK256 SLOAD SWAP1 SWAP2 SWAP1 DUP4 DUP2 LT ISZERO PUSH2 0xC14 JUMPI PUSH1 0x40 MLOAD PUSH3 0x461BCD PUSH1 0xE5 SHL DUP2 MSTORE PUSH1 0x20 PUSH1 0x4 DUP3 ADD MSTORE PUSH1 0x25 PUSH1 0x24 DUP3 ADD MSTORE PUSH32 0x45524332303A2064656372656173656420616C6C6F77616E63652062656C6F77 PUSH1 0x44 DUP3 ADD MSTORE PUSH5 0x207A65726F PUSH1 0xD8 SHL PUSH1 0x64 DUP3 ADD MSTORE PUSH1 0x84 ADD PUSH2 0x6C3 JUMP JUMPDEST PUSH2 0x654 DUP3 DUP7 DUP7 DUP5 SUB PUSH2 0x1045 JUMP JUMPDEST CALLER PUSH1 0x0 DUP2 DUP2 MSTORE PUSH1 0x9 PUSH1 0x20 MSTORE PUSH1 0x40 DUP2 KECCAK256 SLOAD SWAP1 SWAP2 SWAP1 PUSH1 0x1 PUSH1 0x1 PUSH1 0xA0 SHL SUB AND ISZERO PUSH2 0xC91 JUMPI CALLER PUSH1 0x0 DUP2 DUP2 MSTORE PUSH1 0x9 PUSH1 0x20 MSTORE PUSH1 0x40 DUP2 KECCAK256 SLOAD PUSH1 0x1 PUSH1 0x1 PUSH1 0xA0 SHL SUB AND SWAP2 PUSH2 0xC65 SWAP1 PUSH2 0x1169 JUMP JUMPDEST SWAP1 POP PUSH1 0x0 PUSH2 0x2710 PUSH2 0xC76 DUP4 DUP9 PUSH2 0x1749 JUMP JUMPDEST PUSH2 0xC80 SWAP2 SWAP1 PUSH2 0x1768 JUMP JUMPDEST SWAP1 POP PUSH2 0xC8D DUP5 DUP5 DUP4 PUSH2 0x126B JUMP JUMPDEST POP POP POP JUMPDEST PUSH2 0x5B3 DUP2 DUP6 DUP6 PUSH2 0x126B JUMP JUMPDEST PUSH1 0x60 PUSH1 0xA DUP1 SLOAD DUP1 PUSH1 0x20 MUL PUSH1 0x20 ADD PUSH1 0x40 MLOAD SWAP1 DUP2 ADD PUSH1 0x40 MSTORE DUP1 SWAP3 SWAP2 SWAP1 DUP2 DUP2 MSTORE PUSH1 0x20 ADD DUP3 DUP1 SLOAD DUP1 ISZERO PUSH2 0x53E JUMPI PUSH1 0x20 MUL DUP3 ADD SWAP2 SWAP1 PUSH1 0x0 MSTORE PUSH1 0x20 PUSH1 0x0 KECCAK256 SWAP1 JUMPDEST DUP2 SLOAD PUSH1 0x1 PUSH1 0x1 PUSH1 0xA0 SHL SUB AND DUP2 MSTORE PUSH1 0x1 SWAP1 SWAP2 ADD SWAP1 PUSH1 0x20 ADD DUP1 DUP4 GT PUSH2 0xCD6 JUMPI POP POP POP POP POP SWAP1 POP SWAP1 JUMP JUMPDEST PUSH2 0x886 CALLER PUSH2 0xD0D PUSH1 0x12 PUSH1 0xA PUSH2 0x19CD JUMP JUMPDEST PUSH2 0xD18 SWAP1 PUSH1 0x64 PUSH2 0x1749 JUMP JUMPDEST PUSH2 0x1439 JUMP JUMPDEST PUSH1 0x5 SLOAD PUSH1 0x1 PUSH1 0x1 PUSH1 0xA0 SHL SUB AND CALLER EQ PUSH2 0xD47 JUMPI PUSH1 0x40 MLOAD PUSH3 0x461BCD PUSH1 0xE5 SHL DUP2 MSTORE PUSH1 0x4 ADD PUSH2 0x6C3 SWAP1 PUSH2 0x179D JUMP JUMPDEST PUSH1 0x1 PUSH1 0x1 PUSH1 0xA0 SHL SUB DUP2 AND PUSH1 0x0 SWAP1 DUP2 MSTORE PUSH1 0x7 PUSH1 0x20 MSTORE PUSH1 0x40 DUP2 KECCAK256 SLOAD SWAP1 SUB PUSH2 0xDCF JUMPI PUSH1 0x1 PUSH1 0x1 PUSH1 0xA0 SHL SUB DUP2 AND PUSH1 0x0 DUP2 DUP2 MSTORE PUSH1 0x6 PUSH1 0x20 SWAP1 DUP2 MSTORE PUSH1 0x40 DUP1 DUP4 KECCAK256 PUSH1 0xA SWAP1 DUP2 SWAP1 SSTORE DUP1 SLOAD PUSH1 0x1 DUP2 ADD DUP3 SSTORE PUSH32 0xC65A7BB8D6351C1CF70C95A316CC6A92839C986682D98BC35F958F4883F9D2A8 ADD DUP1 SLOAD PUSH1 0x1 PUSH1 0x1 PUSH1 0xA0 SHL SUB NOT AND SWAP1 SWAP6 OR SWAP1 SWAP5 SSTORE SWAP3 SLOAD PUSH1 0x7 SWAP1 SWAP2 MSTORE SWAP2 SWAP1 KECCAK256 SSTORE JUMPDEST PUSH1 0x40 MLOAD PUSH1 0x1 PUSH1 0x1 PUSH1 0xA0 SHL SUB DUP3 AND DUP2 MSTORE PUSH32 0xA850AE9193F515CBAE8D35E8925BD2BE26627FC91BCE650B8652ED254E9CAB03 SWAP1 PUSH1 0x20 ADD PUSH2 0xB44 JUMP JUMPDEST PUSH1 0x5 SLOAD PUSH1 0x1 PUSH1 0x1 PUSH1 0xA0 SHL SUB AND CALLER EQ PUSH2 0xE32 JUMPI PUSH1 0x40 MLOAD PUSH3 0x461BCD PUSH1 0xE5 SHL DUP2 MSTORE PUSH1 0x4 ADD PUSH2 0x6C3 SWAP1 PUSH2 0x179D JUMP JUMPDEST PUSH1 0x1 PUSH1 0x1 PUSH1 0xA0 SHL SUB DUP2 AND PUSH1 0x0 SWAP1 DUP2 MSTORE PUSH1 0x7 PUSH1 0x20 MSTORE PUSH1 0x40 SWAP1 KECCAK256 SLOAD DUP1 PUSH2 0xE88 JUMPI PUSH1 0x40 MLOAD PUSH3 0x461BCD PUSH1 0xE5 SHL DUP2 MSTORE PUSH1 0x20 PUSH1 0x4 DUP3 ADD MSTORE PUSH1 0xD PUSH1 0x24 DUP3 ADD MSTORE PUSH13 0x92DCECC2D8D2C840D2DCC8CAF PUSH1 0x9B SHL PUSH1 0x44 DUP3 ADD MSTORE PUSH1 0x64 ADD PUSH2 0x6C3 JUMP JUMPDEST PUSH1 0xA DUP1 SLOAD PUSH1 0x0 SWAP2 SWAP1 PUSH2 0xE9C SWAP1 PUSH1 0x1 SWAP1 PUSH2 0x19DC JUMP JUMPDEST DUP2 SLOAD DUP2 LT PUSH2 0xEAC JUMPI PUSH2 0xEAC PUSH2 0x19EF JUMP JUMPDEST PUSH1 0x0 SWAP2 DUP3 MSTORE PUSH1 0x20 SWAP1 SWAP2 KECCAK256 ADD SLOAD PUSH1 0x1 PUSH1 0x1 PUSH1 0xA0 SHL SUB AND SWAP1 POP DUP1 PUSH1 0xA PUSH2 0xED1 PUSH1 0x1 DUP6 PUSH2 0x19DC JUMP JUMPDEST DUP2 SLOAD DUP2 LT PUSH2 0xEE1 JUMPI PUSH2 0xEE1 PUSH2 0x19EF JUMP JUMPDEST PUSH1 0x0 SWAP2 DUP3 MSTORE PUSH1 0x20 DUP1 DUP4 KECCAK256 SWAP2 SWAP1 SWAP2 ADD DUP1 SLOAD PUSH1 0x1 PUSH1 0x1 PUSH1 0xA0 SHL SUB NOT AND PUSH1 0x1 PUSH1 0x1 PUSH1 0xA0 SHL SUB SWAP5 DUP6 AND OR SWAP1 SSTORE SWAP2 DUP4 AND DUP2 MSTORE PUSH1 0x7 SWAP1 SWAP2 MSTORE PUSH1 0x40 SWAP1 KECCAK256 DUP3 SWAP1 SSTORE PUSH1 0xA DUP1 SLOAD DUP1 PUSH2 0xF2B JUMPI PUSH2 0xF2B PUSH2 0x1A05 JUMP JUMPDEST PUSH1 0x0 DUP3 DUP2 MSTORE PUSH1 0x20 DUP1 DUP3 KECCAK256 PUSH1 0x0 NOT SWAP1 DUP5 ADD DUP2 ADD DUP1 SLOAD PUSH1 0x1 PUSH1 0x1 PUSH1 0xA0 SHL SUB NOT AND SWAP1 SSTORE SWAP1 SWAP3 ADD SWAP1 SWAP3 SSTORE PUSH1 0x1 PUSH1 0x1 PUSH1 0xA0 SHL SUB DUP6 AND DUP1 DUP4 MSTORE PUSH1 0x7 DUP3 MSTORE PUSH1 0x40 DUP1 DUP5 KECCAK256 DUP5 SWAP1 SSTORE PUSH1 0x6 DUP4 MSTORE DUP1 DUP5 KECCAK256 SWAP4 SWAP1 SWAP4 SSTORE SWAP2 MLOAD SWAP2 DUP3 MSTORE PUSH32 0xCDD2E9B91A56913D370075169CEFA1602BA36BE5301664F752192BB1709DF757 SWAP2 ADD PUSH1 0x40 MLOAD DUP1 SWAP2 SUB SWAP1 LOG1 POP POP POP JUMP JUMPDEST PUSH1 0x5 SLOAD PUSH1 0x1 PUSH1 0x1 PUSH1 0xA0 SHL SUB AND CALLER EQ PUSH2 0xFD4 JUMPI PUSH1 0x40 MLOAD PUSH3 0x461BCD PUSH1 0xE5 SHL DUP2 MSTORE PUSH1 0x4 ADD PUSH2 0x6C3 SWAP1 PUSH2 0x179D JUMP JUMPDEST PUSH1 0x1 PUSH1 0x1 PUSH1 0xA0 SHL SUB DUP2 AND PUSH2 0x1039 JUMPI PUSH1 0x40 MLOAD PUSH3 0x461BCD PUSH1 0xE5 SHL DUP2 MSTORE PUSH1 0x20 PUSH1 0x4 DUP3 ADD MSTORE PUSH1 0x26 PUSH1 0x24 DUP3 ADD MSTORE PUSH32 0x4F776E61626C653A206E6577206F776E657220697320746865207A65726F2061 PUSH1 0x44 DUP3 ADD MSTORE PUSH6 0x646472657373 PUSH1 0xD0 SHL PUSH1 0x64 DUP3 ADD MSTORE PUSH1 0x84 ADD PUSH2 0x6C3 JUMP JUMPDEST PUSH2 0x1042 DUP2 PUSH2 0x1518 JUMP JUMPDEST POP JUMP JUMPDEST PUSH1 0x1 PUSH1 0x1 PUSH1 0xA0 SHL SUB DUP4 AND PUSH2 0x10A7 JUMPI PUSH1 0x40 MLOAD PUSH3 0x461BCD PUSH1 0xE5 SHL DUP2 MSTORE PUSH1 0x20 PUSH1 0x4 DUP3 ADD MSTORE PUSH1 0x24 DUP1 DUP3 ADD MSTORE PUSH32 0x45524332303A20617070726F76652066726F6D20746865207A65726F20616464 PUSH1 0x44 DUP3 ADD MSTORE PUSH4 0x72657373 PUSH1 0xE0 SHL PUSH1 0x64 DUP3 ADD MSTORE PUSH1 0x84 ADD PUSH2 0x6C3 JUMP JUMPDEST PUSH1 0x1 PUSH1 0x1 PUSH1 0xA0 SHL SUB DUP3 AND PUSH2 0x1108 JUMPI PUSH1 0x40 MLOAD PUSH3 0x461BCD PUSH1 0xE5 SHL DUP2 MSTORE PUSH1 0x20 PUSH1 0x4 DUP3 ADD MSTORE PUSH1 0x22 PUSH1 0x24 DUP3 ADD MSTORE PUSH32 0x45524332303A20617070726F766520746F20746865207A65726F206164647265 PUSH1 0x44 DUP3 ADD MSTORE PUSH2 0x7373 PUSH1 0xF0 SHL PUSH1 0x64 DUP3 ADD MSTORE PUSH1 0x84 ADD PUSH2 0x6C3 JUMP JUMPDEST PUSH1 0x1 PUSH1 0x1 PUSH1 0xA0 SHL SUB DUP4 DUP2 AND PUSH1 0x0 DUP2 DUP2 MSTORE PUSH1 0x1 PUSH1 0x20 SWAP1 DUP2 MSTORE PUSH1 0x40 DUP1 DUP4 KECCAK256 SWAP5 DUP8 AND DUP1 DUP5 MSTORE SWAP5 DUP3 MSTORE SWAP2 DUP3 SWAP1 KECCAK256 DUP6 SWAP1 SSTORE SWAP1 MLOAD DUP5 DUP2 MSTORE PUSH32 0x8C5BE1E5EBEC7D5BD14F71427D1E84F3DD0314C0F7B2291E5B200AC8C7C3B925 SWAP2 ADD PUSH1 0x40 MLOAD DUP1 SWAP2 SUB SWAP1 LOG3 POP POP POP JUMP JUMPDEST PUSH1 0x1 PUSH1 0x1 PUSH1 0xA0 SHL SUB DUP1 DUP3 AND PUSH1 0x0 SWAP1 DUP2 MSTORE PUSH1 0x9 PUSH1 0x20 SWAP1 DUP2 MSTORE PUSH1 0x40 DUP1 DUP4 KECCAK256 SLOAD PUSH1 0x8 DUP4 MSTORE DUP2 DUP5 KECCAK256 SWAP5 AND DUP1 DUP5 MSTORE SWAP4 DUP3 MSTORE DUP1 DUP4 KECCAK256 SLOAD PUSH1 0x6 SWAP1 SWAP3 MSTORE SWAP1 SWAP2 KECCAK256 SLOAD SWAP1 SWAP2 SWAP1 ISZERO DUP1 PUSH2 0x11C9 JUMPI POP PUSH1 0x1 PUSH1 0x1 PUSH1 0xA0 SHL SUB DUP4 DUP2 AND PUSH1 0x0 SWAP1 DUP2 MSTORE PUSH1 0x9 PUSH1 0x20 MSTORE PUSH1 0x40 SWAP1 KECCAK256 SLOAD AND ISZERO JUMPDEST ISZERO PUSH2 0x11D3 JUMPI PUSH1 0x0 SWAP2 POP JUMPDEST POP SWAP2 SWAP1 POP JUMP JUMPDEST PUSH1 0x1 PUSH1 0x1 PUSH1 0xA0 SHL SUB DUP4 DUP2 AND PUSH1 0x0 SWAP1 DUP2 MSTORE PUSH1 0x1 PUSH1 0x20 SWAP1 DUP2 MSTORE PUSH1 0x40 DUP1 DUP4 KECCAK256 SWAP4 DUP7 AND DUP4 MSTORE SWAP3 SWAP1 MSTORE KECCAK256 SLOAD PUSH1 0x0 NOT DUP2 EQ PUSH2 0x1265 JUMPI DUP2 DUP2 LT ISZERO PUSH2 0x1258 JUMPI PUSH1 0x40 MLOAD PUSH3 0x461BCD PUSH1 0xE5 SHL DUP2 MSTORE PUSH1 0x20 PUSH1 0x4 DUP3 ADD MSTORE PUSH1 0x1D PUSH1 0x24 DUP3 ADD MSTORE PUSH32 0x45524332303A20696E73756666696369656E7420616C6C6F77616E6365000000 PUSH1 0x44 DUP3 ADD MSTORE PUSH1 0x64 ADD PUSH2 0x6C3 JUMP JUMPDEST PUSH2 0x1265 DUP5 DUP5 DUP5 DUP5 SUB PUSH2 0x1045 JUMP JUMPDEST POP POP POP POP JUMP JUMPDEST PUSH1 0x1 PUSH1 0x1 PUSH1 0xA0 SHL SUB DUP4 AND PUSH2 0x12CF JUMPI PUSH1 0x40 MLOAD PUSH3 0x461BCD PUSH1 0xE5 SHL DUP2 MSTORE PUSH1 0x20 PUSH1 0x4 DUP3 ADD MSTORE PUSH1 0x25 PUSH1 0x24 DUP3 ADD MSTORE PUSH32 0x45524332303A207472616E736665722066726F6D20746865207A65726F206164 PUSH1 0x44 DUP3 ADD MSTORE PUSH5 0x6472657373 PUSH1 0xD8 SHL PUSH1 0x64 DUP3 ADD MSTORE PUSH1 0x84 ADD PUSH2 0x6C3 JUMP JUMPDEST PUSH1 0x1 PUSH1 0x1 PUSH1 0xA0 SHL SUB DUP3 AND PUSH2 0x1331 JUMPI PUSH1 0x40 MLOAD PUSH3 0x461BCD PUSH1 0xE5 SHL DUP2 MSTORE PUSH1 0x20 PUSH1 0x4 DUP3 ADD MSTORE PUSH1 0x23 PUSH1 0x24 DUP3 ADD MSTORE PUSH32 0x45524332303A207472616E7366657220746F20746865207A65726F2061646472 PUSH1 0x44 DUP3 ADD MSTORE PUSH3 0x657373 PUSH1 0xE8 SHL PUSH1 0x64 DUP3 ADD MSTORE PUSH1 0x84 ADD PUSH2 0x6C3 JUMP JUMPDEST PUSH1 0x1 PUSH1 0x1 PUSH1 0xA0 SHL SUB DUP4 AND PUSH1 0x0 SWAP1 DUP2 MSTORE PUSH1 0x20 DUP2 SWAP1 MSTORE PUSH1 0x40 SWAP1 KECCAK256 SLOAD DUP2 DUP2 LT ISZERO PUSH2 0x13A9 JUMPI PUSH1 0x40 MLOAD PUSH3 0x461BCD PUSH1 0xE5 SHL DUP2 MSTORE PUSH1 0x20 PUSH1 0x4 DUP3 ADD MSTORE PUSH1 0x26 PUSH1 0x24 DUP3 ADD MSTORE PUSH32 0x45524332303A207472616E7366657220616D6F756E7420657863656564732062 PUSH1 0x44 DUP3 ADD MSTORE PUSH6 0x616C616E6365 PUSH1 0xD0 SHL PUSH1 0x64 DUP3 ADD MSTORE PUSH1 0x84 ADD PUSH2 0x6C3 JUMP JUMPDEST PUSH1 0x1 PUSH1 0x1 PUSH1 0xA0 SHL SUB DUP1 DUP6 AND PUSH1 0x0 SWAP1 DUP2 MSTORE PUSH1 0x20 DUP2 SWAP1 MSTORE PUSH1 0x40 DUP1 DUP3 KECCAK256 DUP6 DUP6 SUB SWAP1 SSTORE SWAP2 DUP6 AND DUP2 MSTORE SWAP1 DUP2 KECCAK256 DUP1 SLOAD DUP5 SWAP3 SWAP1 PUSH2 0x13E0 SWAP1 DUP5 SWAP1 PUSH2 0x178A JUMP JUMPDEST SWAP3 POP POP DUP2 SWAP1 SSTORE POP DUP3 PUSH1 0x1 PUSH1 0x1 PUSH1 0xA0 SHL SUB AND DUP5 PUSH1 0x1 PUSH1 0x1 PUSH1 0xA0 SHL SUB AND PUSH32 0xDDF252AD1BE2C89B69C2B068FC378DAA952BA7F163C4A11628F55A4DF523B3EF DUP5 PUSH1 0x40 MLOAD PUSH2 0x142C SWAP2 DUP2 MSTORE PUSH1 0x20 ADD SWAP1 JUMP JUMPDEST PUSH1 0x40 MLOAD DUP1 SWAP2 SUB SWAP1 LOG3 PUSH2 0x1265 JUMP JUMPDEST PUSH1 0x1 PUSH1 0x1 PUSH1 0xA0 SHL SUB DUP3 AND PUSH2 0x148F JUMPI PUSH1 0x40 MLOAD PUSH3 0x461BCD PUSH1 0xE5 SHL DUP2 MSTORE PUSH1 0x20 PUSH1 0x4 DUP3 ADD MSTORE PUSH1 0x1F PUSH1 0x24 DUP3 ADD MSTORE PUSH32 0x45524332303A206D696E7420746F20746865207A65726F206164647265737300 PUSH1 0x44 DUP3 ADD MSTORE PUSH1 0x64 ADD PUSH2 0x6C3 JUMP JUMPDEST DUP1 PUSH1 0x2 PUSH1 0x0 DUP3 DUP3 SLOAD PUSH2 0x14A1 SWAP2 SWAP1 PUSH2 0x178A JUMP JUMPDEST SWAP1 SWAP2 SSTORE POP POP PUSH1 0x1 PUSH1 0x1 PUSH1 0xA0 SHL SUB DUP3 AND PUSH1 0x0 SWAP1 DUP2 MSTORE PUSH1 0x20 DUP2 SWAP1 MSTORE PUSH1 0x40 DUP2 KECCAK256 DUP1 SLOAD DUP4 SWAP3 SWAP1 PUSH2 0x14CE SWAP1 DUP5 SWAP1 PUSH2 0x178A JUMP JUMPDEST SWAP1 SWAP2 SSTORE POP POP PUSH1 0x40 MLOAD DUP2 DUP2 MSTORE PUSH1 0x1 PUSH1 0x1 PUSH1 0xA0 SHL SUB DUP4 AND SWAP1 PUSH1 0x0 SWAP1 PUSH32 0xDDF252AD1BE2C89B69C2B068FC378DAA952BA7F163C4A11628F55A4DF523B3EF SWAP1 PUSH1 0x20 ADD PUSH1 0x40 MLOAD DUP1 SWAP2 SUB SWAP1 LOG3 POP POP JUMP JUMPDEST PUSH1 0x5 DUP1 SLOAD PUSH1 0x1 PUSH1 0x1 PUSH1 0xA0 SHL SUB DUP4 DUP2 AND PUSH1 0x1 PUSH1 0x1 PUSH1 0xA0 SHL SUB NOT DUP4 AND DUP2 OR SWAP1 SWAP4 SSTORE PUSH1 0x40 MLOAD SWAP2 AND SWAP2 SWAP1 DUP3 SWAP1 PUSH32 0x8BE0079C531659141344CD1FD0A4F28419497F9722A3DAAFE3B4186F6B6457E0 SWAP1 PUSH1 0x0 SWAP1 LOG3 POP POP JUMP JUMPDEST PUSH1 0x0 PUSH1 0x20 DUP3 DUP5 SUB SLT ISZERO PUSH2 0x157C JUMPI PUSH1 0x0 DUP1 REVERT JUMPDEST DUP2 CALLDATALOAD PUSH1 0x1 PUSH1 0x1 PUSH1 0xE0 SHL SUB NOT DUP2 AND DUP2 EQ PUSH2 0x84B JUMPI PUSH1 0x0 DUP1 REVERT JUMPDEST PUSH1 0x0 PUSH1 0x20 DUP1 DUP4 MSTORE DUP4 MLOAD DUP1 DUP3 DUP6 ADD MSTORE PUSH1 0x0 JUMPDEST DUP2 DUP2 LT ISZERO PUSH2 0x15C1 JUMPI DUP6 DUP2 ADD DUP4 ADD MLOAD DUP6 DUP3 ADD PUSH1 0x40 ADD MSTORE DUP3 ADD PUSH2 0x15A5 JUMP JUMPDEST POP PUSH1 0x0 PUSH1 0x40 DUP3 DUP7 ADD ADD MSTORE PUSH1 0x40 PUSH1 0x1F NOT PUSH1 0x1F DUP4 ADD AND DUP6 ADD ADD SWAP3 POP POP POP SWAP3 SWAP2 POP POP JUMP JUMPDEST DUP1 CALLDATALOAD PUSH1 0x1 PUSH1 0x1 PUSH1 0xA0 SHL SUB DUP2 AND DUP2 EQ PUSH2 0x15F9 JUMPI PUSH1 0x0 DUP1 REVERT JUMPDEST SWAP2 SWAP1 POP JUMP JUMPDEST PUSH1 0x0 DUP1 PUSH1 0x40 DUP4 DUP6 SUB SLT ISZERO PUSH2 0x1611 JUMPI PUSH1 0x0 DUP1 REVERT JUMPDEST PUSH2 0x161A DUP4 PUSH2 0x15E2 JUMP JUMPDEST SWAP5 PUSH1 0x20 SWAP4 SWAP1 SWAP4 ADD CALLDATALOAD SWAP4 POP POP POP JUMP JUMPDEST PUSH1 0x0 DUP1 PUSH1 0x0 PUSH1 0x60 DUP5 DUP7 SUB SLT ISZERO PUSH2 0x163D JUMPI PUSH1 0x0 DUP1 REVERT JUMPDEST PUSH2 0x1646 DUP5 PUSH2 0x15E2 JUMP JUMPDEST SWAP3 POP PUSH2 0x1654 PUSH1 0x20 DUP6 ADD PUSH2 0x15E2 JUMP JUMPDEST SWAP2 POP PUSH1 0x40 DUP5 ADD CALLDATALOAD SWAP1 POP SWAP3 POP SWAP3 POP SWAP3 JUMP JUMPDEST PUSH1 0x0 PUSH1 0x20 DUP3 DUP5 SUB SLT ISZERO PUSH2 0x1676 JUMPI PUSH1 0x0 DUP1 REVERT JUMPDEST PUSH2 0x84B DUP3 PUSH2 0x15E2 JUMP JUMPDEST PUSH1 0x20 DUP1 DUP3 MSTORE DUP3 MLOAD DUP3 DUP3 ADD DUP2 SWAP1 MSTORE PUSH1 0x0 SWAP2 SWAP1 DUP5 DUP3 ADD SWAP1 PUSH1 0x40 DUP6 ADD SWAP1 DUP5 JUMPDEST DUP2 DUP2 LT ISZERO PUSH2 0x16C0 JUMPI DUP4 MLOAD PUSH1 0x1 PUSH1 0x1 PUSH1 0xA0 SHL SUB AND DUP4 MSTORE SWAP3 DUP5 ADD SWAP3 SWAP2 DUP5 ADD SWAP2 PUSH1 0x1 ADD PUSH2 0x169B JUMP JUMPDEST POP SWAP1 SWAP7 SWAP6 POP POP POP POP POP POP JUMP JUMPDEST PUSH1 0x0 DUP1 PUSH1 0x40 DUP4 DUP6 SUB SLT ISZERO PUSH2 0x16DF JUMPI PUSH1 0x0 DUP1 REVERT JUMPDEST PUSH2 0x16E8 DUP4 PUSH2 0x15E2 JUMP JUMPDEST SWAP2 POP PUSH2 0x16F6 PUSH1 0x20 DUP5 ADD PUSH2 0x15E2 JUMP JUMPDEST SWAP1 POP SWAP3 POP SWAP3 SWAP1 POP JUMP JUMPDEST PUSH1 0x1 DUP2 DUP2 SHR SWAP1 DUP3 AND DUP1 PUSH2 0x1713 JUMPI PUSH1 0x7F DUP3 AND SWAP2 POP JUMPDEST PUSH1 0x20 DUP3 LT DUP2 SUB PUSH2 0x11D3 JUMPI PUSH4 0x4E487B71 PUSH1 0xE0 SHL PUSH1 0x0 MSTORE PUSH1 0x22 PUSH1 0x4 MSTORE PUSH1 0x24 PUSH1 0x0 REVERT JUMPDEST PUSH4 0x4E487B71 PUSH1 0xE0 SHL PUSH1 0x0 MSTORE PUSH1 0x11 PUSH1 0x4 MSTORE PUSH1 0x24 PUSH1 0x0 REVERT JUMPDEST PUSH1 0x0 DUP2 PUSH1 0x0 NOT DIV DUP4 GT DUP3 ISZERO ISZERO AND ISZERO PUSH2 0x1763 JUMPI PUSH2 0x1763 PUSH2 0x1733 JUMP JUMPDEST POP MUL SWAP1 JUMP JUMPDEST PUSH1 0x0 DUP3 PUSH2 0x1785 JUMPI PUSH4 0x4E487B71 PUSH1 0xE0 SHL PUSH1 0x0 MSTORE PUSH1 0x12 PUSH1 0x4 MSTORE PUSH1 0x24 PUSH1 0x0 REVERT JUMPDEST POP DIV SWAP1 JUMP JUMPDEST DUP1 DUP3 ADD DUP1 DUP3 GT ISZERO PUSH2 0x4B0 JUMPI PUSH2 0x4B0 PUSH2 0x1733 JUMP JUMPDEST PUSH1 0x20 DUP1 DUP3 MSTORE DUP2 DUP2 ADD MSTORE PUSH32 0x4F776E61626C653A2063616C6C6572206973206E6F7420746865206F776E6572 PUSH1 0x40 DUP3 ADD MSTORE PUSH1 0x60 ADD SWAP1 JUMP JUMPDEST PUSH1 0x20 DUP1 DUP3 MSTORE PUSH1 0x38 SWAP1 DUP3 ADD MSTORE PUSH32 0x4552433230436861726974793A2072617465206D757374206265206265747765 PUSH1 0x40 DUP3 ADD MSTORE PUSH32 0x656E203020616E64205F66656544656E6F6D696E61746F720000000000000000 PUSH1 0x60 DUP3 ADD MSTORE PUSH1 0x80 ADD SWAP1 JUMP JUMPDEST PUSH1 0x20 DUP1 DUP3 MSTORE PUSH1 0x2F SWAP1 DUP3 ADD MSTORE PUSH32 0x4552433230436861726974793A207261746520666565206D7573742065786365 PUSH1 0x40 DUP3 ADD MSTORE PUSH15 0x65642064656661756C742072617465 PUSH1 0x88 SHL PUSH1 0x60 DUP3 ADD MSTORE PUSH1 0x80 ADD SWAP1 JUMP JUMPDEST PUSH1 0x20 DUP1 DUP3 MSTORE PUSH1 0x29 SWAP1 DUP3 ADD MSTORE PUSH32 0x4552433230436861726974793A20696E76616C69642077686974656C69737465 PUSH1 0x40 DUP3 ADD MSTORE PUSH9 0x642061646472657373 PUSH1 0xB8 SHL PUSH1 0x60 DUP3 ADD MSTORE PUSH1 0x80 ADD SWAP1 JUMP JUMPDEST PUSH1 0x0 PUSH1 0x20 DUP3 DUP5 SUB SLT ISZERO PUSH2 0x18D9 JUMPI PUSH1 0x0 DUP1 REVERT JUMPDEST DUP2 MLOAD DUP1 ISZERO ISZERO DUP2 EQ PUSH2 0x84B JUMPI PUSH1 0x0 DUP1 REVERT JUMPDEST PUSH1 0x1 DUP2 DUP2 JUMPDEST DUP1 DUP6 GT ISZERO PUSH2 0x1924 JUMPI DUP2 PUSH1 0x0 NOT DIV DUP3 GT ISZERO PUSH2 0x190A JUMPI PUSH2 0x190A PUSH2 0x1733 JUMP JUMPDEST DUP1 DUP6 AND ISZERO PUSH2 0x1917 JUMPI SWAP2 DUP2 MUL SWAP2 JUMPDEST SWAP4 DUP5 SHR SWAP4 SWAP1 DUP1 MUL SWAP1 PUSH2 0x18EE JUMP JUMPDEST POP SWAP3 POP SWAP3 SWAP1 POP JUMP JUMPDEST PUSH1 0x0 DUP3 PUSH2 0x193B JUMPI POP PUSH1 0x1 PUSH2 0x4B0 JUMP JUMPDEST DUP2 PUSH2 0x1948 JUMPI POP PUSH1 0x0 PUSH2 0x4B0 JUMP JUMPDEST DUP2 PUSH1 0x1 DUP2 EQ PUSH2 0x195E JUMPI PUSH1 0x2 DUP2 EQ PUSH2 0x1968 JUMPI PUSH2 0x1984 JUMP JUMPDEST PUSH1 0x1 SWAP2 POP POP PUSH2 0x4B0 JUMP JUMPDEST PUSH1 0xFF DUP5 GT ISZERO PUSH2 0x1979 JUMPI PUSH2 0x1979 PUSH2 0x1733 JUMP JUMPDEST POP POP PUSH1 0x1 DUP3 SHL PUSH2 0x4B0 JUMP JUMPDEST POP PUSH1 0x20 DUP4 LT PUSH2 0x133 DUP4 LT AND PUSH1 0x4E DUP5 LT PUSH1 0xB DUP5 LT AND OR ISZERO PUSH2 0x19A7 JUMPI POP DUP2 DUP2 EXP PUSH2 0x4B0 JUMP JUMPDEST PUSH2 0x19B1 DUP4 DUP4 PUSH2 0x18E9 JUMP JUMPDEST DUP1 PUSH1 0x0 NOT DIV DUP3 GT ISZERO PUSH2 0x19C5 JUMPI PUSH2 0x19C5 PUSH2 0x1733 JUMP JUMPDEST MUL SWAP4 SWAP3 POP POP POP JUMP JUMPDEST PUSH1 0x0 PUSH2 0x84B PUSH1 0xFF DUP5 AND DUP4 PUSH2 0x192C JUMP JUMPDEST DUP2 DUP2 SUB DUP2 DUP2 GT ISZERO PUSH2 0x4B0 JUMPI PUSH2 0x4B0 PUSH2 0x1733 JUMP JUMPDEST PUSH4 0x4E487B71 PUSH1 0xE0 SHL PUSH1 0x0 MSTORE PUSH1 0x32 PUSH1 0x4 MSTORE PUSH1 0x24 PUSH1 0x0 REVERT JUMPDEST PUSH4 0x4E487B71 PUSH1 0xE0 SHL PUSH1 0x0 MSTORE PUSH1 0x31 PUSH1 0x4 MSTORE PUSH1 0x24 PUSH1 0x0 REVERT INVALID LOG2 PUSH5 0x6970667358 0x22 SLT KECCAK256 PUSH15 0x3C6F7E06F1F953865E46E8CC7170CA RETURN 0xC4 0x49 MUL DIFFICULTY PC 0xE2 CHAINID SWAP8 0xE9 PUSH25 0xF02314538B64736F6C63430008100033000000000000000000 "
        },
        "methodIdentifiers": {
          "addToWhitelist(address)": "e43252d7",
          "allowance(address,address)": "dd62ed3e",
          "approve(address,uint256)": "095ea7b3",
          "balanceOf(address)": "70a08231",
          "charityInfo(address)": "991ec6f7",
          "checkInterface(address)": "5455bce2",
          "decimals()": "313ce567",
          "decreaseAllowance(address,uint256)": "a457c2d7",
          "deleteDefaultAddress()": "7c09829d",
          "deleteFromWhitelist(address)": "ecfb5d17",
          "getAllWhitelistedAddresses()": "b56eebfb",
          "getRate()": "679aefce",
          "increaseAllowance(address,uint256)": "39509351",
          "mint(address,uint256)": "40c10f19",
          "name()": "06fdde03",
          "owner()": "8da5cb5b",
          "renounceOwnership()": "715018a6",
          "selfmint()": "d88b1661",
          "setSpecificDefaultAddress(address)": "915dc774",
          "setSpecificDefaultAddressAndRate(address,uint256)": "84f39e1e",
          "setSpecificRate(address,uint256)": "4c677803",
          "specificDefaultAddress()": "ca08ec7d",
          "supportsInterface(bytes4)": "01ffc9a7",
          "symbol()": "95d89b41",
          "totalSupply()": "18160ddd",
          "transfer(address,uint256)": "a9059cbb",
          "transferFrom(address,address,uint256)": "23b872dd",
          "transferOwnership(address)": "f2fde38b",
          "whitelistedRate(address)": "f0f4e15b"
        }
      }
    }
  }
}