{
  "contracts/CharityToken.sol": {
    "CharityToken": {
      "abi": [
        {
          "inputs": [],
          "stateMutability": "nonpayable",
          "type": "constructor"
        },
        {
          "anonymous": false,
          "inputs": [
            {
              "indexed": false,
              "internalType": "address",
              "name": "toAdd",
              "type": "address"
            },
            {
              "indexed": false,
              "internalType": "uint256",
              "name": "rate",
              "type": "uint256"
            }
          ],
          "name": "AddedToWhitelist",
          "type": "event"
        },
        {
          "anonymous": false,
          "inputs": [
            {
              "indexed": true,
              "internalType": "address",
              "name": "owner",
              "type": "address"
            },
            {
              "indexed": true,
              "internalType": "address",
              "name": "spender",
              "type": "address"
            },
            {
              "indexed": false,
              "internalType": "uint256",
              "name": "value",
              "type": "uint256"
            }
          ],
          "name": "Approval",
          "type": "event"
        },
        {
          "anonymous": false,
          "inputs": [
            {
              "indexed": false,
              "internalType": "address",
              "name": "whitelistedAddr",
              "type": "address"
            },
            {
              "indexed": false,
              "internalType": "uint256",
              "name": "rate",
              "type": "uint256"
            }
          ],
          "name": "DonnationAddressAndRateChanged",
          "type": "event"
        },
        {
          "anonymous": false,
          "inputs": [
            {
              "indexed": false,
              "internalType": "address",
              "name": "whitelistedAddr",
              "type": "address"
            }
          ],
          "name": "DonnationAddressChanged",
          "type": "event"
        },
        {
          "anonymous": false,
          "inputs": [
            {
              "indexed": false,
              "internalType": "address",
              "name": "whitelistedAddr",
              "type": "address"
            },
            {
              "indexed": false,
              "internalType": "uint256",
              "name": "rate",
              "type": "uint256"
            }
          ],
          "name": "ModifiedCharityCustumRate",
          "type": "event"
        },
        {
          "anonymous": false,
          "inputs": [
            {
              "indexed": false,
              "internalType": "address",
              "name": "whitelistedAddr",
              "type": "address"
            },
            {
              "indexed": false,
              "internalType": "uint256",
              "name": "rate",
              "type": "uint256"
            }
          ],
          "name": "ModifiedCharityRate",
          "type": "event"
        },
        {
          "anonymous": false,
          "inputs": [
            {
              "indexed": false,
              "internalType": "address",
              "name": "toRemove",
              "type": "address"
            }
          ],
          "name": "RemovedFromWhitelist",
          "type": "event"
        },
        {
          "anonymous": false,
          "inputs": [
            {
              "indexed": true,
              "internalType": "address",
              "name": "from",
              "type": "address"
            },
            {
              "indexed": true,
              "internalType": "address",
              "name": "to",
              "type": "address"
            },
            {
              "indexed": false,
              "internalType": "uint256",
              "name": "value",
              "type": "uint256"
            }
          ],
          "name": "Transfer",
          "type": "event"
        },
        {
          "inputs": [],
          "name": "Owner",
          "outputs": [
            {
              "internalType": "address",
              "name": "",
              "type": "address"
            }
          ],
          "stateMutability": "view",
          "type": "function"
        },
        {
          "inputs": [
            {
              "internalType": "address",
              "name": "toAdd",
              "type": "address"
            },
            {
              "internalType": "uint256",
              "name": "rate",
              "type": "uint256"
            }
          ],
          "name": "addToWhitelist",
          "outputs": [],
          "stateMutability": "nonpayable",
          "type": "function"
        },
        {
          "inputs": [
            {
              "internalType": "address",
              "name": "owner",
              "type": "address"
            },
            {
              "internalType": "address",
              "name": "spender",
              "type": "address"
            }
          ],
          "name": "allowance",
          "outputs": [
            {
              "internalType": "uint256",
              "name": "",
              "type": "uint256"
            }
          ],
          "stateMutability": "view",
          "type": "function"
        },
        {
          "inputs": [
            {
              "internalType": "address",
              "name": "spender",
              "type": "address"
            },
            {
              "internalType": "uint256",
              "name": "amount",
              "type": "uint256"
            }
          ],
          "name": "approve",
          "outputs": [
            {
              "internalType": "bool",
              "name": "",
              "type": "bool"
            }
          ],
          "stateMutability": "nonpayable",
          "type": "function"
        },
        {
          "inputs": [
            {
              "internalType": "address",
              "name": "account",
              "type": "address"
            }
          ],
          "name": "balanceOf",
          "outputs": [
            {
              "internalType": "uint256",
              "name": "",
              "type": "uint256"
            }
          ],
          "stateMutability": "view",
          "type": "function"
        },
        {
          "inputs": [
            {
              "internalType": "address",
              "name": "charityAddr",
              "type": "address"
            }
          ],
          "name": "charityInfo",
          "outputs": [
            {
              "internalType": "bool",
              "name": "",
              "type": "bool"
            },
            {
              "internalType": "uint256",
              "name": "rate",
              "type": "uint256"
            },
            {
              "internalType": "address",
              "name": "msgRecipient",
              "type": "address"
            },
            {
              "internalType": "uint256",
              "name": "RecipientRate",
              "type": "uint256"
            },
            {
              "internalType": "uint256",
              "name": "msgRate",
              "type": "uint256"
            }
          ],
          "stateMutability": "view",
          "type": "function"
        },
        {
          "inputs": [
            {
              "internalType": "address",
              "name": "testContract",
              "type": "address"
            }
          ],
          "name": "checkInterface",
          "outputs": [
            {
              "internalType": "bool",
              "name": "",
              "type": "bool"
            }
          ],
          "stateMutability": "view",
          "type": "function"
        },
        {
          "inputs": [],
          "name": "decimals",
          "outputs": [
            {
              "internalType": "uint8",
              "name": "",
              "type": "uint8"
            }
          ],
          "stateMutability": "view",
          "type": "function"
        },
        {
          "inputs": [
            {
              "internalType": "address",
              "name": "spender",
              "type": "address"
            },
            {
              "internalType": "uint256",
              "name": "subtractedValue",
              "type": "uint256"
            }
          ],
          "name": "decreaseAllowance",
          "outputs": [
            {
              "internalType": "bool",
              "name": "",
              "type": "bool"
            }
          ],
          "stateMutability": "nonpayable",
          "type": "function"
        },
        {
          "inputs": [
            {
              "internalType": "address",
              "name": "toRemove",
              "type": "address"
            }
          ],
          "name": "deleteFromWhitelist",
          "outputs": [],
          "stateMutability": "nonpayable",
          "type": "function"
        },
        {
          "inputs": [],
          "name": "deleteRecipient",
          "outputs": [],
          "stateMutability": "nonpayable",
          "type": "function"
        },
        {
          "inputs": [],
          "name": "getAllWhitelistedAddresses",
          "outputs": [
            {
              "internalType": "address[]",
              "name": "",
              "type": "address[]"
            }
          ],
          "stateMutability": "view",
          "type": "function"
        },
        {
          "inputs": [
            {
              "internalType": "address",
              "name": "addr",
              "type": "address"
            }
          ],
          "name": "getRateOf",
          "outputs": [
            {
              "internalType": "uint256",
              "name": "",
              "type": "uint256"
            }
          ],
          "stateMutability": "view",
          "type": "function"
        },
        {
          "inputs": [
            {
              "internalType": "address",
              "name": "addr",
              "type": "address"
            }
          ],
          "name": "getRecipientAddressOf",
          "outputs": [
            {
              "internalType": "address",
              "name": "",
              "type": "address"
            }
          ],
          "stateMutability": "view",
          "type": "function"
        },
        {
          "inputs": [
            {
              "internalType": "address",
              "name": "spender",
              "type": "address"
            },
            {
              "internalType": "uint256",
              "name": "addedValue",
              "type": "uint256"
            }
          ],
          "name": "increaseAllowance",
          "outputs": [
            {
              "internalType": "bool",
              "name": "",
              "type": "bool"
            }
          ],
          "stateMutability": "nonpayable",
          "type": "function"
        },
        {
          "inputs": [
            {
              "internalType": "address",
              "name": "to",
              "type": "address"
            },
            {
              "internalType": "uint256",
              "name": "amount",
              "type": "uint256"
            }
          ],
          "name": "mint",
          "outputs": [],
          "stateMutability": "nonpayable",
          "type": "function"
        },
        {
          "inputs": [],
          "name": "name",
          "outputs": [
            {
              "internalType": "string",
              "name": "",
              "type": "string"
            }
          ],
          "stateMutability": "view",
          "type": "function"
        },
        {
          "inputs": [],
          "name": "selfmint",
          "outputs": [],
          "stateMutability": "nonpayable",
          "type": "function"
        },
        {
          "inputs": [
            {
              "internalType": "address",
              "name": "whitelistedAddr",
              "type": "address"
            },
            {
              "internalType": "uint256",
              "name": "rate",
              "type": "uint256"
            }
          ],
          "name": "setCustumRate",
          "outputs": [],
          "stateMutability": "nonpayable",
          "type": "function"
        },
        {
          "inputs": [
            {
              "internalType": "address",
              "name": "whitelistedAddr",
              "type": "address"
            },
            {
              "internalType": "uint256",
              "name": "rate",
              "type": "uint256"
            }
          ],
          "name": "setRate",
          "outputs": [],
          "stateMutability": "nonpayable",
          "type": "function"
        },
        {
          "inputs": [
            {
              "internalType": "address",
              "name": "whitelistedAddr",
              "type": "address"
            }
          ],
          "name": "setRecipient",
          "outputs": [],
          "stateMutability": "nonpayable",
          "type": "function"
        },
        {
          "inputs": [
            {
              "internalType": "address",
              "name": "whitelistedAddr",
              "type": "address"
            },
            {
              "internalType": "uint256",
              "name": "rate",
              "type": "uint256"
            }
          ],
          "name": "setRecipientAddressAndRate",
          "outputs": [],
          "stateMutability": "nonpayable",
          "type": "function"
        },
        {
          "inputs": [
            {
              "internalType": "bytes4",
              "name": "interfaceId",
              "type": "bytes4"
            }
          ],
          "name": "supportsInterface",
          "outputs": [
            {
              "internalType": "bool",
              "name": "",
              "type": "bool"
            }
          ],
          "stateMutability": "view",
          "type": "function"
        },
        {
          "inputs": [],
          "name": "symbol",
          "outputs": [
            {
              "internalType": "string",
              "name": "",
              "type": "string"
            }
          ],
          "stateMutability": "view",
          "type": "function"
        },
        {
          "inputs": [],
          "name": "totalSupply",
          "outputs": [
            {
              "internalType": "uint256",
              "name": "",
              "type": "uint256"
            }
          ],
          "stateMutability": "view",
          "type": "function"
        },
        {
          "inputs": [
            {
              "internalType": "address",
              "name": "to",
              "type": "address"
            },
            {
              "internalType": "uint256",
              "name": "amount",
              "type": "uint256"
            }
          ],
          "name": "transfer",
          "outputs": [
            {
              "internalType": "bool",
              "name": "",
              "type": "bool"
            }
          ],
          "stateMutability": "nonpayable",
          "type": "function"
        },
        {
          "inputs": [
            {
              "internalType": "address",
              "name": "from",
              "type": "address"
            },
            {
              "internalType": "address",
              "name": "to",
              "type": "address"
            },
            {
              "internalType": "uint256",
              "name": "amount",
              "type": "uint256"
            }
          ],
          "name": "transferFrom",
          "outputs": [
            {
              "internalType": "bool",
              "name": "",
              "type": "bool"
            }
          ],
          "stateMutability": "nonpayable",
          "type": "function"
        },
        {
          "inputs": [
            {
              "internalType": "address",
              "name": "",
              "type": "address"
            }
          ],
          "name": "whitelistedRate",
          "outputs": [
            {
              "internalType": "uint256",
              "name": "",
              "type": "uint256"
            }
          ],
          "stateMutability": "view",
          "type": "function"
        }
      ],
      "evm": {
        "bytecode": {
          "linkReferences": {},
          "object": "60806040523480156200001157600080fd5b50604051806040016040528060098152602001682a32b9ba2a37b5b2b760b91b815250604051806040016040528060038152602001621514d560ea1b81525081600390816200006191906200024e565b5060046200007082826200024e565b5050600a80546001600160a01b03191633908117909155620000b7915062000096601290565b620000a390600a6200042f565b620000b19061271062000447565b620000bd565b6200047f565b6001600160a01b038216620001185760405162461bcd60e51b815260206004820152601f60248201527f45524332303a206d696e7420746f20746865207a65726f206164647265737300604482015260640160405180910390fd5b80600260008282546200012c919062000469565b90915550506001600160a01b038216600090815260208190526040812080548392906200015b90849062000469565b90915550506040518181526001600160a01b038316906000907fddf252ad1be2c89b69c2b068fc378daa952ba7f163c4a11628f55a4df523b3ef9060200160405180910390a35050565b505050565b634e487b7160e01b600052604160045260246000fd5b600181811c90821680620001d557607f821691505b602082108103620001f657634e487b7160e01b600052602260045260246000fd5b50919050565b601f821115620001a557600081815260208120601f850160051c81016020861015620002255750805b601f850160051c820191505b81811015620002465782815560010162000231565b505050505050565b81516001600160401b038111156200026a576200026a620001aa565b62000282816200027b8454620001c0565b84620001fc565b602080601f831160018114620002ba5760008415620002a15750858301515b600019600386901b1c1916600185901b17855562000246565b600085815260208120601f198616915b82811015620002eb57888601518255948401946001909101908401620002ca565b50858210156200030a5787850151600019600388901b60f8161c191681555b5050505050600190811b01905550565b634e487b7160e01b600052601160045260246000fd5b600181815b80851115620003715781600019048211156200035557620003556200031a565b808516156200036357918102915b93841c939080029062000335565b509250929050565b6000826200038a5750600162000429565b81620003995750600062000429565b8160018114620003b25760028114620003bd57620003dd565b600191505062000429565b60ff841115620003d157620003d16200031a565b50506001821b62000429565b5060208310610133831016604e8410600b841016171562000402575081810a62000429565b6200040e838362000330565b80600019048211156200042557620004256200031a565b0290505b92915050565b60006200044060ff84168362000379565b9392505050565b60008160001904831182151516156200046457620004646200031a565b500290565b808201808211156200042957620004296200031a565b6119c0806200048f6000396000f3fe608060405234801561001057600080fd5b50600436106101c45760003560e01c806370a08231116100f9578063b56eebfb11610097578063e8b7893e11610071578063e8b7893e1461044c578063ecfb5d1714610454578063ef9314ab14610467578063f0f4e15b1461047a57600080fd5b8063b56eebfb146103f6578063d88b16611461040b578063dd62ed3e1461041357600080fd5b8063991ec6f7116100d3578063991ec6f714610372578063a457c2d7146103bd578063a9059cbb146103d0578063b4a99a4e146103e357600080fd5b806370a082311461032e5780637e875e581461035757806395d89b411461036a57600080fd5b8063313ce56711610166578063403af87511610140578063403af8751461029b57806340c10f19146102c45780635455bce2146102d757806356a265a2146102ea57600080fd5b8063313ce5671461026657806339509351146102755780633bbed4a01461028857600080fd5b806318160ddd116101a257806318160ddd14610219578063214405fc1461022b57806323b872dd146102405780632bdb70971461025357600080fd5b806301ffc9a7146101c957806306fdde03146101f1578063095ea7b314610206575b600080fd5b6101dc6101d73660046114cb565b61049a565b60405190151581526020015b60405180910390f35b6101f96104d1565b6040516101e891906114f5565b6101dc61021436600461155f565b610563565b6002545b6040519081526020016101e8565b61023e61023936600461155f565b6105d8565b005b6101dc61024e366004611589565b6106d8565b61023e61026136600461155f565b61077a565b604051601281526020016101e8565b6101dc61028336600461155f565b610824565b61023e6102963660046115c5565b61085e565b61021d6102a93660046115c5565b6001600160a01b031660009081526005602052604090205490565b61023e6102d236600461155f565b610957565b6101dc6102e53660046115c5565b61098f565b6103166102f83660046115c5565b6001600160a01b039081166000908152600860205260409020541690565b6040516001600160a01b0390911681526020016101e8565b61021d61033c3660046115c5565b6001600160a01b031660009081526020819052604090205490565b61023e61036536600461155f565b610a0a565b6101f9610b0f565b6103856103803660046115c5565b610b1e565b60408051951515865260208601949094526001600160a01b03909216928401929092526060830191909152608082015260a0016101e8565b6101dc6103cb36600461155f565b610b88565b6101dc6103de36600461155f565b610c1a565b600a54610316906001600160a01b031681565b6103fe610c95565b6040516101e891906115e0565b61023e610cf6565b61021d61042136600461162d565b6001600160a01b03918216600090815260016020908152604080832093909416825291909152205490565b61023e610d18565b61023e6104623660046115c5565b610d69565b61023e61047536600461155f565b610f0b565b61021d6104883660046115c5565b60056020526000908152604090205481565b60006001600160e01b0319821663532ed72160e01b14806104cb57506001600160e01b031982166301ffc9a760e01b145b92915050565b6060600380546104e090611660565b80601f016020809104026020016040519081016040528092919081815260200182805461050c90611660565b80156105595780601f1061052e57610100808354040283529160200191610559565b820191906000526020600020905b81548152906001019060200180831161053c57829003601f168201915b5050505050905090565b600033610571818585610ff8565b336000908152600860205260409020546001600160a01b0316156105ce57600061059a3361111c565b905060006127106105ab83876116aa565b6105b591906116c9565b90506105cb83876105c688856116eb565b610ff8565b50505b5060019392505050565b600a546001600160a01b0316331461060b5760405162461bcd60e51b8152600401610602906116fe565b60405180910390fd5b6001600160a01b0382166000908152600660205260408120549003610691576001600160a01b0382166000818152600560209081526040808320859055600980546001810182557f6e1540171b6c0c960b71a7020d9f60077f6af931a8bbf590da0223dacf75c7af0180546001600160a01b031916861790555493835260069091529020555b604080516001600160a01b0384168152602081018390527f62c1e066774519db9fe35767c15fc33df2f016675b7cc0c330ed185f286a2d5291015b60405180910390a15050565b6000336106e685828561118c565b6001600160a01b038581166000908152600860205260409020541615610764576001600160a01b038086166000908152600860205260408120549091169061072d8761111c565b9050600061271061073e83886116aa565b61074891906116c9565b905061075588858361118c565b61076088848361121e565b5050505b61076f85858561121e565b506001949350505050565b61271081111561079c5760405162461bcd60e51b815260040161060290611733565b6001600160a01b03821660009081526005602052604081205490036107d35760405162461bcd60e51b815260040161060290611790565b6001600160a01b038216600081815260056020908152604091829020849055815192835282018390527f272200c8484b4881d4bf8552d6783858e314cf8fc05461d9f87fded68327e66a91016106cc565b3360008181526001602090815260408083206001600160a01b03871684529091528120549091906105ce90829086906105c69087906116eb565b6001600160a01b03811660009081526005602052604081205490036108d45760405162461bcd60e51b815260206004820152602660248201527f4552433230436861726974793a20696e76616c69642077686974656c6973746560448201526564207261746560d01b6064820152608401610602565b33600081815260086020908152604080832080546001600160a01b0319166001600160a01b0387169081179091558084526005835281842054948452600783528184208185528352928190209390935591519081527f6d4c462cdec505a621711d5ca414bc431f78e79746ca66270e7aa87947b59ab3910160405180910390a150565b600a546001600160a01b031633146109815760405162461bcd60e51b8152600401610602906116fe565b61098b82826113ec565b5050565b6040516301ffc9a760e01b815263532ed72160e01b600482015260009081906001600160a01b038416906301ffc9a790602401602060405180830381865afa1580156109df573d6000803e3d6000fd5b505050506040513d601f19601f82011682018060405250810190610a0391906117d9565b9392505050565b612710811115610a2c5760405162461bcd60e51b815260040161060290611733565b6001600160a01b038216600090815260056020526040902054811015610a645760405162461bcd60e51b8152600401610602906117fb565b6001600160a01b0382166000908152600560205260408120549003610a9b5760405162461bcd60e51b815260040161060290611790565b33600090815260086020908152604080832080546001600160a01b0319166001600160a01b0387169081179091556007835281842081855283529281902084905580519283529082018390527f21470041ef9ff574315005b52c90c0f22b3499a708aee20330f95853e2583b6991016106cc565b6060600480546104e090611660565b6001600160a01b038082166000908152600560208181526040808420543380865260088452828620549096168086529383528185205495855260078352818520848652909252832054929390928315610b7a5760019450610b7f565b600094505b91939590929450565b3360008181526001602090815260408083206001600160a01b038716845290915281205490919083811015610c0d5760405162461bcd60e51b815260206004820152602560248201527f45524332303a2064656372656173656420616c6c6f77616e63652062656c6f77604482015264207a65726f60d81b6064820152608401610602565b61076f8286868403610ff8565b336000818152600860205260408120549091906001600160a01b031615610c8a57336000818152600860205260408120546001600160a01b031691610c5e9061111c565b90506000612710610c6f83886116aa565b610c7991906116c9565b9050610c8684848361121e565b5050505b6105ce81858561121e565b6060600980548060200260200160405190810160405280929190818152602001828054801561055957602002820191906000526020600020905b81546001600160a01b03168152600190910190602001808311610ccf575050505050905090565b610d1633610d066012600a61193c565b610d119060646116aa565b6113ec565b565b33600090815260086020908152604080832080546001600160a01b0319169055519182527f6d4c462cdec505a621711d5ca414bc431f78e79746ca66270e7aa87947b59ab3910160405180910390a1565b600a546001600160a01b03163314610d935760405162461bcd60e51b8152600401610602906116fe565b6001600160a01b03811660009081526006602052604090205480610de95760405162461bcd60e51b815260206004820152600d60248201526c092dcecc2d8d2c840d2dcc8caf609b1b6044820152606401610602565b6009805460009190610dfd9060019061194b565b81548110610e0d57610e0d61195e565b6000918252602090912001546001600160a01b03169050806009610e3260018561194b565b81548110610e4257610e4261195e565b600091825260208083209190910180546001600160a01b0319166001600160a01b0394851617905591831681526006909152604090208290556009805480610e8c57610e8c611974565b60008281526020808220600019908401810180546001600160a01b03191690559092019092556001600160a01b038516808352600682526040808420849055600583528084209390935591519182527fcdd2e9b91a56913d370075169cefa1602ba36be5301664f752192bb1709df757910160405180910390a1505050565b612710811115610f2d5760405162461bcd60e51b815260040161060290611733565b6001600160a01b0382166000908152600560205260408120549003610f645760405162461bcd60e51b815260040161060290611790565b6001600160a01b038216600090815260056020526040902054811015610f9c5760405162461bcd60e51b8152600401610602906117fb565b3360009081526007602090815260408083206001600160a01b0386168085529083529281902084905580519283529082018390527fca0b363fd271fc3763c2c2c23802aebb7a4f4851a177be5dc763d58083f6920191016106cc565b6001600160a01b03831661105a5760405162461bcd60e51b8152602060048201526024808201527f45524332303a20617070726f76652066726f6d20746865207a65726f206164646044820152637265737360e01b6064820152608401610602565b6001600160a01b0382166110bb5760405162461bcd60e51b815260206004820152602260248201527f45524332303a20617070726f766520746f20746865207a65726f206164647265604482015261737360f01b6064820152608401610602565b6001600160a01b0383811660008181526001602090815260408083209487168084529482529182902085905590518481527f8c5be1e5ebec7d5bd14f71427d1e84f3dd0314c0f7b2291e5b200ac8c7c3b925910160405180910390a3505050565b6001600160a01b0380821660009081526008602090815260408083205460078352818420941680845293825280832054600590925290912054909190158061117c57506001600160a01b0383811660009081526008602052604090205416155b1561118657600091505b50919050565b6001600160a01b038381166000908152600160209081526040808320938616835292905220546000198114611218578181101561120b5760405162461bcd60e51b815260206004820152601d60248201527f45524332303a20696e73756666696369656e7420616c6c6f77616e63650000006044820152606401610602565b6112188484848403610ff8565b50505050565b6001600160a01b0383166112825760405162461bcd60e51b815260206004820152602560248201527f45524332303a207472616e736665722066726f6d20746865207a65726f206164604482015264647265737360d81b6064820152608401610602565b6001600160a01b0382166112e45760405162461bcd60e51b815260206004820152602360248201527f45524332303a207472616e7366657220746f20746865207a65726f206164647260448201526265737360e81b6064820152608401610602565b6001600160a01b0383166000908152602081905260409020548181101561135c5760405162461bcd60e51b815260206004820152602660248201527f45524332303a207472616e7366657220616d6f756e7420657863656564732062604482015265616c616e636560d01b6064820152608401610602565b6001600160a01b038085166000908152602081905260408082208585039055918516815290812080548492906113939084906116eb565b92505081905550826001600160a01b0316846001600160a01b03167fddf252ad1be2c89b69c2b068fc378daa952ba7f163c4a11628f55a4df523b3ef846040516113df91815260200190565b60405180910390a3611218565b6001600160a01b0382166114425760405162461bcd60e51b815260206004820152601f60248201527f45524332303a206d696e7420746f20746865207a65726f2061646472657373006044820152606401610602565b806002600082825461145491906116eb565b90915550506001600160a01b038216600090815260208190526040812080548392906114819084906116eb565b90915550506040518181526001600160a01b038316906000907fddf252ad1be2c89b69c2b068fc378daa952ba7f163c4a11628f55a4df523b3ef9060200160405180910390a35050565b6000602082840312156114dd57600080fd5b81356001600160e01b031981168114610a0357600080fd5b600060208083528351808285015260005b8181101561152257858101830151858201604001528201611506565b506000604082860101526040601f19601f8301168501019250505092915050565b80356001600160a01b038116811461155a57600080fd5b919050565b6000806040838503121561157257600080fd5b61157b83611543565b946020939093013593505050565b60008060006060848603121561159e57600080fd5b6115a784611543565b92506115b560208501611543565b9150604084013590509250925092565b6000602082840312156115d757600080fd5b610a0382611543565b6020808252825182820181905260009190848201906040850190845b818110156116215783516001600160a01b0316835292840192918401916001016115fc565b50909695505050505050565b6000806040838503121561164057600080fd5b61164983611543565b915061165760208401611543565b90509250929050565b600181811c9082168061167457607f821691505b60208210810361118657634e487b7160e01b600052602260045260246000fd5b634e487b7160e01b600052601160045260246000fd5b60008160001904831182151516156116c4576116c4611694565b500290565b6000826116e657634e487b7160e01b600052601260045260246000fd5b500490565b808201808211156104cb576104cb611694565b6020808252818101527f4f776e61626c653a2063616c6c6572206973206e6f7420746865206f776e6572604082015260600190565b60208082526038908201527f4552433230436861726974793a2072617465206d75737420626520626574776560408201527f656e203020616e64205f66656544656e6f6d696e61746f720000000000000000606082015260800190565b60208082526029908201527f4552433230436861726974793a20696e76616c69642077686974656c6973746560408201526864206164647265737360b81b606082015260800190565b6000602082840312156117eb57600080fd5b81518015158114610a0357600080fd5b6020808252603b908201527f4552433230436861726974793a207261746520666565206d757374206578636560408201527f656420746865206665652073657420627920746865206f776e65720000000000606082015260800190565b600181815b8085111561189357816000190482111561187957611879611694565b8085161561188657918102915b93841c939080029061185d565b509250929050565b6000826118aa575060016104cb565b816118b7575060006104cb565b81600181146118cd57600281146118d7576118f3565b60019150506104cb565b60ff8411156118e8576118e8611694565b50506001821b6104cb565b5060208310610133831016604e8410600b8410161715611916575081810a6104cb565b6119208383611858565b806000190482111561193457611934611694565b029392505050565b6000610a0360ff84168361189b565b818103818111156104cb576104cb611694565b634e487b7160e01b600052603260045260246000fd5b634e487b7160e01b600052603160045260246000fdfea2646970667358221220b8e5c2adedb2daa11941a65eff35101c0437c3cec7b5e27f509564fe618c574064736f6c63430008100033",
          "opcodes": "PUSH1 0x80 PUSH1 0x40 MSTORE CALLVALUE DUP1 ISZERO PUSH3 0x11 JUMPI PUSH1 0x0 DUP1 REVERT JUMPDEST POP PUSH1 0x40 MLOAD DUP1 PUSH1 0x40 ADD PUSH1 0x40 MSTORE DUP1 PUSH1 0x9 DUP2 MSTORE PUSH1 0x20 ADD PUSH9 0x2A32B9BA2A37B5B2B7 PUSH1 0xB9 SHL DUP2 MSTORE POP PUSH1 0x40 MLOAD DUP1 PUSH1 0x40 ADD PUSH1 0x40 MSTORE DUP1 PUSH1 0x3 DUP2 MSTORE PUSH1 0x20 ADD PUSH3 0x1514D5 PUSH1 0xEA SHL DUP2 MSTORE POP DUP2 PUSH1 0x3 SWAP1 DUP2 PUSH3 0x61 SWAP2 SWAP1 PUSH3 0x24E JUMP JUMPDEST POP PUSH1 0x4 PUSH3 0x70 DUP3 DUP3 PUSH3 0x24E JUMP JUMPDEST POP POP PUSH1 0xA DUP1 SLOAD PUSH1 0x1 PUSH1 0x1 PUSH1 0xA0 SHL SUB NOT AND CALLER SWAP1 DUP2 OR SWAP1 SWAP2 SSTORE PUSH3 0xB7 SWAP2 POP PUSH3 0x96 PUSH1 0x12 SWAP1 JUMP JUMPDEST PUSH3 0xA3 SWAP1 PUSH1 0xA PUSH3 0x42F JUMP JUMPDEST PUSH3 0xB1 SWAP1 PUSH2 0x2710 PUSH3 0x447 JUMP JUMPDEST PUSH3 0xBD JUMP JUMPDEST PUSH3 0x47F JUMP JUMPDEST PUSH1 0x1 PUSH1 0x1 PUSH1 0xA0 SHL SUB DUP3 AND PUSH3 0x118 JUMPI PUSH1 0x40 MLOAD PUSH3 0x461BCD PUSH1 0xE5 SHL DUP2 MSTORE PUSH1 0x20 PUSH1 0x4 DUP3 ADD MSTORE PUSH1 0x1F PUSH1 0x24 DUP3 ADD MSTORE PUSH32 0x45524332303A206D696E7420746F20746865207A65726F206164647265737300 PUSH1 0x44 DUP3 ADD MSTORE PUSH1 0x64 ADD PUSH1 0x40 MLOAD DUP1 SWAP2 SUB SWAP1 REVERT JUMPDEST DUP1 PUSH1 0x2 PUSH1 0x0 DUP3 DUP3 SLOAD PUSH3 0x12C SWAP2 SWAP1 PUSH3 0x469 JUMP JUMPDEST SWAP1 SWAP2 SSTORE POP POP PUSH1 0x1 PUSH1 0x1 PUSH1 0xA0 SHL SUB DUP3 AND PUSH1 0x0 SWAP1 DUP2 MSTORE PUSH1 0x20 DUP2 SWAP1 MSTORE PUSH1 0x40 DUP2 KECCAK256 DUP1 SLOAD DUP4 SWAP3 SWAP1 PUSH3 0x15B SWAP1 DUP5 SWAP1 PUSH3 0x469 JUMP JUMPDEST SWAP1 SWAP2 SSTORE POP POP PUSH1 0x40 MLOAD DUP2 DUP2 MSTORE PUSH1 0x1 PUSH1 0x1 PUSH1 0xA0 SHL SUB DUP4 AND SWAP1 PUSH1 0x0 SWAP1 PUSH32 0xDDF252AD1BE2C89B69C2B068FC378DAA952BA7F163C4A11628F55A4DF523B3EF SWAP1 PUSH1 0x20 ADD PUSH1 0x40 MLOAD DUP1 SWAP2 SUB SWAP1 LOG3 POP POP JUMP JUMPDEST POP POP POP JUMP JUMPDEST PUSH4 0x4E487B71 PUSH1 0xE0 SHL PUSH1 0x0 MSTORE PUSH1 0x41 PUSH1 0x4 MSTORE PUSH1 0x24 PUSH1 0x0 REVERT JUMPDEST PUSH1 0x1 DUP2 DUP2 SHR SWAP1 DUP3 AND DUP1 PUSH3 0x1D5 JUMPI PUSH1 0x7F DUP3 AND SWAP2 POP JUMPDEST PUSH1 0x20 DUP3 LT DUP2 SUB PUSH3 0x1F6 JUMPI PUSH4 0x4E487B71 PUSH1 0xE0 SHL PUSH1 0x0 MSTORE PUSH1 0x22 PUSH1 0x4 MSTORE PUSH1 0x24 PUSH1 0x0 REVERT JUMPDEST POP SWAP2 SWAP1 POP JUMP JUMPDEST PUSH1 0x1F DUP3 GT ISZERO PUSH3 0x1A5 JUMPI PUSH1 0x0 DUP2 DUP2 MSTORE PUSH1 0x20 DUP2 KECCAK256 PUSH1 0x1F DUP6 ADD PUSH1 0x5 SHR DUP2 ADD PUSH1 0x20 DUP7 LT ISZERO PUSH3 0x225 JUMPI POP DUP1 JUMPDEST PUSH1 0x1F DUP6 ADD PUSH1 0x5 SHR DUP3 ADD SWAP2 POP JUMPDEST DUP2 DUP2 LT ISZERO PUSH3 0x246 JUMPI DUP3 DUP2 SSTORE PUSH1 0x1 ADD PUSH3 0x231 JUMP JUMPDEST POP POP POP POP POP POP JUMP JUMPDEST DUP2 MLOAD PUSH1 0x1 PUSH1 0x1 PUSH1 0x40 SHL SUB DUP2 GT ISZERO PUSH3 0x26A JUMPI PUSH3 0x26A PUSH3 0x1AA JUMP JUMPDEST PUSH3 0x282 DUP2 PUSH3 0x27B DUP5 SLOAD PUSH3 0x1C0 JUMP JUMPDEST DUP5 PUSH3 0x1FC JUMP JUMPDEST PUSH1 0x20 DUP1 PUSH1 0x1F DUP4 GT PUSH1 0x1 DUP2 EQ PUSH3 0x2BA JUMPI PUSH1 0x0 DUP5 ISZERO PUSH3 0x2A1 JUMPI POP DUP6 DUP4 ADD MLOAD JUMPDEST PUSH1 0x0 NOT PUSH1 0x3 DUP7 SWAP1 SHL SHR NOT AND PUSH1 0x1 DUP6 SWAP1 SHL OR DUP6 SSTORE PUSH3 0x246 JUMP JUMPDEST PUSH1 0x0 DUP6 DUP2 MSTORE PUSH1 0x20 DUP2 KECCAK256 PUSH1 0x1F NOT DUP7 AND SWAP2 JUMPDEST DUP3 DUP2 LT ISZERO PUSH3 0x2EB JUMPI DUP9 DUP7 ADD MLOAD DUP3 SSTORE SWAP5 DUP5 ADD SWAP5 PUSH1 0x1 SWAP1 SWAP2 ADD SWAP1 DUP5 ADD PUSH3 0x2CA JUMP JUMPDEST POP DUP6 DUP3 LT ISZERO PUSH3 0x30A JUMPI DUP8 DUP6 ADD MLOAD PUSH1 0x0 NOT PUSH1 0x3 DUP9 SWAP1 SHL PUSH1 0xF8 AND SHR NOT AND DUP2 SSTORE JUMPDEST POP POP POP POP POP PUSH1 0x1 SWAP1 DUP2 SHL ADD SWAP1 SSTORE POP JUMP JUMPDEST PUSH4 0x4E487B71 PUSH1 0xE0 SHL PUSH1 0x0 MSTORE PUSH1 0x11 PUSH1 0x4 MSTORE PUSH1 0x24 PUSH1 0x0 REVERT JUMPDEST PUSH1 0x1 DUP2 DUP2 JUMPDEST DUP1 DUP6 GT ISZERO PUSH3 0x371 JUMPI DUP2 PUSH1 0x0 NOT DIV DUP3 GT ISZERO PUSH3 0x355 JUMPI PUSH3 0x355 PUSH3 0x31A JUMP JUMPDEST DUP1 DUP6 AND ISZERO PUSH3 0x363 JUMPI SWAP2 DUP2 MUL SWAP2 JUMPDEST SWAP4 DUP5 SHR SWAP4 SWAP1 DUP1 MUL SWAP1 PUSH3 0x335 JUMP JUMPDEST POP SWAP3 POP SWAP3 SWAP1 POP JUMP JUMPDEST PUSH1 0x0 DUP3 PUSH3 0x38A JUMPI POP PUSH1 0x1 PUSH3 0x429 JUMP JUMPDEST DUP2 PUSH3 0x399 JUMPI POP PUSH1 0x0 PUSH3 0x429 JUMP JUMPDEST DUP2 PUSH1 0x1 DUP2 EQ PUSH3 0x3B2 JUMPI PUSH1 0x2 DUP2 EQ PUSH3 0x3BD JUMPI PUSH3 0x3DD JUMP JUMPDEST PUSH1 0x1 SWAP2 POP POP PUSH3 0x429 JUMP JUMPDEST PUSH1 0xFF DUP5 GT ISZERO PUSH3 0x3D1 JUMPI PUSH3 0x3D1 PUSH3 0x31A JUMP JUMPDEST POP POP PUSH1 0x1 DUP3 SHL PUSH3 0x429 JUMP JUMPDEST POP PUSH1 0x20 DUP4 LT PUSH2 0x133 DUP4 LT AND PUSH1 0x4E DUP5 LT PUSH1 0xB DUP5 LT AND OR ISZERO PUSH3 0x402 JUMPI POP DUP2 DUP2 EXP PUSH3 0x429 JUMP JUMPDEST PUSH3 0x40E DUP4 DUP4 PUSH3 0x330 JUMP JUMPDEST DUP1 PUSH1 0x0 NOT DIV DUP3 GT ISZERO PUSH3 0x425 JUMPI PUSH3 0x425 PUSH3 0x31A JUMP JUMPDEST MUL SWAP1 POP JUMPDEST SWAP3 SWAP2 POP POP JUMP JUMPDEST PUSH1 0x0 PUSH3 0x440 PUSH1 0xFF DUP5 AND DUP4 PUSH3 0x379 JUMP JUMPDEST SWAP4 SWAP3 POP POP POP JUMP JUMPDEST PUSH1 0x0 DUP2 PUSH1 0x0 NOT DIV DUP4 GT DUP3 ISZERO ISZERO AND ISZERO PUSH3 0x464 JUMPI PUSH3 0x464 PUSH3 0x31A JUMP JUMPDEST POP MUL SWAP1 JUMP JUMPDEST DUP1 DUP3 ADD DUP1 DUP3 GT ISZERO PUSH3 0x429 JUMPI PUSH3 0x429 PUSH3 0x31A JUMP JUMPDEST PUSH2 0x19C0 DUP1 PUSH3 0x48F PUSH1 0x0 CODECOPY PUSH1 0x0 RETURN INVALID PUSH1 0x80 PUSH1 0x40 MSTORE CALLVALUE DUP1 ISZERO PUSH2 0x10 JUMPI PUSH1 0x0 DUP1 REVERT JUMPDEST POP PUSH1 0x4 CALLDATASIZE LT PUSH2 0x1C4 JUMPI PUSH1 0x0 CALLDATALOAD PUSH1 0xE0 SHR DUP1 PUSH4 0x70A08231 GT PUSH2 0xF9 JUMPI DUP1 PUSH4 0xB56EEBFB GT PUSH2 0x97 JUMPI DUP1 PUSH4 0xE8B7893E GT PUSH2 0x71 JUMPI DUP1 PUSH4 0xE8B7893E EQ PUSH2 0x44C JUMPI DUP1 PUSH4 0xECFB5D17 EQ PUSH2 0x454 JUMPI DUP1 PUSH4 0xEF9314AB EQ PUSH2 0x467 JUMPI DUP1 PUSH4 0xF0F4E15B EQ PUSH2 0x47A JUMPI PUSH1 0x0 DUP1 REVERT JUMPDEST DUP1 PUSH4 0xB56EEBFB EQ PUSH2 0x3F6 JUMPI DUP1 PUSH4 0xD88B1661 EQ PUSH2 0x40B JUMPI DUP1 PUSH4 0xDD62ED3E EQ PUSH2 0x413 JUMPI PUSH1 0x0 DUP1 REVERT JUMPDEST DUP1 PUSH4 0x991EC6F7 GT PUSH2 0xD3 JUMPI DUP1 PUSH4 0x991EC6F7 EQ PUSH2 0x372 JUMPI DUP1 PUSH4 0xA457C2D7 EQ PUSH2 0x3BD JUMPI DUP1 PUSH4 0xA9059CBB EQ PUSH2 0x3D0 JUMPI DUP1 PUSH4 0xB4A99A4E EQ PUSH2 0x3E3 JUMPI PUSH1 0x0 DUP1 REVERT JUMPDEST DUP1 PUSH4 0x70A08231 EQ PUSH2 0x32E JUMPI DUP1 PUSH4 0x7E875E58 EQ PUSH2 0x357 JUMPI DUP1 PUSH4 0x95D89B41 EQ PUSH2 0x36A JUMPI PUSH1 0x0 DUP1 REVERT JUMPDEST DUP1 PUSH4 0x313CE567 GT PUSH2 0x166 JUMPI DUP1 PUSH4 0x403AF875 GT PUSH2 0x140 JUMPI DUP1 PUSH4 0x403AF875 EQ PUSH2 0x29B JUMPI DUP1 PUSH4 0x40C10F19 EQ PUSH2 0x2C4 JUMPI DUP1 PUSH4 0x5455BCE2 EQ PUSH2 0x2D7 JUMPI DUP1 PUSH4 0x56A265A2 EQ PUSH2 0x2EA JUMPI PUSH1 0x0 DUP1 REVERT JUMPDEST DUP1 PUSH4 0x313CE567 EQ PUSH2 0x266 JUMPI DUP1 PUSH4 0x39509351 EQ PUSH2 0x275 JUMPI DUP1 PUSH4 0x3BBED4A0 EQ PUSH2 0x288 JUMPI PUSH1 0x0 DUP1 REVERT JUMPDEST DUP1 PUSH4 0x18160DDD GT PUSH2 0x1A2 JUMPI DUP1 PUSH4 0x18160DDD EQ PUSH2 0x219 JUMPI DUP1 PUSH4 0x214405FC EQ PUSH2 0x22B JUMPI DUP1 PUSH4 0x23B872DD EQ PUSH2 0x240 JUMPI DUP1 PUSH4 0x2BDB7097 EQ PUSH2 0x253 JUMPI PUSH1 0x0 DUP1 REVERT JUMPDEST DUP1 PUSH4 0x1FFC9A7 EQ PUSH2 0x1C9 JUMPI DUP1 PUSH4 0x6FDDE03 EQ PUSH2 0x1F1 JUMPI DUP1 PUSH4 0x95EA7B3 EQ PUSH2 0x206 JUMPI JUMPDEST PUSH1 0x0 DUP1 REVERT JUMPDEST PUSH2 0x1DC PUSH2 0x1D7 CALLDATASIZE PUSH1 0x4 PUSH2 0x14CB JUMP JUMPDEST PUSH2 0x49A JUMP JUMPDEST PUSH1 0x40 MLOAD SWAP1 ISZERO ISZERO DUP2 MSTORE PUSH1 0x20 ADD JUMPDEST PUSH1 0x40 MLOAD DUP1 SWAP2 SUB SWAP1 RETURN JUMPDEST PUSH2 0x1F9 PUSH2 0x4D1 JUMP JUMPDEST PUSH1 0x40 MLOAD PUSH2 0x1E8 SWAP2 SWAP1 PUSH2 0x14F5 JUMP JUMPDEST PUSH2 0x1DC PUSH2 0x214 CALLDATASIZE PUSH1 0x4 PUSH2 0x155F JUMP JUMPDEST PUSH2 0x563 JUMP JUMPDEST PUSH1 0x2 SLOAD JUMPDEST PUSH1 0x40 MLOAD SWAP1 DUP2 MSTORE PUSH1 0x20 ADD PUSH2 0x1E8 JUMP JUMPDEST PUSH2 0x23E PUSH2 0x239 CALLDATASIZE PUSH1 0x4 PUSH2 0x155F JUMP JUMPDEST PUSH2 0x5D8 JUMP JUMPDEST STOP JUMPDEST PUSH2 0x1DC PUSH2 0x24E CALLDATASIZE PUSH1 0x4 PUSH2 0x1589 JUMP JUMPDEST PUSH2 0x6D8 JUMP JUMPDEST PUSH2 0x23E PUSH2 0x261 CALLDATASIZE PUSH1 0x4 PUSH2 0x155F JUMP JUMPDEST PUSH2 0x77A JUMP JUMPDEST PUSH1 0x40 MLOAD PUSH1 0x12 DUP2 MSTORE PUSH1 0x20 ADD PUSH2 0x1E8 JUMP JUMPDEST PUSH2 0x1DC PUSH2 0x283 CALLDATASIZE PUSH1 0x4 PUSH2 0x155F JUMP JUMPDEST PUSH2 0x824 JUMP JUMPDEST PUSH2 0x23E PUSH2 0x296 CALLDATASIZE PUSH1 0x4 PUSH2 0x15C5 JUMP JUMPDEST PUSH2 0x85E JUMP JUMPDEST PUSH2 0x21D PUSH2 0x2A9 CALLDATASIZE PUSH1 0x4 PUSH2 0x15C5 JUMP JUMPDEST PUSH1 0x1 PUSH1 0x1 PUSH1 0xA0 SHL SUB AND PUSH1 0x0 SWAP1 DUP2 MSTORE PUSH1 0x5 PUSH1 0x20 MSTORE PUSH1 0x40 SWAP1 KECCAK256 SLOAD SWAP1 JUMP JUMPDEST PUSH2 0x23E PUSH2 0x2D2 CALLDATASIZE PUSH1 0x4 PUSH2 0x155F JUMP JUMPDEST PUSH2 0x957 JUMP JUMPDEST PUSH2 0x1DC PUSH2 0x2E5 CALLDATASIZE PUSH1 0x4 PUSH2 0x15C5 JUMP JUMPDEST PUSH2 0x98F JUMP JUMPDEST PUSH2 0x316 PUSH2 0x2F8 CALLDATASIZE PUSH1 0x4 PUSH2 0x15C5 JUMP JUMPDEST PUSH1 0x1 PUSH1 0x1 PUSH1 0xA0 SHL SUB SWAP1 DUP2 AND PUSH1 0x0 SWAP1 DUP2 MSTORE PUSH1 0x8 PUSH1 0x20 MSTORE PUSH1 0x40 SWAP1 KECCAK256 SLOAD AND SWAP1 JUMP JUMPDEST PUSH1 0x40 MLOAD PUSH1 0x1 PUSH1 0x1 PUSH1 0xA0 SHL SUB SWAP1 SWAP2 AND DUP2 MSTORE PUSH1 0x20 ADD PUSH2 0x1E8 JUMP JUMPDEST PUSH2 0x21D PUSH2 0x33C CALLDATASIZE PUSH1 0x4 PUSH2 0x15C5 JUMP JUMPDEST PUSH1 0x1 PUSH1 0x1 PUSH1 0xA0 SHL SUB AND PUSH1 0x0 SWAP1 DUP2 MSTORE PUSH1 0x20 DUP2 SWAP1 MSTORE PUSH1 0x40 SWAP1 KECCAK256 SLOAD SWAP1 JUMP JUMPDEST PUSH2 0x23E PUSH2 0x365 CALLDATASIZE PUSH1 0x4 PUSH2 0x155F JUMP JUMPDEST PUSH2 0xA0A JUMP JUMPDEST PUSH2 0x1F9 PUSH2 0xB0F JUMP JUMPDEST PUSH2 0x385 PUSH2 0x380 CALLDATASIZE PUSH1 0x4 PUSH2 0x15C5 JUMP JUMPDEST PUSH2 0xB1E JUMP JUMPDEST PUSH1 0x40 DUP1 MLOAD SWAP6 ISZERO ISZERO DUP7 MSTORE PUSH1 0x20 DUP7 ADD SWAP5 SWAP1 SWAP5 MSTORE PUSH1 0x1 PUSH1 0x1 PUSH1 0xA0 SHL SUB SWAP1 SWAP3 AND SWAP3 DUP5 ADD SWAP3 SWAP1 SWAP3 MSTORE PUSH1 0x60 DUP4 ADD SWAP2 SWAP1 SWAP2 MSTORE PUSH1 0x80 DUP3 ADD MSTORE PUSH1 0xA0 ADD PUSH2 0x1E8 JUMP JUMPDEST PUSH2 0x1DC PUSH2 0x3CB CALLDATASIZE PUSH1 0x4 PUSH2 0x155F JUMP JUMPDEST PUSH2 0xB88 JUMP JUMPDEST PUSH2 0x1DC PUSH2 0x3DE CALLDATASIZE PUSH1 0x4 PUSH2 0x155F JUMP JUMPDEST PUSH2 0xC1A JUMP JUMPDEST PUSH1 0xA SLOAD PUSH2 0x316 SWAP1 PUSH1 0x1 PUSH1 0x1 PUSH1 0xA0 SHL SUB AND DUP2 JUMP JUMPDEST PUSH2 0x3FE PUSH2 0xC95 JUMP JUMPDEST PUSH1 0x40 MLOAD PUSH2 0x1E8 SWAP2 SWAP1 PUSH2 0x15E0 JUMP JUMPDEST PUSH2 0x23E PUSH2 0xCF6 JUMP JUMPDEST PUSH2 0x21D PUSH2 0x421 CALLDATASIZE PUSH1 0x4 PUSH2 0x162D JUMP JUMPDEST PUSH1 0x1 PUSH1 0x1 PUSH1 0xA0 SHL SUB SWAP2 DUP3 AND PUSH1 0x0 SWAP1 DUP2 MSTORE PUSH1 0x1 PUSH1 0x20 SWAP1 DUP2 MSTORE PUSH1 0x40 DUP1 DUP4 KECCAK256 SWAP4 SWAP1 SWAP5 AND DUP3 MSTORE SWAP2 SWAP1 SWAP2 MSTORE KECCAK256 SLOAD SWAP1 JUMP JUMPDEST PUSH2 0x23E PUSH2 0xD18 JUMP JUMPDEST PUSH2 0x23E PUSH2 0x462 CALLDATASIZE PUSH1 0x4 PUSH2 0x15C5 JUMP JUMPDEST PUSH2 0xD69 JUMP JUMPDEST PUSH2 0x23E PUSH2 0x475 CALLDATASIZE PUSH1 0x4 PUSH2 0x155F JUMP JUMPDEST PUSH2 0xF0B JUMP JUMPDEST PUSH2 0x21D PUSH2 0x488 CALLDATASIZE PUSH1 0x4 PUSH2 0x15C5 JUMP JUMPDEST PUSH1 0x5 PUSH1 0x20 MSTORE PUSH1 0x0 SWAP1 DUP2 MSTORE PUSH1 0x40 SWAP1 KECCAK256 SLOAD DUP2 JUMP JUMPDEST PUSH1 0x0 PUSH1 0x1 PUSH1 0x1 PUSH1 0xE0 SHL SUB NOT DUP3 AND PUSH4 0x532ED721 PUSH1 0xE0 SHL EQ DUP1 PUSH2 0x4CB JUMPI POP PUSH1 0x1 PUSH1 0x1 PUSH1 0xE0 SHL SUB NOT DUP3 AND PUSH4 0x1FFC9A7 PUSH1 0xE0 SHL EQ JUMPDEST SWAP3 SWAP2 POP POP JUMP JUMPDEST PUSH1 0x60 PUSH1 0x3 DUP1 SLOAD PUSH2 0x4E0 SWAP1 PUSH2 0x1660 JUMP JUMPDEST DUP1 PUSH1 0x1F ADD PUSH1 0x20 DUP1 SWAP2 DIV MUL PUSH1 0x20 ADD PUSH1 0x40 MLOAD SWAP1 DUP2 ADD PUSH1 0x40 MSTORE DUP1 SWAP3 SWAP2 SWAP1 DUP2 DUP2 MSTORE PUSH1 0x20 ADD DUP3 DUP1 SLOAD PUSH2 0x50C SWAP1 PUSH2 0x1660 JUMP JUMPDEST DUP1 ISZERO PUSH2 0x559 JUMPI DUP1 PUSH1 0x1F LT PUSH2 0x52E JUMPI PUSH2 0x100 DUP1 DUP4 SLOAD DIV MUL DUP4 MSTORE SWAP2 PUSH1 0x20 ADD SWAP2 PUSH2 0x559 JUMP JUMPDEST DUP3 ADD SWAP2 SWAP1 PUSH1 0x0 MSTORE PUSH1 0x20 PUSH1 0x0 KECCAK256 SWAP1 JUMPDEST DUP2 SLOAD DUP2 MSTORE SWAP1 PUSH1 0x1 ADD SWAP1 PUSH1 0x20 ADD DUP1 DUP4 GT PUSH2 0x53C JUMPI DUP3 SWAP1 SUB PUSH1 0x1F AND DUP3 ADD SWAP2 JUMPDEST POP POP POP POP POP SWAP1 POP SWAP1 JUMP JUMPDEST PUSH1 0x0 CALLER PUSH2 0x571 DUP2 DUP6 DUP6 PUSH2 0xFF8 JUMP JUMPDEST CALLER PUSH1 0x0 SWAP1 DUP2 MSTORE PUSH1 0x8 PUSH1 0x20 MSTORE PUSH1 0x40 SWAP1 KECCAK256 SLOAD PUSH1 0x1 PUSH1 0x1 PUSH1 0xA0 SHL SUB AND ISZERO PUSH2 0x5CE JUMPI PUSH1 0x0 PUSH2 0x59A CALLER PUSH2 0x111C JUMP JUMPDEST SWAP1 POP PUSH1 0x0 PUSH2 0x2710 PUSH2 0x5AB DUP4 DUP8 PUSH2 0x16AA JUMP JUMPDEST PUSH2 0x5B5 SWAP2 SWAP1 PUSH2 0x16C9 JUMP JUMPDEST SWAP1 POP PUSH2 0x5CB DUP4 DUP8 PUSH2 0x5C6 DUP9 DUP6 PUSH2 0x16EB JUMP JUMPDEST PUSH2 0xFF8 JUMP JUMPDEST POP POP JUMPDEST POP PUSH1 0x1 SWAP4 SWAP3 POP POP POP JUMP JUMPDEST PUSH1 0xA SLOAD PUSH1 0x1 PUSH1 0x1 PUSH1 0xA0 SHL SUB AND CALLER EQ PUSH2 0x60B JUMPI PUSH1 0x40 MLOAD PUSH3 0x461BCD PUSH1 0xE5 SHL DUP2 MSTORE PUSH1 0x4 ADD PUSH2 0x602 SWAP1 PUSH2 0x16FE JUMP JUMPDEST PUSH1 0x40 MLOAD DUP1 SWAP2 SUB SWAP1 REVERT JUMPDEST PUSH1 0x1 PUSH1 0x1 PUSH1 0xA0 SHL SUB DUP3 AND PUSH1 0x0 SWAP1 DUP2 MSTORE PUSH1 0x6 PUSH1 0x20 MSTORE PUSH1 0x40 DUP2 KECCAK256 SLOAD SWAP1 SUB PUSH2 0x691 JUMPI PUSH1 0x1 PUSH1 0x1 PUSH1 0xA0 SHL SUB DUP3 AND PUSH1 0x0 DUP2 DUP2 MSTORE PUSH1 0x5 PUSH1 0x20 SWAP1 DUP2 MSTORE PUSH1 0x40 DUP1 DUP4 KECCAK256 DUP6 SWAP1 SSTORE PUSH1 0x9 DUP1 SLOAD PUSH1 0x1 DUP2 ADD DUP3 SSTORE PUSH32 0x6E1540171B6C0C960B71A7020D9F60077F6AF931A8BBF590DA0223DACF75C7AF ADD DUP1 SLOAD PUSH1 0x1 PUSH1 0x1 PUSH1 0xA0 SHL SUB NOT AND DUP7 OR SWAP1 SSTORE SLOAD SWAP4 DUP4 MSTORE PUSH1 0x6 SWAP1 SWAP2 MSTORE SWAP1 KECCAK256 SSTORE JUMPDEST PUSH1 0x40 DUP1 MLOAD PUSH1 0x1 PUSH1 0x1 PUSH1 0xA0 SHL SUB DUP5 AND DUP2 MSTORE PUSH1 0x20 DUP2 ADD DUP4 SWAP1 MSTORE PUSH32 0x62C1E066774519DB9FE35767C15FC33DF2F016675B7CC0C330ED185F286A2D52 SWAP2 ADD JUMPDEST PUSH1 0x40 MLOAD DUP1 SWAP2 SUB SWAP1 LOG1 POP POP JUMP JUMPDEST PUSH1 0x0 CALLER PUSH2 0x6E6 DUP6 DUP3 DUP6 PUSH2 0x118C JUMP JUMPDEST PUSH1 0x1 PUSH1 0x1 PUSH1 0xA0 SHL SUB DUP6 DUP2 AND PUSH1 0x0 SWAP1 DUP2 MSTORE PUSH1 0x8 PUSH1 0x20 MSTORE PUSH1 0x40 SWAP1 KECCAK256 SLOAD AND ISZERO PUSH2 0x764 JUMPI PUSH1 0x1 PUSH1 0x1 PUSH1 0xA0 SHL SUB DUP1 DUP7 AND PUSH1 0x0 SWAP1 DUP2 MSTORE PUSH1 0x8 PUSH1 0x20 MSTORE PUSH1 0x40 DUP2 KECCAK256 SLOAD SWAP1 SWAP2 AND SWAP1 PUSH2 0x72D DUP8 PUSH2 0x111C JUMP JUMPDEST SWAP1 POP PUSH1 0x0 PUSH2 0x2710 PUSH2 0x73E DUP4 DUP9 PUSH2 0x16AA JUMP JUMPDEST PUSH2 0x748 SWAP2 SWAP1 PUSH2 0x16C9 JUMP JUMPDEST SWAP1 POP PUSH2 0x755 DUP9 DUP6 DUP4 PUSH2 0x118C JUMP JUMPDEST PUSH2 0x760 DUP9 DUP5 DUP4 PUSH2 0x121E JUMP JUMPDEST POP POP POP JUMPDEST PUSH2 0x76F DUP6 DUP6 DUP6 PUSH2 0x121E JUMP JUMPDEST POP PUSH1 0x1 SWAP5 SWAP4 POP POP POP POP JUMP JUMPDEST PUSH2 0x2710 DUP2 GT ISZERO PUSH2 0x79C JUMPI PUSH1 0x40 MLOAD PUSH3 0x461BCD PUSH1 0xE5 SHL DUP2 MSTORE PUSH1 0x4 ADD PUSH2 0x602 SWAP1 PUSH2 0x1733 JUMP JUMPDEST PUSH1 0x1 PUSH1 0x1 PUSH1 0xA0 SHL SUB DUP3 AND PUSH1 0x0 SWAP1 DUP2 MSTORE PUSH1 0x5 PUSH1 0x20 MSTORE PUSH1 0x40 DUP2 KECCAK256 SLOAD SWAP1 SUB PUSH2 0x7D3 JUMPI PUSH1 0x40 MLOAD PUSH3 0x461BCD PUSH1 0xE5 SHL DUP2 MSTORE PUSH1 0x4 ADD PUSH2 0x602 SWAP1 PUSH2 0x1790 JUMP JUMPDEST PUSH1 0x1 PUSH1 0x1 PUSH1 0xA0 SHL SUB DUP3 AND PUSH1 0x0 DUP2 DUP2 MSTORE PUSH1 0x5 PUSH1 0x20 SWAP1 DUP2 MSTORE PUSH1 0x40 SWAP2 DUP3 SWAP1 KECCAK256 DUP5 SWAP1 SSTORE DUP2 MLOAD SWAP3 DUP4 MSTORE DUP3 ADD DUP4 SWAP1 MSTORE PUSH32 0x272200C8484B4881D4BF8552D6783858E314CF8FC05461D9F87FDED68327E66A SWAP2 ADD PUSH2 0x6CC JUMP JUMPDEST CALLER PUSH1 0x0 DUP2 DUP2 MSTORE PUSH1 0x1 PUSH1 0x20 SWAP1 DUP2 MSTORE PUSH1 0x40 DUP1 DUP4 KECCAK256 PUSH1 0x1 PUSH1 0x1 PUSH1 0xA0 SHL SUB DUP8 AND DUP5 MSTORE SWAP1 SWAP2 MSTORE DUP2 KECCAK256 SLOAD SWAP1 SWAP2 SWAP1 PUSH2 0x5CE SWAP1 DUP3 SWAP1 DUP7 SWAP1 PUSH2 0x5C6 SWAP1 DUP8 SWAP1 PUSH2 0x16EB JUMP JUMPDEST PUSH1 0x1 PUSH1 0x1 PUSH1 0xA0 SHL SUB DUP2 AND PUSH1 0x0 SWAP1 DUP2 MSTORE PUSH1 0x5 PUSH1 0x20 MSTORE PUSH1 0x40 DUP2 KECCAK256 SLOAD SWAP1 SUB PUSH2 0x8D4 JUMPI PUSH1 0x40 MLOAD PUSH3 0x461BCD PUSH1 0xE5 SHL DUP2 MSTORE PUSH1 0x20 PUSH1 0x4 DUP3 ADD MSTORE PUSH1 0x26 PUSH1 0x24 DUP3 ADD MSTORE PUSH32 0x4552433230436861726974793A20696E76616C69642077686974656C69737465 PUSH1 0x44 DUP3 ADD MSTORE PUSH6 0x642072617465 PUSH1 0xD0 SHL PUSH1 0x64 DUP3 ADD MSTORE PUSH1 0x84 ADD PUSH2 0x602 JUMP JUMPDEST CALLER PUSH1 0x0 DUP2 DUP2 MSTORE PUSH1 0x8 PUSH1 0x20 SWAP1 DUP2 MSTORE PUSH1 0x40 DUP1 DUP4 KECCAK256 DUP1 SLOAD PUSH1 0x1 PUSH1 0x1 PUSH1 0xA0 SHL SUB NOT AND PUSH1 0x1 PUSH1 0x1 PUSH1 0xA0 SHL SUB DUP8 AND SWAP1 DUP2 OR SWAP1 SWAP2 SSTORE DUP1 DUP5 MSTORE PUSH1 0x5 DUP4 MSTORE DUP2 DUP5 KECCAK256 SLOAD SWAP5 DUP5 MSTORE PUSH1 0x7 DUP4 MSTORE DUP2 DUP5 KECCAK256 DUP2 DUP6 MSTORE DUP4 MSTORE SWAP3 DUP2 SWAP1 KECCAK256 SWAP4 SWAP1 SWAP4 SSTORE SWAP2 MLOAD SWAP1 DUP2 MSTORE PUSH32 0x6D4C462CDEC505A621711D5CA414BC431F78E79746CA66270E7AA87947B59AB3 SWAP2 ADD PUSH1 0x40 MLOAD DUP1 SWAP2 SUB SWAP1 LOG1 POP JUMP JUMPDEST PUSH1 0xA SLOAD PUSH1 0x1 PUSH1 0x1 PUSH1 0xA0 SHL SUB AND CALLER EQ PUSH2 0x981 JUMPI PUSH1 0x40 MLOAD PUSH3 0x461BCD PUSH1 0xE5 SHL DUP2 MSTORE PUSH1 0x4 ADD PUSH2 0x602 SWAP1 PUSH2 0x16FE JUMP JUMPDEST PUSH2 0x98B DUP3 DUP3 PUSH2 0x13EC JUMP JUMPDEST POP POP JUMP JUMPDEST PUSH1 0x40 MLOAD PUSH4 0x1FFC9A7 PUSH1 0xE0 SHL DUP2 MSTORE PUSH4 0x532ED721 PUSH1 0xE0 SHL PUSH1 0x4 DUP3 ADD MSTORE PUSH1 0x0 SWAP1 DUP2 SWAP1 PUSH1 0x1 PUSH1 0x1 PUSH1 0xA0 SHL SUB DUP5 AND SWAP1 PUSH4 0x1FFC9A7 SWAP1 PUSH1 0x24 ADD PUSH1 0x20 PUSH1 0x40 MLOAD DUP1 DUP4 SUB DUP2 DUP7 GAS STATICCALL ISZERO DUP1 ISZERO PUSH2 0x9DF JUMPI RETURNDATASIZE PUSH1 0x0 DUP1 RETURNDATACOPY RETURNDATASIZE PUSH1 0x0 REVERT JUMPDEST POP POP POP POP PUSH1 0x40 MLOAD RETURNDATASIZE PUSH1 0x1F NOT PUSH1 0x1F DUP3 ADD AND DUP3 ADD DUP1 PUSH1 0x40 MSTORE POP DUP2 ADD SWAP1 PUSH2 0xA03 SWAP2 SWAP1 PUSH2 0x17D9 JUMP JUMPDEST SWAP4 SWAP3 POP POP POP JUMP JUMPDEST PUSH2 0x2710 DUP2 GT ISZERO PUSH2 0xA2C JUMPI PUSH1 0x40 MLOAD PUSH3 0x461BCD PUSH1 0xE5 SHL DUP2 MSTORE PUSH1 0x4 ADD PUSH2 0x602 SWAP1 PUSH2 0x1733 JUMP JUMPDEST PUSH1 0x1 PUSH1 0x1 PUSH1 0xA0 SHL SUB DUP3 AND PUSH1 0x0 SWAP1 DUP2 MSTORE PUSH1 0x5 PUSH1 0x20 MSTORE PUSH1 0x40 SWAP1 KECCAK256 SLOAD DUP2 LT ISZERO PUSH2 0xA64 JUMPI PUSH1 0x40 MLOAD PUSH3 0x461BCD PUSH1 0xE5 SHL DUP2 MSTORE PUSH1 0x4 ADD PUSH2 0x602 SWAP1 PUSH2 0x17FB JUMP JUMPDEST PUSH1 0x1 PUSH1 0x1 PUSH1 0xA0 SHL SUB DUP3 AND PUSH1 0x0 SWAP1 DUP2 MSTORE PUSH1 0x5 PUSH1 0x20 MSTORE PUSH1 0x40 DUP2 KECCAK256 SLOAD SWAP1 SUB PUSH2 0xA9B JUMPI PUSH1 0x40 MLOAD PUSH3 0x461BCD PUSH1 0xE5 SHL DUP2 MSTORE PUSH1 0x4 ADD PUSH2 0x602 SWAP1 PUSH2 0x1790 JUMP JUMPDEST CALLER PUSH1 0x0 SWAP1 DUP2 MSTORE PUSH1 0x8 PUSH1 0x20 SWAP1 DUP2 MSTORE PUSH1 0x40 DUP1 DUP4 KECCAK256 DUP1 SLOAD PUSH1 0x1 PUSH1 0x1 PUSH1 0xA0 SHL SUB NOT AND PUSH1 0x1 PUSH1 0x1 PUSH1 0xA0 SHL SUB DUP8 AND SWAP1 DUP2 OR SWAP1 SWAP2 SSTORE PUSH1 0x7 DUP4 MSTORE DUP2 DUP5 KECCAK256 DUP2 DUP6 MSTORE DUP4 MSTORE SWAP3 DUP2 SWAP1 KECCAK256 DUP5 SWAP1 SSTORE DUP1 MLOAD SWAP3 DUP4 MSTORE SWAP1 DUP3 ADD DUP4 SWAP1 MSTORE PUSH32 0x21470041EF9FF574315005B52C90C0F22B3499A708AEE20330F95853E2583B69 SWAP2 ADD PUSH2 0x6CC JUMP JUMPDEST PUSH1 0x60 PUSH1 0x4 DUP1 SLOAD PUSH2 0x4E0 SWAP1 PUSH2 0x1660 JUMP JUMPDEST PUSH1 0x1 PUSH1 0x1 PUSH1 0xA0 SHL SUB DUP1 DUP3 AND PUSH1 0x0 SWAP1 DUP2 MSTORE PUSH1 0x5 PUSH1 0x20 DUP2 DUP2 MSTORE PUSH1 0x40 DUP1 DUP5 KECCAK256 SLOAD CALLER DUP1 DUP7 MSTORE PUSH1 0x8 DUP5 MSTORE DUP3 DUP7 KECCAK256 SLOAD SWAP1 SWAP7 AND DUP1 DUP7 MSTORE SWAP4 DUP4 MSTORE DUP2 DUP6 KECCAK256 SLOAD SWAP6 DUP6 MSTORE PUSH1 0x7 DUP4 MSTORE DUP2 DUP6 KECCAK256 DUP5 DUP7 MSTORE SWAP1 SWAP3 MSTORE DUP4 KECCAK256 SLOAD SWAP3 SWAP4 SWAP1 SWAP3 DUP4 ISZERO PUSH2 0xB7A JUMPI PUSH1 0x1 SWAP5 POP PUSH2 0xB7F JUMP JUMPDEST PUSH1 0x0 SWAP5 POP JUMPDEST SWAP2 SWAP4 SWAP6 SWAP1 SWAP3 SWAP5 POP JUMP JUMPDEST CALLER PUSH1 0x0 DUP2 DUP2 MSTORE PUSH1 0x1 PUSH1 0x20 SWAP1 DUP2 MSTORE PUSH1 0x40 DUP1 DUP4 KECCAK256 PUSH1 0x1 PUSH1 0x1 PUSH1 0xA0 SHL SUB DUP8 AND DUP5 MSTORE SWAP1 SWAP2 MSTORE DUP2 KECCAK256 SLOAD SWAP1 SWAP2 SWAP1 DUP4 DUP2 LT ISZERO PUSH2 0xC0D JUMPI PUSH1 0x40 MLOAD PUSH3 0x461BCD PUSH1 0xE5 SHL DUP2 MSTORE PUSH1 0x20 PUSH1 0x4 DUP3 ADD MSTORE PUSH1 0x25 PUSH1 0x24 DUP3 ADD MSTORE PUSH32 0x45524332303A2064656372656173656420616C6C6F77616E63652062656C6F77 PUSH1 0x44 DUP3 ADD MSTORE PUSH5 0x207A65726F PUSH1 0xD8 SHL PUSH1 0x64 DUP3 ADD MSTORE PUSH1 0x84 ADD PUSH2 0x602 JUMP JUMPDEST PUSH2 0x76F DUP3 DUP7 DUP7 DUP5 SUB PUSH2 0xFF8 JUMP JUMPDEST CALLER PUSH1 0x0 DUP2 DUP2 MSTORE PUSH1 0x8 PUSH1 0x20 MSTORE PUSH1 0x40 DUP2 KECCAK256 SLOAD SWAP1 SWAP2 SWAP1 PUSH1 0x1 PUSH1 0x1 PUSH1 0xA0 SHL SUB AND ISZERO PUSH2 0xC8A JUMPI CALLER PUSH1 0x0 DUP2 DUP2 MSTORE PUSH1 0x8 PUSH1 0x20 MSTORE PUSH1 0x40 DUP2 KECCAK256 SLOAD PUSH1 0x1 PUSH1 0x1 PUSH1 0xA0 SHL SUB AND SWAP2 PUSH2 0xC5E SWAP1 PUSH2 0x111C JUMP JUMPDEST SWAP1 POP PUSH1 0x0 PUSH2 0x2710 PUSH2 0xC6F DUP4 DUP9 PUSH2 0x16AA JUMP JUMPDEST PUSH2 0xC79 SWAP2 SWAP1 PUSH2 0x16C9 JUMP JUMPDEST SWAP1 POP PUSH2 0xC86 DUP5 DUP5 DUP4 PUSH2 0x121E JUMP JUMPDEST POP POP POP JUMPDEST PUSH2 0x5CE DUP2 DUP6 DUP6 PUSH2 0x121E JUMP JUMPDEST PUSH1 0x60 PUSH1 0x9 DUP1 SLOAD DUP1 PUSH1 0x20 MUL PUSH1 0x20 ADD PUSH1 0x40 MLOAD SWAP1 DUP2 ADD PUSH1 0x40 MSTORE DUP1 SWAP3 SWAP2 SWAP1 DUP2 DUP2 MSTORE PUSH1 0x20 ADD DUP3 DUP1 SLOAD DUP1 ISZERO PUSH2 0x559 JUMPI PUSH1 0x20 MUL DUP3 ADD SWAP2 SWAP1 PUSH1 0x0 MSTORE PUSH1 0x20 PUSH1 0x0 KECCAK256 SWAP1 JUMPDEST DUP2 SLOAD PUSH1 0x1 PUSH1 0x1 PUSH1 0xA0 SHL SUB AND DUP2 MSTORE PUSH1 0x1 SWAP1 SWAP2 ADD SWAP1 PUSH1 0x20 ADD DUP1 DUP4 GT PUSH2 0xCCF JUMPI POP POP POP POP POP SWAP1 POP SWAP1 JUMP JUMPDEST PUSH2 0xD16 CALLER PUSH2 0xD06 PUSH1 0x12 PUSH1 0xA PUSH2 0x193C JUMP JUMPDEST PUSH2 0xD11 SWAP1 PUSH1 0x64 PUSH2 0x16AA JUMP JUMPDEST PUSH2 0x13EC JUMP JUMPDEST JUMP JUMPDEST CALLER PUSH1 0x0 SWAP1 DUP2 MSTORE PUSH1 0x8 PUSH1 0x20 SWAP1 DUP2 MSTORE PUSH1 0x40 DUP1 DUP4 KECCAK256 DUP1 SLOAD PUSH1 0x1 PUSH1 0x1 PUSH1 0xA0 SHL SUB NOT AND SWAP1 SSTORE MLOAD SWAP2 DUP3 MSTORE PUSH32 0x6D4C462CDEC505A621711D5CA414BC431F78E79746CA66270E7AA87947B59AB3 SWAP2 ADD PUSH1 0x40 MLOAD DUP1 SWAP2 SUB SWAP1 LOG1 JUMP JUMPDEST PUSH1 0xA SLOAD PUSH1 0x1 PUSH1 0x1 PUSH1 0xA0 SHL SUB AND CALLER EQ PUSH2 0xD93 JUMPI PUSH1 0x40 MLOAD PUSH3 0x461BCD PUSH1 0xE5 SHL DUP2 MSTORE PUSH1 0x4 ADD PUSH2 0x602 SWAP1 PUSH2 0x16FE JUMP JUMPDEST PUSH1 0x1 PUSH1 0x1 PUSH1 0xA0 SHL SUB DUP2 AND PUSH1 0x0 SWAP1 DUP2 MSTORE PUSH1 0x6 PUSH1 0x20 MSTORE PUSH1 0x40 SWAP1 KECCAK256 SLOAD DUP1 PUSH2 0xDE9 JUMPI PUSH1 0x40 MLOAD PUSH3 0x461BCD PUSH1 0xE5 SHL DUP2 MSTORE PUSH1 0x20 PUSH1 0x4 DUP3 ADD MSTORE PUSH1 0xD PUSH1 0x24 DUP3 ADD MSTORE PUSH13 0x92DCECC2D8D2C840D2DCC8CAF PUSH1 0x9B SHL PUSH1 0x44 DUP3 ADD MSTORE PUSH1 0x64 ADD PUSH2 0x602 JUMP JUMPDEST PUSH1 0x9 DUP1 SLOAD PUSH1 0x0 SWAP2 SWAP1 PUSH2 0xDFD SWAP1 PUSH1 0x1 SWAP1 PUSH2 0x194B JUMP JUMPDEST DUP2 SLOAD DUP2 LT PUSH2 0xE0D JUMPI PUSH2 0xE0D PUSH2 0x195E JUMP JUMPDEST PUSH1 0x0 SWAP2 DUP3 MSTORE PUSH1 0x20 SWAP1 SWAP2 KECCAK256 ADD SLOAD PUSH1 0x1 PUSH1 0x1 PUSH1 0xA0 SHL SUB AND SWAP1 POP DUP1 PUSH1 0x9 PUSH2 0xE32 PUSH1 0x1 DUP6 PUSH2 0x194B JUMP JUMPDEST DUP2 SLOAD DUP2 LT PUSH2 0xE42 JUMPI PUSH2 0xE42 PUSH2 0x195E JUMP JUMPDEST PUSH1 0x0 SWAP2 DUP3 MSTORE PUSH1 0x20 DUP1 DUP4 KECCAK256 SWAP2 SWAP1 SWAP2 ADD DUP1 SLOAD PUSH1 0x1 PUSH1 0x1 PUSH1 0xA0 SHL SUB NOT AND PUSH1 0x1 PUSH1 0x1 PUSH1 0xA0 SHL SUB SWAP5 DUP6 AND OR SWAP1 SSTORE SWAP2 DUP4 AND DUP2 MSTORE PUSH1 0x6 SWAP1 SWAP2 MSTORE PUSH1 0x40 SWAP1 KECCAK256 DUP3 SWAP1 SSTORE PUSH1 0x9 DUP1 SLOAD DUP1 PUSH2 0xE8C JUMPI PUSH2 0xE8C PUSH2 0x1974 JUMP JUMPDEST PUSH1 0x0 DUP3 DUP2 MSTORE PUSH1 0x20 DUP1 DUP3 KECCAK256 PUSH1 0x0 NOT SWAP1 DUP5 ADD DUP2 ADD DUP1 SLOAD PUSH1 0x1 PUSH1 0x1 PUSH1 0xA0 SHL SUB NOT AND SWAP1 SSTORE SWAP1 SWAP3 ADD SWAP1 SWAP3 SSTORE PUSH1 0x1 PUSH1 0x1 PUSH1 0xA0 SHL SUB DUP6 AND DUP1 DUP4 MSTORE PUSH1 0x6 DUP3 MSTORE PUSH1 0x40 DUP1 DUP5 KECCAK256 DUP5 SWAP1 SSTORE PUSH1 0x5 DUP4 MSTORE DUP1 DUP5 KECCAK256 SWAP4 SWAP1 SWAP4 SSTORE SWAP2 MLOAD SWAP2 DUP3 MSTORE PUSH32 0xCDD2E9B91A56913D370075169CEFA1602BA36BE5301664F752192BB1709DF757 SWAP2 ADD PUSH1 0x40 MLOAD DUP1 SWAP2 SUB SWAP1 LOG1 POP POP POP JUMP JUMPDEST PUSH2 0x2710 DUP2 GT ISZERO PUSH2 0xF2D JUMPI PUSH1 0x40 MLOAD PUSH3 0x461BCD PUSH1 0xE5 SHL DUP2 MSTORE PUSH1 0x4 ADD PUSH2 0x602 SWAP1 PUSH2 0x1733 JUMP JUMPDEST PUSH1 0x1 PUSH1 0x1 PUSH1 0xA0 SHL SUB DUP3 AND PUSH1 0x0 SWAP1 DUP2 MSTORE PUSH1 0x5 PUSH1 0x20 MSTORE PUSH1 0x40 DUP2 KECCAK256 SLOAD SWAP1 SUB PUSH2 0xF64 JUMPI PUSH1 0x40 MLOAD PUSH3 0x461BCD PUSH1 0xE5 SHL DUP2 MSTORE PUSH1 0x4 ADD PUSH2 0x602 SWAP1 PUSH2 0x1790 JUMP JUMPDEST PUSH1 0x1 PUSH1 0x1 PUSH1 0xA0 SHL SUB DUP3 AND PUSH1 0x0 SWAP1 DUP2 MSTORE PUSH1 0x5 PUSH1 0x20 MSTORE PUSH1 0x40 SWAP1 KECCAK256 SLOAD DUP2 LT ISZERO PUSH2 0xF9C JUMPI PUSH1 0x40 MLOAD PUSH3 0x461BCD PUSH1 0xE5 SHL DUP2 MSTORE PUSH1 0x4 ADD PUSH2 0x602 SWAP1 PUSH2 0x17FB JUMP JUMPDEST CALLER PUSH1 0x0 SWAP1 DUP2 MSTORE PUSH1 0x7 PUSH1 0x20 SWAP1 DUP2 MSTORE PUSH1 0x40 DUP1 DUP4 KECCAK256 PUSH1 0x1 PUSH1 0x1 PUSH1 0xA0 SHL SUB DUP7 AND DUP1 DUP6 MSTORE SWAP1 DUP4 MSTORE SWAP3 DUP2 SWAP1 KECCAK256 DUP5 SWAP1 SSTORE DUP1 MLOAD SWAP3 DUP4 MSTORE SWAP1 DUP3 ADD DUP4 SWAP1 MSTORE PUSH32 0xCA0B363FD271FC3763C2C2C23802AEBB7A4F4851A177BE5DC763D58083F69201 SWAP2 ADD PUSH2 0x6CC JUMP JUMPDEST PUSH1 0x1 PUSH1 0x1 PUSH1 0xA0 SHL SUB DUP4 AND PUSH2 0x105A JUMPI PUSH1 0x40 MLOAD PUSH3 0x461BCD PUSH1 0xE5 SHL DUP2 MSTORE PUSH1 0x20 PUSH1 0x4 DUP3 ADD MSTORE PUSH1 0x24 DUP1 DUP3 ADD MSTORE PUSH32 0x45524332303A20617070726F76652066726F6D20746865207A65726F20616464 PUSH1 0x44 DUP3 ADD MSTORE PUSH4 0x72657373 PUSH1 0xE0 SHL PUSH1 0x64 DUP3 ADD MSTORE PUSH1 0x84 ADD PUSH2 0x602 JUMP JUMPDEST PUSH1 0x1 PUSH1 0x1 PUSH1 0xA0 SHL SUB DUP3 AND PUSH2 0x10BB JUMPI PUSH1 0x40 MLOAD PUSH3 0x461BCD PUSH1 0xE5 SHL DUP2 MSTORE PUSH1 0x20 PUSH1 0x4 DUP3 ADD MSTORE PUSH1 0x22 PUSH1 0x24 DUP3 ADD MSTORE PUSH32 0x45524332303A20617070726F766520746F20746865207A65726F206164647265 PUSH1 0x44 DUP3 ADD MSTORE PUSH2 0x7373 PUSH1 0xF0 SHL PUSH1 0x64 DUP3 ADD MSTORE PUSH1 0x84 ADD PUSH2 0x602 JUMP JUMPDEST PUSH1 0x1 PUSH1 0x1 PUSH1 0xA0 SHL SUB DUP4 DUP2 AND PUSH1 0x0 DUP2 DUP2 MSTORE PUSH1 0x1 PUSH1 0x20 SWAP1 DUP2 MSTORE PUSH1 0x40 DUP1 DUP4 KECCAK256 SWAP5 DUP8 AND DUP1 DUP5 MSTORE SWAP5 DUP3 MSTORE SWAP2 DUP3 SWAP1 KECCAK256 DUP6 SWAP1 SSTORE SWAP1 MLOAD DUP5 DUP2 MSTORE PUSH32 0x8C5BE1E5EBEC7D5BD14F71427D1E84F3DD0314C0F7B2291E5B200AC8C7C3B925 SWAP2 ADD PUSH1 0x40 MLOAD DUP1 SWAP2 SUB SWAP1 LOG3 POP POP POP JUMP JUMPDEST PUSH1 0x1 PUSH1 0x1 PUSH1 0xA0 SHL SUB DUP1 DUP3 AND PUSH1 0x0 SWAP1 DUP2 MSTORE PUSH1 0x8 PUSH1 0x20 SWAP1 DUP2 MSTORE PUSH1 0x40 DUP1 DUP4 KECCAK256 SLOAD PUSH1 0x7 DUP4 MSTORE DUP2 DUP5 KECCAK256 SWAP5 AND DUP1 DUP5 MSTORE SWAP4 DUP3 MSTORE DUP1 DUP4 KECCAK256 SLOAD PUSH1 0x5 SWAP1 SWAP3 MSTORE SWAP1 SWAP2 KECCAK256 SLOAD SWAP1 SWAP2 SWAP1 ISZERO DUP1 PUSH2 0x117C JUMPI POP PUSH1 0x1 PUSH1 0x1 PUSH1 0xA0 SHL SUB DUP4 DUP2 AND PUSH1 0x0 SWAP1 DUP2 MSTORE PUSH1 0x8 PUSH1 0x20 MSTORE PUSH1 0x40 SWAP1 KECCAK256 SLOAD AND ISZERO JUMPDEST ISZERO PUSH2 0x1186 JUMPI PUSH1 0x0 SWAP2 POP JUMPDEST POP SWAP2 SWAP1 POP JUMP JUMPDEST PUSH1 0x1 PUSH1 0x1 PUSH1 0xA0 SHL SUB DUP4 DUP2 AND PUSH1 0x0 SWAP1 DUP2 MSTORE PUSH1 0x1 PUSH1 0x20 SWAP1 DUP2 MSTORE PUSH1 0x40 DUP1 DUP4 KECCAK256 SWAP4 DUP7 AND DUP4 MSTORE SWAP3 SWAP1 MSTORE KECCAK256 SLOAD PUSH1 0x0 NOT DUP2 EQ PUSH2 0x1218 JUMPI DUP2 DUP2 LT ISZERO PUSH2 0x120B JUMPI PUSH1 0x40 MLOAD PUSH3 0x461BCD PUSH1 0xE5 SHL DUP2 MSTORE PUSH1 0x20 PUSH1 0x4 DUP3 ADD MSTORE PUSH1 0x1D PUSH1 0x24 DUP3 ADD MSTORE PUSH32 0x45524332303A20696E73756666696369656E7420616C6C6F77616E6365000000 PUSH1 0x44 DUP3 ADD MSTORE PUSH1 0x64 ADD PUSH2 0x602 JUMP JUMPDEST PUSH2 0x1218 DUP5 DUP5 DUP5 DUP5 SUB PUSH2 0xFF8 JUMP JUMPDEST POP POP POP POP JUMP JUMPDEST PUSH1 0x1 PUSH1 0x1 PUSH1 0xA0 SHL SUB DUP4 AND PUSH2 0x1282 JUMPI PUSH1 0x40 MLOAD PUSH3 0x461BCD PUSH1 0xE5 SHL DUP2 MSTORE PUSH1 0x20 PUSH1 0x4 DUP3 ADD MSTORE PUSH1 0x25 PUSH1 0x24 DUP3 ADD MSTORE PUSH32 0x45524332303A207472616E736665722066726F6D20746865207A65726F206164 PUSH1 0x44 DUP3 ADD MSTORE PUSH5 0x6472657373 PUSH1 0xD8 SHL PUSH1 0x64 DUP3 ADD MSTORE PUSH1 0x84 ADD PUSH2 0x602 JUMP JUMPDEST PUSH1 0x1 PUSH1 0x1 PUSH1 0xA0 SHL SUB DUP3 AND PUSH2 0x12E4 JUMPI PUSH1 0x40 MLOAD PUSH3 0x461BCD PUSH1 0xE5 SHL DUP2 MSTORE PUSH1 0x20 PUSH1 0x4 DUP3 ADD MSTORE PUSH1 0x23 PUSH1 0x24 DUP3 ADD MSTORE PUSH32 0x45524332303A207472616E7366657220746F20746865207A65726F2061646472 PUSH1 0x44 DUP3 ADD MSTORE PUSH3 0x657373 PUSH1 0xE8 SHL PUSH1 0x64 DUP3 ADD MSTORE PUSH1 0x84 ADD PUSH2 0x602 JUMP JUMPDEST PUSH1 0x1 PUSH1 0x1 PUSH1 0xA0 SHL SUB DUP4 AND PUSH1 0x0 SWAP1 DUP2 MSTORE PUSH1 0x20 DUP2 SWAP1 MSTORE PUSH1 0x40 SWAP1 KECCAK256 SLOAD DUP2 DUP2 LT ISZERO PUSH2 0x135C JUMPI PUSH1 0x40 MLOAD PUSH3 0x461BCD PUSH1 0xE5 SHL DUP2 MSTORE PUSH1 0x20 PUSH1 0x4 DUP3 ADD MSTORE PUSH1 0x26 PUSH1 0x24 DUP3 ADD MSTORE PUSH32 0x45524332303A207472616E7366657220616D6F756E7420657863656564732062 PUSH1 0x44 DUP3 ADD MSTORE PUSH6 0x616C616E6365 PUSH1 0xD0 SHL PUSH1 0x64 DUP3 ADD MSTORE PUSH1 0x84 ADD PUSH2 0x602 JUMP JUMPDEST PUSH1 0x1 PUSH1 0x1 PUSH1 0xA0 SHL SUB DUP1 DUP6 AND PUSH1 0x0 SWAP1 DUP2 MSTORE PUSH1 0x20 DUP2 SWAP1 MSTORE PUSH1 0x40 DUP1 DUP3 KECCAK256 DUP6 DUP6 SUB SWAP1 SSTORE SWAP2 DUP6 AND DUP2 MSTORE SWAP1 DUP2 KECCAK256 DUP1 SLOAD DUP5 SWAP3 SWAP1 PUSH2 0x1393 SWAP1 DUP5 SWAP1 PUSH2 0x16EB JUMP JUMPDEST SWAP3 POP POP DUP2 SWAP1 SSTORE POP DUP3 PUSH1 0x1 PUSH1 0x1 PUSH1 0xA0 SHL SUB AND DUP5 PUSH1 0x1 PUSH1 0x1 PUSH1 0xA0 SHL SUB AND PUSH32 0xDDF252AD1BE2C89B69C2B068FC378DAA952BA7F163C4A11628F55A4DF523B3EF DUP5 PUSH1 0x40 MLOAD PUSH2 0x13DF SWAP2 DUP2 MSTORE PUSH1 0x20 ADD SWAP1 JUMP JUMPDEST PUSH1 0x40 MLOAD DUP1 SWAP2 SUB SWAP1 LOG3 PUSH2 0x1218 JUMP JUMPDEST PUSH1 0x1 PUSH1 0x1 PUSH1 0xA0 SHL SUB DUP3 AND PUSH2 0x1442 JUMPI PUSH1 0x40 MLOAD PUSH3 0x461BCD PUSH1 0xE5 SHL DUP2 MSTORE PUSH1 0x20 PUSH1 0x4 DUP3 ADD MSTORE PUSH1 0x1F PUSH1 0x24 DUP3 ADD MSTORE PUSH32 0x45524332303A206D696E7420746F20746865207A65726F206164647265737300 PUSH1 0x44 DUP3 ADD MSTORE PUSH1 0x64 ADD PUSH2 0x602 JUMP JUMPDEST DUP1 PUSH1 0x2 PUSH1 0x0 DUP3 DUP3 SLOAD PUSH2 0x1454 SWAP2 SWAP1 PUSH2 0x16EB JUMP JUMPDEST SWAP1 SWAP2 SSTORE POP POP PUSH1 0x1 PUSH1 0x1 PUSH1 0xA0 SHL SUB DUP3 AND PUSH1 0x0 SWAP1 DUP2 MSTORE PUSH1 0x20 DUP2 SWAP1 MSTORE PUSH1 0x40 DUP2 KECCAK256 DUP1 SLOAD DUP4 SWAP3 SWAP1 PUSH2 0x1481 SWAP1 DUP5 SWAP1 PUSH2 0x16EB JUMP JUMPDEST SWAP1 SWAP2 SSTORE POP POP PUSH1 0x40 MLOAD DUP2 DUP2 MSTORE PUSH1 0x1 PUSH1 0x1 PUSH1 0xA0 SHL SUB DUP4 AND SWAP1 PUSH1 0x0 SWAP1 PUSH32 0xDDF252AD1BE2C89B69C2B068FC378DAA952BA7F163C4A11628F55A4DF523B3EF SWAP1 PUSH1 0x20 ADD PUSH1 0x40 MLOAD DUP1 SWAP2 SUB SWAP1 LOG3 POP POP JUMP JUMPDEST PUSH1 0x0 PUSH1 0x20 DUP3 DUP5 SUB SLT ISZERO PUSH2 0x14DD JUMPI PUSH1 0x0 DUP1 REVERT JUMPDEST DUP2 CALLDATALOAD PUSH1 0x1 PUSH1 0x1 PUSH1 0xE0 SHL SUB NOT DUP2 AND DUP2 EQ PUSH2 0xA03 JUMPI PUSH1 0x0 DUP1 REVERT JUMPDEST PUSH1 0x0 PUSH1 0x20 DUP1 DUP4 MSTORE DUP4 MLOAD DUP1 DUP3 DUP6 ADD MSTORE PUSH1 0x0 JUMPDEST DUP2 DUP2 LT ISZERO PUSH2 0x1522 JUMPI DUP6 DUP2 ADD DUP4 ADD MLOAD DUP6 DUP3 ADD PUSH1 0x40 ADD MSTORE DUP3 ADD PUSH2 0x1506 JUMP JUMPDEST POP PUSH1 0x0 PUSH1 0x40 DUP3 DUP7 ADD ADD MSTORE PUSH1 0x40 PUSH1 0x1F NOT PUSH1 0x1F DUP4 ADD AND DUP6 ADD ADD SWAP3 POP POP POP SWAP3 SWAP2 POP POP JUMP JUMPDEST DUP1 CALLDATALOAD PUSH1 0x1 PUSH1 0x1 PUSH1 0xA0 SHL SUB DUP2 AND DUP2 EQ PUSH2 0x155A JUMPI PUSH1 0x0 DUP1 REVERT JUMPDEST SWAP2 SWAP1 POP JUMP JUMPDEST PUSH1 0x0 DUP1 PUSH1 0x40 DUP4 DUP6 SUB SLT ISZERO PUSH2 0x1572 JUMPI PUSH1 0x0 DUP1 REVERT JUMPDEST PUSH2 0x157B DUP4 PUSH2 0x1543 JUMP JUMPDEST SWAP5 PUSH1 0x20 SWAP4 SWAP1 SWAP4 ADD CALLDATALOAD SWAP4 POP POP POP JUMP JUMPDEST PUSH1 0x0 DUP1 PUSH1 0x0 PUSH1 0x60 DUP5 DUP7 SUB SLT ISZERO PUSH2 0x159E JUMPI PUSH1 0x0 DUP1 REVERT JUMPDEST PUSH2 0x15A7 DUP5 PUSH2 0x1543 JUMP JUMPDEST SWAP3 POP PUSH2 0x15B5 PUSH1 0x20 DUP6 ADD PUSH2 0x1543 JUMP JUMPDEST SWAP2 POP PUSH1 0x40 DUP5 ADD CALLDATALOAD SWAP1 POP SWAP3 POP SWAP3 POP SWAP3 JUMP JUMPDEST PUSH1 0x0 PUSH1 0x20 DUP3 DUP5 SUB SLT ISZERO PUSH2 0x15D7 JUMPI PUSH1 0x0 DUP1 REVERT JUMPDEST PUSH2 0xA03 DUP3 PUSH2 0x1543 JUMP JUMPDEST PUSH1 0x20 DUP1 DUP3 MSTORE DUP3 MLOAD DUP3 DUP3 ADD DUP2 SWAP1 MSTORE PUSH1 0x0 SWAP2 SWAP1 DUP5 DUP3 ADD SWAP1 PUSH1 0x40 DUP6 ADD SWAP1 DUP5 JUMPDEST DUP2 DUP2 LT ISZERO PUSH2 0x1621 JUMPI DUP4 MLOAD PUSH1 0x1 PUSH1 0x1 PUSH1 0xA0 SHL SUB AND DUP4 MSTORE SWAP3 DUP5 ADD SWAP3 SWAP2 DUP5 ADD SWAP2 PUSH1 0x1 ADD PUSH2 0x15FC JUMP JUMPDEST POP SWAP1 SWAP7 SWAP6 POP POP POP POP POP POP JUMP JUMPDEST PUSH1 0x0 DUP1 PUSH1 0x40 DUP4 DUP6 SUB SLT ISZERO PUSH2 0x1640 JUMPI PUSH1 0x0 DUP1 REVERT JUMPDEST PUSH2 0x1649 DUP4 PUSH2 0x1543 JUMP JUMPDEST SWAP2 POP PUSH2 0x1657 PUSH1 0x20 DUP5 ADD PUSH2 0x1543 JUMP JUMPDEST SWAP1 POP SWAP3 POP SWAP3 SWAP1 POP JUMP JUMPDEST PUSH1 0x1 DUP2 DUP2 SHR SWAP1 DUP3 AND DUP1 PUSH2 0x1674 JUMPI PUSH1 0x7F DUP3 AND SWAP2 POP JUMPDEST PUSH1 0x20 DUP3 LT DUP2 SUB PUSH2 0x1186 JUMPI PUSH4 0x4E487B71 PUSH1 0xE0 SHL PUSH1 0x0 MSTORE PUSH1 0x22 PUSH1 0x4 MSTORE PUSH1 0x24 PUSH1 0x0 REVERT JUMPDEST PUSH4 0x4E487B71 PUSH1 0xE0 SHL PUSH1 0x0 MSTORE PUSH1 0x11 PUSH1 0x4 MSTORE PUSH1 0x24 PUSH1 0x0 REVERT JUMPDEST PUSH1 0x0 DUP2 PUSH1 0x0 NOT DIV DUP4 GT DUP3 ISZERO ISZERO AND ISZERO PUSH2 0x16C4 JUMPI PUSH2 0x16C4 PUSH2 0x1694 JUMP JUMPDEST POP MUL SWAP1 JUMP JUMPDEST PUSH1 0x0 DUP3 PUSH2 0x16E6 JUMPI PUSH4 0x4E487B71 PUSH1 0xE0 SHL PUSH1 0x0 MSTORE PUSH1 0x12 PUSH1 0x4 MSTORE PUSH1 0x24 PUSH1 0x0 REVERT JUMPDEST POP DIV SWAP1 JUMP JUMPDEST DUP1 DUP3 ADD DUP1 DUP3 GT ISZERO PUSH2 0x4CB JUMPI PUSH2 0x4CB PUSH2 0x1694 JUMP JUMPDEST PUSH1 0x20 DUP1 DUP3 MSTORE DUP2 DUP2 ADD MSTORE PUSH32 0x4F776E61626C653A2063616C6C6572206973206E6F7420746865206F776E6572 PUSH1 0x40 DUP3 ADD MSTORE PUSH1 0x60 ADD SWAP1 JUMP JUMPDEST PUSH1 0x20 DUP1 DUP3 MSTORE PUSH1 0x38 SWAP1 DUP3 ADD MSTORE PUSH32 0x4552433230436861726974793A2072617465206D757374206265206265747765 PUSH1 0x40 DUP3 ADD MSTORE PUSH32 0x656E203020616E64205F66656544656E6F6D696E61746F720000000000000000 PUSH1 0x60 DUP3 ADD MSTORE PUSH1 0x80 ADD SWAP1 JUMP JUMPDEST PUSH1 0x20 DUP1 DUP3 MSTORE PUSH1 0x29 SWAP1 DUP3 ADD MSTORE PUSH32 0x4552433230436861726974793A20696E76616C69642077686974656C69737465 PUSH1 0x40 DUP3 ADD MSTORE PUSH9 0x642061646472657373 PUSH1 0xB8 SHL PUSH1 0x60 DUP3 ADD MSTORE PUSH1 0x80 ADD SWAP1 JUMP JUMPDEST PUSH1 0x0 PUSH1 0x20 DUP3 DUP5 SUB SLT ISZERO PUSH2 0x17EB JUMPI PUSH1 0x0 DUP1 REVERT JUMPDEST DUP2 MLOAD DUP1 ISZERO ISZERO DUP2 EQ PUSH2 0xA03 JUMPI PUSH1 0x0 DUP1 REVERT JUMPDEST PUSH1 0x20 DUP1 DUP3 MSTORE PUSH1 0x3B SWAP1 DUP3 ADD MSTORE PUSH32 0x4552433230436861726974793A207261746520666565206D7573742065786365 PUSH1 0x40 DUP3 ADD MSTORE PUSH32 0x656420746865206665652073657420627920746865206F776E65720000000000 PUSH1 0x60 DUP3 ADD MSTORE PUSH1 0x80 ADD SWAP1 JUMP JUMPDEST PUSH1 0x1 DUP2 DUP2 JUMPDEST DUP1 DUP6 GT ISZERO PUSH2 0x1893 JUMPI DUP2 PUSH1 0x0 NOT DIV DUP3 GT ISZERO PUSH2 0x1879 JUMPI PUSH2 0x1879 PUSH2 0x1694 JUMP JUMPDEST DUP1 DUP6 AND ISZERO PUSH2 0x1886 JUMPI SWAP2 DUP2 MUL SWAP2 JUMPDEST SWAP4 DUP5 SHR SWAP4 SWAP1 DUP1 MUL SWAP1 PUSH2 0x185D JUMP JUMPDEST POP SWAP3 POP SWAP3 SWAP1 POP JUMP JUMPDEST PUSH1 0x0 DUP3 PUSH2 0x18AA JUMPI POP PUSH1 0x1 PUSH2 0x4CB JUMP JUMPDEST DUP2 PUSH2 0x18B7 JUMPI POP PUSH1 0x0 PUSH2 0x4CB JUMP JUMPDEST DUP2 PUSH1 0x1 DUP2 EQ PUSH2 0x18CD JUMPI PUSH1 0x2 DUP2 EQ PUSH2 0x18D7 JUMPI PUSH2 0x18F3 JUMP JUMPDEST PUSH1 0x1 SWAP2 POP POP PUSH2 0x4CB JUMP JUMPDEST PUSH1 0xFF DUP5 GT ISZERO PUSH2 0x18E8 JUMPI PUSH2 0x18E8 PUSH2 0x1694 JUMP JUMPDEST POP POP PUSH1 0x1 DUP3 SHL PUSH2 0x4CB JUMP JUMPDEST POP PUSH1 0x20 DUP4 LT PUSH2 0x133 DUP4 LT AND PUSH1 0x4E DUP5 LT PUSH1 0xB DUP5 LT AND OR ISZERO PUSH2 0x1916 JUMPI POP DUP2 DUP2 EXP PUSH2 0x4CB JUMP JUMPDEST PUSH2 0x1920 DUP4 DUP4 PUSH2 0x1858 JUMP JUMPDEST DUP1 PUSH1 0x0 NOT DIV DUP3 GT ISZERO PUSH2 0x1934 JUMPI PUSH2 0x1934 PUSH2 0x1694 JUMP JUMPDEST MUL SWAP4 SWAP3 POP POP POP JUMP JUMPDEST PUSH1 0x0 PUSH2 0xA03 PUSH1 0xFF DUP5 AND DUP4 PUSH2 0x189B JUMP JUMPDEST DUP2 DUP2 SUB DUP2 DUP2 GT ISZERO PUSH2 0x4CB JUMPI PUSH2 0x4CB PUSH2 0x1694 JUMP JUMPDEST PUSH4 0x4E487B71 PUSH1 0xE0 SHL PUSH1 0x0 MSTORE PUSH1 0x32 PUSH1 0x4 MSTORE PUSH1 0x24 PUSH1 0x0 REVERT JUMPDEST PUSH4 0x4E487B71 PUSH1 0xE0 SHL PUSH1 0x0 MSTORE PUSH1 0x31 PUSH1 0x4 MSTORE PUSH1 0x24 PUSH1 0x0 REVERT INVALID LOG2 PUSH5 0x6970667358 0x22 SLT KECCAK256 0xB8 0xE5 0xC2 0xAD 0xED 0xB2 0xDA LOG1 NOT COINBASE 0xA6 0x5E SELFDESTRUCT CALLDATALOAD LT SHR DIV CALLDATACOPY 0xC3 0xCE 0xC7 0xB5 0xE2 PUSH32 0x509564FE618C574064736F6C6343000810003300000000000000000000000000 "
        },
        "methodIdentifiers": {
          "Owner()": "b4a99a4e",
          "addToWhitelist(address,uint256)": "214405fc",
          "allowance(address,address)": "dd62ed3e",
          "approve(address,uint256)": "095ea7b3",
          "balanceOf(address)": "70a08231",
          "charityInfo(address)": "991ec6f7",
          "checkInterface(address)": "5455bce2",
          "decimals()": "313ce567",
          "decreaseAllowance(address,uint256)": "a457c2d7",
          "deleteFromWhitelist(address)": "ecfb5d17",
          "deleteRecipient()": "e8b7893e",
          "getAllWhitelistedAddresses()": "b56eebfb",
          "getRateOf(address)": "403af875",
          "getRecipientAddressOf(address)": "56a265a2",
          "increaseAllowance(address,uint256)": "39509351",
          "mint(address,uint256)": "40c10f19",
          "name()": "06fdde03",
          "selfmint()": "d88b1661",
          "setCustumRate(address,uint256)": "ef9314ab",
          "setRate(address,uint256)": "2bdb7097",
          "setRecipient(address)": "3bbed4a0",
          "setRecipientAddressAndRate(address,uint256)": "7e875e58",
          "supportsInterface(bytes4)": "01ffc9a7",
          "symbol()": "95d89b41",
          "totalSupply()": "18160ddd",
          "transfer(address,uint256)": "a9059cbb",
          "transferFrom(address,address,uint256)": "23b872dd",
          "whitelistedRate(address)": "f0f4e15b"
        }
      }
    }
  }
}