{
  "_format": "hh-sol-artifact-1",
  "contractName": "CharityFuzz",
  "sourceName": "contracts/test/fuzzing/CharityFuzz.sol",
  "abi": [
    {
      "inputs": [],
      "stateMutability": "nonpayable",
      "type": "constructor"
    },
    {
      "anonymous": false,
      "inputs": [
        {
          "indexed": false,
          "internalType": "address",
          "name": "toAdd",
          "type": "address"
        },
        {
          "indexed": false,
          "internalType": "uint256",
          "name": "rate",
          "type": "uint256"
        }
      ],
      "name": "AddedToWhitelist",
      "type": "event"
    },
    {
      "anonymous": false,
      "inputs": [
        {
          "indexed": true,
          "internalType": "address",
          "name": "owner",
          "type": "address"
        },
        {
          "indexed": true,
          "internalType": "address",
          "name": "spender",
          "type": "address"
        },
        {
          "indexed": false,
          "internalType": "uint256",
          "name": "value",
          "type": "uint256"
        }
      ],
      "name": "Approval",
      "type": "event"
    },
    {
      "anonymous": false,
      "inputs": [
        {
          "indexed": false,
          "internalType": "address",
          "name": "whitelistedAddr",
          "type": "address"
        },
        {
          "indexed": false,
          "internalType": "uint256",
          "name": "rate",
          "type": "uint256"
        }
      ],
      "name": "DonnationAddressAndRateChanged",
      "type": "event"
    },
    {
      "anonymous": false,
      "inputs": [
        {
          "indexed": false,
          "internalType": "address",
          "name": "whitelistedAddr",
          "type": "address"
        }
      ],
      "name": "DonnationAddressChanged",
      "type": "event"
    },
    {
      "anonymous": false,
      "inputs": [
        {
          "indexed": false,
          "internalType": "address",
          "name": "whitelistedAddr",
          "type": "address"
        },
        {
          "indexed": false,
          "internalType": "uint256",
          "name": "rate",
          "type": "uint256"
        }
      ],
      "name": "ModifiedCharityCustumRate",
      "type": "event"
    },
    {
      "anonymous": false,
      "inputs": [
        {
          "indexed": false,
          "internalType": "address",
          "name": "whitelistedAddr",
          "type": "address"
        },
        {
          "indexed": false,
          "internalType": "uint256",
          "name": "rate",
          "type": "uint256"
        }
      ],
      "name": "ModifiedCharityRate",
      "type": "event"
    },
    {
      "anonymous": false,
      "inputs": [
        {
          "indexed": false,
          "internalType": "address",
          "name": "toRemove",
          "type": "address"
        }
      ],
      "name": "RemovedFromWhitelist",
      "type": "event"
    },
    {
      "anonymous": false,
      "inputs": [
        {
          "indexed": true,
          "internalType": "address",
          "name": "from",
          "type": "address"
        },
        {
          "indexed": true,
          "internalType": "address",
          "name": "to",
          "type": "address"
        },
        {
          "indexed": false,
          "internalType": "uint256",
          "name": "value",
          "type": "uint256"
        }
      ],
      "name": "Transfer",
      "type": "event"
    },
    {
      "inputs": [
        {
          "internalType": "address",
          "name": "toAdd",
          "type": "address"
        },
        {
          "internalType": "uint256",
          "name": "rate",
          "type": "uint256"
        }
      ],
      "name": "addToWhitelist",
      "outputs": [],
      "stateMutability": "nonpayable",
      "type": "function"
    },
    {
      "inputs": [
        {
          "internalType": "address",
          "name": "owner",
          "type": "address"
        },
        {
          "internalType": "address",
          "name": "spender",
          "type": "address"
        }
      ],
      "name": "allowance",
      "outputs": [
        {
          "internalType": "uint256",
          "name": "",
          "type": "uint256"
        }
      ],
      "stateMutability": "view",
      "type": "function"
    },
    {
      "inputs": [
        {
          "internalType": "address",
          "name": "spender",
          "type": "address"
        },
        {
          "internalType": "uint256",
          "name": "amount",
          "type": "uint256"
        }
      ],
      "name": "approve",
      "outputs": [
        {
          "internalType": "bool",
          "name": "",
          "type": "bool"
        }
      ],
      "stateMutability": "nonpayable",
      "type": "function"
    },
    {
      "inputs": [
        {
          "internalType": "address",
          "name": "account",
          "type": "address"
        }
      ],
      "name": "balanceOf",
      "outputs": [
        {
          "internalType": "uint256",
          "name": "",
          "type": "uint256"
        }
      ],
      "stateMutability": "view",
      "type": "function"
    },
    {
      "inputs": [
        {
          "internalType": "address",
          "name": "charityAddr",
          "type": "address"
        }
      ],
      "name": "charityInfo",
      "outputs": [
        {
          "internalType": "bool",
          "name": "whitelisted",
          "type": "bool"
        },
        {
          "internalType": "uint256",
          "name": "defaultRate",
          "type": "uint256"
        },
        {
          "internalType": "address",
          "name": "msgRecipient",
          "type": "address"
        },
        {
          "internalType": "uint256",
          "name": "RecipientRate",
          "type": "uint256"
        },
        {
          "internalType": "uint256",
          "name": "msgRate",
          "type": "uint256"
        }
      ],
      "stateMutability": "view",
      "type": "function"
    },
    {
      "inputs": [
        {
          "internalType": "address",
          "name": "testContract",
          "type": "address"
        }
      ],
      "name": "checkInterface",
      "outputs": [
        {
          "internalType": "bool",
          "name": "",
          "type": "bool"
        }
      ],
      "stateMutability": "view",
      "type": "function"
    },
    {
      "inputs": [],
      "name": "decimals",
      "outputs": [
        {
          "internalType": "uint8",
          "name": "",
          "type": "uint8"
        }
      ],
      "stateMutability": "view",
      "type": "function"
    },
    {
      "inputs": [
        {
          "internalType": "address",
          "name": "spender",
          "type": "address"
        },
        {
          "internalType": "uint256",
          "name": "subtractedValue",
          "type": "uint256"
        }
      ],
      "name": "decreaseAllowance",
      "outputs": [
        {
          "internalType": "bool",
          "name": "",
          "type": "bool"
        }
      ],
      "stateMutability": "nonpayable",
      "type": "function"
    },
    {
      "inputs": [
        {
          "internalType": "address",
          "name": "toRemove",
          "type": "address"
        }
      ],
      "name": "deleteFromWhitelist",
      "outputs": [],
      "stateMutability": "nonpayable",
      "type": "function"
    },
    {
      "inputs": [],
      "name": "deleteRecipient",
      "outputs": [],
      "stateMutability": "nonpayable",
      "type": "function"
    },
    {
      "inputs": [],
      "name": "echidna_test_denominator",
      "outputs": [
        {
          "internalType": "bool",
          "name": "",
          "type": "bool"
        }
      ],
      "stateMutability": "pure",
      "type": "function"
    },
    {
      "inputs": [],
      "name": "echidna_test_owner",
      "outputs": [
        {
          "internalType": "bool",
          "name": "",
          "type": "bool"
        }
      ],
      "stateMutability": "view",
      "type": "function"
    },
    {
      "inputs": [],
      "name": "echidna_test_whitelistedRate",
      "outputs": [
        {
          "internalType": "bool",
          "name": "",
          "type": "bool"
        }
      ],
      "stateMutability": "view",
      "type": "function"
    },
    {
      "inputs": [],
      "name": "getAllWhitelistedAddresses",
      "outputs": [
        {
          "internalType": "address[]",
          "name": "",
          "type": "address[]"
        }
      ],
      "stateMutability": "view",
      "type": "function"
    },
    {
      "inputs": [
        {
          "internalType": "address",
          "name": "addr",
          "type": "address"
        }
      ],
      "name": "getRateOf",
      "outputs": [
        {
          "internalType": "uint256",
          "name": "",
          "type": "uint256"
        }
      ],
      "stateMutability": "view",
      "type": "function"
    },
    {
      "inputs": [
        {
          "internalType": "address",
          "name": "addr",
          "type": "address"
        }
      ],
      "name": "getRecipientAddressOf",
      "outputs": [
        {
          "internalType": "address",
          "name": "",
          "type": "address"
        }
      ],
      "stateMutability": "view",
      "type": "function"
    },
    {
      "inputs": [
        {
          "internalType": "address",
          "name": "spender",
          "type": "address"
        },
        {
          "internalType": "uint256",
          "name": "addedValue",
          "type": "uint256"
        }
      ],
      "name": "increaseAllowance",
      "outputs": [
        {
          "internalType": "bool",
          "name": "",
          "type": "bool"
        }
      ],
      "stateMutability": "nonpayable",
      "type": "function"
    },
    {
      "inputs": [
        {
          "internalType": "address",
          "name": "to",
          "type": "address"
        },
        {
          "internalType": "uint256",
          "name": "amount",
          "type": "uint256"
        }
      ],
      "name": "mint",
      "outputs": [],
      "stateMutability": "nonpayable",
      "type": "function"
    },
    {
      "inputs": [],
      "name": "name",
      "outputs": [
        {
          "internalType": "string",
          "name": "",
          "type": "string"
        }
      ],
      "stateMutability": "view",
      "type": "function"
    },
    {
      "inputs": [],
      "name": "owner",
      "outputs": [
        {
          "internalType": "address",
          "name": "",
          "type": "address"
        }
      ],
      "stateMutability": "view",
      "type": "function"
    },
    {
      "inputs": [],
      "name": "selfmint",
      "outputs": [],
      "stateMutability": "nonpayable",
      "type": "function"
    },
    {
      "inputs": [
        {
          "internalType": "uint256",
          "name": "rate",
          "type": "uint256"
        }
      ],
      "name": "setCustumRate",
      "outputs": [],
      "stateMutability": "nonpayable",
      "type": "function"
    },
    {
      "inputs": [
        {
          "internalType": "address",
          "name": "whitelistedAddr",
          "type": "address"
        },
        {
          "internalType": "uint256",
          "name": "rate",
          "type": "uint256"
        }
      ],
      "name": "setRate",
      "outputs": [],
      "stateMutability": "nonpayable",
      "type": "function"
    },
    {
      "inputs": [
        {
          "internalType": "address",
          "name": "whitelistedAddr",
          "type": "address"
        }
      ],
      "name": "setRecipient",
      "outputs": [],
      "stateMutability": "nonpayable",
      "type": "function"
    },
    {
      "inputs": [
        {
          "internalType": "address",
          "name": "whitelistedAddr",
          "type": "address"
        },
        {
          "internalType": "uint256",
          "name": "rate",
          "type": "uint256"
        }
      ],
      "name": "setRecipientAddressAndRate",
      "outputs": [],
      "stateMutability": "nonpayable",
      "type": "function"
    },
    {
      "inputs": [
        {
          "internalType": "bytes4",
          "name": "interfaceId",
          "type": "bytes4"
        }
      ],
      "name": "supportsInterface",
      "outputs": [
        {
          "internalType": "bool",
          "name": "",
          "type": "bool"
        }
      ],
      "stateMutability": "view",
      "type": "function"
    },
    {
      "inputs": [],
      "name": "symbol",
      "outputs": [
        {
          "internalType": "string",
          "name": "",
          "type": "string"
        }
      ],
      "stateMutability": "view",
      "type": "function"
    },
    {
      "inputs": [],
      "name": "totalSupply",
      "outputs": [
        {
          "internalType": "uint256",
          "name": "",
          "type": "uint256"
        }
      ],
      "stateMutability": "view",
      "type": "function"
    },
    {
      "inputs": [
        {
          "internalType": "address",
          "name": "to",
          "type": "address"
        },
        {
          "internalType": "uint256",
          "name": "amount",
          "type": "uint256"
        }
      ],
      "name": "transfer",
      "outputs": [
        {
          "internalType": "bool",
          "name": "",
          "type": "bool"
        }
      ],
      "stateMutability": "nonpayable",
      "type": "function"
    },
    {
      "inputs": [
        {
          "internalType": "address",
          "name": "from",
          "type": "address"
        },
        {
          "internalType": "address",
          "name": "to",
          "type": "address"
        },
        {
          "internalType": "uint256",
          "name": "amount",
          "type": "uint256"
        }
      ],
      "name": "transferFrom",
      "outputs": [
        {
          "internalType": "bool",
          "name": "",
          "type": "bool"
        }
      ],
      "stateMutability": "nonpayable",
      "type": "function"
    },
    {
      "inputs": [
        {
          "internalType": "address",
          "name": "",
          "type": "address"
        }
      ],
      "name": "whitelistedRate",
      "outputs": [
        {
          "internalType": "uint256",
          "name": "",
          "type": "uint256"
        }
      ],
      "stateMutability": "view",
      "type": "function"
    }
  ],
  "bytecode": "0x60806040523480156200001157600080fd5b50604051806040016040528060098152602001682a32b9ba2a37b5b2b760b91b815250604051806040016040528060038152602001621514d560ea1b81525081600390816200006191906200024e565b5060046200007082826200024e565b5050600a80546001600160a01b03191633908117909155620000b7915062000096601290565b620000a390600a6200042f565b620000b19061271062000447565b620000bd565b6200047f565b6001600160a01b038216620001185760405162461bcd60e51b815260206004820152601f60248201527f45524332303a206d696e7420746f20746865207a65726f206164647265737300604482015260640160405180910390fd5b80600260008282546200012c919062000469565b90915550506001600160a01b038216600090815260208190526040812080548392906200015b90849062000469565b90915550506040518181526001600160a01b038316906000907fddf252ad1be2c89b69c2b068fc378daa952ba7f163c4a11628f55a4df523b3ef9060200160405180910390a35050565b505050565b634e487b7160e01b600052604160045260246000fd5b600181811c90821680620001d557607f821691505b602082108103620001f657634e487b7160e01b600052602260045260246000fd5b50919050565b601f821115620001a557600081815260208120601f850160051c81016020861015620002255750805b601f850160051c820191505b81811015620002465782815560010162000231565b505050505050565b81516001600160401b038111156200026a576200026a620001aa565b62000282816200027b8454620001c0565b84620001fc565b602080601f831160018114620002ba5760008415620002a15750858301515b600019600386901b1c1916600185901b17855562000246565b600085815260208120601f198616915b82811015620002eb57888601518255948401946001909101908401620002ca565b50858210156200030a5787850151600019600388901b60f8161c191681555b5050505050600190811b01905550565b634e487b7160e01b600052601160045260246000fd5b600181815b80851115620003715781600019048211156200035557620003556200031a565b808516156200036357918102915b93841c939080029062000335565b509250929050565b6000826200038a5750600162000429565b81620003995750600062000429565b8160018114620003b25760028114620003bd57620003dd565b600191505062000429565b60ff841115620003d157620003d16200031a565b50506001821b62000429565b5060208310610133831016604e8410600b841016171562000402575081810a62000429565b6200040e838362000330565b80600019048211156200042557620004256200031a565b0290505b92915050565b60006200044060ff84168362000379565b9392505050565b60008160001904831182151516156200046457620004646200031a565b500290565b808201808211156200042957620004296200031a565b611b4a806200048f6000396000f3fe608060405234801561001057600080fd5b50600436106101e55760003560e01c806356a265a21161010f578063a9059cbb116100a2578063dd62ed3e11610071578063dd62ed3e1461045c578063e8b7893e14610495578063ecfb5d171461049d578063f0f4e15b146104b057600080fd5b8063a9059cbb14610419578063aa3d18301461042c578063b56eebfb1461043f578063d88b16611461045457600080fd5b80638da5cb5b116100de5780638da5cb5b146103a257806395d89b41146103b3578063991ec6f7146103bb578063a457c2d71461040657600080fd5b806356a265a21461031a57806370a082311461035e5780637e875e58146103875780638400580d1461039a57600080fd5b80632aafa870116101875780633bbed4a0116101565780633bbed4a0146102b8578063403af875146102cb57806340c10f19146102f45780635455bce21461030757600080fd5b80632aafa8701461027b5780632bdb709714610283578063313ce5671461029657806339509351146102a557600080fd5b806318160ddd116101c357806318160ddd1461023a578063214405fc1461024c57806323b872dd14610261578063299e86001461027457600080fd5b806301ffc9a7146101ea57806306fdde0314610212578063095ea7b314610227575b600080fd5b6101fd6101f836600461163c565b6104d0565b60405190151581526020015b60405180910390f35b61021a610507565b6040516102099190611666565b6101fd6102353660046116d0565b610599565b6002545b604051908152602001610209565b61025f61025a3660046116d0565b61060e565b005b6101fd61026f3660046116fa565b61070e565b60016101fd565b6101fd6107b0565b61025f6102913660046116d0565b6107d7565b60405160128152602001610209565b6101fd6102b33660046116d0565b610881565b61025f6102c6366004611736565b6108bb565b61023e6102d9366004611736565b6001600160a01b031660009081526005602052604090205490565b61025f6103023660046116d0565b6109b5565b6101fd610315366004611736565b6109ed565b610346610328366004611736565b6001600160a01b039081166000908152600860205260409020541690565b6040516001600160a01b039091168152602001610209565b61023e61036c366004611736565b6001600160a01b031660009081526020819052604090205490565b61025f6103953660046116d0565b610a68565b6101fd610b6d565b600a546001600160a01b0316610346565b61021a610c25565b6103ce6103c9366004611736565b610c34565b60408051951515865260208601949094526001600160a01b03909216928401929092526060830191909152608082015260a001610209565b6101fd6104143660046116d0565b610c9e565b6101fd6104273660046116d0565b610d30565b61025f61043a366004611751565b610dab565b610447610ef3565b604051610209919061176a565b61025f610f54565b61023e61046a3660046117b7565b6001600160a01b03918216600090815260016020908152604080832093909416825291909152205490565b61025f610f76565b61025f6104ab366004611736565b610fc7565b61023e6104be366004611736565b60056020526000908152604090205481565b60006001600160e01b03198216630b406ddd60e11b148061050157506001600160e01b031982166301ffc9a760e01b145b92915050565b606060038054610516906117ea565b80601f0160208091040260200160405190810160405280929190818152602001828054610542906117ea565b801561058f5780601f106105645761010080835404028352916020019161058f565b820191906000526020600020905b81548152906001019060200180831161057257829003601f168201915b5050505050905090565b6000336105a7818585611169565b336000908152600860205260409020546001600160a01b0316156106045760006105d03361128d565b905060006127106105e18387611834565b6105eb9190611853565b905061060183876105fc8885611875565b611169565b50505b5060019392505050565b600a546001600160a01b031633146106415760405162461bcd60e51b815260040161063890611888565b60405180910390fd5b6001600160a01b03821660009081526006602052604081205490036106c7576001600160a01b0382166000818152600560209081526040808320859055600980546001810182557f6e1540171b6c0c960b71a7020d9f60077f6af931a8bbf590da0223dacf75c7af0180546001600160a01b031916861790555493835260069091529020555b604080516001600160a01b0384168152602081018390527f62c1e066774519db9fe35767c15fc33df2f016675b7cc0c330ed185f286a2d5291015b60405180910390a15050565b60003361071c8582856112fd565b6001600160a01b03858116600090815260086020526040902054161561079a576001600160a01b03808616600090815260086020526040812054909116906107638761128d565b905060006127106107748388611834565b61077e9190611853565b905061078b8885836112fd565b61079688848361138f565b5050505b6107a585858561138f565b506001949350505050565b6000620300006107c8600a546001600160a01b031690565b6001600160a01b031614905090565b6127108111156107f95760405162461bcd60e51b8152600401610638906118bd565b6001600160a01b03821660009081526005602052604081205490036108305760405162461bcd60e51b81526004016106389061191a565b6001600160a01b038216600081815260056020908152604091829020849055815192835282018390527f272200c8484b4881d4bf8552d6783858e314cf8fc05461d9f87fded68327e66a9101610702565b3360008181526001602090815260408083206001600160a01b038716845290915281205490919061060490829086906105fc908790611875565b6001600160a01b03811660009081526005602052604081205490036109315760405162461bcd60e51b815260206004820152602660248201527f4552433230436861726974793a20696e76616c69642077686974656c6973746560448201526564207261746560d01b6064820152608401610638565b33600081815260086020908152604080832080546001600160a01b0319166001600160a01b0387169081179091558084526005835281842054948452600783528184208185528352928190209390935591519081527f6d4c462cdec505a621711d5ca414bc431f78e79746ca66270e7aa87947b59ab391015b60405180910390a150565b600a546001600160a01b031633146109df5760405162461bcd60e51b815260040161063890611888565b6109e9828261155d565b5050565b6040516301ffc9a760e01b8152630b406ddd60e11b600482015260009081906001600160a01b038416906301ffc9a790602401602060405180830381865afa158015610a3d573d6000803e3d6000fd5b505050506040513d601f19601f82011682018060405250810190610a619190611963565b9392505050565b612710811115610a8a5760405162461bcd60e51b8152600401610638906118bd565b6001600160a01b038216600090815260056020526040902054811015610ac25760405162461bcd60e51b815260040161063890611985565b6001600160a01b0382166000908152600560205260408120549003610af95760405162461bcd60e51b81526004016106389061191a565b33600090815260086020908152604080832080546001600160a01b0319166001600160a01b0387169081179091556007835281842081855283529281902084905580519283529082018390527f21470041ef9ff574315005b52c90c0f22b3499a708aee20330f95853e2583b699101610702565b62010000600081815260056020527fd16edc1b27db01ba9e397020ebf1928062f43854d46f2de071568ac06c8a58c7549091906202000090819062040000906107d0148015610bd557506001600160a01b0383166000908152600560205260409020546107d0145b8015610bf757506001600160a01b038216600090815260056020526040902054155b8015610c1c57506001600160a01b038116600090815260056020526040902054610fa0145b94505050505090565b606060048054610516906117ea565b6001600160a01b038082166000908152600560208181526040808420543380865260088452828620549096168086529383528185205495855260078352818520848652909252832054929390928315610c905760019450610c95565b600094505b91939590929450565b3360008181526001602090815260408083206001600160a01b038716845290915281205490919083811015610d235760405162461bcd60e51b815260206004820152602560248201527f45524332303a2064656372656173656420616c6c6f77616e63652062656c6f77604482015264207a65726f60d81b6064820152608401610638565b6107a58286868403611169565b336000818152600860205260408120549091906001600160a01b031615610da057336000818152600860205260408120546001600160a01b031691610d749061128d565b90506000612710610d858388611834565b610d8f9190611853565b9050610d9c84848361138f565b5050505b61060481858561138f565b612710811115610dcd5760405162461bcd60e51b8152600401610638906118bd565b336000908152600860205260409020546001600160a01b0316610e405760405162461bcd60e51b815260206004820152602560248201527f4552433230436861726974793a206e6f207265676973746572656420726563696044820152641c1a595b9d60da1b6064820152608401610638565b336000908152600860209081526040808320546001600160a01b031683526005909152902054811015610e855760405162461bcd60e51b815260040161063890611985565b336000818152600760209081526040808320600880845282852080546001600160a01b03908116875292855283862088905595909452928252925483519216825281018390527fca0b363fd271fc3763c2c2c23802aebb7a4f4851a177be5dc763d58083f6920191016109aa565b6060600980548060200260200160405190810160405280929190818152602001828054801561058f57602002820191906000526020600020905b81546001600160a01b03168152600190910190602001808311610f2d575050505050905090565b610f7433610f646012600a611ac6565b610f6f906064611834565b61155d565b565b33600090815260086020908152604080832080546001600160a01b0319169055519182527f6d4c462cdec505a621711d5ca414bc431f78e79746ca66270e7aa87947b59ab3910160405180910390a1565b600a546001600160a01b03163314610ff15760405162461bcd60e51b815260040161063890611888565b6001600160a01b038116600090815260066020526040902054806110475760405162461bcd60e51b815260206004820152600d60248201526c092dcecc2d8d2c840d2dcc8caf609b1b6044820152606401610638565b600980546000919061105b90600190611ad5565b8154811061106b5761106b611ae8565b6000918252602090912001546001600160a01b03169050806009611090600185611ad5565b815481106110a0576110a0611ae8565b600091825260208083209190910180546001600160a01b0319166001600160a01b03948516179055918316815260069091526040902082905560098054806110ea576110ea611afe565b60008281526020808220600019908401810180546001600160a01b03191690559092019092556001600160a01b038516808352600682526040808420849055600583528084209390935591519182527fcdd2e9b91a56913d370075169cefa1602ba36be5301664f752192bb1709df757910160405180910390a1505050565b6001600160a01b0383166111cb5760405162461bcd60e51b8152602060048201526024808201527f45524332303a20617070726f76652066726f6d20746865207a65726f206164646044820152637265737360e01b6064820152608401610638565b6001600160a01b03821661122c5760405162461bcd60e51b815260206004820152602260248201527f45524332303a20617070726f766520746f20746865207a65726f206164647265604482015261737360f01b6064820152608401610638565b6001600160a01b0383811660008181526001602090815260408083209487168084529482529182902085905590518481527f8c5be1e5ebec7d5bd14f71427d1e84f3dd0314c0f7b2291e5b200ac8c7c3b925910160405180910390a3505050565b6001600160a01b038082166000908152600860209081526040808320546007835281842094168084529382528083205460059092529091205490919015806112ed57506001600160a01b0383811660009081526008602052604090205416155b156112f757600091505b50919050565b6001600160a01b038381166000908152600160209081526040808320938616835292905220546000198114611389578181101561137c5760405162461bcd60e51b815260206004820152601d60248201527f45524332303a20696e73756666696369656e7420616c6c6f77616e63650000006044820152606401610638565b6113898484848403611169565b50505050565b6001600160a01b0383166113f35760405162461bcd60e51b815260206004820152602560248201527f45524332303a207472616e736665722066726f6d20746865207a65726f206164604482015264647265737360d81b6064820152608401610638565b6001600160a01b0382166114555760405162461bcd60e51b815260206004820152602360248201527f45524332303a207472616e7366657220746f20746865207a65726f206164647260448201526265737360e81b6064820152608401610638565b6001600160a01b038316600090815260208190526040902054818110156114cd5760405162461bcd60e51b815260206004820152602660248201527f45524332303a207472616e7366657220616d6f756e7420657863656564732062604482015265616c616e636560d01b6064820152608401610638565b6001600160a01b03808516600090815260208190526040808220858503905591851681529081208054849290611504908490611875565b92505081905550826001600160a01b0316846001600160a01b03167fddf252ad1be2c89b69c2b068fc378daa952ba7f163c4a11628f55a4df523b3ef8460405161155091815260200190565b60405180910390a3611389565b6001600160a01b0382166115b35760405162461bcd60e51b815260206004820152601f60248201527f45524332303a206d696e7420746f20746865207a65726f2061646472657373006044820152606401610638565b80600260008282546115c59190611875565b90915550506001600160a01b038216600090815260208190526040812080548392906115f2908490611875565b90915550506040518181526001600160a01b038316906000907fddf252ad1be2c89b69c2b068fc378daa952ba7f163c4a11628f55a4df523b3ef9060200160405180910390a35050565b60006020828403121561164e57600080fd5b81356001600160e01b031981168114610a6157600080fd5b600060208083528351808285015260005b8181101561169357858101830151858201604001528201611677565b506000604082860101526040601f19601f8301168501019250505092915050565b80356001600160a01b03811681146116cb57600080fd5b919050565b600080604083850312156116e357600080fd5b6116ec836116b4565b946020939093013593505050565b60008060006060848603121561170f57600080fd5b611718846116b4565b9250611726602085016116b4565b9150604084013590509250925092565b60006020828403121561174857600080fd5b610a61826116b4565b60006020828403121561176357600080fd5b5035919050565b6020808252825182820181905260009190848201906040850190845b818110156117ab5783516001600160a01b031683529284019291840191600101611786565b50909695505050505050565b600080604083850312156117ca57600080fd5b6117d3836116b4565b91506117e1602084016116b4565b90509250929050565b600181811c908216806117fe57607f821691505b6020821081036112f757634e487b7160e01b600052602260045260246000fd5b634e487b7160e01b600052601160045260246000fd5b600081600019048311821515161561184e5761184e61181e565b500290565b60008261187057634e487b7160e01b600052601260045260246000fd5b500490565b808201808211156105015761050161181e565b6020808252818101527f4f776e61626c653a2063616c6c6572206973206e6f7420746865206f776e6572604082015260600190565b60208082526038908201527f4552433230436861726974793a2072617465206d75737420626520626574776560408201527f656e203020616e64205f66656544656e6f6d696e61746f720000000000000000606082015260800190565b60208082526029908201527f4552433230436861726974793a20696e76616c69642077686974656c6973746560408201526864206164647265737360b81b606082015260800190565b60006020828403121561197557600080fd5b81518015158114610a6157600080fd5b6020808252603b908201527f4552433230436861726974793a207261746520666565206d757374206578636560408201527f656420746865206665652073657420627920746865206f776e65720000000000606082015260800190565b600181815b80851115611a1d578160001904821115611a0357611a0361181e565b80851615611a1057918102915b93841c93908002906119e7565b509250929050565b600082611a3457506001610501565b81611a4157506000610501565b8160018114611a575760028114611a6157611a7d565b6001915050610501565b60ff841115611a7257611a7261181e565b50506001821b610501565b5060208310610133831016604e8410600b8410161715611aa0575081810a610501565b611aaa83836119e2565b8060001904821115611abe57611abe61181e565b029392505050565b6000610a6160ff841683611a25565b818103818111156105015761050161181e565b634e487b7160e01b600052603260045260246000fd5b634e487b7160e01b600052603160045260246000fdfea264697066735822122041ff3928fadc6f8c9237ac457b83580eaee367b47d83246ba4936a1df3c1c42864736f6c63430008100033",
  "linkReferences": {},
  "deployedLinkReferences": {}
}