{
  "_format": "hh-sol-artifact-1",
  "contractName": "CharityFuzz",
  "sourceName": "contracts/test/fuzzing/CharityFuzz.sol",
  "abi": [
    {
      "inputs": [],
      "stateMutability": "nonpayable",
      "type": "constructor"
    },
    {
      "anonymous": false,
      "inputs": [
        {
          "indexed": false,
          "internalType": "address",
          "name": "toAdd",
          "type": "address"
        },
        {
          "indexed": false,
          "internalType": "uint256",
          "name": "rate",
          "type": "uint256"
        }
      ],
      "name": "AddedToWhitelist",
      "type": "event"
    },
    {
      "anonymous": false,
      "inputs": [
        {
          "indexed": true,
          "internalType": "address",
          "name": "owner",
          "type": "address"
        },
        {
          "indexed": true,
          "internalType": "address",
          "name": "spender",
          "type": "address"
        },
        {
          "indexed": false,
          "internalType": "uint256",
          "name": "value",
          "type": "uint256"
        }
      ],
      "name": "Approval",
      "type": "event"
    },
    {
      "anonymous": false,
      "inputs": [
        {
          "indexed": false,
          "internalType": "address",
          "name": "whitelistedAddr",
          "type": "address"
        },
        {
          "indexed": false,
          "internalType": "uint256",
          "name": "rate",
          "type": "uint256"
        }
      ],
      "name": "DonnationAddressAndRateChanged",
      "type": "event"
    },
    {
      "anonymous": false,
      "inputs": [
        {
          "indexed": false,
          "internalType": "address",
          "name": "whitelistedAddr",
          "type": "address"
        }
      ],
      "name": "DonnationAddressChanged",
      "type": "event"
    },
    {
      "anonymous": false,
      "inputs": [
        {
          "indexed": false,
          "internalType": "address",
          "name": "whitelistedAddr",
          "type": "address"
        },
        {
          "indexed": false,
          "internalType": "uint256",
          "name": "rate",
          "type": "uint256"
        }
      ],
      "name": "ModifiedCharityCustumRate",
      "type": "event"
    },
    {
      "anonymous": false,
      "inputs": [
        {
          "indexed": false,
          "internalType": "address",
          "name": "whitelistedAddr",
          "type": "address"
        },
        {
          "indexed": false,
          "internalType": "uint256",
          "name": "rate",
          "type": "uint256"
        }
      ],
      "name": "ModifiedCharityRate",
      "type": "event"
    },
    {
      "anonymous": false,
      "inputs": [
        {
          "indexed": false,
          "internalType": "address",
          "name": "toRemove",
          "type": "address"
        }
      ],
      "name": "RemovedFromWhitelist",
      "type": "event"
    },
    {
      "anonymous": false,
      "inputs": [
        {
          "indexed": true,
          "internalType": "address",
          "name": "from",
          "type": "address"
        },
        {
          "indexed": true,
          "internalType": "address",
          "name": "to",
          "type": "address"
        },
        {
          "indexed": false,
          "internalType": "uint256",
          "name": "value",
          "type": "uint256"
        }
      ],
      "name": "Transfer",
      "type": "event"
    },
    {
      "inputs": [
        {
          "internalType": "address",
          "name": "toAdd",
          "type": "address"
        },
        {
          "internalType": "uint256",
          "name": "rate",
          "type": "uint256"
        }
      ],
      "name": "addToWhitelist",
      "outputs": [],
      "stateMutability": "nonpayable",
      "type": "function"
    },
    {
      "inputs": [
        {
          "internalType": "address",
          "name": "owner",
          "type": "address"
        },
        {
          "internalType": "address",
          "name": "spender",
          "type": "address"
        }
      ],
      "name": "allowance",
      "outputs": [
        {
          "internalType": "uint256",
          "name": "",
          "type": "uint256"
        }
      ],
      "stateMutability": "view",
      "type": "function"
    },
    {
      "inputs": [
        {
          "internalType": "address",
          "name": "spender",
          "type": "address"
        },
        {
          "internalType": "uint256",
          "name": "amount",
          "type": "uint256"
        }
      ],
      "name": "approve",
      "outputs": [
        {
          "internalType": "bool",
          "name": "",
          "type": "bool"
        }
      ],
      "stateMutability": "nonpayable",
      "type": "function"
    },
    {
      "inputs": [
        {
          "internalType": "address",
          "name": "add",
          "type": "address"
        },
        {
          "internalType": "uint256",
          "name": "amount",
          "type": "uint256"
        }
      ],
      "name": "assert_test_mint",
      "outputs": [],
      "stateMutability": "nonpayable",
      "type": "function"
    },
    {
      "inputs": [
        {
          "internalType": "address",
          "name": "add",
          "type": "address"
        }
      ],
      "name": "assert_test_selfmint",
      "outputs": [],
      "stateMutability": "nonpayable",
      "type": "function"
    },
    {
      "inputs": [
        {
          "internalType": "address",
          "name": "account",
          "type": "address"
        }
      ],
      "name": "balanceOf",
      "outputs": [
        {
          "internalType": "uint256",
          "name": "",
          "type": "uint256"
        }
      ],
      "stateMutability": "view",
      "type": "function"
    },
    {
      "inputs": [
        {
          "internalType": "address",
          "name": "charityAddr",
          "type": "address"
        }
      ],
      "name": "charityInfo",
      "outputs": [
        {
          "internalType": "bool",
          "name": "whitelisted",
          "type": "bool"
        },
        {
          "internalType": "uint256",
          "name": "defaultRate",
          "type": "uint256"
        },
        {
          "internalType": "address",
          "name": "msgRecipient",
          "type": "address"
        },
        {
          "internalType": "uint256",
          "name": "RecipientRate",
          "type": "uint256"
        },
        {
          "internalType": "uint256",
          "name": "msgRate",
          "type": "uint256"
        }
      ],
      "stateMutability": "view",
      "type": "function"
    },
    {
      "inputs": [
        {
          "internalType": "address",
          "name": "testContract",
          "type": "address"
        }
      ],
      "name": "checkInterface",
      "outputs": [
        {
          "internalType": "bool",
          "name": "",
          "type": "bool"
        }
      ],
      "stateMutability": "view",
      "type": "function"
    },
    {
      "inputs": [],
      "name": "decimals",
      "outputs": [
        {
          "internalType": "uint8",
          "name": "",
          "type": "uint8"
        }
      ],
      "stateMutability": "view",
      "type": "function"
    },
    {
      "inputs": [
        {
          "internalType": "address",
          "name": "spender",
          "type": "address"
        },
        {
          "internalType": "uint256",
          "name": "subtractedValue",
          "type": "uint256"
        }
      ],
      "name": "decreaseAllowance",
      "outputs": [
        {
          "internalType": "bool",
          "name": "",
          "type": "bool"
        }
      ],
      "stateMutability": "nonpayable",
      "type": "function"
    },
    {
      "inputs": [
        {
          "internalType": "address",
          "name": "toRemove",
          "type": "address"
        }
      ],
      "name": "deleteFromWhitelist",
      "outputs": [],
      "stateMutability": "nonpayable",
      "type": "function"
    },
    {
      "inputs": [],
      "name": "deleteRecipient",
      "outputs": [],
      "stateMutability": "nonpayable",
      "type": "function"
    },
    {
      "inputs": [],
      "name": "echidna_test_addToWhitelist",
      "outputs": [
        {
          "internalType": "bool",
          "name": "",
          "type": "bool"
        }
      ],
      "stateMutability": "nonpayable",
      "type": "function"
    },
    {
      "inputs": [],
      "name": "echidna_test_denominator",
      "outputs": [
        {
          "internalType": "bool",
          "name": "",
          "type": "bool"
        }
      ],
      "stateMutability": "pure",
      "type": "function"
    },
    {
      "inputs": [],
      "name": "echidna_test_name",
      "outputs": [
        {
          "internalType": "bool",
          "name": "",
          "type": "bool"
        }
      ],
      "stateMutability": "view",
      "type": "function"
    },
    {
      "inputs": [],
      "name": "echidna_test_owner",
      "outputs": [
        {
          "internalType": "bool",
          "name": "",
          "type": "bool"
        }
      ],
      "stateMutability": "view",
      "type": "function"
    },
    {
      "inputs": [],
      "name": "echidna_test_totalSupply",
      "outputs": [
        {
          "internalType": "bool",
          "name": "",
          "type": "bool"
        }
      ],
      "stateMutability": "view",
      "type": "function"
    },
    {
      "inputs": [],
      "name": "echidna_test_whitelistedRate",
      "outputs": [
        {
          "internalType": "bool",
          "name": "",
          "type": "bool"
        }
      ],
      "stateMutability": "view",
      "type": "function"
    },
    {
      "inputs": [],
      "name": "getAllWhitelistedAddresses",
      "outputs": [
        {
          "internalType": "address[]",
          "name": "",
          "type": "address[]"
        }
      ],
      "stateMutability": "view",
      "type": "function"
    },
    {
      "inputs": [
        {
          "internalType": "address",
          "name": "addr",
          "type": "address"
        }
      ],
      "name": "getRateOf",
      "outputs": [
        {
          "internalType": "uint256",
          "name": "",
          "type": "uint256"
        }
      ],
      "stateMutability": "view",
      "type": "function"
    },
    {
      "inputs": [
        {
          "internalType": "address",
          "name": "addr",
          "type": "address"
        }
      ],
      "name": "getRecipientAddressOf",
      "outputs": [
        {
          "internalType": "address",
          "name": "",
          "type": "address"
        }
      ],
      "stateMutability": "view",
      "type": "function"
    },
    {
      "inputs": [
        {
          "internalType": "address",
          "name": "spender",
          "type": "address"
        },
        {
          "internalType": "uint256",
          "name": "addedValue",
          "type": "uint256"
        }
      ],
      "name": "increaseAllowance",
      "outputs": [
        {
          "internalType": "bool",
          "name": "",
          "type": "bool"
        }
      ],
      "stateMutability": "nonpayable",
      "type": "function"
    },
    {
      "inputs": [
        {
          "internalType": "address",
          "name": "to",
          "type": "address"
        },
        {
          "internalType": "uint256",
          "name": "amount",
          "type": "uint256"
        }
      ],
      "name": "mint",
      "outputs": [],
      "stateMutability": "nonpayable",
      "type": "function"
    },
    {
      "inputs": [],
      "name": "name",
      "outputs": [
        {
          "internalType": "string",
          "name": "",
          "type": "string"
        }
      ],
      "stateMutability": "view",
      "type": "function"
    },
    {
      "inputs": [],
      "name": "owner",
      "outputs": [
        {
          "internalType": "address",
          "name": "",
          "type": "address"
        }
      ],
      "stateMutability": "view",
      "type": "function"
    },
    {
      "inputs": [],
      "name": "selfmint",
      "outputs": [],
      "stateMutability": "nonpayable",
      "type": "function"
    },
    {
      "inputs": [
        {
          "internalType": "uint256",
          "name": "rate",
          "type": "uint256"
        }
      ],
      "name": "setCustumRate",
      "outputs": [],
      "stateMutability": "nonpayable",
      "type": "function"
    },
    {
      "inputs": [
        {
          "internalType": "address",
          "name": "whitelistedAddr",
          "type": "address"
        },
        {
          "internalType": "uint256",
          "name": "rate",
          "type": "uint256"
        }
      ],
      "name": "setRate",
      "outputs": [],
      "stateMutability": "nonpayable",
      "type": "function"
    },
    {
      "inputs": [
        {
          "internalType": "address",
          "name": "whitelistedAddr",
          "type": "address"
        }
      ],
      "name": "setRecipient",
      "outputs": [],
      "stateMutability": "nonpayable",
      "type": "function"
    },
    {
      "inputs": [
        {
          "internalType": "address",
          "name": "whitelistedAddr",
          "type": "address"
        },
        {
          "internalType": "uint256",
          "name": "rate",
          "type": "uint256"
        }
      ],
      "name": "setRecipientAddressAndRate",
      "outputs": [],
      "stateMutability": "nonpayable",
      "type": "function"
    },
    {
      "inputs": [
        {
          "internalType": "bytes4",
          "name": "interfaceId",
          "type": "bytes4"
        }
      ],
      "name": "supportsInterface",
      "outputs": [
        {
          "internalType": "bool",
          "name": "",
          "type": "bool"
        }
      ],
      "stateMutability": "view",
      "type": "function"
    },
    {
      "inputs": [],
      "name": "symbol",
      "outputs": [
        {
          "internalType": "string",
          "name": "",
          "type": "string"
        }
      ],
      "stateMutability": "view",
      "type": "function"
    },
    {
      "inputs": [],
      "name": "totalSupply",
      "outputs": [
        {
          "internalType": "uint256",
          "name": "",
          "type": "uint256"
        }
      ],
      "stateMutability": "view",
      "type": "function"
    },
    {
      "inputs": [
        {
          "internalType": "address",
          "name": "to",
          "type": "address"
        },
        {
          "internalType": "uint256",
          "name": "amount",
          "type": "uint256"
        }
      ],
      "name": "transfer",
      "outputs": [
        {
          "internalType": "bool",
          "name": "",
          "type": "bool"
        }
      ],
      "stateMutability": "nonpayable",
      "type": "function"
    },
    {
      "inputs": [
        {
          "internalType": "address",
          "name": "from",
          "type": "address"
        },
        {
          "internalType": "address",
          "name": "to",
          "type": "address"
        },
        {
          "internalType": "uint256",
          "name": "amount",
          "type": "uint256"
        }
      ],
      "name": "transferFrom",
      "outputs": [
        {
          "internalType": "bool",
          "name": "",
          "type": "bool"
        }
      ],
      "stateMutability": "nonpayable",
      "type": "function"
    },
    {
      "inputs": [
        {
          "internalType": "address",
          "name": "",
          "type": "address"
        }
      ],
      "name": "whitelistedRate",
      "outputs": [
        {
          "internalType": "uint256",
          "name": "",
          "type": "uint256"
        }
      ],
      "stateMutability": "view",
      "type": "function"
    }
  ],
  "bytecode": "0x6080604052600b80546001600160a01b03199081166201000017909155600c8054821662020000179055600d8054821662330000179055600e8054909116620400001790553480156200005157600080fd5b50604051806040016040528060098152602001682a32b9ba2a37b5b2b760b91b815250604051806040016040528060038152602001621514d560ea1b8152508160039081620000a191906200028e565b506004620000b082826200028e565b5050600a80546001600160a01b03191633908117909155620000f79150620000d6601290565b620000e390600a6200046f565b620000f19061271062000487565b620000fd565b620004bf565b6001600160a01b038216620001585760405162461bcd60e51b815260206004820152601f60248201527f45524332303a206d696e7420746f20746865207a65726f206164647265737300604482015260640160405180910390fd5b80600260008282546200016c9190620004a9565b90915550506001600160a01b038216600090815260208190526040812080548392906200019b908490620004a9565b90915550506040518181526001600160a01b038316906000907fddf252ad1be2c89b69c2b068fc378daa952ba7f163c4a11628f55a4df523b3ef9060200160405180910390a35050565b505050565b634e487b7160e01b600052604160045260246000fd5b600181811c908216806200021557607f821691505b6020821081036200023657634e487b7160e01b600052602260045260246000fd5b50919050565b601f821115620001e557600081815260208120601f850160051c81016020861015620002655750805b601f850160051c820191505b81811015620002865782815560010162000271565b505050505050565b81516001600160401b03811115620002aa57620002aa620001ea565b620002c281620002bb845462000200565b846200023c565b602080601f831160018114620002fa5760008415620002e15750858301515b600019600386901b1c1916600185901b17855562000286565b600085815260208120601f198616915b828110156200032b578886015182559484019460019091019084016200030a565b50858210156200034a5787850151600019600388901b60f8161c191681555b5050505050600190811b01905550565b634e487b7160e01b600052601160045260246000fd5b600181815b80851115620003b15781600019048211156200039557620003956200035a565b80851615620003a357918102915b93841c939080029062000375565b509250929050565b600082620003ca5750600162000469565b81620003d95750600062000469565b8160018114620003f25760028114620003fd576200041d565b600191505062000469565b60ff8411156200041157620004116200035a565b50506001821b62000469565b5060208310610133831016604e8410600b841016171562000442575081810a62000469565b6200044e838362000370565b80600019048211156200046557620004656200035a565b0290505b92915050565b60006200048060ff841683620003b9565b9392505050565b6000816000190483118215151615620004a457620004a46200035a565b500290565b808201808211156200046957620004696200035a565b611e9580620004cf6000396000f3fe608060405234801561001057600080fd5b506004361061021c5760003560e01c80637e875e5811610125578063b56eebfb116100ad578063dd62ed3e1161007c578063dd62ed3e146104be578063e8b7893e146104f7578063ecfb5d17146104ff578063f0f4e15b14610512578063f2598e321461053257600080fd5b8063b56eebfb14610491578063b6877c11146104a6578063b947228d146104ae578063d88b1661146104b657600080fd5b806395d89b41116100f457806395d89b4114610405578063991ec6f71461040d578063a457c2d714610458578063a9059cbb1461046b578063aa3d18301461047e57600080fd5b80637e875e58146103c65780638400580d146103d9578063889b675a146103e15780638da5cb5b146103f457600080fd5b8063313ce567116101a857806340c10f191161017757806340c10f191461032b5780635455bce21461033e57806356a265a2146103515780635fb9b0b51461039557806370a082311461039d57600080fd5b8063313ce567146102cd57806339509351146102dc5780633bbed4a0146102ef578063403af8751461030257600080fd5b8063214405fc116101ef578063214405fc1461028357806323b872dd14610298578063299e8600146102ab5780632aafa870146102b25780632bdb7097146102ba57600080fd5b806301ffc9a71461022157806306fdde0314610249578063095ea7b31461025e57806318160ddd14610271575b600080fd5b61023461022f366004611933565b610545565b60405190151581526020015b60405180910390f35b61025161057c565b6040516102409190611981565b61023461026c3660046119d0565b61060e565b6002545b604051908152602001610240565b6102966102913660046119d0565b610683565b005b6102346102a63660046119fa565b610783565b6001610234565b610234610825565b6102966102c83660046119d0565b61084c565b60405160128152602001610240565b6102346102ea3660046119d0565b6108f6565b6102966102fd366004611a36565b610930565b610275610310366004611a36565b6001600160a01b031660009081526005602052604090205490565b6102966103393660046119d0565b610a2a565b61023461034c366004611a36565b610a62565b61037d61035f366004611a36565b6001600160a01b039081166000908152600860205260409020541690565b6040516001600160a01b039091168152602001610240565b610234610add565b6102756103ab366004611a36565b6001600160a01b031660009081526020819052604090205490565b6102966103d43660046119d0565b610b0c565b610234610c11565b6102966103ef3660046119d0565b610c5c565b600a546001600160a01b031661037d565b610251610d6e565b61042061041b366004611a36565b610d7d565b60408051951515865260208601949094526001600160a01b03909216928401929092526060830191909152608082015260a001610240565b6102346104663660046119d0565b610de7565b6102346104793660046119d0565b610e79565b61029661048c366004611a51565b610ef4565b61049961103c565b6040516102409190611a6a565b61023461109d565b610234611107565b6102966111a5565b6102756104cc366004611ab7565b6001600160a01b03918216600090815260016020908152604080832093909416825291909152205490565b6102966111c7565b61029661050d366004611a36565b611218565b610275610520366004611a36565b60056020526000908152604090205481565b610296610540366004611a36565b6113ba565b60006001600160e01b03198216630b406ddd60e11b148061057657506001600160e01b031982166301ffc9a760e01b145b92915050565b60606003805461058b90611aea565b80601f01602080910402602001604051908101604052809291908181526020018280546105b790611aea565b80156106045780601f106105d957610100808354040283529160200191610604565b820191906000526020600020905b8154815290600101906020018083116105e757829003601f168201915b5050505050905090565b60003361061c818585611460565b336000908152600860205260409020546001600160a01b03161561067957600061064533611584565b905060006127106106568387611b34565b6106609190611b53565b905061067683876106718885611b75565b611460565b50505b5060019392505050565b600a546001600160a01b031633146106b65760405162461bcd60e51b81526004016106ad90611b88565b60405180910390fd5b6001600160a01b038216600090815260066020526040812054900361073c576001600160a01b0382166000818152600560209081526040808320859055600980546001810182557f6e1540171b6c0c960b71a7020d9f60077f6af931a8bbf590da0223dacf75c7af0180546001600160a01b031916861790555493835260069091529020555b604080516001600160a01b0384168152602081018390527f62c1e066774519db9fe35767c15fc33df2f016675b7cc0c330ed185f286a2d5291015b60405180910390a15050565b6000336107918582856115f4565b6001600160a01b03858116600090815260086020526040902054161561080f576001600160a01b03808616600090815260086020526040812054909116906107d887611584565b905060006127106107e98388611b34565b6107f39190611b53565b90506108008885836115f4565b61080b888483611686565b5050505b61081a858585611686565b506001949350505050565b60006203000061083d600a546001600160a01b031690565b6001600160a01b031614905090565b61271081111561086e5760405162461bcd60e51b81526004016106ad90611bbd565b6001600160a01b03821660009081526005602052604081205490036108a55760405162461bcd60e51b81526004016106ad90611c1a565b6001600160a01b038216600081815260056020908152604091829020849055815192835282018390527f272200c8484b4881d4bf8552d6783858e314cf8fc05461d9f87fded68327e66a9101610777565b3360008181526001602090815260408083206001600160a01b03871684529091528120549091906106799082908690610671908790611b75565b6001600160a01b03811660009081526005602052604081205490036109a65760405162461bcd60e51b815260206004820152602660248201527f4552433230436861726974793a20696e76616c69642077686974656c6973746560448201526564207261746560d01b60648201526084016106ad565b33600081815260086020908152604080832080546001600160a01b0319166001600160a01b0387169081179091558084526005835281842054948452600783528184208185528352928190209390935591519081527f6d4c462cdec505a621711d5ca414bc431f78e79746ca66270e7aa87947b59ab391015b60405180910390a150565b600a546001600160a01b03163314610a545760405162461bcd60e51b81526004016106ad90611b88565b610a5e8282611854565b5050565b6040516301ffc9a760e01b8152630b406ddd60e11b600482015260009081906001600160a01b038416906301ffc9a790602401602060405180830381865afa158015610ab2573d6000803e3d6000fd5b505050506040513d601f19601f82011682018060405250810190610ad69190611c63565b9392505050565b600080610aec6012600a611d69565b610af890612710611b34565b905080610b0460025490565b101591505090565b612710811115610b2e5760405162461bcd60e51b81526004016106ad90611bbd565b6001600160a01b038216600090815260056020526040902054811015610b665760405162461bcd60e51b81526004016106ad90611d78565b6001600160a01b0382166000908152600560205260408120549003610b9d5760405162461bcd60e51b81526004016106ad90611c1a565b33600090815260086020908152604080832080546001600160a01b0319166001600160a01b0387169081179091556007835281842081855283529281902084905580519283529082018390527f21470041ef9ff574315005b52c90c0f22b3499a708aee20330f95853e2583b699101610777565b600b546001600160a01b03166000908152600560205260408120546103e8148015610c575750600c546001600160a01b03166000908152600560205260409020546107d0145b905090565b600a546001600160a01b03163314610c7357600080fd5b6040516370a0823160e01b81526001600160a01b038316600482015260009030906370a0823190602401602060405180830381865afa158015610cba573d6000803e3d6000fd5b505050506040513d601f19601f82011682018060405250810190610cde9190611dd5565b9050610cea8383610a2a565b610cf48282611b75565b6040516370a0823160e01b81526001600160a01b038516600482015230906370a0823190602401602060405180830381865afa158015610d38573d6000803e3d6000fd5b505050506040513d601f19601f82011682018060405250810190610d5c9190611dd5565b14610d6957610d69611dee565b505050565b60606004805461058b90611aea565b6001600160a01b038082166000908152600560208181526040808420543380865260088452828620549096168086529383528185205495855260078352818520848652909252832054929390928315610dd95760019450610dde565b600094505b91939590929450565b3360008181526001602090815260408083206001600160a01b038716845290915281205490919083811015610e6c5760405162461bcd60e51b815260206004820152602560248201527f45524332303a2064656372656173656420616c6c6f77616e63652062656c6f77604482015264207a65726f60d81b60648201526084016106ad565b61081a8286868403611460565b336000818152600860205260408120549091906001600160a01b031615610ee957336000818152600860205260408120546001600160a01b031691610ebd90611584565b90506000612710610ece8388611b34565b610ed89190611b53565b9050610ee5848483611686565b5050505b610679818585611686565b612710811115610f165760405162461bcd60e51b81526004016106ad90611bbd565b336000908152600860205260409020546001600160a01b0316610f895760405162461bcd60e51b815260206004820152602560248201527f4552433230436861726974793a206e6f207265676973746572656420726563696044820152641c1a595b9d60da1b60648201526084016106ad565b336000908152600860209081526040808320546001600160a01b031683526005909152902054811015610fce5760405162461bcd60e51b81526004016106ad90611d78565b336000818152600760209081526040808320600880845282852080546001600160a01b03908116875292855283862088905595909452928252925483519216825281018390527fca0b363fd271fc3763c2c2c23802aebb7a4f4851a177be5dc763d58083f692019101610a1f565b6060600980548060200260200160405190810160405280929190818152602001828054801561060457602002820191906000526020600020905b81546001600160a01b03168152600190910190602001808311611076575050505050905090565b6000806110a861057c565b604051682a32b9ba2a37b5b2b760b91b602082015290915060290160405160208183030381529060405280519060200120816040516020016110ea9190611e04565b604051602081830303815290604052805190602001201491505090565b600033620300001461111857600080fd5b600b54611130906001600160a01b03166103e8610683565b600b5460405163403af87560e01b81526001600160a01b039091166004820152309063403af87590602401602060405180830381865afa158015611178573d6000803e3d6000fd5b505050506040513d601f19601f8201168201806040525081019061119c9190611dd5565b6103e814905090565b6111c5336111b56012600a611d69565b6111c0906064611b34565b611854565b565b33600090815260086020908152604080832080546001600160a01b0319169055519182527f6d4c462cdec505a621711d5ca414bc431f78e79746ca66270e7aa87947b59ab3910160405180910390a1565b600a546001600160a01b031633146112425760405162461bcd60e51b81526004016106ad90611b88565b6001600160a01b038116600090815260066020526040902054806112985760405162461bcd60e51b815260206004820152600d60248201526c092dcecc2d8d2c840d2dcc8caf609b1b60448201526064016106ad565b60098054600091906112ac90600190611e20565b815481106112bc576112bc611e33565b6000918252602090912001546001600160a01b031690508060096112e1600185611e20565b815481106112f1576112f1611e33565b600091825260208083209190910180546001600160a01b0319166001600160a01b039485161790559183168152600690915260409020829055600980548061133b5761133b611e49565b60008281526020808220600019908401810180546001600160a01b03191690559092019092556001600160a01b038516808352600682526040808420849055600583528084209390935591519182527fcdd2e9b91a56913d370075169cefa1602ba36be5301664f752192bb1709df757910160405180910390a1505050565b336001600160a01b038216146113cf57600080fd5b60006113dd6012600a611d69565b6113e8906064611b34565b6040516370a0823160e01b81526001600160a01b038416600482015290915060009030906370a0823190602401602060405180830381865afa158015611432573d6000803e3d6000fd5b505050506040513d601f19601f820116820180604052508101906114569190611dd5565b9050610cea6111a5565b6001600160a01b0383166114c25760405162461bcd60e51b8152602060048201526024808201527f45524332303a20617070726f76652066726f6d20746865207a65726f206164646044820152637265737360e01b60648201526084016106ad565b6001600160a01b0382166115235760405162461bcd60e51b815260206004820152602260248201527f45524332303a20617070726f766520746f20746865207a65726f206164647265604482015261737360f01b60648201526084016106ad565b6001600160a01b0383811660008181526001602090815260408083209487168084529482529182902085905590518481527f8c5be1e5ebec7d5bd14f71427d1e84f3dd0314c0f7b2291e5b200ac8c7c3b925910160405180910390a3505050565b6001600160a01b038082166000908152600860209081526040808320546007835281842094168084529382528083205460059092529091205490919015806115e457506001600160a01b0383811660009081526008602052604090205416155b156115ee57600091505b50919050565b6001600160a01b03838116600090815260016020908152604080832093861683529290522054600019811461168057818110156116735760405162461bcd60e51b815260206004820152601d60248201527f45524332303a20696e73756666696369656e7420616c6c6f77616e636500000060448201526064016106ad565b6116808484848403611460565b50505050565b6001600160a01b0383166116ea5760405162461bcd60e51b815260206004820152602560248201527f45524332303a207472616e736665722066726f6d20746865207a65726f206164604482015264647265737360d81b60648201526084016106ad565b6001600160a01b03821661174c5760405162461bcd60e51b815260206004820152602360248201527f45524332303a207472616e7366657220746f20746865207a65726f206164647260448201526265737360e81b60648201526084016106ad565b6001600160a01b038316600090815260208190526040902054818110156117c45760405162461bcd60e51b815260206004820152602660248201527f45524332303a207472616e7366657220616d6f756e7420657863656564732062604482015265616c616e636560d01b60648201526084016106ad565b6001600160a01b038085166000908152602081905260408082208585039055918516815290812080548492906117fb908490611b75565b92505081905550826001600160a01b0316846001600160a01b03167fddf252ad1be2c89b69c2b068fc378daa952ba7f163c4a11628f55a4df523b3ef8460405161184791815260200190565b60405180910390a3611680565b6001600160a01b0382166118aa5760405162461bcd60e51b815260206004820152601f60248201527f45524332303a206d696e7420746f20746865207a65726f20616464726573730060448201526064016106ad565b80600260008282546118bc9190611b75565b90915550506001600160a01b038216600090815260208190526040812080548392906118e9908490611b75565b90915550506040518181526001600160a01b038316906000907fddf252ad1be2c89b69c2b068fc378daa952ba7f163c4a11628f55a4df523b3ef9060200160405180910390a35050565b60006020828403121561194557600080fd5b81356001600160e01b031981168114610ad657600080fd5b60005b83811015611978578181015183820152602001611960565b50506000910152565b60208152600082518060208401526119a081604085016020870161195d565b601f01601f19169190910160400192915050565b80356001600160a01b03811681146119cb57600080fd5b919050565b600080604083850312156119e357600080fd5b6119ec836119b4565b946020939093013593505050565b600080600060608486031215611a0f57600080fd5b611a18846119b4565b9250611a26602085016119b4565b9150604084013590509250925092565b600060208284031215611a4857600080fd5b610ad6826119b4565b600060208284031215611a6357600080fd5b5035919050565b6020808252825182820181905260009190848201906040850190845b81811015611aab5783516001600160a01b031683529284019291840191600101611a86565b50909695505050505050565b60008060408385031215611aca57600080fd5b611ad3836119b4565b9150611ae1602084016119b4565b90509250929050565b600181811c90821680611afe57607f821691505b6020821081036115ee57634e487b7160e01b600052602260045260246000fd5b634e487b7160e01b600052601160045260246000fd5b6000816000190483118215151615611b4e57611b4e611b1e565b500290565b600082611b7057634e487b7160e01b600052601260045260246000fd5b500490565b8082018082111561057657610576611b1e565b6020808252818101527f4f776e61626c653a2063616c6c6572206973206e6f7420746865206f776e6572604082015260600190565b60208082526038908201527f4552433230436861726974793a2072617465206d75737420626520626574776560408201527f656e203020616e64205f66656544656e6f6d696e61746f720000000000000000606082015260800190565b60208082526029908201527f4552433230436861726974793a20696e76616c69642077686974656c6973746560408201526864206164647265737360b81b606082015260800190565b600060208284031215611c7557600080fd5b81518015158114610ad657600080fd5b600181815b80851115611cc0578160001904821115611ca657611ca6611b1e565b80851615611cb357918102915b93841c9390800290611c8a565b509250929050565b600082611cd757506001610576565b81611ce457506000610576565b8160018114611cfa5760028114611d0457611d20565b6001915050610576565b60ff841115611d1557611d15611b1e565b50506001821b610576565b5060208310610133831016604e8410600b8410161715611d43575081810a610576565b611d4d8383611c85565b8060001904821115611d6157611d61611b1e565b029392505050565b6000610ad660ff841683611cc8565b6020808252603b908201527f4552433230436861726974793a207261746520666565206d757374206578636560408201527f656420746865206665652073657420627920746865206f776e65720000000000606082015260800190565b600060208284031215611de757600080fd5b5051919050565b634e487b7160e01b600052600160045260246000fd5b60008251611e1681846020870161195d565b9190910192915050565b8181038181111561057657610576611b1e565b634e487b7160e01b600052603260045260246000fd5b634e487b7160e01b600052603160045260246000fdfea2646970667358221220f61c291917b3b86aaa5a0c28cf2d8d434492ad05ed45b2a93d18272fc8c8df1364736f6c63430008100033",
  "linkReferences": {},
  "deployedLinkReferences": {}
}