{
  "_format": "hh-sol-artifact-1",
  "contractName": "CharityFuzz",
  "sourceName": "contracts/test/fuzzing/CharityFuzz.sol",
  "abi": [
    {
      "inputs": [],
      "stateMutability": "nonpayable",
      "type": "constructor"
    },
    {
      "anonymous": false,
      "inputs": [
        {
          "indexed": false,
          "internalType": "address",
          "name": "toAdd",
          "type": "address"
        },
        {
          "indexed": false,
          "internalType": "uint256",
          "name": "rate",
          "type": "uint256"
        }
      ],
      "name": "AddedToWhitelist",
      "type": "event"
    },
    {
      "anonymous": false,
      "inputs": [
        {
          "indexed": true,
          "internalType": "address",
          "name": "owner",
          "type": "address"
        },
        {
          "indexed": true,
          "internalType": "address",
          "name": "spender",
          "type": "address"
        },
        {
          "indexed": false,
          "internalType": "uint256",
          "name": "value",
          "type": "uint256"
        }
      ],
      "name": "Approval",
      "type": "event"
    },
    {
      "anonymous": false,
      "inputs": [
        {
          "indexed": false,
          "internalType": "address",
          "name": "whitelistedAddr",
          "type": "address"
        },
        {
          "indexed": false,
          "internalType": "uint256",
          "name": "rate",
          "type": "uint256"
        }
      ],
      "name": "DonnationAddressAndRateChanged",
      "type": "event"
    },
    {
      "anonymous": false,
      "inputs": [
        {
          "indexed": false,
          "internalType": "address",
          "name": "whitelistedAddr",
          "type": "address"
        }
      ],
      "name": "DonnationAddressChanged",
      "type": "event"
    },
    {
      "anonymous": false,
      "inputs": [
        {
          "indexed": false,
          "internalType": "address",
          "name": "whitelistedAddr",
          "type": "address"
        },
        {
          "indexed": false,
          "internalType": "uint256",
          "name": "rate",
          "type": "uint256"
        }
      ],
      "name": "ModifiedCharityCustumRate",
      "type": "event"
    },
    {
      "anonymous": false,
      "inputs": [
        {
          "indexed": false,
          "internalType": "address",
          "name": "whitelistedAddr",
          "type": "address"
        },
        {
          "indexed": false,
          "internalType": "uint256",
          "name": "rate",
          "type": "uint256"
        }
      ],
      "name": "ModifiedCharityRate",
      "type": "event"
    },
    {
      "anonymous": false,
      "inputs": [
        {
          "indexed": false,
          "internalType": "address",
          "name": "toRemove",
          "type": "address"
        }
      ],
      "name": "RemovedFromWhitelist",
      "type": "event"
    },
    {
      "anonymous": false,
      "inputs": [
        {
          "indexed": true,
          "internalType": "address",
          "name": "from",
          "type": "address"
        },
        {
          "indexed": true,
          "internalType": "address",
          "name": "to",
          "type": "address"
        },
        {
          "indexed": false,
          "internalType": "uint256",
          "name": "value",
          "type": "uint256"
        }
      ],
      "name": "Transfer",
      "type": "event"
    },
    {
      "inputs": [],
      "name": "_owner",
      "outputs": [
        {
          "internalType": "address",
          "name": "",
          "type": "address"
        }
      ],
      "stateMutability": "view",
      "type": "function"
    },
    {
      "inputs": [
        {
          "internalType": "address",
          "name": "toAdd",
          "type": "address"
        },
        {
          "internalType": "uint256",
          "name": "rate",
          "type": "uint256"
        }
      ],
      "name": "addToWhitelist",
      "outputs": [],
      "stateMutability": "nonpayable",
      "type": "function"
    },
    {
      "inputs": [
        {
          "internalType": "address",
          "name": "owner",
          "type": "address"
        },
        {
          "internalType": "address",
          "name": "spender",
          "type": "address"
        }
      ],
      "name": "allowance",
      "outputs": [
        {
          "internalType": "uint256",
          "name": "",
          "type": "uint256"
        }
      ],
      "stateMutability": "view",
      "type": "function"
    },
    {
      "inputs": [
        {
          "internalType": "address",
          "name": "spender",
          "type": "address"
        },
        {
          "internalType": "uint256",
          "name": "amount",
          "type": "uint256"
        }
      ],
      "name": "approve",
      "outputs": [
        {
          "internalType": "bool",
          "name": "",
          "type": "bool"
        }
      ],
      "stateMutability": "nonpayable",
      "type": "function"
    },
    {
      "inputs": [
        {
          "internalType": "address",
          "name": "add",
          "type": "address"
        },
        {
          "internalType": "uint256",
          "name": "amount",
          "type": "uint256"
        }
      ],
      "name": "assert_test_mint",
      "outputs": [],
      "stateMutability": "nonpayable",
      "type": "function"
    },
    {
      "inputs": [
        {
          "internalType": "address",
          "name": "add",
          "type": "address"
        }
      ],
      "name": "assert_test_selfmint",
      "outputs": [],
      "stateMutability": "nonpayable",
      "type": "function"
    },
    {
      "inputs": [
        {
          "internalType": "address",
          "name": "add",
          "type": "address"
        },
        {
          "internalType": "uint256",
          "name": "rate",
          "type": "uint256"
        }
      ],
      "name": "assert_test_setRate",
      "outputs": [],
      "stateMutability": "nonpayable",
      "type": "function"
    },
    {
      "inputs": [
        {
          "internalType": "address",
          "name": "account",
          "type": "address"
        }
      ],
      "name": "balanceOf",
      "outputs": [
        {
          "internalType": "uint256",
          "name": "",
          "type": "uint256"
        }
      ],
      "stateMutability": "view",
      "type": "function"
    },
    {
      "inputs": [
        {
          "internalType": "address",
          "name": "charityAddr",
          "type": "address"
        }
      ],
      "name": "charityInfo",
      "outputs": [
        {
          "internalType": "bool",
          "name": "whitelisted",
          "type": "bool"
        },
        {
          "internalType": "uint256",
          "name": "defaultRate",
          "type": "uint256"
        },
        {
          "internalType": "address",
          "name": "msgRecipient",
          "type": "address"
        },
        {
          "internalType": "uint256",
          "name": "RecipientRate",
          "type": "uint256"
        },
        {
          "internalType": "uint256",
          "name": "msgRate",
          "type": "uint256"
        }
      ],
      "stateMutability": "view",
      "type": "function"
    },
    {
      "inputs": [
        {
          "internalType": "address",
          "name": "testContract",
          "type": "address"
        }
      ],
      "name": "checkInterface",
      "outputs": [
        {
          "internalType": "bool",
          "name": "",
          "type": "bool"
        }
      ],
      "stateMutability": "view",
      "type": "function"
    },
    {
      "inputs": [],
      "name": "decimals",
      "outputs": [
        {
          "internalType": "uint8",
          "name": "",
          "type": "uint8"
        }
      ],
      "stateMutability": "view",
      "type": "function"
    },
    {
      "inputs": [
        {
          "internalType": "address",
          "name": "spender",
          "type": "address"
        },
        {
          "internalType": "uint256",
          "name": "subtractedValue",
          "type": "uint256"
        }
      ],
      "name": "decreaseAllowance",
      "outputs": [
        {
          "internalType": "bool",
          "name": "",
          "type": "bool"
        }
      ],
      "stateMutability": "nonpayable",
      "type": "function"
    },
    {
      "inputs": [
        {
          "internalType": "address",
          "name": "toRemove",
          "type": "address"
        }
      ],
      "name": "deleteFromWhitelist",
      "outputs": [],
      "stateMutability": "nonpayable",
      "type": "function"
    },
    {
      "inputs": [],
      "name": "deleteRecipient",
      "outputs": [],
      "stateMutability": "nonpayable",
      "type": "function"
    },
    {
      "inputs": [],
      "name": "echidna_address",
      "outputs": [
        {
          "internalType": "bool",
          "name": "",
          "type": "bool"
        }
      ],
      "stateMutability": "view",
      "type": "function"
    },
    {
      "inputs": [],
      "name": "echidna_test_denominator",
      "outputs": [
        {
          "internalType": "bool",
          "name": "",
          "type": "bool"
        }
      ],
      "stateMutability": "pure",
      "type": "function"
    },
    {
      "inputs": [],
      "name": "echidna_test_getRateOf",
      "outputs": [
        {
          "internalType": "bool",
          "name": "",
          "type": "bool"
        }
      ],
      "stateMutability": "view",
      "type": "function"
    },
    {
      "inputs": [],
      "name": "echidna_test_name",
      "outputs": [
        {
          "internalType": "bool",
          "name": "",
          "type": "bool"
        }
      ],
      "stateMutability": "view",
      "type": "function"
    },
    {
      "inputs": [],
      "name": "echidna_test_owner",
      "outputs": [
        {
          "internalType": "bool",
          "name": "",
          "type": "bool"
        }
      ],
      "stateMutability": "view",
      "type": "function"
    },
    {
      "inputs": [],
      "name": "echidna_test_totalSupply",
      "outputs": [
        {
          "internalType": "bool",
          "name": "",
          "type": "bool"
        }
      ],
      "stateMutability": "view",
      "type": "function"
    },
    {
      "inputs": [],
      "name": "echidna_test_whitelistedRate",
      "outputs": [
        {
          "internalType": "bool",
          "name": "",
          "type": "bool"
        }
      ],
      "stateMutability": "view",
      "type": "function"
    },
    {
      "inputs": [],
      "name": "getAllWhitelistedAddresses",
      "outputs": [
        {
          "internalType": "address[]",
          "name": "",
          "type": "address[]"
        }
      ],
      "stateMutability": "view",
      "type": "function"
    },
    {
      "inputs": [
        {
          "internalType": "address",
          "name": "addr",
          "type": "address"
        }
      ],
      "name": "getRateOf",
      "outputs": [
        {
          "internalType": "uint256",
          "name": "",
          "type": "uint256"
        }
      ],
      "stateMutability": "view",
      "type": "function"
    },
    {
      "inputs": [
        {
          "internalType": "address",
          "name": "addr",
          "type": "address"
        }
      ],
      "name": "getRecipientAddressOf",
      "outputs": [
        {
          "internalType": "address",
          "name": "",
          "type": "address"
        }
      ],
      "stateMutability": "view",
      "type": "function"
    },
    {
      "inputs": [
        {
          "internalType": "address",
          "name": "spender",
          "type": "address"
        },
        {
          "internalType": "uint256",
          "name": "addedValue",
          "type": "uint256"
        }
      ],
      "name": "increaseAllowance",
      "outputs": [
        {
          "internalType": "bool",
          "name": "",
          "type": "bool"
        }
      ],
      "stateMutability": "nonpayable",
      "type": "function"
    },
    {
      "inputs": [
        {
          "internalType": "address",
          "name": "to",
          "type": "address"
        },
        {
          "internalType": "uint256",
          "name": "amount",
          "type": "uint256"
        }
      ],
      "name": "mint",
      "outputs": [],
      "stateMutability": "nonpayable",
      "type": "function"
    },
    {
      "inputs": [],
      "name": "name",
      "outputs": [
        {
          "internalType": "string",
          "name": "",
          "type": "string"
        }
      ],
      "stateMutability": "view",
      "type": "function"
    },
    {
      "inputs": [],
      "name": "owner",
      "outputs": [
        {
          "internalType": "address",
          "name": "",
          "type": "address"
        }
      ],
      "stateMutability": "view",
      "type": "function"
    },
    {
      "inputs": [],
      "name": "selfmint",
      "outputs": [],
      "stateMutability": "nonpayable",
      "type": "function"
    },
    {
      "inputs": [
        {
          "internalType": "uint256",
          "name": "rate",
          "type": "uint256"
        }
      ],
      "name": "setCustumRate",
      "outputs": [],
      "stateMutability": "nonpayable",
      "type": "function"
    },
    {
      "inputs": [
        {
          "internalType": "address",
          "name": "whitelistedAddr",
          "type": "address"
        },
        {
          "internalType": "uint256",
          "name": "rate",
          "type": "uint256"
        }
      ],
      "name": "setRate",
      "outputs": [],
      "stateMutability": "nonpayable",
      "type": "function"
    },
    {
      "inputs": [
        {
          "internalType": "address",
          "name": "whitelistedAddr",
          "type": "address"
        }
      ],
      "name": "setRecipient",
      "outputs": [],
      "stateMutability": "nonpayable",
      "type": "function"
    },
    {
      "inputs": [
        {
          "internalType": "address",
          "name": "whitelistedAddr",
          "type": "address"
        },
        {
          "internalType": "uint256",
          "name": "rate",
          "type": "uint256"
        }
      ],
      "name": "setRecipientAddressAndRate",
      "outputs": [],
      "stateMutability": "nonpayable",
      "type": "function"
    },
    {
      "inputs": [
        {
          "internalType": "bytes4",
          "name": "interfaceId",
          "type": "bytes4"
        }
      ],
      "name": "supportsInterface",
      "outputs": [
        {
          "internalType": "bool",
          "name": "",
          "type": "bool"
        }
      ],
      "stateMutability": "view",
      "type": "function"
    },
    {
      "inputs": [],
      "name": "symbol",
      "outputs": [
        {
          "internalType": "string",
          "name": "",
          "type": "string"
        }
      ],
      "stateMutability": "view",
      "type": "function"
    },
    {
      "inputs": [],
      "name": "totalSupply",
      "outputs": [
        {
          "internalType": "uint256",
          "name": "",
          "type": "uint256"
        }
      ],
      "stateMutability": "view",
      "type": "function"
    },
    {
      "inputs": [
        {
          "internalType": "address",
          "name": "to",
          "type": "address"
        },
        {
          "internalType": "uint256",
          "name": "amount",
          "type": "uint256"
        }
      ],
      "name": "transfer",
      "outputs": [
        {
          "internalType": "bool",
          "name": "",
          "type": "bool"
        }
      ],
      "stateMutability": "nonpayable",
      "type": "function"
    },
    {
      "inputs": [
        {
          "internalType": "address",
          "name": "from",
          "type": "address"
        },
        {
          "internalType": "address",
          "name": "to",
          "type": "address"
        },
        {
          "internalType": "uint256",
          "name": "amount",
          "type": "uint256"
        }
      ],
      "name": "transferFrom",
      "outputs": [
        {
          "internalType": "bool",
          "name": "",
          "type": "bool"
        }
      ],
      "stateMutability": "nonpayable",
      "type": "function"
    },
    {
      "inputs": [
        {
          "internalType": "address",
          "name": "",
          "type": "address"
        }
      ],
      "name": "whitelistedRate",
      "outputs": [
        {
          "internalType": "uint256",
          "name": "",
          "type": "uint256"
        }
      ],
      "stateMutability": "view",
      "type": "function"
    }
  ],
  "bytecode": "0x6080604052600b80546001600160a01b03199081166201000017909155600c8054821662020000179055600d8054909116620400001790553480156200004457600080fd5b50604051806040016040528060098152602001682a32b9ba2a37b5b2b760b91b815250604051806040016040528060038152602001621514d560ea1b8152508160039081620000949190620003f9565b506004620000a38282620003f9565b5050600a80546001600160a01b03191633908117909155620000ea9150620000c9601290565b620000d690600a620005da565b620000e490612710620005f2565b6200013e565b600b5462000104906001600160a01b03166103e862000227565b600c546200011e906001600160a01b03166107d062000227565b600d5462000138906001600160a01b0316610fa062000227565b6200062a565b6001600160a01b0382166200019a5760405162461bcd60e51b815260206004820152601f60248201527f45524332303a206d696e7420746f20746865207a65726f20616464726573730060448201526064015b60405180910390fd5b8060026000828254620001ae919062000614565b90915550506001600160a01b03821660009081526020819052604081208054839290620001dd90849062000614565b90915550506040518181526001600160a01b038316906000907fddf252ad1be2c89b69c2b068fc378daa952ba7f163c4a11628f55a4df523b3ef9060200160405180910390a35050565b600a546001600160a01b03163314620002835760405162461bcd60e51b815260206004820181905260248201527f4f776e61626c653a2063616c6c6572206973206e6f7420746865206f776e6572604482015260640162000191565b6001600160a01b03821660009081526006602052604081205490036200030a576001600160a01b0382166000818152600560209081526040808320859055600980546001810182557f6e1540171b6c0c960b71a7020d9f60077f6af931a8bbf590da0223dacf75c7af0180546001600160a01b031916861790555493835260069091529020555b604080516001600160a01b0384168152602081018390527f62c1e066774519db9fe35767c15fc33df2f016675b7cc0c330ed185f286a2d52910160405180910390a15050565b505050565b634e487b7160e01b600052604160045260246000fd5b600181811c908216806200038057607f821691505b602082108103620003a157634e487b7160e01b600052602260045260246000fd5b50919050565b601f8211156200035057600081815260208120601f850160051c81016020861015620003d05750805b601f850160051c820191505b81811015620003f157828155600101620003dc565b505050505050565b81516001600160401b0381111562000415576200041562000355565b6200042d816200042684546200036b565b84620003a7565b602080601f8311600181146200046557600084156200044c5750858301515b600019600386901b1c1916600185901b178555620003f1565b600085815260208120601f198616915b82811015620004965788860151825594840194600190910190840162000475565b5085821015620004b55787850151600019600388901b60f8161c191681555b5050505050600190811b01905550565b634e487b7160e01b600052601160045260246000fd5b600181815b808511156200051c578160001904821115620005005762000500620004c5565b808516156200050e57918102915b93841c9390800290620004e0565b509250929050565b6000826200053557506001620005d4565b816200054457506000620005d4565b81600181146200055d5760028114620005685762000588565b6001915050620005d4565b60ff8411156200057c576200057c620004c5565b50506001821b620005d4565b5060208310610133831016604e8410600b8410161715620005ad575081810a620005d4565b620005b98383620004db565b8060001904821115620005d057620005d0620004c5565b0290505b92915050565b6000620005eb60ff84168362000524565b9392505050565b60008160001904831182151516156200060f576200060f620004c5565b500290565b80820180821115620005d457620005d4620004c5565b612070806200063a6000396000f3fe608060405234801561001057600080fd5b506004361061023d5760003560e01c80638400580d1161013b578063b2bdfa7b116100b8578063e8b7893e1161007c578063e8b7893e1461053e578063ecfb5d1714610546578063f0f4e15b14610559578063f2598e3214610579578063fa54c58d1461058c57600080fd5b8063b2bdfa7b146104cd578063b56eebfb146104e0578063b6877c11146104f5578063d88b1661146104fd578063dd62ed3e1461050557600080fd5b80639f8d3430116100ff5780639f8d343014610479578063a457c2d71461048c578063a6e75f761461049f578063a9059cbb146104a7578063aa3d1830146104ba57600080fd5b80638400580d146103fa578063889b675a146104025780638da5cb5b1461041557806395d89b4114610426578063991ec6f71461042e57600080fd5b8063313ce567116101c95780635455bce21161018d5780635455bce21461035f57806356a265a2146103725780635fb9b0b5146103b657806370a08231146103be5780637e875e58146103e757600080fd5b8063313ce567146102ee57806339509351146102fd5780633bbed4a014610310578063403af8751461032357806340c10f191461034c57600080fd5b8063214405fc11610210578063214405fc146102a457806323b872dd146102b9578063299e8600146102cc5780632aafa870146102d35780632bdb7097146102db57600080fd5b806301ffc9a71461024257806306fdde031461026a578063095ea7b31461027f57806318160ddd14610292575b600080fd5b610255610250366004611b0e565b610597565b60405190151581526020015b60405180910390f35b6102726105ce565b6040516102619190611b5c565b61025561028d366004611bab565b610660565b6002545b604051908152602001610261565b6102b76102b2366004611bab565b6106d5565b005b6102556102c7366004611bd5565b6107d5565b6001610255565b610255610877565b6102b76102e9366004611bab565b61089e565b60405160128152602001610261565b61025561030b366004611bab565b610972565b6102b761031e366004611c11565b6109ac565b610296610331366004611c11565b6001600160a01b031660009081526005602052604090205490565b6102b761035a366004611bab565b610aa6565b61025561036d366004611c11565b610ade565b61039e610380366004611c11565b6001600160a01b039081166000908152600860205260409020541690565b6040516001600160a01b039091168152602001610261565b610255610b59565b6102966103cc366004611c11565b6001600160a01b031660009081526020819052604090205490565b6102b76103f5366004611bab565b610b88565b610255610c8d565b6102b7610410366004611bab565b610cd4565b600a546001600160a01b031661039e565b610272610df9565b61044161043c366004611c11565b610e08565b60408051951515865260208601949094526001600160a01b03909216928401929092526060830191909152608082015260a001610261565b6102b7610487366004611bab565b610e72565b61025561049a366004611bab565b610ef9565b610255610f8b565b6102556104b5366004611bab565b6110f2565b6102b76104c8366004611c2c565b61116d565b600a5461039e906001600160a01b031681565b6104e86112b5565b6040516102619190611c45565b610255611316565b6102b7611380565b610296610513366004611c92565b6001600160a01b03918216600090815260016020908152604080832093909416825291909152205490565b6102b76113a2565b6102b7610554366004611c11565b6113f3565b610296610567366004611c11565b60056020526000908152604090205481565b6102b7610587366004611c11565b611595565b620123423014610255565b60006001600160e01b03198216630b406ddd60e11b14806105c857506001600160e01b031982166301ffc9a760e01b145b92915050565b6060600380546105dd90611cc5565b80601f016020809104026020016040519081016040528092919081815260200182805461060990611cc5565b80156106565780601f1061062b57610100808354040283529160200191610656565b820191906000526020600020905b81548152906001019060200180831161063957829003601f168201915b5050505050905090565b60003361066e81858561163b565b336000908152600860205260409020546001600160a01b0316156106cb5760006106973361175f565b905060006127106106a88387611d0f565b6106b29190611d2e565b90506106c883876106c38885611d50565b61163b565b50505b5060019392505050565b600a546001600160a01b031633146107085760405162461bcd60e51b81526004016106ff90611d63565b60405180910390fd5b6001600160a01b038216600090815260066020526040812054900361078e576001600160a01b0382166000818152600560209081526040808320859055600980546001810182557f6e1540171b6c0c960b71a7020d9f60077f6af931a8bbf590da0223dacf75c7af0180546001600160a01b031916861790555493835260069091529020555b604080516001600160a01b0384168152602081018390527f62c1e066774519db9fe35767c15fc33df2f016675b7cc0c330ed185f286a2d5291015b60405180910390a15050565b6000336107e38582856117cf565b6001600160a01b038581166000908152600860205260409020541615610861576001600160a01b038086166000908152600860205260408120549091169061082a8761175f565b9050600061271061083b8388611d0f565b6108459190611d2e565b90506108528885836117cf565b61085d888483611861565b5050505b61086c858585611861565b506001949350505050565b60006203000061088f600a546001600160a01b031690565b6001600160a01b031614905090565b600a546001600160a01b031633146108c85760405162461bcd60e51b81526004016106ff90611d63565b6127108111156108ea5760405162461bcd60e51b81526004016106ff90611d98565b6001600160a01b03821660009081526005602052604081205490036109215760405162461bcd60e51b81526004016106ff90611df5565b6001600160a01b038216600081815260056020908152604091829020849055815192835282018390527f272200c8484b4881d4bf8552d6783858e314cf8fc05461d9f87fded68327e66a91016107c9565b3360008181526001602090815260408083206001600160a01b03871684529091528120549091906106cb90829086906106c3908790611d50565b6001600160a01b0381166000908152600560205260408120549003610a225760405162461bcd60e51b815260206004820152602660248201527f4552433230436861726974793a20696e76616c69642077686974656c6973746560448201526564207261746560d01b60648201526084016106ff565b33600081815260086020908152604080832080546001600160a01b0319166001600160a01b0387169081179091558084526005835281842054948452600783528184208185528352928190209390935591519081527f6d4c462cdec505a621711d5ca414bc431f78e79746ca66270e7aa87947b59ab391015b60405180910390a150565b600a546001600160a01b03163314610ad05760405162461bcd60e51b81526004016106ff90611d63565b610ada8282611a2f565b5050565b6040516301ffc9a760e01b8152630b406ddd60e11b600482015260009081906001600160a01b038416906301ffc9a790602401602060405180830381865afa158015610b2e573d6000803e3d6000fd5b505050506040513d601f19601f82011682018060405250810190610b529190611e3e565b9392505050565b600080610b686012600a611f44565b610b7490612710611d0f565b905080610b8060025490565b101591505090565b612710811115610baa5760405162461bcd60e51b81526004016106ff90611d98565b6001600160a01b038216600090815260056020526040902054811015610be25760405162461bcd60e51b81526004016106ff90611f53565b6001600160a01b0382166000908152600560205260408120549003610c195760405162461bcd60e51b81526004016106ff90611df5565b33600090815260086020908152604080832080546001600160a01b0319166001600160a01b0387169081179091556007835281842081855283529281902084905580519283529082018390527f21470041ef9ff574315005b52c90c0f22b3499a708aee20330f95853e2583b6991016107c9565b600b546001600160a01b031660009081526005602052604081205415801590610ccf5750600c546001600160a01b031660009081526005602052604090205415155b905090565b600a546001600160a01b03163303610ceb57600080fd5b6202ffff193301610cfe57610cfe611fb0565b6040516370a0823160e01b81526001600160a01b038316600482015260009030906370a0823190602401602060405180830381865afa158015610d45573d6000803e3d6000fd5b505050506040513d601f19601f82011682018060405250810190610d699190611fc6565b9050610d758383610aa6565b610d7f8282611d50565b6040516370a0823160e01b81526001600160a01b038516600482015230906370a0823190602401602060405180830381865afa158015610dc3573d6000803e3d6000fd5b505050506040513d601f19601f82011682018060405250810190610de79190611fc6565b14610df457610df4611fb0565b505050565b6060600480546105dd90611cc5565b6001600160a01b038082166000908152600560208181526040808420543380865260088452828620549096168086529383528185205495855260078352818520848652909252832054929390928315610e645760019450610e69565b600094505b91939590929450565b604051632bdb709760e01b81526001600160a01b0383166004820152602481018290523090632bdb709790604401600060405180830381600087803b158015610eba57600080fd5b505af1158015610ece573d6000803e3d6000fd5b505050506001600160a01b0382166000908152600560205260409020548114610ada57610ada611fb0565b3360008181526001602090815260408083206001600160a01b038716845290915281205490919083811015610f7e5760405162461bcd60e51b815260206004820152602560248201527f45524332303a2064656372656173656420616c6c6f77616e63652062656c6f77604482015264207a65726f60d81b60648201526084016106ff565b61086c828686840361163b565b600b5460405163403af87560e01b81526001600160a01b039091166004820152600090309063403af87590602401602060405180830381865afa158015610fd6573d6000803e3d6000fd5b505050506040513d601f19601f82011682018060405250810190610ffa9190611fc6565b6103e81480156110765750600c5460405163403af87560e01b81526001600160a01b039091166004820152309063403af87590602401602060405180830381865afa15801561104d573d6000803e3d6000fd5b505050506040513d601f19601f820116820180604052508101906110719190611fc6565b6107d0145b8015610ccf5750600d5460405163403af87560e01b81526001600160a01b039091166004820152309063403af87590602401602060405180830381865afa1580156110c5573d6000803e3d6000fd5b505050506040513d601f19601f820116820180604052508101906110e99190611fc6565b610fa014905090565b336000818152600860205260408120549091906001600160a01b03161561116257336000818152600860205260408120546001600160a01b0316916111369061175f565b905060006127106111478388611d0f565b6111519190611d2e565b905061115e848483611861565b5050505b6106cb818585611861565b61271081111561118f5760405162461bcd60e51b81526004016106ff90611d98565b336000908152600860205260409020546001600160a01b03166112025760405162461bcd60e51b815260206004820152602560248201527f4552433230436861726974793a206e6f207265676973746572656420726563696044820152641c1a595b9d60da1b60648201526084016106ff565b336000908152600860209081526040808320546001600160a01b0316835260059091529020548110156112475760405162461bcd60e51b81526004016106ff90611f53565b336000818152600760209081526040808320600880845282852080546001600160a01b03908116875292855283862088905595909452928252925483519216825281018390527fca0b363fd271fc3763c2c2c23802aebb7a4f4851a177be5dc763d58083f692019101610a9b565b6060600980548060200260200160405190810160405280929190818152602001828054801561065657602002820191906000526020600020905b81546001600160a01b031681526001909101906020018083116112ef575050505050905090565b6000806113216105ce565b604051682a32b9ba2a37b5b2b760b91b602082015290915060290160405160208183030381529060405280519060200120816040516020016113639190611fdf565b604051602081830303815290604052805190602001201491505090565b6113a0336113906012600a611f44565b61139b906064611d0f565b611a2f565b565b33600090815260086020908152604080832080546001600160a01b0319169055519182527f6d4c462cdec505a621711d5ca414bc431f78e79746ca66270e7aa87947b59ab3910160405180910390a1565b600a546001600160a01b0316331461141d5760405162461bcd60e51b81526004016106ff90611d63565b6001600160a01b038116600090815260066020526040902054806114735760405162461bcd60e51b815260206004820152600d60248201526c092dcecc2d8d2c840d2dcc8caf609b1b60448201526064016106ff565b600980546000919061148790600190611ffb565b815481106114975761149761200e565b6000918252602090912001546001600160a01b031690508060096114bc600185611ffb565b815481106114cc576114cc61200e565b600091825260208083209190910180546001600160a01b0319166001600160a01b039485161790559183168152600690915260409020829055600980548061151657611516612024565b60008281526020808220600019908401810180546001600160a01b03191690559092019092556001600160a01b038516808352600682526040808420849055600583528084209390935591519182527fcdd2e9b91a56913d370075169cefa1602ba36be5301664f752192bb1709df757910160405180910390a1505050565b336001600160a01b038216146115aa57600080fd5b60006115b86012600a611f44565b6115c3906064611d0f565b6040516370a0823160e01b81526001600160a01b038416600482015290915060009030906370a0823190602401602060405180830381865afa15801561160d573d6000803e3d6000fd5b505050506040513d601f19601f820116820180604052508101906116319190611fc6565b9050610d75611380565b6001600160a01b03831661169d5760405162461bcd60e51b8152602060048201526024808201527f45524332303a20617070726f76652066726f6d20746865207a65726f206164646044820152637265737360e01b60648201526084016106ff565b6001600160a01b0382166116fe5760405162461bcd60e51b815260206004820152602260248201527f45524332303a20617070726f766520746f20746865207a65726f206164647265604482015261737360f01b60648201526084016106ff565b6001600160a01b0383811660008181526001602090815260408083209487168084529482529182902085905590518481527f8c5be1e5ebec7d5bd14f71427d1e84f3dd0314c0f7b2291e5b200ac8c7c3b925910160405180910390a3505050565b6001600160a01b038082166000908152600860209081526040808320546007835281842094168084529382528083205460059092529091205490919015806117bf57506001600160a01b0383811660009081526008602052604090205416155b156117c957600091505b50919050565b6001600160a01b03838116600090815260016020908152604080832093861683529290522054600019811461185b578181101561184e5760405162461bcd60e51b815260206004820152601d60248201527f45524332303a20696e73756666696369656e7420616c6c6f77616e636500000060448201526064016106ff565b61185b848484840361163b565b50505050565b6001600160a01b0383166118c55760405162461bcd60e51b815260206004820152602560248201527f45524332303a207472616e736665722066726f6d20746865207a65726f206164604482015264647265737360d81b60648201526084016106ff565b6001600160a01b0382166119275760405162461bcd60e51b815260206004820152602360248201527f45524332303a207472616e7366657220746f20746865207a65726f206164647260448201526265737360e81b60648201526084016106ff565b6001600160a01b0383166000908152602081905260409020548181101561199f5760405162461bcd60e51b815260206004820152602660248201527f45524332303a207472616e7366657220616d6f756e7420657863656564732062604482015265616c616e636560d01b60648201526084016106ff565b6001600160a01b038085166000908152602081905260408082208585039055918516815290812080548492906119d6908490611d50565b92505081905550826001600160a01b0316846001600160a01b03167fddf252ad1be2c89b69c2b068fc378daa952ba7f163c4a11628f55a4df523b3ef84604051611a2291815260200190565b60405180910390a361185b565b6001600160a01b038216611a855760405162461bcd60e51b815260206004820152601f60248201527f45524332303a206d696e7420746f20746865207a65726f20616464726573730060448201526064016106ff565b8060026000828254611a979190611d50565b90915550506001600160a01b03821660009081526020819052604081208054839290611ac4908490611d50565b90915550506040518181526001600160a01b038316906000907fddf252ad1be2c89b69c2b068fc378daa952ba7f163c4a11628f55a4df523b3ef9060200160405180910390a35050565b600060208284031215611b2057600080fd5b81356001600160e01b031981168114610b5257600080fd5b60005b83811015611b53578181015183820152602001611b3b565b50506000910152565b6020815260008251806020840152611b7b816040850160208701611b38565b601f01601f19169190910160400192915050565b80356001600160a01b0381168114611ba657600080fd5b919050565b60008060408385031215611bbe57600080fd5b611bc783611b8f565b946020939093013593505050565b600080600060608486031215611bea57600080fd5b611bf384611b8f565b9250611c0160208501611b8f565b9150604084013590509250925092565b600060208284031215611c2357600080fd5b610b5282611b8f565b600060208284031215611c3e57600080fd5b5035919050565b6020808252825182820181905260009190848201906040850190845b81811015611c865783516001600160a01b031683529284019291840191600101611c61565b50909695505050505050565b60008060408385031215611ca557600080fd5b611cae83611b8f565b9150611cbc60208401611b8f565b90509250929050565b600181811c90821680611cd957607f821691505b6020821081036117c957634e487b7160e01b600052602260045260246000fd5b634e487b7160e01b600052601160045260246000fd5b6000816000190483118215151615611d2957611d29611cf9565b500290565b600082611d4b57634e487b7160e01b600052601260045260246000fd5b500490565b808201808211156105c8576105c8611cf9565b6020808252818101527f4f776e61626c653a2063616c6c6572206973206e6f7420746865206f776e6572604082015260600190565b60208082526038908201527f4552433230436861726974793a2072617465206d75737420626520626574776560408201527f656e203020616e64205f66656544656e6f6d696e61746f720000000000000000606082015260800190565b60208082526029908201527f4552433230436861726974793a20696e76616c69642077686974656c6973746560408201526864206164647265737360b81b606082015260800190565b600060208284031215611e5057600080fd5b81518015158114610b5257600080fd5b600181815b80851115611e9b578160001904821115611e8157611e81611cf9565b80851615611e8e57918102915b93841c9390800290611e65565b509250929050565b600082611eb2575060016105c8565b81611ebf575060006105c8565b8160018114611ed55760028114611edf57611efb565b60019150506105c8565b60ff841115611ef057611ef0611cf9565b50506001821b6105c8565b5060208310610133831016604e8410600b8410161715611f1e575081810a6105c8565b611f288383611e60565b8060001904821115611f3c57611f3c611cf9565b029392505050565b6000610b5260ff841683611ea3565b6020808252603b908201527f4552433230436861726974793a207261746520666565206d757374206578636560408201527f656420746865206665652073657420627920746865206f776e65720000000000606082015260800190565b634e487b7160e01b600052600160045260246000fd5b600060208284031215611fd857600080fd5b5051919050565b60008251611ff1818460208701611b38565b9190910192915050565b818103818111156105c8576105c8611cf9565b634e487b7160e01b600052603260045260246000fd5b634e487b7160e01b600052603160045260246000fdfea2646970667358221220e483bf75fb7ad799b2bb6c0c36918f53145620fae6bc85a8d2c9ac3f3dcb1ee364736f6c63430008100033",
  "linkReferences": {},
  "deployedLinkReferences": {}
}