{
  "_format": "hh-sol-artifact-1",
  "contractName": "CharityToken",
  "sourceName": "contracts/CharityToken.sol",
  "abi": [
    {
      "inputs": [],
      "stateMutability": "nonpayable",
      "type": "constructor"
    },
    {
      "anonymous": false,
      "inputs": [
        {
          "indexed": false,
          "internalType": "address",
          "name": "toAdd",
          "type": "address"
        },
        {
          "indexed": false,
          "internalType": "uint256",
          "name": "rate",
          "type": "uint256"
        }
      ],
      "name": "AddedToWhitelist",
      "type": "event"
    },
    {
      "anonymous": false,
      "inputs": [
        {
          "indexed": true,
          "internalType": "address",
          "name": "owner",
          "type": "address"
        },
        {
          "indexed": true,
          "internalType": "address",
          "name": "spender",
          "type": "address"
        },
        {
          "indexed": false,
          "internalType": "uint256",
          "name": "value",
          "type": "uint256"
        }
      ],
      "name": "Approval",
      "type": "event"
    },
    {
      "anonymous": false,
      "inputs": [
        {
          "indexed": false,
          "internalType": "address",
          "name": "whitelistedAddr",
          "type": "address"
        },
        {
          "indexed": false,
          "internalType": "uint256",
          "name": "rate",
          "type": "uint256"
        }
      ],
      "name": "DonnationAddressAndRateChanged",
      "type": "event"
    },
    {
      "anonymous": false,
      "inputs": [
        {
          "indexed": false,
          "internalType": "address",
          "name": "whitelistedAddr",
          "type": "address"
        }
      ],
      "name": "DonnationAddressChanged",
      "type": "event"
    },
    {
      "anonymous": false,
      "inputs": [
        {
          "indexed": false,
          "internalType": "address",
          "name": "whitelistedAddr",
          "type": "address"
        },
        {
          "indexed": false,
          "internalType": "uint256",
          "name": "rate",
          "type": "uint256"
        }
      ],
      "name": "ModifiedCharityCustumRate",
      "type": "event"
    },
    {
      "anonymous": false,
      "inputs": [
        {
          "indexed": false,
          "internalType": "address",
          "name": "whitelistedAddr",
          "type": "address"
        },
        {
          "indexed": false,
          "internalType": "uint256",
          "name": "rate",
          "type": "uint256"
        }
      ],
      "name": "ModifiedCharityRate",
      "type": "event"
    },
    {
      "anonymous": false,
      "inputs": [
        {
          "indexed": false,
          "internalType": "address",
          "name": "toRemove",
          "type": "address"
        }
      ],
      "name": "RemovedFromWhitelist",
      "type": "event"
    },
    {
      "anonymous": false,
      "inputs": [
        {
          "indexed": true,
          "internalType": "address",
          "name": "from",
          "type": "address"
        },
        {
          "indexed": true,
          "internalType": "address",
          "name": "to",
          "type": "address"
        },
        {
          "indexed": false,
          "internalType": "uint256",
          "name": "value",
          "type": "uint256"
        }
      ],
      "name": "Transfer",
      "type": "event"
    },
    {
      "inputs": [
        {
          "internalType": "address",
          "name": "toAdd",
          "type": "address"
        },
        {
          "internalType": "uint256",
          "name": "rate",
          "type": "uint256"
        }
      ],
      "name": "addToWhitelist",
      "outputs": [],
      "stateMutability": "nonpayable",
      "type": "function"
    },
    {
      "inputs": [
        {
          "internalType": "address",
          "name": "owner",
          "type": "address"
        },
        {
          "internalType": "address",
          "name": "spender",
          "type": "address"
        }
      ],
      "name": "allowance",
      "outputs": [
        {
          "internalType": "uint256",
          "name": "",
          "type": "uint256"
        }
      ],
      "stateMutability": "view",
      "type": "function"
    },
    {
      "inputs": [
        {
          "internalType": "address",
          "name": "spender",
          "type": "address"
        },
        {
          "internalType": "uint256",
          "name": "amount",
          "type": "uint256"
        }
      ],
      "name": "approve",
      "outputs": [
        {
          "internalType": "bool",
          "name": "",
          "type": "bool"
        }
      ],
      "stateMutability": "nonpayable",
      "type": "function"
    },
    {
      "inputs": [
        {
          "internalType": "address",
          "name": "account",
          "type": "address"
        }
      ],
      "name": "balanceOf",
      "outputs": [
        {
          "internalType": "uint256",
          "name": "",
          "type": "uint256"
        }
      ],
      "stateMutability": "view",
      "type": "function"
    },
    {
      "inputs": [
        {
          "internalType": "address",
          "name": "charityAddr",
          "type": "address"
        }
      ],
      "name": "charityInfo",
      "outputs": [
        {
          "internalType": "bool",
          "name": "whitelisted",
          "type": "bool"
        },
        {
          "internalType": "uint256",
          "name": "defaultRate",
          "type": "uint256"
        },
        {
          "internalType": "address",
          "name": "msgRecipient",
          "type": "address"
        },
        {
          "internalType": "uint256",
          "name": "RecipientRate",
          "type": "uint256"
        },
        {
          "internalType": "uint256",
          "name": "msgRate",
          "type": "uint256"
        }
      ],
      "stateMutability": "view",
      "type": "function"
    },
    {
      "inputs": [
        {
          "internalType": "address",
          "name": "testContract",
          "type": "address"
        }
      ],
      "name": "checkInterface",
      "outputs": [
        {
          "internalType": "bool",
          "name": "",
          "type": "bool"
        }
      ],
      "stateMutability": "view",
      "type": "function"
    },
    {
      "inputs": [],
      "name": "decimals",
      "outputs": [
        {
          "internalType": "uint8",
          "name": "",
          "type": "uint8"
        }
      ],
      "stateMutability": "view",
      "type": "function"
    },
    {
      "inputs": [
        {
          "internalType": "address",
          "name": "spender",
          "type": "address"
        },
        {
          "internalType": "uint256",
          "name": "subtractedValue",
          "type": "uint256"
        }
      ],
      "name": "decreaseAllowance",
      "outputs": [
        {
          "internalType": "bool",
          "name": "",
          "type": "bool"
        }
      ],
      "stateMutability": "nonpayable",
      "type": "function"
    },
    {
      "inputs": [
        {
          "internalType": "address",
          "name": "toRemove",
          "type": "address"
        }
      ],
      "name": "deleteFromWhitelist",
      "outputs": [],
      "stateMutability": "nonpayable",
      "type": "function"
    },
    {
      "inputs": [],
      "name": "deleteRecipient",
      "outputs": [],
      "stateMutability": "nonpayable",
      "type": "function"
    },
    {
      "inputs": [],
      "name": "getAllWhitelistedAddresses",
      "outputs": [
        {
          "internalType": "address[]",
          "name": "",
          "type": "address[]"
        }
      ],
      "stateMutability": "view",
      "type": "function"
    },
    {
      "inputs": [
        {
          "internalType": "address",
          "name": "addr",
          "type": "address"
        }
      ],
      "name": "getRateOf",
      "outputs": [
        {
          "internalType": "uint256",
          "name": "",
          "type": "uint256"
        }
      ],
      "stateMutability": "view",
      "type": "function"
    },
    {
      "inputs": [
        {
          "internalType": "address",
          "name": "addr",
          "type": "address"
        }
      ],
      "name": "getRecipientAddressOf",
      "outputs": [
        {
          "internalType": "address",
          "name": "",
          "type": "address"
        }
      ],
      "stateMutability": "view",
      "type": "function"
    },
    {
      "inputs": [
        {
          "internalType": "address",
          "name": "spender",
          "type": "address"
        },
        {
          "internalType": "uint256",
          "name": "addedValue",
          "type": "uint256"
        }
      ],
      "name": "increaseAllowance",
      "outputs": [
        {
          "internalType": "bool",
          "name": "",
          "type": "bool"
        }
      ],
      "stateMutability": "nonpayable",
      "type": "function"
    },
    {
      "inputs": [
        {
          "internalType": "address",
          "name": "to",
          "type": "address"
        },
        {
          "internalType": "uint256",
          "name": "amount",
          "type": "uint256"
        }
      ],
      "name": "mint",
      "outputs": [],
      "stateMutability": "nonpayable",
      "type": "function"
    },
    {
      "inputs": [],
      "name": "name",
      "outputs": [
        {
          "internalType": "string",
          "name": "",
          "type": "string"
        }
      ],
      "stateMutability": "view",
      "type": "function"
    },
    {
      "inputs": [],
      "name": "owner",
      "outputs": [
        {
          "internalType": "address",
          "name": "",
          "type": "address"
        }
      ],
      "stateMutability": "view",
      "type": "function"
    },
    {
      "inputs": [],
      "name": "selfmint",
      "outputs": [],
      "stateMutability": "nonpayable",
      "type": "function"
    },
    {
      "inputs": [
        {
          "internalType": "uint256",
          "name": "rate",
          "type": "uint256"
        }
      ],
      "name": "setCustumRate",
      "outputs": [],
      "stateMutability": "nonpayable",
      "type": "function"
    },
    {
      "inputs": [
        {
          "internalType": "address",
          "name": "whitelistedAddr",
          "type": "address"
        },
        {
          "internalType": "uint256",
          "name": "rate",
          "type": "uint256"
        }
      ],
      "name": "setRate",
      "outputs": [],
      "stateMutability": "nonpayable",
      "type": "function"
    },
    {
      "inputs": [
        {
          "internalType": "address",
          "name": "whitelistedAddr",
          "type": "address"
        }
      ],
      "name": "setRecipient",
      "outputs": [],
      "stateMutability": "nonpayable",
      "type": "function"
    },
    {
      "inputs": [
        {
          "internalType": "address",
          "name": "whitelistedAddr",
          "type": "address"
        },
        {
          "internalType": "uint256",
          "name": "rate",
          "type": "uint256"
        }
      ],
      "name": "setRecipientAddressAndRate",
      "outputs": [],
      "stateMutability": "nonpayable",
      "type": "function"
    },
    {
      "inputs": [
        {
          "internalType": "bytes4",
          "name": "interfaceId",
          "type": "bytes4"
        }
      ],
      "name": "supportsInterface",
      "outputs": [
        {
          "internalType": "bool",
          "name": "",
          "type": "bool"
        }
      ],
      "stateMutability": "view",
      "type": "function"
    },
    {
      "inputs": [],
      "name": "symbol",
      "outputs": [
        {
          "internalType": "string",
          "name": "",
          "type": "string"
        }
      ],
      "stateMutability": "view",
      "type": "function"
    },
    {
      "inputs": [],
      "name": "totalSupply",
      "outputs": [
        {
          "internalType": "uint256",
          "name": "",
          "type": "uint256"
        }
      ],
      "stateMutability": "view",
      "type": "function"
    },
    {
      "inputs": [
        {
          "internalType": "address",
          "name": "to",
          "type": "address"
        },
        {
          "internalType": "uint256",
          "name": "amount",
          "type": "uint256"
        }
      ],
      "name": "transfer",
      "outputs": [
        {
          "internalType": "bool",
          "name": "",
          "type": "bool"
        }
      ],
      "stateMutability": "nonpayable",
      "type": "function"
    },
    {
      "inputs": [
        {
          "internalType": "address",
          "name": "from",
          "type": "address"
        },
        {
          "internalType": "address",
          "name": "to",
          "type": "address"
        },
        {
          "internalType": "uint256",
          "name": "amount",
          "type": "uint256"
        }
      ],
      "name": "transferFrom",
      "outputs": [
        {
          "internalType": "bool",
          "name": "",
          "type": "bool"
        }
      ],
      "stateMutability": "nonpayable",
      "type": "function"
    },
    {
      "inputs": [
        {
          "internalType": "address",
          "name": "",
          "type": "address"
        }
      ],
      "name": "whitelistedRate",
      "outputs": [
        {
          "internalType": "uint256",
          "name": "",
          "type": "uint256"
        }
      ],
      "stateMutability": "view",
      "type": "function"
    }
  ],
  "bytecode": "0x60806040523480156200001157600080fd5b50604051806040016040528060098152602001682a32b9ba2a37b5b2b760b91b815250604051806040016040528060038152602001621514d560ea1b81525081600390816200006191906200024e565b5060046200007082826200024e565b5050600a80546001600160a01b03191633908117909155620000b7915062000096601290565b620000a390600a6200042f565b620000b19061271062000447565b620000bd565b6200047f565b6001600160a01b038216620001185760405162461bcd60e51b815260206004820152601f60248201527f45524332303a206d696e7420746f20746865207a65726f206164647265737300604482015260640160405180910390fd5b80600260008282546200012c919062000469565b90915550506001600160a01b038216600090815260208190526040812080548392906200015b90849062000469565b90915550506040518181526001600160a01b038316906000907fddf252ad1be2c89b69c2b068fc378daa952ba7f163c4a11628f55a4df523b3ef9060200160405180910390a35050565b505050565b634e487b7160e01b600052604160045260246000fd5b600181811c90821680620001d557607f821691505b602082108103620001f657634e487b7160e01b600052602260045260246000fd5b50919050565b601f821115620001a557600081815260208120601f850160051c81016020861015620002255750805b601f850160051c820191505b81811015620002465782815560010162000231565b505050505050565b81516001600160401b038111156200026a576200026a620001aa565b62000282816200027b8454620001c0565b84620001fc565b602080601f831160018114620002ba5760008415620002a15750858301515b600019600386901b1c1916600185901b17855562000246565b600085815260208120601f198616915b82811015620002eb57888601518255948401946001909101908401620002ca565b50858210156200030a5787850151600019600388901b60f8161c191681555b5050505050600190811b01905550565b634e487b7160e01b600052601160045260246000fd5b600181815b80851115620003715781600019048211156200035557620003556200031a565b808516156200036357918102915b93841c939080029062000335565b509250929050565b6000826200038a5750600162000429565b81620003995750600062000429565b8160018114620003b25760028114620003bd57620003dd565b600191505062000429565b60ff841115620003d157620003d16200031a565b50506001821b62000429565b5060208310610133831016604e8410600b841016171562000402575081810a62000429565b6200040e838362000330565b80600019048211156200042557620004256200031a565b0290505b92915050565b60006200044060ff84168362000379565b9392505050565b60008160001904831182151516156200046457620004646200031a565b500290565b808201808211156200042957620004296200031a565b611a33806200048f6000396000f3fe608060405234801561001057600080fd5b50600436106101c45760003560e01c806370a08231116100f9578063aa3d183011610097578063dd62ed3e11610071578063dd62ed3e14610424578063e8b7893e1461045d578063ecfb5d1714610465578063f0f4e15b1461047857600080fd5b8063aa3d1830146103f4578063b56eebfb14610407578063d88b16611461041c57600080fd5b806395d89b41116100d357806395d89b411461037b578063991ec6f714610383578063a457c2d7146103ce578063a9059cbb146103e157600080fd5b806370a082311461032e5780637e875e58146103575780638da5cb5b1461036a57600080fd5b8063313ce56711610166578063403af87511610140578063403af8751461029b57806340c10f19146102c45780635455bce2146102d757806356a265a2146102ea57600080fd5b8063313ce5671461026657806339509351146102755780633bbed4a01461028857600080fd5b806318160ddd116101a257806318160ddd14610219578063214405fc1461022b57806323b872dd146102405780632bdb70971461025357600080fd5b806301ffc9a7146101c957806306fdde03146101f1578063095ea7b314610206575b600080fd5b6101dc6101d7366004611525565b610498565b60405190151581526020015b60405180910390f35b6101f96104cf565b6040516101e8919061154f565b6101dc6102143660046115b9565b610561565b6002545b6040519081526020016101e8565b61023e6102393660046115b9565b6105d6565b005b6101dc61024e3660046115e3565b6106d6565b61023e6102613660046115b9565b610778565b604051601281526020016101e8565b6101dc6102833660046115b9565b610822565b61023e61029636600461161f565b61085c565b61021d6102a936600461161f565b6001600160a01b031660009081526005602052604090205490565b61023e6102d23660046115b9565b610956565b6101dc6102e536600461161f565b61098e565b6103166102f836600461161f565b6001600160a01b039081166000908152600860205260409020541690565b6040516001600160a01b0390911681526020016101e8565b61021d61033c36600461161f565b6001600160a01b031660009081526020819052604090205490565b61023e6103653660046115b9565b610a09565b600a546001600160a01b0316610316565b6101f9610b0e565b61039661039136600461161f565b610b1d565b60408051951515865260208601949094526001600160a01b03909216928401929092526060830191909152608082015260a0016101e8565b6101dc6103dc3660046115b9565b610b87565b6101dc6103ef3660046115b9565b610c19565b61023e61040236600461163a565b610c94565b61040f610ddc565b6040516101e89190611653565b61023e610e3d565b61021d6104323660046116a0565b6001600160a01b03918216600090815260016020908152604080832093909416825291909152205490565b61023e610e5f565b61023e61047336600461161f565b610eb0565b61021d61048636600461161f565b60056020526000908152604090205481565b60006001600160e01b03198216630b406ddd60e11b14806104c957506001600160e01b031982166301ffc9a760e01b145b92915050565b6060600380546104de906116d3565b80601f016020809104026020016040519081016040528092919081815260200182805461050a906116d3565b80156105575780601f1061052c57610100808354040283529160200191610557565b820191906000526020600020905b81548152906001019060200180831161053a57829003601f168201915b5050505050905090565b60003361056f818585611052565b336000908152600860205260409020546001600160a01b0316156105cc57600061059833611176565b905060006127106105a9838761171d565b6105b3919061173c565b90506105c983876105c4888561175e565b611052565b50505b5060019392505050565b600a546001600160a01b031633146106095760405162461bcd60e51b815260040161060090611771565b60405180910390fd5b6001600160a01b038216600090815260066020526040812054900361068f576001600160a01b0382166000818152600560209081526040808320859055600980546001810182557f6e1540171b6c0c960b71a7020d9f60077f6af931a8bbf590da0223dacf75c7af0180546001600160a01b031916861790555493835260069091529020555b604080516001600160a01b0384168152602081018390527f62c1e066774519db9fe35767c15fc33df2f016675b7cc0c330ed185f286a2d5291015b60405180910390a15050565b6000336106e48582856111e6565b6001600160a01b038581166000908152600860205260409020541615610762576001600160a01b038086166000908152600860205260408120549091169061072b87611176565b9050600061271061073c838861171d565b610746919061173c565b90506107538885836111e6565b61075e888483611278565b5050505b61076d858585611278565b506001949350505050565b61271081111561079a5760405162461bcd60e51b8152600401610600906117a6565b6001600160a01b03821660009081526005602052604081205490036107d15760405162461bcd60e51b815260040161060090611803565b6001600160a01b038216600081815260056020908152604091829020849055815192835282018390527f272200c8484b4881d4bf8552d6783858e314cf8fc05461d9f87fded68327e66a91016106ca565b3360008181526001602090815260408083206001600160a01b03871684529091528120549091906105cc90829086906105c490879061175e565b6001600160a01b03811660009081526005602052604081205490036108d25760405162461bcd60e51b815260206004820152602660248201527f4552433230436861726974793a20696e76616c69642077686974656c6973746560448201526564207261746560d01b6064820152608401610600565b33600081815260086020908152604080832080546001600160a01b0319166001600160a01b0387169081179091558084526005835281842054948452600783528184208185528352928190209390935591519081527f6d4c462cdec505a621711d5ca414bc431f78e79746ca66270e7aa87947b59ab391015b60405180910390a150565b600a546001600160a01b031633146109805760405162461bcd60e51b815260040161060090611771565b61098a8282611446565b5050565b6040516301ffc9a760e01b8152630b406ddd60e11b600482015260009081906001600160a01b038416906301ffc9a790602401602060405180830381865afa1580156109de573d6000803e3d6000fd5b505050506040513d601f19601f82011682018060405250810190610a02919061184c565b9392505050565b612710811115610a2b5760405162461bcd60e51b8152600401610600906117a6565b6001600160a01b038216600090815260056020526040902054811015610a635760405162461bcd60e51b81526004016106009061186e565b6001600160a01b0382166000908152600560205260408120549003610a9a5760405162461bcd60e51b815260040161060090611803565b33600090815260086020908152604080832080546001600160a01b0319166001600160a01b0387169081179091556007835281842081855283529281902084905580519283529082018390527f21470041ef9ff574315005b52c90c0f22b3499a708aee20330f95853e2583b6991016106ca565b6060600480546104de906116d3565b6001600160a01b038082166000908152600560208181526040808420543380865260088452828620549096168086529383528185205495855260078352818520848652909252832054929390928315610b795760019450610b7e565b600094505b91939590929450565b3360008181526001602090815260408083206001600160a01b038716845290915281205490919083811015610c0c5760405162461bcd60e51b815260206004820152602560248201527f45524332303a2064656372656173656420616c6c6f77616e63652062656c6f77604482015264207a65726f60d81b6064820152608401610600565b61076d8286868403611052565b336000818152600860205260408120549091906001600160a01b031615610c8957336000818152600860205260408120546001600160a01b031691610c5d90611176565b90506000612710610c6e838861171d565b610c78919061173c565b9050610c85848483611278565b5050505b6105cc818585611278565b612710811115610cb65760405162461bcd60e51b8152600401610600906117a6565b336000908152600860205260409020546001600160a01b0316610d295760405162461bcd60e51b815260206004820152602560248201527f4552433230436861726974793a206e6f207265676973746572656420726563696044820152641c1a595b9d60da1b6064820152608401610600565b336000908152600860209081526040808320546001600160a01b031683526005909152902054811015610d6e5760405162461bcd60e51b81526004016106009061186e565b336000818152600760209081526040808320600880845282852080546001600160a01b03908116875292855283862088905595909452928252925483519216825281018390527fca0b363fd271fc3763c2c2c23802aebb7a4f4851a177be5dc763d58083f69201910161094b565b6060600980548060200260200160405190810160405280929190818152602001828054801561055757602002820191906000526020600020905b81546001600160a01b03168152600190910190602001808311610e16575050505050905090565b610e5d33610e4d6012600a6119af565b610e5890606461171d565b611446565b565b33600090815260086020908152604080832080546001600160a01b0319169055519182527f6d4c462cdec505a621711d5ca414bc431f78e79746ca66270e7aa87947b59ab3910160405180910390a1565b600a546001600160a01b03163314610eda5760405162461bcd60e51b815260040161060090611771565b6001600160a01b03811660009081526006602052604090205480610f305760405162461bcd60e51b815260206004820152600d60248201526c092dcecc2d8d2c840d2dcc8caf609b1b6044820152606401610600565b6009805460009190610f44906001906119be565b81548110610f5457610f546119d1565b6000918252602090912001546001600160a01b03169050806009610f796001856119be565b81548110610f8957610f896119d1565b600091825260208083209190910180546001600160a01b0319166001600160a01b0394851617905591831681526006909152604090208290556009805480610fd357610fd36119e7565b60008281526020808220600019908401810180546001600160a01b03191690559092019092556001600160a01b038516808352600682526040808420849055600583528084209390935591519182527fcdd2e9b91a56913d370075169cefa1602ba36be5301664f752192bb1709df757910160405180910390a1505050565b6001600160a01b0383166110b45760405162461bcd60e51b8152602060048201526024808201527f45524332303a20617070726f76652066726f6d20746865207a65726f206164646044820152637265737360e01b6064820152608401610600565b6001600160a01b0382166111155760405162461bcd60e51b815260206004820152602260248201527f45524332303a20617070726f766520746f20746865207a65726f206164647265604482015261737360f01b6064820152608401610600565b6001600160a01b0383811660008181526001602090815260408083209487168084529482529182902085905590518481527f8c5be1e5ebec7d5bd14f71427d1e84f3dd0314c0f7b2291e5b200ac8c7c3b925910160405180910390a3505050565b6001600160a01b038082166000908152600860209081526040808320546007835281842094168084529382528083205460059092529091205490919015806111d657506001600160a01b0383811660009081526008602052604090205416155b156111e057600091505b50919050565b6001600160a01b03838116600090815260016020908152604080832093861683529290522054600019811461127257818110156112655760405162461bcd60e51b815260206004820152601d60248201527f45524332303a20696e73756666696369656e7420616c6c6f77616e63650000006044820152606401610600565b6112728484848403611052565b50505050565b6001600160a01b0383166112dc5760405162461bcd60e51b815260206004820152602560248201527f45524332303a207472616e736665722066726f6d20746865207a65726f206164604482015264647265737360d81b6064820152608401610600565b6001600160a01b03821661133e5760405162461bcd60e51b815260206004820152602360248201527f45524332303a207472616e7366657220746f20746865207a65726f206164647260448201526265737360e81b6064820152608401610600565b6001600160a01b038316600090815260208190526040902054818110156113b65760405162461bcd60e51b815260206004820152602660248201527f45524332303a207472616e7366657220616d6f756e7420657863656564732062604482015265616c616e636560d01b6064820152608401610600565b6001600160a01b038085166000908152602081905260408082208585039055918516815290812080548492906113ed90849061175e565b92505081905550826001600160a01b0316846001600160a01b03167fddf252ad1be2c89b69c2b068fc378daa952ba7f163c4a11628f55a4df523b3ef8460405161143991815260200190565b60405180910390a3611272565b6001600160a01b03821661149c5760405162461bcd60e51b815260206004820152601f60248201527f45524332303a206d696e7420746f20746865207a65726f2061646472657373006044820152606401610600565b80600260008282546114ae919061175e565b90915550506001600160a01b038216600090815260208190526040812080548392906114db90849061175e565b90915550506040518181526001600160a01b038316906000907fddf252ad1be2c89b69c2b068fc378daa952ba7f163c4a11628f55a4df523b3ef9060200160405180910390a35050565b60006020828403121561153757600080fd5b81356001600160e01b031981168114610a0257600080fd5b600060208083528351808285015260005b8181101561157c57858101830151858201604001528201611560565b506000604082860101526040601f19601f8301168501019250505092915050565b80356001600160a01b03811681146115b457600080fd5b919050565b600080604083850312156115cc57600080fd5b6115d58361159d565b946020939093013593505050565b6000806000606084860312156115f857600080fd5b6116018461159d565b925061160f6020850161159d565b9150604084013590509250925092565b60006020828403121561163157600080fd5b610a028261159d565b60006020828403121561164c57600080fd5b5035919050565b6020808252825182820181905260009190848201906040850190845b818110156116945783516001600160a01b03168352928401929184019160010161166f565b50909695505050505050565b600080604083850312156116b357600080fd5b6116bc8361159d565b91506116ca6020840161159d565b90509250929050565b600181811c908216806116e757607f821691505b6020821081036111e057634e487b7160e01b600052602260045260246000fd5b634e487b7160e01b600052601160045260246000fd5b600081600019048311821515161561173757611737611707565b500290565b60008261175957634e487b7160e01b600052601260045260246000fd5b500490565b808201808211156104c9576104c9611707565b6020808252818101527f4f776e61626c653a2063616c6c6572206973206e6f7420746865206f776e6572604082015260600190565b60208082526038908201527f4552433230436861726974793a2072617465206d75737420626520626574776560408201527f656e203020616e64205f66656544656e6f6d696e61746f720000000000000000606082015260800190565b60208082526029908201527f4552433230436861726974793a20696e76616c69642077686974656c6973746560408201526864206164647265737360b81b606082015260800190565b60006020828403121561185e57600080fd5b81518015158114610a0257600080fd5b6020808252603b908201527f4552433230436861726974793a207261746520666565206d757374206578636560408201527f656420746865206665652073657420627920746865206f776e65720000000000606082015260800190565b600181815b808511156119065781600019048211156118ec576118ec611707565b808516156118f957918102915b93841c93908002906118d0565b509250929050565b60008261191d575060016104c9565b8161192a575060006104c9565b8160018114611940576002811461194a57611966565b60019150506104c9565b60ff84111561195b5761195b611707565b50506001821b6104c9565b5060208310610133831016604e8410600b8410161715611989575081810a6104c9565b61199383836118cb565b80600019048211156119a7576119a7611707565b029392505050565b6000610a0260ff84168361190e565b818103818111156104c9576104c9611707565b634e487b7160e01b600052603260045260246000fd5b634e487b7160e01b600052603160045260246000fdfea264697066735822122049a739bbdc5cf7077d3bc5078e1c70ad316abdc9bc2e705d294d5cee1699226964736f6c63430008100033",
  "linkReferences": {},
  "deployedLinkReferences": {}
}