{
  "_format": "hh-sol-artifact-1",
  "contractName": "CharityToken",
  "sourceName": "contracts/CharityToken.sol",
  "abi": [
    {
      "inputs": [],
      "stateMutability": "nonpayable",
      "type": "constructor"
    },
    {
      "anonymous": false,
      "inputs": [
        {
          "indexed": false,
          "internalType": "address",
          "name": "toAdd",
          "type": "address"
        }
      ],
      "name": "AddedToWhitelist",
      "type": "event"
    },
    {
      "anonymous": false,
      "inputs": [
        {
          "indexed": true,
          "internalType": "address",
          "name": "owner",
          "type": "address"
        },
        {
          "indexed": true,
          "internalType": "address",
          "name": "spender",
          "type": "address"
        },
        {
          "indexed": false,
          "internalType": "uint256",
          "name": "value",
          "type": "uint256"
        }
      ],
      "name": "Approval",
      "type": "event"
    },
    {
      "anonymous": false,
      "inputs": [
        {
          "indexed": false,
          "internalType": "address",
          "name": "whitelistedAddr",
          "type": "address"
        },
        {
          "indexed": false,
          "internalType": "uint256",
          "name": "rate",
          "type": "uint256"
        }
      ],
      "name": "DonnationAddressAndRateChanged",
      "type": "event"
    },
    {
      "anonymous": false,
      "inputs": [
        {
          "indexed": false,
          "internalType": "address",
          "name": "whitelistedAddr",
          "type": "address"
        }
      ],
      "name": "DonnationAddressChanged",
      "type": "event"
    },
    {
      "anonymous": false,
      "inputs": [
        {
          "indexed": false,
          "internalType": "address",
          "name": "whitelistedAddr",
          "type": "address"
        },
        {
          "indexed": false,
          "internalType": "uint256",
          "name": "rate",
          "type": "uint256"
        }
      ],
      "name": "ModifiedCharityRate",
      "type": "event"
    },
    {
      "anonymous": false,
      "inputs": [
        {
          "indexed": true,
          "internalType": "address",
          "name": "previousOwner",
          "type": "address"
        },
        {
          "indexed": true,
          "internalType": "address",
          "name": "newOwner",
          "type": "address"
        }
      ],
      "name": "OwnershipTransferred",
      "type": "event"
    },
    {
      "anonymous": false,
      "inputs": [
        {
          "indexed": false,
          "internalType": "address",
          "name": "toRemove",
          "type": "address"
        }
      ],
      "name": "RemovedFromWhitelist",
      "type": "event"
    },
    {
      "anonymous": false,
      "inputs": [
        {
          "indexed": true,
          "internalType": "address",
          "name": "from",
          "type": "address"
        },
        {
          "indexed": true,
          "internalType": "address",
          "name": "to",
          "type": "address"
        },
        {
          "indexed": false,
          "internalType": "uint256",
          "name": "value",
          "type": "uint256"
        }
      ],
      "name": "Transfer",
      "type": "event"
    },
    {
      "inputs": [],
      "name": "DeleteDefaultAddress",
      "outputs": [],
      "stateMutability": "nonpayable",
      "type": "function"
    },
    {
      "inputs": [],
      "name": "SpecificDefaultAddress",
      "outputs": [
        {
          "internalType": "address",
          "name": "",
          "type": "address"
        }
      ],
      "stateMutability": "view",
      "type": "function"
    },
    {
      "inputs": [
        {
          "internalType": "address",
          "name": "toAdd",
          "type": "address"
        }
      ],
      "name": "addToWhitelist",
      "outputs": [],
      "stateMutability": "nonpayable",
      "type": "function"
    },
    {
      "inputs": [
        {
          "internalType": "address",
          "name": "owner",
          "type": "address"
        },
        {
          "internalType": "address",
          "name": "spender",
          "type": "address"
        }
      ],
      "name": "allowance",
      "outputs": [
        {
          "internalType": "uint256",
          "name": "",
          "type": "uint256"
        }
      ],
      "stateMutability": "view",
      "type": "function"
    },
    {
      "inputs": [
        {
          "internalType": "address",
          "name": "spender",
          "type": "address"
        },
        {
          "internalType": "uint256",
          "name": "amount",
          "type": "uint256"
        }
      ],
      "name": "approve",
      "outputs": [
        {
          "internalType": "bool",
          "name": "",
          "type": "bool"
        }
      ],
      "stateMutability": "nonpayable",
      "type": "function"
    },
    {
      "inputs": [
        {
          "internalType": "address",
          "name": "account",
          "type": "address"
        }
      ],
      "name": "balanceOf",
      "outputs": [
        {
          "internalType": "uint256",
          "name": "",
          "type": "uint256"
        }
      ],
      "stateMutability": "view",
      "type": "function"
    },
    {
      "inputs": [
        {
          "internalType": "address",
          "name": "charityAddr",
          "type": "address"
        }
      ],
      "name": "charityInfo",
      "outputs": [
        {
          "internalType": "bool",
          "name": "",
          "type": "bool"
        },
        {
          "internalType": "uint256",
          "name": "rate",
          "type": "uint256"
        }
      ],
      "stateMutability": "view",
      "type": "function"
    },
    {
      "inputs": [
        {
          "internalType": "address",
          "name": "_contract",
          "type": "address"
        }
      ],
      "name": "checkInterface",
      "outputs": [
        {
          "internalType": "bool",
          "name": "",
          "type": "bool"
        }
      ],
      "stateMutability": "nonpayable",
      "type": "function"
    },
    {
      "inputs": [],
      "name": "decimals",
      "outputs": [
        {
          "internalType": "uint8",
          "name": "",
          "type": "uint8"
        }
      ],
      "stateMutability": "view",
      "type": "function"
    },
    {
      "inputs": [
        {
          "internalType": "address",
          "name": "spender",
          "type": "address"
        },
        {
          "internalType": "uint256",
          "name": "subtractedValue",
          "type": "uint256"
        }
      ],
      "name": "decreaseAllowance",
      "outputs": [
        {
          "internalType": "bool",
          "name": "",
          "type": "bool"
        }
      ],
      "stateMutability": "nonpayable",
      "type": "function"
    },
    {
      "inputs": [
        {
          "internalType": "address",
          "name": "toRemove",
          "type": "address"
        }
      ],
      "name": "deleteFromWhitelist",
      "outputs": [],
      "stateMutability": "nonpayable",
      "type": "function"
    },
    {
      "inputs": [],
      "name": "getAllWhitelistedAddresses",
      "outputs": [
        {
          "internalType": "address[]",
          "name": "",
          "type": "address[]"
        }
      ],
      "stateMutability": "view",
      "type": "function"
    },
    {
      "inputs": [],
      "name": "getRate",
      "outputs": [
        {
          "internalType": "uint256",
          "name": "",
          "type": "uint256"
        }
      ],
      "stateMutability": "view",
      "type": "function"
    },
    {
      "inputs": [
        {
          "internalType": "address",
          "name": "spender",
          "type": "address"
        },
        {
          "internalType": "uint256",
          "name": "addedValue",
          "type": "uint256"
        }
      ],
      "name": "increaseAllowance",
      "outputs": [
        {
          "internalType": "bool",
          "name": "",
          "type": "bool"
        }
      ],
      "stateMutability": "nonpayable",
      "type": "function"
    },
    {
      "inputs": [
        {
          "internalType": "address",
          "name": "to",
          "type": "address"
        },
        {
          "internalType": "uint256",
          "name": "amount",
          "type": "uint256"
        }
      ],
      "name": "mint",
      "outputs": [],
      "stateMutability": "nonpayable",
      "type": "function"
    },
    {
      "inputs": [],
      "name": "name",
      "outputs": [
        {
          "internalType": "string",
          "name": "",
          "type": "string"
        }
      ],
      "stateMutability": "view",
      "type": "function"
    },
    {
      "inputs": [],
      "name": "owner",
      "outputs": [
        {
          "internalType": "address",
          "name": "",
          "type": "address"
        }
      ],
      "stateMutability": "view",
      "type": "function"
    },
    {
      "inputs": [],
      "name": "renounceOwnership",
      "outputs": [],
      "stateMutability": "nonpayable",
      "type": "function"
    },
    {
      "inputs": [],
      "name": "selfmint",
      "outputs": [],
      "stateMutability": "nonpayable",
      "type": "function"
    },
    {
      "inputs": [
        {
          "internalType": "address",
          "name": "whitelistedAddr",
          "type": "address"
        }
      ],
      "name": "setSpecificDefaultAddress",
      "outputs": [],
      "stateMutability": "nonpayable",
      "type": "function"
    },
    {
      "inputs": [
        {
          "internalType": "address",
          "name": "whitelistedAddr",
          "type": "address"
        },
        {
          "internalType": "uint256",
          "name": "rate",
          "type": "uint256"
        }
      ],
      "name": "setSpecificDefaultAddressAndRate",
      "outputs": [],
      "stateMutability": "nonpayable",
      "type": "function"
    },
    {
      "inputs": [
        {
          "internalType": "address",
          "name": "whitelistedAddr",
          "type": "address"
        },
        {
          "internalType": "uint256",
          "name": "rate",
          "type": "uint256"
        }
      ],
      "name": "setSpecificRate",
      "outputs": [],
      "stateMutability": "nonpayable",
      "type": "function"
    },
    {
      "inputs": [
        {
          "internalType": "bytes4",
          "name": "interfaceId",
          "type": "bytes4"
        }
      ],
      "name": "supportsInterface",
      "outputs": [
        {
          "internalType": "bool",
          "name": "",
          "type": "bool"
        }
      ],
      "stateMutability": "view",
      "type": "function"
    },
    {
      "inputs": [],
      "name": "symbol",
      "outputs": [
        {
          "internalType": "string",
          "name": "",
          "type": "string"
        }
      ],
      "stateMutability": "view",
      "type": "function"
    },
    {
      "inputs": [],
      "name": "totalSupply",
      "outputs": [
        {
          "internalType": "uint256",
          "name": "",
          "type": "uint256"
        }
      ],
      "stateMutability": "view",
      "type": "function"
    },
    {
      "inputs": [
        {
          "internalType": "address",
          "name": "to",
          "type": "address"
        },
        {
          "internalType": "uint256",
          "name": "amount",
          "type": "uint256"
        }
      ],
      "name": "transfer",
      "outputs": [
        {
          "internalType": "bool",
          "name": "",
          "type": "bool"
        }
      ],
      "stateMutability": "nonpayable",
      "type": "function"
    },
    {
      "inputs": [
        {
          "internalType": "address",
          "name": "from",
          "type": "address"
        },
        {
          "internalType": "address",
          "name": "to",
          "type": "address"
        },
        {
          "internalType": "uint256",
          "name": "amount",
          "type": "uint256"
        }
      ],
      "name": "transferFrom",
      "outputs": [
        {
          "internalType": "bool",
          "name": "",
          "type": "bool"
        }
      ],
      "stateMutability": "nonpayable",
      "type": "function"
    },
    {
      "inputs": [
        {
          "internalType": "address",
          "name": "newOwner",
          "type": "address"
        }
      ],
      "name": "transferOwnership",
      "outputs": [],
      "stateMutability": "nonpayable",
      "type": "function"
    },
    {
      "inputs": [
        {
          "internalType": "address",
          "name": "",
          "type": "address"
        }
      ],
      "name": "whitelistedRate",
      "outputs": [
        {
          "internalType": "uint256",
          "name": "",
          "type": "uint256"
        }
      ],
      "stateMutability": "view",
      "type": "function"
    }
  ],
  "bytecode": "0x60806040523480156200001157600080fd5b50604051806040016040528060098152602001682a32b9ba2a37b5b2b760b91b815250604051806040016040528060038152602001621514d560ea1b81525081600390805190602001906200006892919062000206565b5080516200007e90600490602084019062000206565b5050506200009b62000095620000c860201b60201c565b620000cc565b620000c233620000ae6012600a620003c1565b620000bc90612710620003d9565b6200011e565b62000453565b3390565b600580546001600160a01b038381166001600160a01b0319831681179093556040519116919082907f8be0079c531659141344cd1fd0a4f28419497f9722a3daafe3b4186f6b6457e090600090a35050565b6001600160a01b038216620001795760405162461bcd60e51b815260206004820152601f60248201527f45524332303a206d696e7420746f20746865207a65726f206164647265737300604482015260640160405180910390fd5b80600260008282546200018d9190620003fb565b90915550506001600160a01b03821660009081526020819052604081208054839290620001bc908490620003fb565b90915550506040518181526001600160a01b038316906000907fddf252ad1be2c89b69c2b068fc378daa952ba7f163c4a11628f55a4df523b3ef9060200160405180910390a35050565b828054620002149062000416565b90600052602060002090601f01602090048101928262000238576000855562000283565b82601f106200025357805160ff191683800117855562000283565b8280016001018555821562000283579182015b828111156200028357825182559160200191906001019062000266565b506200029192915062000295565b5090565b5b8082111562000291576000815560010162000296565b634e487b7160e01b600052601160045260246000fd5b600181815b8085111562000303578160001904821115620002e757620002e7620002ac565b80851615620002f557918102915b93841c9390800290620002c7565b509250929050565b6000826200031c57506001620003bb565b816200032b57506000620003bb565b81600181146200034457600281146200034f576200036f565b6001915050620003bb565b60ff841115620003635762000363620002ac565b50506001821b620003bb565b5060208310610133831016604e8410600b841016171562000394575081810a620003bb565b620003a08383620002c2565b8060001904821115620003b757620003b7620002ac565b0290505b92915050565b6000620003d260ff8416836200030b565b9392505050565b6000816000190483118215151615620003f657620003f6620002ac565b500290565b60008219821115620004115762000411620002ac565b500190565b600181811c908216806200042b57607f821691505b602082108114156200044d57634e487b7160e01b600052602260045260246000fd5b50919050565b611a5a80620004636000396000f3fe608060405234801561001057600080fd5b50600436106101cf5760003560e01c806384f39e1e11610104578063b56eebfb116100a2578063e43252d711610071578063e43252d714610426578063ecfb5d1714610439578063f0f4e15b1461044c578063f2fde38b1461046c57600080fd5b8063b56eebfb146103b2578063d64f3e87146103c7578063d88b1661146103e5578063dd62ed3e146103ed57600080fd5b806395d89b41116100de57806395d89b411461035a578063991ec6f714610362578063a457c2d71461038c578063a9059cbb1461039f57600080fd5b806384f39e1e1461030f5780638da5cb5b14610322578063915dc7741461034757600080fd5b806340c10f19116101715780635455bce21161014b5780635455bce21461029b578063679aefce146102ae57806370a08231146102de578063715018a61461030757600080fd5b806340c10f191461026b5780634b24c46f146102805780634c6778031461028857600080fd5b806318160ddd116101ad57806318160ddd1461022457806323b872dd14610236578063313ce56714610249578063395093511461025857600080fd5b806301ffc9a7146101d457806306fdde03146101fc578063095ea7b314610211575b600080fd5b6101e76101e2366004611562565b61047f565b60405190151581526020015b60405180910390f35b6102046104b6565b6040516101f3919061158c565b6101e761021f3660046115fd565b610548565b6002545b6040519081526020016101f3565b6101e7610244366004611627565b6105bd565b604051601281526020016101f3565b6101e76102663660046115fd565b61065f565b61027e6102793660046115fd565b610699565b005b61027e6106da565b61027e6102963660046115fd565b61072b565b6101e76102a9366004611663565b610826565b33600090815260086020908152604080832060098352818420546001600160a01b03168452909152902054610228565b6102286102ec366004611663565b6001600160a01b031660009081526020819052604090205490565b61027e6108a1565b61027e61031d3660046115fd565b6108d7565b6005546001600160a01b03165b6040516001600160a01b0390911681526020016101f3565b61027e610355366004611663565b610a51565b610204610b49565b610375610370366004611663565b610b58565b6040805192151583526020830191909152016101f3565b6101e761039a3660046115fd565b610b89565b6101e76103ad3660046115fd565b610c1b565b6103ba610c96565b6040516101f3919061167e565b336000908152600960205260409020546001600160a01b031661032f565b61027e610cf7565b6102286103fb3660046116cb565b6001600160a01b03918216600090815260016020908152604080832093909416825291909152205490565b61027e610434366004611663565b610d17565b61027e610447366004611663565b610e00565b61022861045a366004611663565b60066020526000908152604090205481565b61027e61047a366004611663565b610fa2565b60006001600160e01b03198216638781168360e01b14806104b057506001600160e01b031982166301ffc9a760e01b145b92915050565b6060600380546104c5906116fe565b80601f01602080910402602001604051908101604052809291908181526020018280546104f1906116fe565b801561053e5780601f106105135761010080835404028352916020019161053e565b820191906000526020600020905b81548152906001019060200180831161052157829003601f168201915b5050505050905090565b60003361055681858561103d565b336000908152600960205260409020546001600160a01b0316156105b357600061057f33611161565b905060006127106105908387611749565b61059a9190611768565b90506105b083876105ab888561178a565b61103d565b50505b5060019392505050565b6000336105cb8582856111d1565b6001600160a01b038581166000908152600960205260409020541615610649576001600160a01b038086166000908152600960205260408120549091169061061287611161565b905060006127106106238388611749565b61062d9190611768565b905061063a8885836111d1565b610645888483611263565b5050505b610654858585611263565b506001949350505050565b3360008181526001602090815260408083206001600160a01b03871684529091528120549091906105b390829086906105ab90879061178a565b6005546001600160a01b031633146106cc5760405162461bcd60e51b81526004016106c3906117a2565b60405180910390fd5b6106d68282611431565b5050565b33600090815260096020908152604080832080546001600160a01b0319169055519182527f6d4c462cdec505a621711d5ca414bc431f78e79746ca66270e7aa87947b59ab3910160405180910390a1565b6005546001600160a01b031633146107555760405162461bcd60e51b81526004016106c3906117a2565b6127108111156107775760405162461bcd60e51b81526004016106c3906117d7565b600a8110156107985760405162461bcd60e51b81526004016106c390611834565b6001600160a01b0382166000908152600660205260409020546107cd5760405162461bcd60e51b81526004016106c390611883565b6001600160a01b038216600081815260066020908152604091829020849055815192835282018390527f272200c8484b4881d4bf8552d6783858e314cf8fc05461d9f87fded68327e66a91015b60405180910390a15050565b6040516301ffc9a760e01b8152638781168360e01b600482015260009081906001600160a01b038416906301ffc9a790602401602060405180830381865afa158015610876573d6000803e3d6000fd5b505050506040513d601f19601f8201168201806040525081019061089a91906118cc565b9392505050565b6005546001600160a01b031633146108cb5760405162461bcd60e51b81526004016106c3906117a2565b6108d56000611510565b565b6127108111156108f95760405162461bcd60e51b81526004016106c3906117d7565b600a81101561091a5760405162461bcd60e51b81526004016106c390611834565b6001600160a01b0382166000908152600660205260409020548110156109a85760405162461bcd60e51b815260206004820152603b60248201527f4552433230436861726974793a207261746520666565206d757374206578636560448201527f656420746865206665652073657420627920746865206f776e6572000000000060648201526084016106c3565b6001600160a01b0382166000908152600660205260409020546109dd5760405162461bcd60e51b81526004016106c390611883565b33600090815260096020908152604080832080546001600160a01b0319166001600160a01b0387169081179091556008835281842081855283529281902084905580519283529082018390527f21470041ef9ff574315005b52c90c0f22b3499a708aee20330f95853e2583b69910161081a565b6001600160a01b038116600090815260066020526040902054610ac55760405162461bcd60e51b815260206004820152602660248201527f4552433230436861726974793a20696e76616c69642077686974656c6973746560448201526564207261746560d01b60648201526084016106c3565b33600081815260096020908152604080832080546001600160a01b0319166001600160a01b0387169081179091558084526006835281842054948452600883528184208185528352928190209390935591519081527f6d4c462cdec505a621711d5ca414bc431f78e79746ca66270e7aa87947b59ab391015b60405180910390a150565b6060600480546104c5906116fe565b6001600160a01b0381166000908152600660205260408120548015610b805760019150915091565b60009150915091565b3360008181526001602090815260408083206001600160a01b038716845290915281205490919083811015610c0e5760405162461bcd60e51b815260206004820152602560248201527f45524332303a2064656372656173656420616c6c6f77616e63652062656c6f77604482015264207a65726f60d81b60648201526084016106c3565b610654828686840361103d565b336000818152600960205260408120549091906001600160a01b031615610c8b57336000818152600960205260408120546001600160a01b031691610c5f90611161565b90506000612710610c708388611749565b610c7a9190611768565b9050610c87848483611263565b5050505b6105b3818585611263565b6060600a80548060200260200160405190810160405280929190818152602001828054801561053e57602002820191906000526020600020905b81546001600160a01b03168152600190910190602001808311610cd0575050505050905090565b6108d533610d076012600a6119d2565b610d12906064611749565b611431565b6005546001600160a01b03163314610d415760405162461bcd60e51b81526004016106c3906117a2565b6001600160a01b038116600090815260076020526040902054610dc7576001600160a01b0381166000818152600660209081526040808320600a9081905580546001810182557fc65a7bb8d6351c1cf70c95a316cc6a92839c986682d98bc35f958f4883f9d2a80180546001600160a01b03191690951790945592546007909152919020555b6040516001600160a01b03821681527fa850ae9193f515cbae8d35e8925bd2be26627fc91bce650b8652ed254e9cab0390602001610b3e565b6005546001600160a01b03163314610e2a5760405162461bcd60e51b81526004016106c3906117a2565b6001600160a01b03811660009081526007602052604090205480610e805760405162461bcd60e51b815260206004820152600d60248201526c092dcecc2d8d2c840d2dcc8caf609b1b60448201526064016106c3565b600a805460009190610e94906001906119e1565b81548110610ea457610ea46119f8565b6000918252602090912001546001600160a01b0316905080600a610ec96001856119e1565b81548110610ed957610ed96119f8565b600091825260208083209190910180546001600160a01b0319166001600160a01b039485161790559183168152600790915260409020829055600a805480610f2357610f23611a0e565b60008281526020808220600019908401810180546001600160a01b03191690559092019092556001600160a01b038516808352600782526040808420849055600683528084209390935591519182527fcdd2e9b91a56913d370075169cefa1602ba36be5301664f752192bb1709df757910160405180910390a1505050565b6005546001600160a01b03163314610fcc5760405162461bcd60e51b81526004016106c3906117a2565b6001600160a01b0381166110315760405162461bcd60e51b815260206004820152602660248201527f4f776e61626c653a206e6577206f776e657220697320746865207a65726f206160448201526564647265737360d01b60648201526084016106c3565b61103a81611510565b50565b6001600160a01b03831661109f5760405162461bcd60e51b8152602060048201526024808201527f45524332303a20617070726f76652066726f6d20746865207a65726f206164646044820152637265737360e01b60648201526084016106c3565b6001600160a01b0382166111005760405162461bcd60e51b815260206004820152602260248201527f45524332303a20617070726f766520746f20746865207a65726f206164647265604482015261737360f01b60648201526084016106c3565b6001600160a01b0383811660008181526001602090815260408083209487168084529482529182902085905590518481527f8c5be1e5ebec7d5bd14f71427d1e84f3dd0314c0f7b2291e5b200ac8c7c3b925910160405180910390a3505050565b6001600160a01b038082166000908152600960209081526040808320546008835281842094168084529382528083205460069092529091205490919015806111c157506001600160a01b0383811660009081526009602052604090205416155b156111cb57600091505b50919050565b6001600160a01b03838116600090815260016020908152604080832093861683529290522054600019811461125d57818110156112505760405162461bcd60e51b815260206004820152601d60248201527f45524332303a20696e73756666696369656e7420616c6c6f77616e636500000060448201526064016106c3565b61125d848484840361103d565b50505050565b6001600160a01b0383166112c75760405162461bcd60e51b815260206004820152602560248201527f45524332303a207472616e736665722066726f6d20746865207a65726f206164604482015264647265737360d81b60648201526084016106c3565b6001600160a01b0382166113295760405162461bcd60e51b815260206004820152602360248201527f45524332303a207472616e7366657220746f20746865207a65726f206164647260448201526265737360e81b60648201526084016106c3565b6001600160a01b038316600090815260208190526040902054818110156113a15760405162461bcd60e51b815260206004820152602660248201527f45524332303a207472616e7366657220616d6f756e7420657863656564732062604482015265616c616e636560d01b60648201526084016106c3565b6001600160a01b038085166000908152602081905260408082208585039055918516815290812080548492906113d890849061178a565b92505081905550826001600160a01b0316846001600160a01b03167fddf252ad1be2c89b69c2b068fc378daa952ba7f163c4a11628f55a4df523b3ef8460405161142491815260200190565b60405180910390a361125d565b6001600160a01b0382166114875760405162461bcd60e51b815260206004820152601f60248201527f45524332303a206d696e7420746f20746865207a65726f20616464726573730060448201526064016106c3565b8060026000828254611499919061178a565b90915550506001600160a01b038216600090815260208190526040812080548392906114c690849061178a565b90915550506040518181526001600160a01b038316906000907fddf252ad1be2c89b69c2b068fc378daa952ba7f163c4a11628f55a4df523b3ef9060200160405180910390a35050565b600580546001600160a01b038381166001600160a01b0319831681179093556040519116919082907f8be0079c531659141344cd1fd0a4f28419497f9722a3daafe3b4186f6b6457e090600090a35050565b60006020828403121561157457600080fd5b81356001600160e01b03198116811461089a57600080fd5b600060208083528351808285015260005b818110156115b95785810183015185820160400152820161159d565b818111156115cb576000604083870101525b50601f01601f1916929092016040019392505050565b80356001600160a01b03811681146115f857600080fd5b919050565b6000806040838503121561161057600080fd5b611619836115e1565b946020939093013593505050565b60008060006060848603121561163c57600080fd5b611645846115e1565b9250611653602085016115e1565b9150604084013590509250925092565b60006020828403121561167557600080fd5b61089a826115e1565b6020808252825182820181905260009190848201906040850190845b818110156116bf5783516001600160a01b03168352928401929184019160010161169a565b50909695505050505050565b600080604083850312156116de57600080fd5b6116e7836115e1565b91506116f5602084016115e1565b90509250929050565b600181811c9082168061171257607f821691505b602082108114156111cb57634e487b7160e01b600052602260045260246000fd5b634e487b7160e01b600052601160045260246000fd5b600081600019048311821515161561176357611763611733565b500290565b60008261178557634e487b7160e01b600052601260045260246000fd5b500490565b6000821982111561179d5761179d611733565b500190565b6020808252818101527f4f776e61626c653a2063616c6c6572206973206e6f7420746865206f776e6572604082015260600190565b60208082526038908201527f4552433230436861726974793a2072617465206d75737420626520626574776560408201527f656e203020616e64205f66656544656e6f6d696e61746f720000000000000000606082015260800190565b6020808252602f908201527f4552433230436861726974793a207261746520666565206d757374206578636560408201526e65642064656661756c74207261746560881b606082015260800190565b60208082526029908201527f4552433230436861726974793a20696e76616c69642077686974656c6973746560408201526864206164647265737360b81b606082015260800190565b6000602082840312156118de57600080fd5b8151801515811461089a57600080fd5b600181815b8085111561192957816000190482111561190f5761190f611733565b8085161561191c57918102915b93841c93908002906118f3565b509250929050565b600082611940575060016104b0565b8161194d575060006104b0565b8160018114611963576002811461196d57611989565b60019150506104b0565b60ff84111561197e5761197e611733565b50506001821b6104b0565b5060208310610133831016604e8410600b84101617156119ac575081810a6104b0565b6119b683836118ee565b80600019048211156119ca576119ca611733565b029392505050565b600061089a60ff841683611931565b6000828210156119f3576119f3611733565b500390565b634e487b7160e01b600052603260045260246000fd5b634e487b7160e01b600052603160045260246000fdfea2646970667358221220f33bdbb2f47ba71c644877191f97a787e8a7e54a9446054d18d635e1328f3a2664736f6c634300080c0033",
  "linkReferences": {},
  "deployedLinkReferences": {}
}