{
  "_format": "hh-sol-artifact-1",
  "contractName": "CharityToken",
  "sourceName": "contracts/CharityToken.sol",
  "abi": [
    {
      "inputs": [],
      "stateMutability": "nonpayable",
      "type": "constructor"
    },
    {
      "anonymous": false,
      "inputs": [
        {
          "indexed": false,
          "internalType": "address",
          "name": "toAdd",
          "type": "address"
        },
        {
          "indexed": false,
          "internalType": "uint256",
          "name": "rate",
          "type": "uint256"
        }
      ],
      "name": "AddedToWhitelist",
      "type": "event"
    },
    {
      "anonymous": false,
      "inputs": [
        {
          "indexed": true,
          "internalType": "address",
          "name": "owner",
          "type": "address"
        },
        {
          "indexed": true,
          "internalType": "address",
          "name": "spender",
          "type": "address"
        },
        {
          "indexed": false,
          "internalType": "uint256",
          "name": "value",
          "type": "uint256"
        }
      ],
      "name": "Approval",
      "type": "event"
    },
    {
      "anonymous": false,
      "inputs": [
        {
          "indexed": false,
          "internalType": "address",
          "name": "whitelistedAddr",
          "type": "address"
        },
        {
          "indexed": false,
          "internalType": "uint256",
          "name": "rate",
          "type": "uint256"
        }
      ],
      "name": "DonnationAddressAndRateChanged",
      "type": "event"
    },
    {
      "anonymous": false,
      "inputs": [
        {
          "indexed": false,
          "internalType": "address",
          "name": "whitelistedAddr",
          "type": "address"
        }
      ],
      "name": "DonnationAddressChanged",
      "type": "event"
    },
    {
      "anonymous": false,
      "inputs": [
        {
          "indexed": false,
          "internalType": "address",
          "name": "whitelistedAddr",
          "type": "address"
        },
        {
          "indexed": false,
          "internalType": "uint256",
          "name": "rate",
          "type": "uint256"
        }
      ],
      "name": "ModifiedCharityCustumRate",
      "type": "event"
    },
    {
      "anonymous": false,
      "inputs": [
        {
          "indexed": false,
          "internalType": "address",
          "name": "whitelistedAddr",
          "type": "address"
        },
        {
          "indexed": false,
          "internalType": "uint256",
          "name": "rate",
          "type": "uint256"
        }
      ],
      "name": "ModifiedCharityRate",
      "type": "event"
    },
    {
      "anonymous": false,
      "inputs": [
        {
          "indexed": false,
          "internalType": "address",
          "name": "toRemove",
          "type": "address"
        }
      ],
      "name": "RemovedFromWhitelist",
      "type": "event"
    },
    {
      "anonymous": false,
      "inputs": [
        {
          "indexed": true,
          "internalType": "address",
          "name": "from",
          "type": "address"
        },
        {
          "indexed": true,
          "internalType": "address",
          "name": "to",
          "type": "address"
        },
        {
          "indexed": false,
          "internalType": "uint256",
          "name": "value",
          "type": "uint256"
        }
      ],
      "name": "Transfer",
      "type": "event"
    },
    {
      "inputs": [],
      "name": "Owner",
      "outputs": [
        {
          "internalType": "address",
          "name": "",
          "type": "address"
        }
      ],
      "stateMutability": "view",
      "type": "function"
    },
    {
      "inputs": [
        {
          "internalType": "address",
          "name": "toAdd",
          "type": "address"
        },
        {
          "internalType": "uint256",
          "name": "rate",
          "type": "uint256"
        }
      ],
      "name": "addToWhitelist",
      "outputs": [],
      "stateMutability": "nonpayable",
      "type": "function"
    },
    {
      "inputs": [
        {
          "internalType": "address",
          "name": "owner",
          "type": "address"
        },
        {
          "internalType": "address",
          "name": "spender",
          "type": "address"
        }
      ],
      "name": "allowance",
      "outputs": [
        {
          "internalType": "uint256",
          "name": "",
          "type": "uint256"
        }
      ],
      "stateMutability": "view",
      "type": "function"
    },
    {
      "inputs": [
        {
          "internalType": "address",
          "name": "spender",
          "type": "address"
        },
        {
          "internalType": "uint256",
          "name": "amount",
          "type": "uint256"
        }
      ],
      "name": "approve",
      "outputs": [
        {
          "internalType": "bool",
          "name": "",
          "type": "bool"
        }
      ],
      "stateMutability": "nonpayable",
      "type": "function"
    },
    {
      "inputs": [
        {
          "internalType": "address",
          "name": "account",
          "type": "address"
        }
      ],
      "name": "balanceOf",
      "outputs": [
        {
          "internalType": "uint256",
          "name": "",
          "type": "uint256"
        }
      ],
      "stateMutability": "view",
      "type": "function"
    },
    {
      "inputs": [
        {
          "internalType": "address",
          "name": "charityAddr",
          "type": "address"
        }
      ],
      "name": "charityInfo",
      "outputs": [
        {
          "internalType": "bool",
          "name": "",
          "type": "bool"
        },
        {
          "internalType": "uint256",
          "name": "rate",
          "type": "uint256"
        },
        {
          "internalType": "address",
          "name": "msgRecipient",
          "type": "address"
        },
        {
          "internalType": "uint256",
          "name": "RecipientRate",
          "type": "uint256"
        },
        {
          "internalType": "uint256",
          "name": "msgRate",
          "type": "uint256"
        }
      ],
      "stateMutability": "view",
      "type": "function"
    },
    {
      "inputs": [
        {
          "internalType": "address",
          "name": "testContract",
          "type": "address"
        }
      ],
      "name": "checkInterface",
      "outputs": [
        {
          "internalType": "bool",
          "name": "",
          "type": "bool"
        }
      ],
      "stateMutability": "view",
      "type": "function"
    },
    {
      "inputs": [],
      "name": "decimals",
      "outputs": [
        {
          "internalType": "uint8",
          "name": "",
          "type": "uint8"
        }
      ],
      "stateMutability": "view",
      "type": "function"
    },
    {
      "inputs": [
        {
          "internalType": "address",
          "name": "spender",
          "type": "address"
        },
        {
          "internalType": "uint256",
          "name": "subtractedValue",
          "type": "uint256"
        }
      ],
      "name": "decreaseAllowance",
      "outputs": [
        {
          "internalType": "bool",
          "name": "",
          "type": "bool"
        }
      ],
      "stateMutability": "nonpayable",
      "type": "function"
    },
    {
      "inputs": [
        {
          "internalType": "address",
          "name": "toRemove",
          "type": "address"
        }
      ],
      "name": "deleteFromWhitelist",
      "outputs": [],
      "stateMutability": "nonpayable",
      "type": "function"
    },
    {
      "inputs": [],
      "name": "deleteRecipient",
      "outputs": [],
      "stateMutability": "nonpayable",
      "type": "function"
    },
    {
      "inputs": [],
      "name": "getAllWhitelistedAddresses",
      "outputs": [
        {
          "internalType": "address[]",
          "name": "",
          "type": "address[]"
        }
      ],
      "stateMutability": "view",
      "type": "function"
    },
    {
      "inputs": [
        {
          "internalType": "address",
          "name": "addr",
          "type": "address"
        }
      ],
      "name": "getRateOf",
      "outputs": [
        {
          "internalType": "uint256",
          "name": "",
          "type": "uint256"
        }
      ],
      "stateMutability": "view",
      "type": "function"
    },
    {
      "inputs": [
        {
          "internalType": "address",
          "name": "addr",
          "type": "address"
        }
      ],
      "name": "getRecipientAddressOf",
      "outputs": [
        {
          "internalType": "address",
          "name": "",
          "type": "address"
        }
      ],
      "stateMutability": "view",
      "type": "function"
    },
    {
      "inputs": [
        {
          "internalType": "address",
          "name": "spender",
          "type": "address"
        },
        {
          "internalType": "uint256",
          "name": "addedValue",
          "type": "uint256"
        }
      ],
      "name": "increaseAllowance",
      "outputs": [
        {
          "internalType": "bool",
          "name": "",
          "type": "bool"
        }
      ],
      "stateMutability": "nonpayable",
      "type": "function"
    },
    {
      "inputs": [
        {
          "internalType": "address",
          "name": "to",
          "type": "address"
        },
        {
          "internalType": "uint256",
          "name": "amount",
          "type": "uint256"
        }
      ],
      "name": "mint",
      "outputs": [],
      "stateMutability": "nonpayable",
      "type": "function"
    },
    {
      "inputs": [],
      "name": "name",
      "outputs": [
        {
          "internalType": "string",
          "name": "",
          "type": "string"
        }
      ],
      "stateMutability": "view",
      "type": "function"
    },
    {
      "inputs": [],
      "name": "selfmint",
      "outputs": [],
      "stateMutability": "nonpayable",
      "type": "function"
    },
    {
      "inputs": [
        {
          "internalType": "address",
          "name": "whitelistedAddr",
          "type": "address"
        },
        {
          "internalType": "uint256",
          "name": "rate",
          "type": "uint256"
        }
      ],
      "name": "setCustumRate",
      "outputs": [],
      "stateMutability": "nonpayable",
      "type": "function"
    },
    {
      "inputs": [
        {
          "internalType": "address",
          "name": "whitelistedAddr",
          "type": "address"
        },
        {
          "internalType": "uint256",
          "name": "rate",
          "type": "uint256"
        }
      ],
      "name": "setRate",
      "outputs": [],
      "stateMutability": "nonpayable",
      "type": "function"
    },
    {
      "inputs": [
        {
          "internalType": "address",
          "name": "whitelistedAddr",
          "type": "address"
        }
      ],
      "name": "setRecipient",
      "outputs": [],
      "stateMutability": "nonpayable",
      "type": "function"
    },
    {
      "inputs": [
        {
          "internalType": "address",
          "name": "whitelistedAddr",
          "type": "address"
        },
        {
          "internalType": "uint256",
          "name": "rate",
          "type": "uint256"
        }
      ],
      "name": "setRecipientAddressAndRate",
      "outputs": [],
      "stateMutability": "nonpayable",
      "type": "function"
    },
    {
      "inputs": [
        {
          "internalType": "bytes4",
          "name": "interfaceId",
          "type": "bytes4"
        }
      ],
      "name": "supportsInterface",
      "outputs": [
        {
          "internalType": "bool",
          "name": "",
          "type": "bool"
        }
      ],
      "stateMutability": "view",
      "type": "function"
    },
    {
      "inputs": [],
      "name": "symbol",
      "outputs": [
        {
          "internalType": "string",
          "name": "",
          "type": "string"
        }
      ],
      "stateMutability": "view",
      "type": "function"
    },
    {
      "inputs": [],
      "name": "totalSupply",
      "outputs": [
        {
          "internalType": "uint256",
          "name": "",
          "type": "uint256"
        }
      ],
      "stateMutability": "view",
      "type": "function"
    },
    {
      "inputs": [
        {
          "internalType": "address",
          "name": "to",
          "type": "address"
        },
        {
          "internalType": "uint256",
          "name": "amount",
          "type": "uint256"
        }
      ],
      "name": "transfer",
      "outputs": [
        {
          "internalType": "bool",
          "name": "",
          "type": "bool"
        }
      ],
      "stateMutability": "nonpayable",
      "type": "function"
    },
    {
      "inputs": [
        {
          "internalType": "address",
          "name": "from",
          "type": "address"
        },
        {
          "internalType": "address",
          "name": "to",
          "type": "address"
        },
        {
          "internalType": "uint256",
          "name": "amount",
          "type": "uint256"
        }
      ],
      "name": "transferFrom",
      "outputs": [
        {
          "internalType": "bool",
          "name": "",
          "type": "bool"
        }
      ],
      "stateMutability": "nonpayable",
      "type": "function"
    },
    {
      "inputs": [
        {
          "internalType": "address",
          "name": "",
          "type": "address"
        }
      ],
      "name": "whitelistedRate",
      "outputs": [
        {
          "internalType": "uint256",
          "name": "",
          "type": "uint256"
        }
      ],
      "stateMutability": "view",
      "type": "function"
    }
  ],
  "bytecode": "0x60806040523480156200001157600080fd5b50604051806040016040528060098152602001682a32b9ba2a37b5b2b760b91b815250604051806040016040528060038152602001621514d560ea1b81525081600390816200006191906200024e565b5060046200007082826200024e565b5050600a80546001600160a01b03191633908117909155620000b7915062000096601290565b620000a390600a6200042f565b620000b19061271062000447565b620000bd565b6200047f565b6001600160a01b038216620001185760405162461bcd60e51b815260206004820152601f60248201527f45524332303a206d696e7420746f20746865207a65726f206164647265737300604482015260640160405180910390fd5b80600260008282546200012c919062000469565b90915550506001600160a01b038216600090815260208190526040812080548392906200015b90849062000469565b90915550506040518181526001600160a01b038316906000907fddf252ad1be2c89b69c2b068fc378daa952ba7f163c4a11628f55a4df523b3ef9060200160405180910390a35050565b505050565b634e487b7160e01b600052604160045260246000fd5b600181811c90821680620001d557607f821691505b602082108103620001f657634e487b7160e01b600052602260045260246000fd5b50919050565b601f821115620001a557600081815260208120601f850160051c81016020861015620002255750805b601f850160051c820191505b81811015620002465782815560010162000231565b505050505050565b81516001600160401b038111156200026a576200026a620001aa565b62000282816200027b8454620001c0565b84620001fc565b602080601f831160018114620002ba5760008415620002a15750858301515b600019600386901b1c1916600185901b17855562000246565b600085815260208120601f198616915b82811015620002eb57888601518255948401946001909101908401620002ca565b50858210156200030a5787850151600019600388901b60f8161c191681555b5050505050600190811b01905550565b634e487b7160e01b600052601160045260246000fd5b600181815b80851115620003715781600019048211156200035557620003556200031a565b808516156200036357918102915b93841c939080029062000335565b509250929050565b6000826200038a5750600162000429565b81620003995750600062000429565b8160018114620003b25760028114620003bd57620003dd565b600191505062000429565b60ff841115620003d157620003d16200031a565b50506001821b62000429565b5060208310610133831016604e8410600b841016171562000402575081810a62000429565b6200040e838362000330565b80600019048211156200042557620004256200031a565b0290505b92915050565b60006200044060ff84168362000379565b9392505050565b60008160001904831182151516156200046457620004646200031a565b500290565b808201808211156200042957620004296200031a565b6119c0806200048f6000396000f3fe608060405234801561001057600080fd5b50600436106101c45760003560e01c806370a08231116100f9578063b56eebfb11610097578063e8b7893e11610071578063e8b7893e1461044c578063ecfb5d1714610454578063ef9314ab14610467578063f0f4e15b1461047a57600080fd5b8063b56eebfb146103f6578063d88b16611461040b578063dd62ed3e1461041357600080fd5b8063991ec6f7116100d3578063991ec6f714610372578063a457c2d7146103bd578063a9059cbb146103d0578063b4a99a4e146103e357600080fd5b806370a082311461032e5780637e875e581461035757806395d89b411461036a57600080fd5b8063313ce56711610166578063403af87511610140578063403af8751461029b57806340c10f19146102c45780635455bce2146102d757806356a265a2146102ea57600080fd5b8063313ce5671461026657806339509351146102755780633bbed4a01461028857600080fd5b806318160ddd116101a257806318160ddd14610219578063214405fc1461022b57806323b872dd146102405780632bdb70971461025357600080fd5b806301ffc9a7146101c957806306fdde03146101f1578063095ea7b314610206575b600080fd5b6101dc6101d73660046114cb565b61049a565b60405190151581526020015b60405180910390f35b6101f96104d1565b6040516101e891906114f5565b6101dc61021436600461155f565b610563565b6002545b6040519081526020016101e8565b61023e61023936600461155f565b6105d8565b005b6101dc61024e366004611589565b6106d8565b61023e61026136600461155f565b61077a565b604051601281526020016101e8565b6101dc61028336600461155f565b610824565b61023e6102963660046115c5565b61085e565b61021d6102a93660046115c5565b6001600160a01b031660009081526005602052604090205490565b61023e6102d236600461155f565b610957565b6101dc6102e53660046115c5565b61098f565b6103166102f83660046115c5565b6001600160a01b039081166000908152600860205260409020541690565b6040516001600160a01b0390911681526020016101e8565b61021d61033c3660046115c5565b6001600160a01b031660009081526020819052604090205490565b61023e61036536600461155f565b610a0a565b6101f9610b0f565b6103856103803660046115c5565b610b1e565b60408051951515865260208601949094526001600160a01b03909216928401929092526060830191909152608082015260a0016101e8565b6101dc6103cb36600461155f565b610b88565b6101dc6103de36600461155f565b610c1a565b600a54610316906001600160a01b031681565b6103fe610c95565b6040516101e891906115e0565b61023e610cf6565b61021d61042136600461162d565b6001600160a01b03918216600090815260016020908152604080832093909416825291909152205490565b61023e610d18565b61023e6104623660046115c5565b610d69565b61023e61047536600461155f565b610f0b565b61021d6104883660046115c5565b60056020526000908152604090205481565b60006001600160e01b0319821663532ed72160e01b14806104cb57506001600160e01b031982166301ffc9a760e01b145b92915050565b6060600380546104e090611660565b80601f016020809104026020016040519081016040528092919081815260200182805461050c90611660565b80156105595780601f1061052e57610100808354040283529160200191610559565b820191906000526020600020905b81548152906001019060200180831161053c57829003601f168201915b5050505050905090565b600033610571818585610ff8565b336000908152600860205260409020546001600160a01b0316156105ce57600061059a3361111c565b905060006127106105ab83876116aa565b6105b591906116c9565b90506105cb83876105c688856116eb565b610ff8565b50505b5060019392505050565b600a546001600160a01b0316331461060b5760405162461bcd60e51b8152600401610602906116fe565b60405180910390fd5b6001600160a01b0382166000908152600660205260408120549003610691576001600160a01b0382166000818152600560209081526040808320859055600980546001810182557f6e1540171b6c0c960b71a7020d9f60077f6af931a8bbf590da0223dacf75c7af0180546001600160a01b031916861790555493835260069091529020555b604080516001600160a01b0384168152602081018390527f62c1e066774519db9fe35767c15fc33df2f016675b7cc0c330ed185f286a2d5291015b60405180910390a15050565b6000336106e685828561118c565b6001600160a01b038581166000908152600860205260409020541615610764576001600160a01b038086166000908152600860205260408120549091169061072d8761111c565b9050600061271061073e83886116aa565b61074891906116c9565b905061075588858361118c565b61076088848361121e565b5050505b61076f85858561121e565b506001949350505050565b61271081111561079c5760405162461bcd60e51b815260040161060290611733565b6001600160a01b03821660009081526005602052604081205490036107d35760405162461bcd60e51b815260040161060290611790565b6001600160a01b038216600081815260056020908152604091829020849055815192835282018390527f272200c8484b4881d4bf8552d6783858e314cf8fc05461d9f87fded68327e66a91016106cc565b3360008181526001602090815260408083206001600160a01b03871684529091528120549091906105ce90829086906105c69087906116eb565b6001600160a01b03811660009081526005602052604081205490036108d45760405162461bcd60e51b815260206004820152602660248201527f4552433230436861726974793a20696e76616c69642077686974656c6973746560448201526564207261746560d01b6064820152608401610602565b33600081815260086020908152604080832080546001600160a01b0319166001600160a01b0387169081179091558084526005835281842054948452600783528184208185528352928190209390935591519081527f6d4c462cdec505a621711d5ca414bc431f78e79746ca66270e7aa87947b59ab3910160405180910390a150565b600a546001600160a01b031633146109815760405162461bcd60e51b8152600401610602906116fe565b61098b82826113ec565b5050565b6040516301ffc9a760e01b815263532ed72160e01b600482015260009081906001600160a01b038416906301ffc9a790602401602060405180830381865afa1580156109df573d6000803e3d6000fd5b505050506040513d601f19601f82011682018060405250810190610a0391906117d9565b9392505050565b612710811115610a2c5760405162461bcd60e51b815260040161060290611733565b6001600160a01b038216600090815260056020526040902054811015610a645760405162461bcd60e51b8152600401610602906117fb565b6001600160a01b0382166000908152600560205260408120549003610a9b5760405162461bcd60e51b815260040161060290611790565b33600090815260086020908152604080832080546001600160a01b0319166001600160a01b0387169081179091556007835281842081855283529281902084905580519283529082018390527f21470041ef9ff574315005b52c90c0f22b3499a708aee20330f95853e2583b6991016106cc565b6060600480546104e090611660565b6001600160a01b038082166000908152600560208181526040808420543380865260088452828620549096168086529383528185205495855260078352818520848652909252832054929390928315610b7a5760019450610b7f565b600094505b91939590929450565b3360008181526001602090815260408083206001600160a01b038716845290915281205490919083811015610c0d5760405162461bcd60e51b815260206004820152602560248201527f45524332303a2064656372656173656420616c6c6f77616e63652062656c6f77604482015264207a65726f60d81b6064820152608401610602565b61076f8286868403610ff8565b336000818152600860205260408120549091906001600160a01b031615610c8a57336000818152600860205260408120546001600160a01b031691610c5e9061111c565b90506000612710610c6f83886116aa565b610c7991906116c9565b9050610c8684848361121e565b5050505b6105ce81858561121e565b6060600980548060200260200160405190810160405280929190818152602001828054801561055957602002820191906000526020600020905b81546001600160a01b03168152600190910190602001808311610ccf575050505050905090565b610d1633610d066012600a61193c565b610d119060646116aa565b6113ec565b565b33600090815260086020908152604080832080546001600160a01b0319169055519182527f6d4c462cdec505a621711d5ca414bc431f78e79746ca66270e7aa87947b59ab3910160405180910390a1565b600a546001600160a01b03163314610d935760405162461bcd60e51b8152600401610602906116fe565b6001600160a01b03811660009081526006602052604090205480610de95760405162461bcd60e51b815260206004820152600d60248201526c092dcecc2d8d2c840d2dcc8caf609b1b6044820152606401610602565b6009805460009190610dfd9060019061194b565b81548110610e0d57610e0d61195e565b6000918252602090912001546001600160a01b03169050806009610e3260018561194b565b81548110610e4257610e4261195e565b600091825260208083209190910180546001600160a01b0319166001600160a01b0394851617905591831681526006909152604090208290556009805480610e8c57610e8c611974565b60008281526020808220600019908401810180546001600160a01b03191690559092019092556001600160a01b038516808352600682526040808420849055600583528084209390935591519182527fcdd2e9b91a56913d370075169cefa1602ba36be5301664f752192bb1709df757910160405180910390a1505050565b612710811115610f2d5760405162461bcd60e51b815260040161060290611733565b6001600160a01b0382166000908152600560205260408120549003610f645760405162461bcd60e51b815260040161060290611790565b6001600160a01b038216600090815260056020526040902054811015610f9c5760405162461bcd60e51b8152600401610602906117fb565b3360009081526007602090815260408083206001600160a01b0386168085529083529281902084905580519283529082018390527fca0b363fd271fc3763c2c2c23802aebb7a4f4851a177be5dc763d58083f6920191016106cc565b6001600160a01b03831661105a5760405162461bcd60e51b8152602060048201526024808201527f45524332303a20617070726f76652066726f6d20746865207a65726f206164646044820152637265737360e01b6064820152608401610602565b6001600160a01b0382166110bb5760405162461bcd60e51b815260206004820152602260248201527f45524332303a20617070726f766520746f20746865207a65726f206164647265604482015261737360f01b6064820152608401610602565b6001600160a01b0383811660008181526001602090815260408083209487168084529482529182902085905590518481527f8c5be1e5ebec7d5bd14f71427d1e84f3dd0314c0f7b2291e5b200ac8c7c3b925910160405180910390a3505050565b6001600160a01b0380821660009081526008602090815260408083205460078352818420941680845293825280832054600590925290912054909190158061117c57506001600160a01b0383811660009081526008602052604090205416155b1561118657600091505b50919050565b6001600160a01b038381166000908152600160209081526040808320938616835292905220546000198114611218578181101561120b5760405162461bcd60e51b815260206004820152601d60248201527f45524332303a20696e73756666696369656e7420616c6c6f77616e63650000006044820152606401610602565b6112188484848403610ff8565b50505050565b6001600160a01b0383166112825760405162461bcd60e51b815260206004820152602560248201527f45524332303a207472616e736665722066726f6d20746865207a65726f206164604482015264647265737360d81b6064820152608401610602565b6001600160a01b0382166112e45760405162461bcd60e51b815260206004820152602360248201527f45524332303a207472616e7366657220746f20746865207a65726f206164647260448201526265737360e81b6064820152608401610602565b6001600160a01b0383166000908152602081905260409020548181101561135c5760405162461bcd60e51b815260206004820152602660248201527f45524332303a207472616e7366657220616d6f756e7420657863656564732062604482015265616c616e636560d01b6064820152608401610602565b6001600160a01b038085166000908152602081905260408082208585039055918516815290812080548492906113939084906116eb565b92505081905550826001600160a01b0316846001600160a01b03167fddf252ad1be2c89b69c2b068fc378daa952ba7f163c4a11628f55a4df523b3ef846040516113df91815260200190565b60405180910390a3611218565b6001600160a01b0382166114425760405162461bcd60e51b815260206004820152601f60248201527f45524332303a206d696e7420746f20746865207a65726f2061646472657373006044820152606401610602565b806002600082825461145491906116eb565b90915550506001600160a01b038216600090815260208190526040812080548392906114819084906116eb565b90915550506040518181526001600160a01b038316906000907fddf252ad1be2c89b69c2b068fc378daa952ba7f163c4a11628f55a4df523b3ef9060200160405180910390a35050565b6000602082840312156114dd57600080fd5b81356001600160e01b031981168114610a0357600080fd5b600060208083528351808285015260005b8181101561152257858101830151858201604001528201611506565b506000604082860101526040601f19601f8301168501019250505092915050565b80356001600160a01b038116811461155a57600080fd5b919050565b6000806040838503121561157257600080fd5b61157b83611543565b946020939093013593505050565b60008060006060848603121561159e57600080fd5b6115a784611543565b92506115b560208501611543565b9150604084013590509250925092565b6000602082840312156115d757600080fd5b610a0382611543565b6020808252825182820181905260009190848201906040850190845b818110156116215783516001600160a01b0316835292840192918401916001016115fc565b50909695505050505050565b6000806040838503121561164057600080fd5b61164983611543565b915061165760208401611543565b90509250929050565b600181811c9082168061167457607f821691505b60208210810361118657634e487b7160e01b600052602260045260246000fd5b634e487b7160e01b600052601160045260246000fd5b60008160001904831182151516156116c4576116c4611694565b500290565b6000826116e657634e487b7160e01b600052601260045260246000fd5b500490565b808201808211156104cb576104cb611694565b6020808252818101527f4f776e61626c653a2063616c6c6572206973206e6f7420746865206f776e6572604082015260600190565b60208082526038908201527f4552433230436861726974793a2072617465206d75737420626520626574776560408201527f656e203020616e64205f66656544656e6f6d696e61746f720000000000000000606082015260800190565b60208082526029908201527f4552433230436861726974793a20696e76616c69642077686974656c6973746560408201526864206164647265737360b81b606082015260800190565b6000602082840312156117eb57600080fd5b81518015158114610a0357600080fd5b6020808252603b908201527f4552433230436861726974793a207261746520666565206d757374206578636560408201527f656420746865206665652073657420627920746865206f776e65720000000000606082015260800190565b600181815b8085111561189357816000190482111561187957611879611694565b8085161561188657918102915b93841c939080029061185d565b509250929050565b6000826118aa575060016104cb565b816118b7575060006104cb565b81600181146118cd57600281146118d7576118f3565b60019150506104cb565b60ff8411156118e8576118e8611694565b50506001821b6104cb565b5060208310610133831016604e8410600b8410161715611916575081810a6104cb565b6119208383611858565b806000190482111561193457611934611694565b029392505050565b6000610a0360ff84168361189b565b818103818111156104cb576104cb611694565b634e487b7160e01b600052603260045260246000fd5b634e487b7160e01b600052603160045260246000fdfea2646970667358221220b8e5c2adedb2daa11941a65eff35101c0437c3cec7b5e27f509564fe618c574064736f6c63430008100033",
  "linkReferences": {},
  "deployedLinkReferences": {}
}