{
  "_format": "hh-sol-artifact-1",
  "contractName": "CharityToken",
  "sourceName": "contracts/CharityToken.sol",
  "abi": [
    {
      "inputs": [],
      "stateMutability": "nonpayable",
      "type": "constructor"
    },
    {
      "anonymous": false,
      "inputs": [
        {
          "indexed": false,
          "internalType": "address",
          "name": "toAdd",
          "type": "address"
        },
        {
          "indexed": false,
          "internalType": "uint256",
          "name": "rate",
          "type": "uint256"
        }
      ],
      "name": "AddedToWhitelist",
      "type": "event"
    },
    {
      "anonymous": false,
      "inputs": [
        {
          "indexed": true,
          "internalType": "address",
          "name": "owner",
          "type": "address"
        },
        {
          "indexed": true,
          "internalType": "address",
          "name": "spender",
          "type": "address"
        },
        {
          "indexed": false,
          "internalType": "uint256",
          "name": "value",
          "type": "uint256"
        }
      ],
      "name": "Approval",
      "type": "event"
    },
    {
      "anonymous": false,
      "inputs": [
        {
          "indexed": false,
          "internalType": "address",
          "name": "whitelistedAddr",
          "type": "address"
        },
        {
          "indexed": false,
          "internalType": "uint256",
          "name": "rate",
          "type": "uint256"
        }
      ],
      "name": "DonnationAddressAndRateChanged",
      "type": "event"
    },
    {
      "anonymous": false,
      "inputs": [
        {
          "indexed": false,
          "internalType": "address",
          "name": "whitelistedAddr",
          "type": "address"
        }
      ],
      "name": "DonnationAddressChanged",
      "type": "event"
    },
    {
      "anonymous": false,
      "inputs": [
        {
          "indexed": false,
          "internalType": "address",
          "name": "whitelistedAddr",
          "type": "address"
        },
        {
          "indexed": false,
          "internalType": "uint256",
          "name": "rate",
          "type": "uint256"
        }
      ],
      "name": "ModifiedCharityCustumRate",
      "type": "event"
    },
    {
      "anonymous": false,
      "inputs": [
        {
          "indexed": false,
          "internalType": "address",
          "name": "whitelistedAddr",
          "type": "address"
        },
        {
          "indexed": false,
          "internalType": "uint256",
          "name": "rate",
          "type": "uint256"
        }
      ],
      "name": "ModifiedCharityRate",
      "type": "event"
    },
    {
      "anonymous": false,
      "inputs": [
        {
          "indexed": false,
          "internalType": "address",
          "name": "toRemove",
          "type": "address"
        }
      ],
      "name": "RemovedFromWhitelist",
      "type": "event"
    },
    {
      "anonymous": false,
      "inputs": [
        {
          "indexed": true,
          "internalType": "address",
          "name": "from",
          "type": "address"
        },
        {
          "indexed": true,
          "internalType": "address",
          "name": "to",
          "type": "address"
        },
        {
          "indexed": false,
          "internalType": "uint256",
          "name": "value",
          "type": "uint256"
        }
      ],
      "name": "Transfer",
      "type": "event"
    },
    {
      "inputs": [],
      "name": "_owner",
      "outputs": [
        {
          "internalType": "address",
          "name": "",
          "type": "address"
        }
      ],
      "stateMutability": "view",
      "type": "function"
    },
    {
      "inputs": [
        {
          "internalType": "address",
          "name": "toAdd",
          "type": "address"
        },
        {
          "internalType": "uint256",
          "name": "rate",
          "type": "uint256"
        }
      ],
      "name": "addToWhitelist",
      "outputs": [],
      "stateMutability": "nonpayable",
      "type": "function"
    },
    {
      "inputs": [
        {
          "internalType": "address",
          "name": "owner",
          "type": "address"
        },
        {
          "internalType": "address",
          "name": "spender",
          "type": "address"
        }
      ],
      "name": "allowance",
      "outputs": [
        {
          "internalType": "uint256",
          "name": "",
          "type": "uint256"
        }
      ],
      "stateMutability": "view",
      "type": "function"
    },
    {
      "inputs": [
        {
          "internalType": "address",
          "name": "spender",
          "type": "address"
        },
        {
          "internalType": "uint256",
          "name": "amount",
          "type": "uint256"
        }
      ],
      "name": "approve",
      "outputs": [
        {
          "internalType": "bool",
          "name": "",
          "type": "bool"
        }
      ],
      "stateMutability": "nonpayable",
      "type": "function"
    },
    {
      "inputs": [
        {
          "internalType": "address",
          "name": "account",
          "type": "address"
        }
      ],
      "name": "balanceOf",
      "outputs": [
        {
          "internalType": "uint256",
          "name": "",
          "type": "uint256"
        }
      ],
      "stateMutability": "view",
      "type": "function"
    },
    {
      "inputs": [
        {
          "internalType": "address",
          "name": "charityAddr",
          "type": "address"
        }
      ],
      "name": "charityInfo",
      "outputs": [
        {
          "internalType": "bool",
          "name": "whitelisted",
          "type": "bool"
        },
        {
          "internalType": "uint256",
          "name": "defaultRate",
          "type": "uint256"
        },
        {
          "internalType": "address",
          "name": "msgRecipient",
          "type": "address"
        },
        {
          "internalType": "uint256",
          "name": "RecipientRate",
          "type": "uint256"
        },
        {
          "internalType": "uint256",
          "name": "msgRate",
          "type": "uint256"
        }
      ],
      "stateMutability": "view",
      "type": "function"
    },
    {
      "inputs": [
        {
          "internalType": "address",
          "name": "testContract",
          "type": "address"
        }
      ],
      "name": "checkInterface",
      "outputs": [
        {
          "internalType": "bool",
          "name": "",
          "type": "bool"
        }
      ],
      "stateMutability": "view",
      "type": "function"
    },
    {
      "inputs": [],
      "name": "decimals",
      "outputs": [
        {
          "internalType": "uint8",
          "name": "",
          "type": "uint8"
        }
      ],
      "stateMutability": "view",
      "type": "function"
    },
    {
      "inputs": [
        {
          "internalType": "address",
          "name": "spender",
          "type": "address"
        },
        {
          "internalType": "uint256",
          "name": "subtractedValue",
          "type": "uint256"
        }
      ],
      "name": "decreaseAllowance",
      "outputs": [
        {
          "internalType": "bool",
          "name": "",
          "type": "bool"
        }
      ],
      "stateMutability": "nonpayable",
      "type": "function"
    },
    {
      "inputs": [
        {
          "internalType": "address",
          "name": "toRemove",
          "type": "address"
        }
      ],
      "name": "deleteFromWhitelist",
      "outputs": [],
      "stateMutability": "nonpayable",
      "type": "function"
    },
    {
      "inputs": [],
      "name": "deleteRecipient",
      "outputs": [],
      "stateMutability": "nonpayable",
      "type": "function"
    },
    {
      "inputs": [],
      "name": "getAllWhitelistedAddresses",
      "outputs": [
        {
          "internalType": "address[]",
          "name": "",
          "type": "address[]"
        }
      ],
      "stateMutability": "view",
      "type": "function"
    },
    {
      "inputs": [
        {
          "internalType": "address",
          "name": "addr",
          "type": "address"
        }
      ],
      "name": "getRateOf",
      "outputs": [
        {
          "internalType": "uint256",
          "name": "",
          "type": "uint256"
        }
      ],
      "stateMutability": "view",
      "type": "function"
    },
    {
      "inputs": [
        {
          "internalType": "address",
          "name": "addr",
          "type": "address"
        }
      ],
      "name": "getRecipientAddressOf",
      "outputs": [
        {
          "internalType": "address",
          "name": "",
          "type": "address"
        }
      ],
      "stateMutability": "view",
      "type": "function"
    },
    {
      "inputs": [
        {
          "internalType": "address",
          "name": "spender",
          "type": "address"
        },
        {
          "internalType": "uint256",
          "name": "addedValue",
          "type": "uint256"
        }
      ],
      "name": "increaseAllowance",
      "outputs": [
        {
          "internalType": "bool",
          "name": "",
          "type": "bool"
        }
      ],
      "stateMutability": "nonpayable",
      "type": "function"
    },
    {
      "inputs": [
        {
          "internalType": "address",
          "name": "to",
          "type": "address"
        },
        {
          "internalType": "uint256",
          "name": "amount",
          "type": "uint256"
        }
      ],
      "name": "mint",
      "outputs": [],
      "stateMutability": "nonpayable",
      "type": "function"
    },
    {
      "inputs": [],
      "name": "name",
      "outputs": [
        {
          "internalType": "string",
          "name": "",
          "type": "string"
        }
      ],
      "stateMutability": "view",
      "type": "function"
    },
    {
      "inputs": [],
      "name": "owner",
      "outputs": [
        {
          "internalType": "address",
          "name": "",
          "type": "address"
        }
      ],
      "stateMutability": "view",
      "type": "function"
    },
    {
      "inputs": [],
      "name": "selfmint",
      "outputs": [],
      "stateMutability": "nonpayable",
      "type": "function"
    },
    {
      "inputs": [
        {
          "internalType": "uint256",
          "name": "rate",
          "type": "uint256"
        }
      ],
      "name": "setCustumRate",
      "outputs": [],
      "stateMutability": "nonpayable",
      "type": "function"
    },
    {
      "inputs": [
        {
          "internalType": "address",
          "name": "whitelistedAddr",
          "type": "address"
        },
        {
          "internalType": "uint256",
          "name": "rate",
          "type": "uint256"
        }
      ],
      "name": "setRate",
      "outputs": [],
      "stateMutability": "nonpayable",
      "type": "function"
    },
    {
      "inputs": [
        {
          "internalType": "address",
          "name": "whitelistedAddr",
          "type": "address"
        }
      ],
      "name": "setRecipient",
      "outputs": [],
      "stateMutability": "nonpayable",
      "type": "function"
    },
    {
      "inputs": [
        {
          "internalType": "address",
          "name": "whitelistedAddr",
          "type": "address"
        },
        {
          "internalType": "uint256",
          "name": "rate",
          "type": "uint256"
        }
      ],
      "name": "setRecipientAddressAndRate",
      "outputs": [],
      "stateMutability": "nonpayable",
      "type": "function"
    },
    {
      "inputs": [
        {
          "internalType": "bytes4",
          "name": "interfaceId",
          "type": "bytes4"
        }
      ],
      "name": "supportsInterface",
      "outputs": [
        {
          "internalType": "bool",
          "name": "",
          "type": "bool"
        }
      ],
      "stateMutability": "view",
      "type": "function"
    },
    {
      "inputs": [],
      "name": "symbol",
      "outputs": [
        {
          "internalType": "string",
          "name": "",
          "type": "string"
        }
      ],
      "stateMutability": "view",
      "type": "function"
    },
    {
      "inputs": [],
      "name": "totalSupply",
      "outputs": [
        {
          "internalType": "uint256",
          "name": "",
          "type": "uint256"
        }
      ],
      "stateMutability": "view",
      "type": "function"
    },
    {
      "inputs": [
        {
          "internalType": "address",
          "name": "to",
          "type": "address"
        },
        {
          "internalType": "uint256",
          "name": "amount",
          "type": "uint256"
        }
      ],
      "name": "transfer",
      "outputs": [
        {
          "internalType": "bool",
          "name": "",
          "type": "bool"
        }
      ],
      "stateMutability": "nonpayable",
      "type": "function"
    },
    {
      "inputs": [
        {
          "internalType": "address",
          "name": "from",
          "type": "address"
        },
        {
          "internalType": "address",
          "name": "to",
          "type": "address"
        },
        {
          "internalType": "uint256",
          "name": "amount",
          "type": "uint256"
        }
      ],
      "name": "transferFrom",
      "outputs": [
        {
          "internalType": "bool",
          "name": "",
          "type": "bool"
        }
      ],
      "stateMutability": "nonpayable",
      "type": "function"
    },
    {
      "inputs": [
        {
          "internalType": "address",
          "name": "",
          "type": "address"
        }
      ],
      "name": "whitelistedRate",
      "outputs": [
        {
          "internalType": "uint256",
          "name": "",
          "type": "uint256"
        }
      ],
      "stateMutability": "view",
      "type": "function"
    }
  ],
  "bytecode": "0x60806040523480156200001157600080fd5b50604051806040016040528060098152602001682a32b9ba2a37b5b2b760b91b815250604051806040016040528060038152602001621514d560ea1b81525081600390816200006191906200024e565b5060046200007082826200024e565b5050600a80546001600160a01b03191633908117909155620000b7915062000096601290565b620000a390600a6200042f565b620000b19061271062000447565b620000bd565b6200047f565b6001600160a01b038216620001185760405162461bcd60e51b815260206004820152601f60248201527f45524332303a206d696e7420746f20746865207a65726f206164647265737300604482015260640160405180910390fd5b80600260008282546200012c919062000469565b90915550506001600160a01b038216600090815260208190526040812080548392906200015b90849062000469565b90915550506040518181526001600160a01b038316906000907fddf252ad1be2c89b69c2b068fc378daa952ba7f163c4a11628f55a4df523b3ef9060200160405180910390a35050565b505050565b634e487b7160e01b600052604160045260246000fd5b600181811c90821680620001d557607f821691505b602082108103620001f657634e487b7160e01b600052602260045260246000fd5b50919050565b601f821115620001a557600081815260208120601f850160051c81016020861015620002255750805b601f850160051c820191505b81811015620002465782815560010162000231565b505050505050565b81516001600160401b038111156200026a576200026a620001aa565b62000282816200027b8454620001c0565b84620001fc565b602080601f831160018114620002ba5760008415620002a15750858301515b600019600386901b1c1916600185901b17855562000246565b600085815260208120601f198616915b82811015620002eb57888601518255948401946001909101908401620002ca565b50858210156200030a5787850151600019600388901b60f8161c191681555b5050505050600190811b01905550565b634e487b7160e01b600052601160045260246000fd5b600181815b80851115620003715781600019048211156200035557620003556200031a565b808516156200036357918102915b93841c939080029062000335565b509250929050565b6000826200038a5750600162000429565b81620003995750600062000429565b8160018114620003b25760028114620003bd57620003dd565b600191505062000429565b60ff841115620003d157620003d16200031a565b50506001821b62000429565b5060208310610133831016604e8410600b841016171562000402575081810a62000429565b6200040e838362000330565b80600019048211156200042557620004256200031a565b0290505b92915050565b60006200044060ff84168362000379565b9392505050565b60008160001904831182151516156200046457620004646200031a565b500290565b808201808211156200042957620004296200031a565b611a7b806200048f6000396000f3fe608060405234801561001057600080fd5b50600436106101cf5760003560e01c806370a0823111610104578063aa3d1830116100a2578063dd62ed3e11610071578063dd62ed3e14610442578063e8b7893e1461047b578063ecfb5d1714610483578063f0f4e15b1461049657600080fd5b8063aa3d1830146103ff578063b2bdfa7b14610412578063b56eebfb14610425578063d88b16611461043a57600080fd5b806395d89b41116100de57806395d89b4114610386578063991ec6f71461038e578063a457c2d7146103d9578063a9059cbb146103ec57600080fd5b806370a08231146103395780637e875e58146103625780638da5cb5b1461037557600080fd5b8063313ce56711610171578063403af8751161014b578063403af875146102a657806340c10f19146102cf5780635455bce2146102e257806356a265a2146102f557600080fd5b8063313ce5671461027157806339509351146102805780633bbed4a01461029357600080fd5b806318160ddd116101ad57806318160ddd14610224578063214405fc1461023657806323b872dd1461024b5780632bdb70971461025e57600080fd5b806301ffc9a7146101d457806306fdde03146101fc578063095ea7b314610211575b600080fd5b6101e76101e236600461156d565b6104b6565b60405190151581526020015b60405180910390f35b6102046104ed565b6040516101f39190611597565b6101e761021f366004611601565b61057f565b6002545b6040519081526020016101f3565b610249610244366004611601565b6105f4565b005b6101e761025936600461162b565b6106f4565b61024961026c366004611601565b610796565b604051601281526020016101f3565b6101e761028e366004611601565b61086a565b6102496102a1366004611667565b6108a4565b6102286102b4366004611667565b6001600160a01b031660009081526005602052604090205490565b6102496102dd366004611601565b61099e565b6101e76102f0366004611667565b6109d6565b610321610303366004611667565b6001600160a01b039081166000908152600860205260409020541690565b6040516001600160a01b0390911681526020016101f3565b610228610347366004611667565b6001600160a01b031660009081526020819052604090205490565b610249610370366004611601565b610a51565b600a546001600160a01b0316610321565b610204610b56565b6103a161039c366004611667565b610b65565b60408051951515865260208601949094526001600160a01b03909216928401929092526060830191909152608082015260a0016101f3565b6101e76103e7366004611601565b610bcf565b6101e76103fa366004611601565b610c61565b61024961040d366004611682565b610cdc565b600a54610321906001600160a01b031681565b61042d610e24565b6040516101f3919061169b565b610249610e85565b6102286104503660046116e8565b6001600160a01b03918216600090815260016020908152604080832093909416825291909152205490565b610249610ea7565b610249610491366004611667565b610ef8565b6102286104a4366004611667565b60056020526000908152604090205481565b60006001600160e01b03198216630b406ddd60e11b14806104e757506001600160e01b031982166301ffc9a760e01b145b92915050565b6060600380546104fc9061171b565b80601f01602080910402602001604051908101604052809291908181526020018280546105289061171b565b80156105755780601f1061054a57610100808354040283529160200191610575565b820191906000526020600020905b81548152906001019060200180831161055857829003601f168201915b5050505050905090565b60003361058d81858561109a565b336000908152600860205260409020546001600160a01b0316156105ea5760006105b6336111be565b905060006127106105c78387611765565b6105d19190611784565b90506105e783876105e288856117a6565b61109a565b50505b5060019392505050565b600a546001600160a01b031633146106275760405162461bcd60e51b815260040161061e906117b9565b60405180910390fd5b6001600160a01b03821660009081526006602052604081205490036106ad576001600160a01b0382166000818152600560209081526040808320859055600980546001810182557f6e1540171b6c0c960b71a7020d9f60077f6af931a8bbf590da0223dacf75c7af0180546001600160a01b031916861790555493835260069091529020555b604080516001600160a01b0384168152602081018390527f62c1e066774519db9fe35767c15fc33df2f016675b7cc0c330ed185f286a2d5291015b60405180910390a15050565b60003361070285828561122e565b6001600160a01b038581166000908152600860205260409020541615610780576001600160a01b0380861660009081526008602052604081205490911690610749876111be565b9050600061271061075a8388611765565b6107649190611784565b905061077188858361122e565b61077c8884836112c0565b5050505b61078b8585856112c0565b506001949350505050565b600a546001600160a01b031633146107c05760405162461bcd60e51b815260040161061e906117b9565b6127108111156107e25760405162461bcd60e51b815260040161061e906117ee565b6001600160a01b03821660009081526005602052604081205490036108195760405162461bcd60e51b815260040161061e9061184b565b6001600160a01b038216600081815260056020908152604091829020849055815192835282018390527f272200c8484b4881d4bf8552d6783858e314cf8fc05461d9f87fded68327e66a91016106e8565b3360008181526001602090815260408083206001600160a01b03871684529091528120549091906105ea90829086906105e29087906117a6565b6001600160a01b038116600090815260056020526040812054900361091a5760405162461bcd60e51b815260206004820152602660248201527f4552433230436861726974793a20696e76616c69642077686974656c6973746560448201526564207261746560d01b606482015260840161061e565b33600081815260086020908152604080832080546001600160a01b0319166001600160a01b0387169081179091558084526005835281842054948452600783528184208185528352928190209390935591519081527f6d4c462cdec505a621711d5ca414bc431f78e79746ca66270e7aa87947b59ab391015b60405180910390a150565b600a546001600160a01b031633146109c85760405162461bcd60e51b815260040161061e906117b9565b6109d2828261148e565b5050565b6040516301ffc9a760e01b8152630b406ddd60e11b600482015260009081906001600160a01b038416906301ffc9a790602401602060405180830381865afa158015610a26573d6000803e3d6000fd5b505050506040513d601f19601f82011682018060405250810190610a4a9190611894565b9392505050565b612710811115610a735760405162461bcd60e51b815260040161061e906117ee565b6001600160a01b038216600090815260056020526040902054811015610aab5760405162461bcd60e51b815260040161061e906118b6565b6001600160a01b0382166000908152600560205260408120549003610ae25760405162461bcd60e51b815260040161061e9061184b565b33600090815260086020908152604080832080546001600160a01b0319166001600160a01b0387169081179091556007835281842081855283529281902084905580519283529082018390527f21470041ef9ff574315005b52c90c0f22b3499a708aee20330f95853e2583b6991016106e8565b6060600480546104fc9061171b565b6001600160a01b038082166000908152600560208181526040808420543380865260088452828620549096168086529383528185205495855260078352818520848652909252832054929390928315610bc15760019450610bc6565b600094505b91939590929450565b3360008181526001602090815260408083206001600160a01b038716845290915281205490919083811015610c545760405162461bcd60e51b815260206004820152602560248201527f45524332303a2064656372656173656420616c6c6f77616e63652062656c6f77604482015264207a65726f60d81b606482015260840161061e565b61078b828686840361109a565b336000818152600860205260408120549091906001600160a01b031615610cd157336000818152600860205260408120546001600160a01b031691610ca5906111be565b90506000612710610cb68388611765565b610cc09190611784565b9050610ccd8484836112c0565b5050505b6105ea8185856112c0565b612710811115610cfe5760405162461bcd60e51b815260040161061e906117ee565b336000908152600860205260409020546001600160a01b0316610d715760405162461bcd60e51b815260206004820152602560248201527f4552433230436861726974793a206e6f207265676973746572656420726563696044820152641c1a595b9d60da1b606482015260840161061e565b336000908152600860209081526040808320546001600160a01b031683526005909152902054811015610db65760405162461bcd60e51b815260040161061e906118b6565b336000818152600760209081526040808320600880845282852080546001600160a01b03908116875292855283862088905595909452928252925483519216825281018390527fca0b363fd271fc3763c2c2c23802aebb7a4f4851a177be5dc763d58083f692019101610993565b6060600980548060200260200160405190810160405280929190818152602001828054801561057557602002820191906000526020600020905b81546001600160a01b03168152600190910190602001808311610e5e575050505050905090565b610ea533610e956012600a6119f7565b610ea0906064611765565b61148e565b565b33600090815260086020908152604080832080546001600160a01b0319169055519182527f6d4c462cdec505a621711d5ca414bc431f78e79746ca66270e7aa87947b59ab3910160405180910390a1565b600a546001600160a01b03163314610f225760405162461bcd60e51b815260040161061e906117b9565b6001600160a01b03811660009081526006602052604090205480610f785760405162461bcd60e51b815260206004820152600d60248201526c092dcecc2d8d2c840d2dcc8caf609b1b604482015260640161061e565b6009805460009190610f8c90600190611a06565b81548110610f9c57610f9c611a19565b6000918252602090912001546001600160a01b03169050806009610fc1600185611a06565b81548110610fd157610fd1611a19565b600091825260208083209190910180546001600160a01b0319166001600160a01b039485161790559183168152600690915260409020829055600980548061101b5761101b611a2f565b60008281526020808220600019908401810180546001600160a01b03191690559092019092556001600160a01b038516808352600682526040808420849055600583528084209390935591519182527fcdd2e9b91a56913d370075169cefa1602ba36be5301664f752192bb1709df757910160405180910390a1505050565b6001600160a01b0383166110fc5760405162461bcd60e51b8152602060048201526024808201527f45524332303a20617070726f76652066726f6d20746865207a65726f206164646044820152637265737360e01b606482015260840161061e565b6001600160a01b03821661115d5760405162461bcd60e51b815260206004820152602260248201527f45524332303a20617070726f766520746f20746865207a65726f206164647265604482015261737360f01b606482015260840161061e565b6001600160a01b0383811660008181526001602090815260408083209487168084529482529182902085905590518481527f8c5be1e5ebec7d5bd14f71427d1e84f3dd0314c0f7b2291e5b200ac8c7c3b925910160405180910390a3505050565b6001600160a01b0380821660009081526008602090815260408083205460078352818420941680845293825280832054600590925290912054909190158061121e57506001600160a01b0383811660009081526008602052604090205416155b1561122857600091505b50919050565b6001600160a01b0383811660009081526001602090815260408083209386168352929052205460001981146112ba57818110156112ad5760405162461bcd60e51b815260206004820152601d60248201527f45524332303a20696e73756666696369656e7420616c6c6f77616e6365000000604482015260640161061e565b6112ba848484840361109a565b50505050565b6001600160a01b0383166113245760405162461bcd60e51b815260206004820152602560248201527f45524332303a207472616e736665722066726f6d20746865207a65726f206164604482015264647265737360d81b606482015260840161061e565b6001600160a01b0382166113865760405162461bcd60e51b815260206004820152602360248201527f45524332303a207472616e7366657220746f20746865207a65726f206164647260448201526265737360e81b606482015260840161061e565b6001600160a01b038316600090815260208190526040902054818110156113fe5760405162461bcd60e51b815260206004820152602660248201527f45524332303a207472616e7366657220616d6f756e7420657863656564732062604482015265616c616e636560d01b606482015260840161061e565b6001600160a01b038085166000908152602081905260408082208585039055918516815290812080548492906114359084906117a6565b92505081905550826001600160a01b0316846001600160a01b03167fddf252ad1be2c89b69c2b068fc378daa952ba7f163c4a11628f55a4df523b3ef8460405161148191815260200190565b60405180910390a36112ba565b6001600160a01b0382166114e45760405162461bcd60e51b815260206004820152601f60248201527f45524332303a206d696e7420746f20746865207a65726f206164647265737300604482015260640161061e565b80600260008282546114f691906117a6565b90915550506001600160a01b038216600090815260208190526040812080548392906115239084906117a6565b90915550506040518181526001600160a01b038316906000907fddf252ad1be2c89b69c2b068fc378daa952ba7f163c4a11628f55a4df523b3ef9060200160405180910390a35050565b60006020828403121561157f57600080fd5b81356001600160e01b031981168114610a4a57600080fd5b600060208083528351808285015260005b818110156115c4578581018301518582016040015282016115a8565b506000604082860101526040601f19601f8301168501019250505092915050565b80356001600160a01b03811681146115fc57600080fd5b919050565b6000806040838503121561161457600080fd5b61161d836115e5565b946020939093013593505050565b60008060006060848603121561164057600080fd5b611649846115e5565b9250611657602085016115e5565b9150604084013590509250925092565b60006020828403121561167957600080fd5b610a4a826115e5565b60006020828403121561169457600080fd5b5035919050565b6020808252825182820181905260009190848201906040850190845b818110156116dc5783516001600160a01b0316835292840192918401916001016116b7565b50909695505050505050565b600080604083850312156116fb57600080fd5b611704836115e5565b9150611712602084016115e5565b90509250929050565b600181811c9082168061172f57607f821691505b60208210810361122857634e487b7160e01b600052602260045260246000fd5b634e487b7160e01b600052601160045260246000fd5b600081600019048311821515161561177f5761177f61174f565b500290565b6000826117a157634e487b7160e01b600052601260045260246000fd5b500490565b808201808211156104e7576104e761174f565b6020808252818101527f4f776e61626c653a2063616c6c6572206973206e6f7420746865206f776e6572604082015260600190565b60208082526038908201527f4552433230436861726974793a2072617465206d75737420626520626574776560408201527f656e203020616e64205f66656544656e6f6d696e61746f720000000000000000606082015260800190565b60208082526029908201527f4552433230436861726974793a20696e76616c69642077686974656c6973746560408201526864206164647265737360b81b606082015260800190565b6000602082840312156118a657600080fd5b81518015158114610a4a57600080fd5b6020808252603b908201527f4552433230436861726974793a207261746520666565206d757374206578636560408201527f656420746865206665652073657420627920746865206f776e65720000000000606082015260800190565b600181815b8085111561194e5781600019048211156119345761193461174f565b8085161561194157918102915b93841c9390800290611918565b509250929050565b600082611965575060016104e7565b81611972575060006104e7565b81600181146119885760028114611992576119ae565b60019150506104e7565b60ff8411156119a3576119a361174f565b50506001821b6104e7565b5060208310610133831016604e8410600b84101617156119d1575081810a6104e7565b6119db8383611913565b80600019048211156119ef576119ef61174f565b029392505050565b6000610a4a60ff841683611956565b818103818111156104e7576104e761174f565b634e487b7160e01b600052603260045260246000fd5b634e487b7160e01b600052603160045260246000fdfea2646970667358221220c9d8dcefd45edd7f2795f67c8d1ef19734be38239e00407850568c8b05268fa664736f6c63430008100033",
  "linkReferences": {},
  "deployedLinkReferences": {}
}