{
  "_format": "hh-sol-artifact-1",
  "contractName": "CharityToken",
  "sourceName": "contracts/CharityToken.sol",
  "abi": [
    {
      "inputs": [],
      "stateMutability": "nonpayable",
      "type": "constructor"
    },
    {
      "anonymous": false,
      "inputs": [
        {
          "indexed": false,
          "internalType": "address",
          "name": "toAdd",
          "type": "address"
        }
      ],
      "name": "AddedToWhitelist",
      "type": "event"
    },
    {
      "anonymous": false,
      "inputs": [
        {
          "indexed": true,
          "internalType": "address",
          "name": "owner",
          "type": "address"
        },
        {
          "indexed": true,
          "internalType": "address",
          "name": "spender",
          "type": "address"
        },
        {
          "indexed": false,
          "internalType": "uint256",
          "name": "value",
          "type": "uint256"
        }
      ],
      "name": "Approval",
      "type": "event"
    },
    {
      "anonymous": false,
      "inputs": [
        {
          "indexed": false,
          "internalType": "address",
          "name": "whitelistedAddr",
          "type": "address"
        },
        {
          "indexed": false,
          "internalType": "uint256",
          "name": "rate",
          "type": "uint256"
        }
      ],
      "name": "DonnationAddressAndRateChanged",
      "type": "event"
    },
    {
      "anonymous": false,
      "inputs": [
        {
          "indexed": false,
          "internalType": "address",
          "name": "whitelistedAddr",
          "type": "address"
        }
      ],
      "name": "DonnationAddressChanged",
      "type": "event"
    },
    {
      "anonymous": false,
      "inputs": [
        {
          "indexed": false,
          "internalType": "address",
          "name": "whitelistedAddr",
          "type": "address"
        },
        {
          "indexed": false,
          "internalType": "uint256",
          "name": "rate",
          "type": "uint256"
        }
      ],
      "name": "ModifiedCharityRate",
      "type": "event"
    },
    {
      "anonymous": false,
      "inputs": [
        {
          "indexed": true,
          "internalType": "address",
          "name": "previousOwner",
          "type": "address"
        },
        {
          "indexed": true,
          "internalType": "address",
          "name": "newOwner",
          "type": "address"
        }
      ],
      "name": "OwnershipTransferred",
      "type": "event"
    },
    {
      "anonymous": false,
      "inputs": [
        {
          "indexed": false,
          "internalType": "address",
          "name": "toRemove",
          "type": "address"
        }
      ],
      "name": "RemovedFromWhitelist",
      "type": "event"
    },
    {
      "anonymous": false,
      "inputs": [
        {
          "indexed": true,
          "internalType": "address",
          "name": "from",
          "type": "address"
        },
        {
          "indexed": true,
          "internalType": "address",
          "name": "to",
          "type": "address"
        },
        {
          "indexed": false,
          "internalType": "uint256",
          "name": "value",
          "type": "uint256"
        }
      ],
      "name": "Transfer",
      "type": "event"
    },
    {
      "inputs": [],
      "name": "DeleteDefaultAddress",
      "outputs": [],
      "stateMutability": "nonpayable",
      "type": "function"
    },
    {
      "inputs": [],
      "name": "SpecificDefaultAddress",
      "outputs": [
        {
          "internalType": "address",
          "name": "",
          "type": "address"
        }
      ],
      "stateMutability": "view",
      "type": "function"
    },
    {
      "inputs": [
        {
          "internalType": "address",
          "name": "toAdd",
          "type": "address"
        }
      ],
      "name": "addToWhitelist",
      "outputs": [],
      "stateMutability": "nonpayable",
      "type": "function"
    },
    {
      "inputs": [
        {
          "internalType": "address",
          "name": "owner",
          "type": "address"
        },
        {
          "internalType": "address",
          "name": "spender",
          "type": "address"
        }
      ],
      "name": "allowance",
      "outputs": [
        {
          "internalType": "uint256",
          "name": "",
          "type": "uint256"
        }
      ],
      "stateMutability": "view",
      "type": "function"
    },
    {
      "inputs": [
        {
          "internalType": "address",
          "name": "spender",
          "type": "address"
        },
        {
          "internalType": "uint256",
          "name": "amount",
          "type": "uint256"
        }
      ],
      "name": "approve",
      "outputs": [
        {
          "internalType": "bool",
          "name": "",
          "type": "bool"
        }
      ],
      "stateMutability": "nonpayable",
      "type": "function"
    },
    {
      "inputs": [
        {
          "internalType": "address",
          "name": "account",
          "type": "address"
        }
      ],
      "name": "balanceOf",
      "outputs": [
        {
          "internalType": "uint256",
          "name": "",
          "type": "uint256"
        }
      ],
      "stateMutability": "view",
      "type": "function"
    },
    {
      "inputs": [
        {
          "internalType": "address",
          "name": "charityAddr",
          "type": "address"
        }
      ],
      "name": "charityInfo",
      "outputs": [
        {
          "internalType": "bool",
          "name": "",
          "type": "bool"
        },
        {
          "internalType": "uint256",
          "name": "rate",
          "type": "uint256"
        }
      ],
      "stateMutability": "view",
      "type": "function"
    },
    {
      "inputs": [
        {
          "internalType": "address",
          "name": "_contract",
          "type": "address"
        }
      ],
      "name": "checkInterface",
      "outputs": [
        {
          "internalType": "bool",
          "name": "",
          "type": "bool"
        }
      ],
      "stateMutability": "nonpayable",
      "type": "function"
    },
    {
      "inputs": [],
      "name": "decimals",
      "outputs": [
        {
          "internalType": "uint8",
          "name": "",
          "type": "uint8"
        }
      ],
      "stateMutability": "view",
      "type": "function"
    },
    {
      "inputs": [
        {
          "internalType": "address",
          "name": "spender",
          "type": "address"
        },
        {
          "internalType": "uint256",
          "name": "subtractedValue",
          "type": "uint256"
        }
      ],
      "name": "decreaseAllowance",
      "outputs": [
        {
          "internalType": "bool",
          "name": "",
          "type": "bool"
        }
      ],
      "stateMutability": "nonpayable",
      "type": "function"
    },
    {
      "inputs": [
        {
          "internalType": "address",
          "name": "toRemove",
          "type": "address"
        }
      ],
      "name": "deleteFromWhitelist",
      "outputs": [],
      "stateMutability": "nonpayable",
      "type": "function"
    },
    {
      "inputs": [
        {
          "internalType": "address",
          "name": "spender",
          "type": "address"
        },
        {
          "internalType": "uint256",
          "name": "addedValue",
          "type": "uint256"
        }
      ],
      "name": "increaseAllowance",
      "outputs": [
        {
          "internalType": "bool",
          "name": "",
          "type": "bool"
        }
      ],
      "stateMutability": "nonpayable",
      "type": "function"
    },
    {
      "inputs": [
        {
          "internalType": "address",
          "name": "to",
          "type": "address"
        },
        {
          "internalType": "uint256",
          "name": "amount",
          "type": "uint256"
        }
      ],
      "name": "mint",
      "outputs": [],
      "stateMutability": "nonpayable",
      "type": "function"
    },
    {
      "inputs": [],
      "name": "name",
      "outputs": [
        {
          "internalType": "string",
          "name": "",
          "type": "string"
        }
      ],
      "stateMutability": "view",
      "type": "function"
    },
    {
      "inputs": [],
      "name": "owner",
      "outputs": [
        {
          "internalType": "address",
          "name": "",
          "type": "address"
        }
      ],
      "stateMutability": "view",
      "type": "function"
    },
    {
      "inputs": [],
      "name": "renounceOwnership",
      "outputs": [],
      "stateMutability": "nonpayable",
      "type": "function"
    },
    {
      "inputs": [
        {
          "internalType": "address",
          "name": "whitelistedAddr",
          "type": "address"
        }
      ],
      "name": "setSpecificDefaultAddress",
      "outputs": [],
      "stateMutability": "nonpayable",
      "type": "function"
    },
    {
      "inputs": [
        {
          "internalType": "address",
          "name": "whitelistedAddr",
          "type": "address"
        },
        {
          "internalType": "uint256",
          "name": "rate",
          "type": "uint256"
        }
      ],
      "name": "setSpecificDefaultAddressAndRate",
      "outputs": [],
      "stateMutability": "nonpayable",
      "type": "function"
    },
    {
      "inputs": [
        {
          "internalType": "address",
          "name": "whitelistedAddr",
          "type": "address"
        },
        {
          "internalType": "uint256",
          "name": "rate",
          "type": "uint256"
        }
      ],
      "name": "setSpecificRate",
      "outputs": [],
      "stateMutability": "nonpayable",
      "type": "function"
    },
    {
      "inputs": [
        {
          "internalType": "bytes4",
          "name": "interfaceId",
          "type": "bytes4"
        }
      ],
      "name": "supportsInterface",
      "outputs": [
        {
          "internalType": "bool",
          "name": "",
          "type": "bool"
        }
      ],
      "stateMutability": "view",
      "type": "function"
    },
    {
      "inputs": [],
      "name": "symbol",
      "outputs": [
        {
          "internalType": "string",
          "name": "",
          "type": "string"
        }
      ],
      "stateMutability": "view",
      "type": "function"
    },
    {
      "inputs": [],
      "name": "totalSupply",
      "outputs": [
        {
          "internalType": "uint256",
          "name": "",
          "type": "uint256"
        }
      ],
      "stateMutability": "view",
      "type": "function"
    },
    {
      "inputs": [
        {
          "internalType": "address",
          "name": "to",
          "type": "address"
        },
        {
          "internalType": "uint256",
          "name": "amount",
          "type": "uint256"
        }
      ],
      "name": "transfer",
      "outputs": [
        {
          "internalType": "bool",
          "name": "",
          "type": "bool"
        }
      ],
      "stateMutability": "nonpayable",
      "type": "function"
    },
    {
      "inputs": [
        {
          "internalType": "address",
          "name": "from",
          "type": "address"
        },
        {
          "internalType": "address",
          "name": "to",
          "type": "address"
        },
        {
          "internalType": "uint256",
          "name": "amount",
          "type": "uint256"
        }
      ],
      "name": "transferFrom",
      "outputs": [
        {
          "internalType": "bool",
          "name": "",
          "type": "bool"
        }
      ],
      "stateMutability": "nonpayable",
      "type": "function"
    },
    {
      "inputs": [
        {
          "internalType": "address",
          "name": "newOwner",
          "type": "address"
        }
      ],
      "name": "transferOwnership",
      "outputs": [],
      "stateMutability": "nonpayable",
      "type": "function"
    },
    {
      "inputs": [
        {
          "internalType": "address",
          "name": "",
          "type": "address"
        }
      ],
      "name": "whitelistedRate",
      "outputs": [
        {
          "internalType": "uint256",
          "name": "",
          "type": "uint256"
        }
      ],
      "stateMutability": "view",
      "type": "function"
    }
  ],
  "bytecode": "0x60806040523480156200001157600080fd5b50604051806040016040528060098152602001682a32b9ba2a37b5b2b760b91b815250604051806040016040528060038152602001621514d560ea1b81525081600390805190602001906200006892919062000206565b5080516200007e90600490602084019062000206565b5050506200009b62000095620000c860201b60201c565b620000cc565b620000c233620000ae6012600a620003c1565b620000bc90612710620003d9565b6200011e565b62000453565b3390565b600580546001600160a01b038381166001600160a01b0319831681179093556040519116919082907f8be0079c531659141344cd1fd0a4f28419497f9722a3daafe3b4186f6b6457e090600090a35050565b6001600160a01b038216620001795760405162461bcd60e51b815260206004820152601f60248201527f45524332303a206d696e7420746f20746865207a65726f206164647265737300604482015260640160405180910390fd5b80600260008282546200018d9190620003fb565b90915550506001600160a01b03821660009081526020819052604081208054839290620001bc908490620003fb565b90915550506040518181526001600160a01b038316906000907fddf252ad1be2c89b69c2b068fc378daa952ba7f163c4a11628f55a4df523b3ef9060200160405180910390a35050565b828054620002149062000416565b90600052602060002090601f01602090048101928262000238576000855562000283565b82601f106200025357805160ff191683800117855562000283565b8280016001018555821562000283579182015b828111156200028357825182559160200191906001019062000266565b506200029192915062000295565b5090565b5b8082111562000291576000815560010162000296565b634e487b7160e01b600052601160045260246000fd5b600181815b8085111562000303578160001904821115620002e757620002e7620002ac565b80851615620002f557918102915b93841c9390800290620002c7565b509250929050565b6000826200031c57506001620003bb565b816200032b57506000620003bb565b81600181146200034457600281146200034f576200036f565b6001915050620003bb565b60ff841115620003635762000363620002ac565b50506001821b620003bb565b5060208310610133831016604e8410600b841016171562000394575081810a620003bb565b620003a08383620002c2565b8060001904821115620003b757620003b7620002ac565b0290505b92915050565b6000620003d260ff8416836200030b565b9392505050565b6000816000190483118215151615620003f657620003f6620002ac565b500290565b60008219821115620004115762000411620002ac565b500190565b600181811c908216806200042b57607f821691505b602082108114156200044d57634e487b7160e01b600052602260045260246000fd5b50919050565b61162a80620004636000396000f3fe608060405234801561001057600080fd5b506004361061018e5760003560e01c806384f39e1e116100de578063a9059cbb11610097578063e43252d711610071578063e43252d714610398578063ecfb5d17146103ab578063f0f4e15b146103be578063f2fde38b146103de57600080fd5b8063a9059cbb1461032e578063d64f3e8714610341578063dd62ed3e1461035f57600080fd5b806384f39e1e1461029e5780638da5cb5b146102b1578063915dc774146102d657806395d89b41146102e9578063991ec6f7146102f1578063a457c2d71461031b57600080fd5b8063395093511161014b5780634c677803116101255780634c677803146102475780635455bce21461025a57806370a082311461026d578063715018a61461029657600080fd5b8063395093511461021757806340c10f191461022a5780634b24c46f1461023f57600080fd5b806301ffc9a71461019357806306fdde03146101bb578063095ea7b3146101d057806318160ddd146101e357806323b872dd146101f5578063313ce56714610208575b600080fd5b6101a66101a13660046112b5565b6103f1565b60405190151581526020015b60405180910390f35b6101c3610428565b6040516101b291906112df565b6101a66101de366004611350565b6104ba565b6002545b6040519081526020016101b2565b6101a661020336600461137a565b61052f565b604051601281526020016101b2565b6101a6610225366004611350565b6105d1565b61023d610238366004611350565b61060b565b005b61023d61064c565b61023d610255366004611350565b61069d565b6101a66102683660046113b6565b610798565b6101e761027b3660046113b6565b6001600160a01b031660009081526020819052604090205490565b61023d610813565b61023d6102ac366004611350565b610849565b6005546001600160a01b03165b6040516001600160a01b0390911681526020016101b2565b61023d6102e43660046113b6565b6109c3565b6101c3610abb565b6103046102ff3660046113b6565b610aca565b6040805192151583526020830191909152016101b2565b6101a6610329366004611350565b610afb565b6101a661033c366004611350565b610b8d565b336000908152600860205260409020546001600160a01b03166102be565b6101e761036d3660046113d1565b6001600160a01b03918216600090815260016020908152604080832093909416825291909152205490565b61023d6103a63660046113b6565b610c08565b61023d6103b93660046113b6565b610c7f565b6101e76103cc3660046113b6565b60066020526000908152604090205481565b61023d6103ec3660046113b6565b610cf5565b60006001600160e01b03198216632aba895b60e11b148061042257506001600160e01b031982166301ffc9a760e01b145b92915050565b60606003805461043790611404565b80601f016020809104026020016040519081016040528092919081815260200182805461046390611404565b80156104b05780601f10610485576101008083540402835291602001916104b0565b820191906000526020600020905b81548152906001019060200180831161049357829003601f168201915b5050505050905090565b6000336104c8818585610d90565b336000908152600860205260409020546001600160a01b0316156105255760006104f133610eb4565b90506000612710610502838761144f565b61050c919061146e565b9050610522838761051d8885611490565b610d90565b50505b5060019392505050565b60003361053d858285610f24565b6001600160a01b0385811660009081526008602052604090205416156105bb576001600160a01b038086166000908152600860205260408120549091169061058487610eb4565b90506000612710610595838861144f565b61059f919061146e565b90506105ac888583610f24565b6105b7888483610fb6565b5050505b6105c6858585610fb6565b506001949350505050565b3360008181526001602090815260408083206001600160a01b0387168452909152812054909190610525908290869061051d908790611490565b6005546001600160a01b0316331461063e5760405162461bcd60e51b8152600401610635906114a8565b60405180910390fd5b6106488282611184565b5050565b33600090815260086020908152604080832080546001600160a01b0319169055519182527f6d4c462cdec505a621711d5ca414bc431f78e79746ca66270e7aa87947b59ab3910160405180910390a1565b6005546001600160a01b031633146106c75760405162461bcd60e51b8152600401610635906114a8565b6127108111156106e95760405162461bcd60e51b8152600401610635906114dd565b600a81101561070a5760405162461bcd60e51b81526004016106359061153a565b6001600160a01b03821660009081526006602052604090205461073f5760405162461bcd60e51b815260040161063590611589565b6001600160a01b038216600081815260066020908152604091829020849055815192835282018390527f272200c8484b4881d4bf8552d6783858e314cf8fc05461d9f87fded68327e66a91015b60405180910390a15050565b6040516301ffc9a760e01b8152632aba895b60e11b600482015260009081906001600160a01b038416906301ffc9a790602401602060405180830381865afa1580156107e8573d6000803e3d6000fd5b505050506040513d601f19601f8201168201806040525081019061080c91906115d2565b9392505050565b6005546001600160a01b0316331461083d5760405162461bcd60e51b8152600401610635906114a8565b6108476000611263565b565b61271081111561086b5760405162461bcd60e51b8152600401610635906114dd565b600a81101561088c5760405162461bcd60e51b81526004016106359061153a565b6001600160a01b03821660009081526006602052604090205481101561091a5760405162461bcd60e51b815260206004820152603b60248201527f4552433230436861726974793a207261746520666565206d757374206578636560448201527f656420746865206665652073657420627920746865206f776e657200000000006064820152608401610635565b6001600160a01b03821660009081526006602052604090205461094f5760405162461bcd60e51b815260040161063590611589565b33600090815260086020908152604080832080546001600160a01b0319166001600160a01b0387169081179091556007835281842081855283529281902084905580519283529082018390527f21470041ef9ff574315005b52c90c0f22b3499a708aee20330f95853e2583b69910161078c565b6001600160a01b038116600090815260066020526040902054610a375760405162461bcd60e51b815260206004820152602660248201527f4552433230436861726974793a20696e76616c69642077686974656c6973746560448201526564207261746560d01b6064820152608401610635565b33600081815260086020908152604080832080546001600160a01b0319166001600160a01b0387169081179091558084526006835281842054948452600783528184208185528352928190209390935591519081527f6d4c462cdec505a621711d5ca414bc431f78e79746ca66270e7aa87947b59ab391015b60405180910390a150565b60606004805461043790611404565b6001600160a01b0381166000908152600660205260408120548015610af25760019150915091565b60009150915091565b3360008181526001602090815260408083206001600160a01b038716845290915281205490919083811015610b805760405162461bcd60e51b815260206004820152602560248201527f45524332303a2064656372656173656420616c6c6f77616e63652062656c6f77604482015264207a65726f60d81b6064820152608401610635565b6105c68286868403610d90565b336000818152600860205260408120549091906001600160a01b031615610bfd57336000818152600860205260408120546001600160a01b031691610bd190610eb4565b90506000612710610be2838861144f565b610bec919061146e565b9050610bf9848483610fb6565b5050505b610525818585610fb6565b6005546001600160a01b03163314610c325760405162461bcd60e51b8152600401610635906114a8565b6001600160a01b038116600081815260066020908152604091829020600a905590519182527fa850ae9193f515cbae8d35e8925bd2be26627fc91bce650b8652ed254e9cab039101610ab0565b6005546001600160a01b03163314610ca95760405162461bcd60e51b8152600401610635906114a8565b6001600160a01b03811660008181526006602090815260408083209290925590519182527fcdd2e9b91a56913d370075169cefa1602ba36be5301664f752192bb1709df7579101610ab0565b6005546001600160a01b03163314610d1f5760405162461bcd60e51b8152600401610635906114a8565b6001600160a01b038116610d845760405162461bcd60e51b815260206004820152602660248201527f4f776e61626c653a206e6577206f776e657220697320746865207a65726f206160448201526564647265737360d01b6064820152608401610635565b610d8d81611263565b50565b6001600160a01b038316610df25760405162461bcd60e51b8152602060048201526024808201527f45524332303a20617070726f76652066726f6d20746865207a65726f206164646044820152637265737360e01b6064820152608401610635565b6001600160a01b038216610e535760405162461bcd60e51b815260206004820152602260248201527f45524332303a20617070726f766520746f20746865207a65726f206164647265604482015261737360f01b6064820152608401610635565b6001600160a01b0383811660008181526001602090815260408083209487168084529482529182902085905590518481527f8c5be1e5ebec7d5bd14f71427d1e84f3dd0314c0f7b2291e5b200ac8c7c3b925910160405180910390a3505050565b6001600160a01b03808216600090815260086020908152604080832054600783528184209416808452938252808320546006909252909120549091901580610f1457506001600160a01b0383811660009081526008602052604090205416155b15610f1e57600091505b50919050565b6001600160a01b038381166000908152600160209081526040808320938616835292905220546000198114610fb05781811015610fa35760405162461bcd60e51b815260206004820152601d60248201527f45524332303a20696e73756666696369656e7420616c6c6f77616e63650000006044820152606401610635565b610fb08484848403610d90565b50505050565b6001600160a01b03831661101a5760405162461bcd60e51b815260206004820152602560248201527f45524332303a207472616e736665722066726f6d20746865207a65726f206164604482015264647265737360d81b6064820152608401610635565b6001600160a01b03821661107c5760405162461bcd60e51b815260206004820152602360248201527f45524332303a207472616e7366657220746f20746865207a65726f206164647260448201526265737360e81b6064820152608401610635565b6001600160a01b038316600090815260208190526040902054818110156110f45760405162461bcd60e51b815260206004820152602660248201527f45524332303a207472616e7366657220616d6f756e7420657863656564732062604482015265616c616e636560d01b6064820152608401610635565b6001600160a01b0380851660009081526020819052604080822085850390559185168152908120805484929061112b908490611490565b92505081905550826001600160a01b0316846001600160a01b03167fddf252ad1be2c89b69c2b068fc378daa952ba7f163c4a11628f55a4df523b3ef8460405161117791815260200190565b60405180910390a3610fb0565b6001600160a01b0382166111da5760405162461bcd60e51b815260206004820152601f60248201527f45524332303a206d696e7420746f20746865207a65726f2061646472657373006044820152606401610635565b80600260008282546111ec9190611490565b90915550506001600160a01b03821660009081526020819052604081208054839290611219908490611490565b90915550506040518181526001600160a01b038316906000907fddf252ad1be2c89b69c2b068fc378daa952ba7f163c4a11628f55a4df523b3ef9060200160405180910390a35050565b600580546001600160a01b038381166001600160a01b0319831681179093556040519116919082907f8be0079c531659141344cd1fd0a4f28419497f9722a3daafe3b4186f6b6457e090600090a35050565b6000602082840312156112c757600080fd5b81356001600160e01b03198116811461080c57600080fd5b600060208083528351808285015260005b8181101561130c578581018301518582016040015282016112f0565b8181111561131e576000604083870101525b50601f01601f1916929092016040019392505050565b80356001600160a01b038116811461134b57600080fd5b919050565b6000806040838503121561136357600080fd5b61136c83611334565b946020939093013593505050565b60008060006060848603121561138f57600080fd5b61139884611334565b92506113a660208501611334565b9150604084013590509250925092565b6000602082840312156113c857600080fd5b61080c82611334565b600080604083850312156113e457600080fd5b6113ed83611334565b91506113fb60208401611334565b90509250929050565b600181811c9082168061141857607f821691505b60208210811415610f1e57634e487b7160e01b600052602260045260246000fd5b634e487b7160e01b600052601160045260246000fd5b600081600019048311821515161561146957611469611439565b500290565b60008261148b57634e487b7160e01b600052601260045260246000fd5b500490565b600082198211156114a3576114a3611439565b500190565b6020808252818101527f4f776e61626c653a2063616c6c6572206973206e6f7420746865206f776e6572604082015260600190565b60208082526038908201527f4552433230436861726974793a2072617465206d75737420626520626574776560408201527f656e203020616e64205f66656544656e6f6d696e61746f720000000000000000606082015260800190565b6020808252602f908201527f4552433230436861726974793a207261746520666565206d757374206578636560408201526e65642064656661756c74207261746560881b606082015260800190565b60208082526029908201527f4552433230436861726974793a20696e76616c69642077686974656c6973746560408201526864206164647265737360b81b606082015260800190565b6000602082840312156115e457600080fd5b8151801515811461080c57600080fdfea264697066735822122057ae384391300e672c380a570be8d798f6e012746b16c7e20cc7abd5736197d464736f6c634300080c0033",
  "linkReferences": {},
  "deployedLinkReferences": {}
}